:100000000C9494030C94DB030C94DB030C94DB033F
:100010000C94DB030C94DB030C94DB030C94DB03E8
:100020000C94DB030C94DB030C94ED260C94A926B2
:100030000C94602E0C94DB030C94DB030C94DB0318
:100040000C94DB030C94DB030C94DB030C94DB03B8
:100050000C94DB030C943C2E0C94DB030C94DB031C
:100060000C94DB030C94DB030C94DB030C94DB0398
:100070000C94DB030C94DB030C94DB030C94DB0388
:100080000C94DB030C94DB030C94DB030C94DB0378
:100090000C94DB030C94DB030C94DB030C94DB0368
:1000A0000C94DB030C94DB030C94DB03570060001F
:1000B000000057005F00000005010902A101850250
:1000C0000901A10005091901290815002501950854
:1000D000750181020501093009311581257F9502DD
:1000E0007508810609381581257F950175088106F7
:1000F000050C0A38021581257F950175088106C017
:10010000C005010980A101850319012AB700150165
:1001100026B700950175108100C0050C0901A101E9
:10012000850419012AA002150126A0029501751067
:100130008100C005010906A1018505050719E0290F
:10014000E7150025019508750181020507190029A9
:10015000EF1500250195F0750181020508190129A7
:1001600005950575019102950175039101C0066021
:10017000FF0961A1010962150026FF00952075089D
:1001800081020963150026FF00952075089102C0C1
:1001900005010906A101050719E029E71500250158
:1001A00095087501810295017508810105071900FF
:1001B00029FF150026FF009506750881000508191E
:1001C000012905950575019102950175039101C0FD
:1001D000000000000000000000000000000000001F
:1001E000000000000000000000000000000000000F
:1001F000000000007E0F00D4FFFFFFC70000007862
:1002000000000000000000002A2B28000000000071
:1002100000000000000000000000002900000000B5
:100220002C1E3420212224342627252E362D373823
:10023000271E1F202122232425263333362E37382C
:100240001F0405060708090A0B0C0D0E0F101112EA
:10025000131415161718191A1B1C1D2F3130232DB6
:10026000350405060708090A0B0C0D0E0F101112B4
:10027000131415161718191A1B1C1D2F3130354C65
:100280000001010101010101010102020202020259
:10029000020202030303030303030304040404042C
:1002A00004040505050505060606060607070707F3
:1002B0000708080808090909090A0A0A0B0B0B0CA8
:1002C0000C0C0D0D0D0E0E0E0F0F0F101011111145
:1002D00012121313141415151616171718181919C6
:1002E0001A1A1B1B1C1D1D1E1E1F2020212222232B
:1002F0002424252626272829292A2B2C2D2D2E2F6C
:1003000030313232333435363738393A3B3C3D3E82
:100310003F404142434445464748494A4C4D4E4F71
:1003200050515354555658595A5B5D5E5F61626433
:10033000656668696B6C6D6F7072737577787A7BC0
:100340007D7E8082838587888A8C8E8F9193959617
:10035000989A9C9EA0A2A3A5A7A9ABADAFB1B3B537
:10036000B7BABCBEC0C2C4C6C9CBCDCFD1D4D6D813
:10037000DBDDDFE2E4E7E9EBEEF0F3F5F8FAFDFFB1
:10038000FFAA7F5540080706050D0C0B0A11100F38
:10039000161514131A181B120903010002040E1774
:1003A000192223252628292A2C2D2F3032333536A1
:1003B000383A3B3D3E4042434547494A4C4E5051F6
:1003C000535557595A5C5E6062646668696B6D6F1D
:1003D00071737577797B7D7F81838587898A8C8E20
:1003E00090929496989A9C9E9FA1A3A5A7A8AAAC28
:1003F000AEAFB1B3B4B6B8B9BBBCBEBFC1C2C3C562
:10040000C6C7C9CACBCCCDCED0D1D2D2D3D4D5D603
:10041000D7D7D8D9D9DADADBDBDBDCDCDCDCDCDD36
:10042000DDDDDDDCDCDCDCDCDBDBDBDADAD9D9D81A
:10043000D7D7D6D5D4D3D2D2D1D0CECDCCCBCAC9B2
:10044000C7C6C5C3C2C1BFBEBCBBB9B8B6B4B3B1E1
:10045000AFAEACAAA8A7A5A3A19F9E9C9A9896947C
:1004600092908E8C8A89878583817F7D7B79777551
:1004700073716F6D6B6968666462605E5C5A595730
:10048000555351504E4C4A4947454342403E3D3BEF
:100490003A3836353332302F2D2C2A292826252379
:1004A000224E007F004B00000001515400550056C1
:1004B000005F006000610057005C005D005E0000AE
:1004C0000059005A005B0058006200000063000001
:1004D000004F000100500000000100AD002C00534F
:1004E000001450025303532A0001000100010000D0
:1004F00000010001000100005C005C000001000040
:1005000000300001002F00000010500500170011FE
:10051000030D00160007002D01060119011000004F
:100520000011011D03E10057012C000000E2000052
:1005300000805F0100815F00001050B9004A001781
:10054000012B0352002B011A01500051004F0000F3
:1005500000B6002C00B70028004E0000004B000041
:1005600000805F0100815F00001050010001000168
:10057000000100520001000100500051004F000036
:100580000010033D080100530068000000690000EE
:100590000001000100010000000100010001000154
:1005A0000001000100010001000100010001000044
:1005B0000001000100010001000100000001000035
:1005C0000001000100010000000100010001000124
:1005D0000001000100010001000100010001000014
:1005E0000001000100010001000100000001000005
:1005F00000010001000100000001000100010001F4
:1006000000010001000100010001000100010000E3
:1006100000010001000100010001000000010000D4
:1006200000010001000100000001000100010001C3
:1006300000010001000100010001000100010000B3
:1006400000010001000100010001000000010000A4
:100650000001000100010000000100010001000193
:100660000001000100010001000100010001000083
:100670000001000100010001000100000001000074
:10068000001E0F0500047F3F1F643214643214788B
:100690003C1E1E140A0509025B00030100A0FA09B2
:1006A00004000001030101000921110100012240A1
:1006B000000705810308000A090401000203000085
:1006C00000092111010001222200070582032000F8
:1006D00001070503032000010904020001030000D3
:1006E0000009211101000122B60007058403200042
:1006F0000A12011001000000084B41150002000120
:100700000200010A035000530031003700000012BC
:1007100003410054004C0041004E00540049005376
:10072000000000040309040011241FBECFEFDAE02B
:10073000DEBFCDBF04B603FE27C08091BF039091FA
:10074000C003A091C103B091C2038730904BA74072
:10075000B04BD1F41092BF031092C0031092C103AA
:100760001092C20314BE84B7877F84BF0FB6F8947B
:10077000A89580916000886180936000109260006D
:100780000FBEE0E0F8E3099523E0A8ECB1E001C07A
:100790001D92AF3BB207E1F711E0A0E0B1E0ECE859
:1007A000F0E602C005900D92A83CB107D9F70E946F
:1007B000C4270C94F92F0C940000E8EDF0E0808140
:1007C0008E7F80831092E2001092DA001092E10096
:1007D000A0EEB0E08C9181608C9380818F778083D4
:1007E00019BCA7EDB0E08C918E7F8C9380818F7EB9
:1007F00080831092300308952091E4003091E50049
:1008000095E6A9012091EC00822F817020FF06C09F
:100810008091E80080FF06C080E008952091E80004
:1008200022FD1AC080915503882389F0853089F014
:100830008091EB0085FD0FC02091E4003091E50030
:1008400042175307F9F29150E1F684E0089582E0EF
:10085000089583E0089581E00895EF92FF920F9349
:100860001F93CF937C018B010E94FC03C82F811141
:1008700017C08091E80085FD0BC08091E8008E775D
:100880008093E8000E94FC03882399F3C82F08C0D6
:10089000F70181917F018093F1000150110949F71F
:1008A0008C2FCF911F910F91FF90EF900895809121
:1008B000570387FF13C08091E80082FF06C0809134
:1008C000E8008B778093E80004C080915503811184
:1008D000F2CF0895809155038823D9F38091E800E1
:1008E00080FFF8CF8091E8008E77ECCF982F90931F
:1008F000E900242F762F50E0891731F07091EC0039
:100900002091ED005091F00021FD07C09F5F9730CE
:1009100071F78093E90081E008953091EB003E7F0C
:100920003093EB003091ED003D7F3093ED0030913E
:10093000EB0031603093EB007093EC002093ED00FE
:100940005093F0002091EE0027FDE0CF80E0089565
:10095000CF92DF92EF92FF920F931F93CF93DF938B
:10096000C8EDD0E088818F7E8883E7EDF0E080815C
:100970008160808384E082BF81E08093300388813E
:100980008E7F888302EE10E0F80110821092DA0068
:1009900081EEC82ED12CF601108288818F77888352
:1009A00088818068888388818F7D888319BC1092B4
:1009B000550310925603109254031092530390EE75
:1009C000E92EF12CF70180818B7F80838881816003
:1009D000888342E060E080E00E947604F601808136
:1009E0008E7F8083F8018081816080838081886030
:1009F0008083F70180818E7F8083888180618883F6
:100A0000DF91CF911F910F91FF90EF90DF90CF90EA
:100A10000895FC0180915D0390915E03861797070E
:100A2000A0F06115710529F49091E8009E779093EC
:100A3000E80090E06115710551F4911108C08091B2
:100A4000E80082FF34C080E00895BC01F2CF8091BD
:100A500055038823C1F18530C1F18091E80083FD01
:100A600030C08091E80082FDEACF8091E80080FFED
:100A7000E1CF8091F3002091F200382F61157105CC
:100A800019F02830310558F091E02830310509F08F
:100A900090E02091E8002E772093E800CBCF819161
:100AA0008093F100615071092F5F3F4FE7CF809134
:100AB0005503882341F0853041F08091E80083FFA1
:100AC000BECF81E0089582E0089583E008950895FF
:100AD00080E008958091320308959C014FB7F89407
:100AE00080912C0390912D03A0912E03B0912F03A0
:100AF0004FBF821B930B08952FB7F89480912C035E
:100B000090912D03A0912E03B0912F032FBF089534
:100B10008091F00281111092F002089580959091D9
:100B2000EF0298239093EF0208958091EF02909145
:100B3000EE02892B9091ED02892B8093CA0190914E
:100B4000F0029923A1F0892B8093CA018091420180
:100B5000882341F18091FF0287FF24C08EE1ECECF5
:100B6000F1E090E0815000F591110E948805E0913C
:100B70000203F09103033097E1F080914201882352
:100B800059F08091FF0287FF07C08091CA018093CE
:100B9000CB0185E08093CA010280F381E02D8AECCD
:100BA00091E0099486E0DBCF21912223D9F29F5F67
:100BB000D9CF0895909142019923D1F09091FF02ED
:100BC00097FF16C0E82FE695E695E695EE31E0F43E
:100BD000F0E0E653FE4F282F277081E090E001C03F
:100BE000880F2A95EAF78095928189238283089558
:100BF000ECECF1E09191891303C0DF0111971C9295
:100C000091E0E23DF907B1F70895909142019923EF
:100C1000C1F09091FF0297FF14C0E82FE695E6958A
:100C2000E695EE31F8F4F0E0E653FE4F877021E0F0
:100C300030E001C0220F8A95EAF78281822B8283FD
:100C40000895ACECB1E0EFEF90E02D91821751F0F8
:100C5000EF3F19F4211101C0E92F9F5F9630A9F7EA
:100C6000EF3F09F408950E2E000CFF0BE653FE4FE4
:100C7000E6CF990F990F890F982F977086958695D3
:100C8000869525E0829FF0011124E352FD4F50E04C
:100C900040E080E0219130E0092E02C03695279592
:100CA0000A94E2F721703327042E01C0220F0A9420
:100CB000EAF7822B4F5F5F4F4530510559F7089592
:100CC000990F990F890F982F977041E001C0440F39
:100CD0009A95EAF786958695869595E0899FF00125
:100CE0001124E352FD4F30E020E070E05191DF012C
:100CF0001197CB01022E02C0969587950A94E2F7D0
:100D0000817081958527842385278C932F5F3F4FA2
:100D10002530310559F708958091DC029091AB029E
:100D2000981301C008958F5F8770FACF882341F030
:100D300080959091EE0289238093EE020C949505A4
:100D40000895882339F09091EE02982B9093EE024B
:100D50000C9495050895882321F00E948E050C942B
:100D600095050895882339F09091EF02982B909380
:100D7000EF020C9495050895209180023091810234
:100D80002817390771F09093810280938002E091D7
:100D90000203F0910303309721F00084F185E02DE8
:100DA0000994089520917E0230917F022817390717
:100DB00071F090937F0280937E02E0910203F091A4
:100DC0000303309721F00680F781E02D0994089500
:100DD000E0910203F0910303309721F00190F0813C
:100DE000E02D099480E00895CF93DF93EC0181E03A
:100DF000898B8091EF029F81892B8093EF028091F4
:100E0000EE029885892B8093EE020E949505EA8177
:100E1000FB81309739F06C897D89CE010696DF9190
:100E2000CF910994DF91CF910895EF92FF920F93A4
:100E30001F93CF93DF93EC018A85811139C0EB803A
:100E4000FC8087E5F81A26E12E9DC0012F9D900DAC
:100E50001124DC01AA5EBE4F1496ED91FC9115970A
:100E6000309731F054966D917C91845E9E4F099538
:100E700086E18E9D80018F9D100D11240A5E1E4F0C
:100E8000F80187810E948E05F8018085982F909542
:100E90008091EE0289238093EE020E9495051882CC
:100EA00019861B861E821D8210928902109288026A
:100EB000DF91CF911F910F91FF90EF900895FA016C
:100EC000811101C0FB0109948091BA03982F9E7F84
:100ED00061F4817082608093BA038091BD03893C84
:100EE00018F088EC8093BD0308958635B0F38170C7
:100EF0008465F1CFAF92BF92DF92EF92FF920F9392
:100F00001F93CF93DF93182F062FE901493C08F078
:100F100048ECE42FF0E0E058FD4F011110C0E491DF
:100F20005E2F4E2F4983E8835A83DF91CF911F9123
:100F30000F91FF90EF90DF90BF90AF900895202F1A
:100F400030E04491D42EE42EF12C56E0159FC001E0
:100F50001124EFEFF0E0BF010E94A12E812F90E05D
:100F6000880F991F55E5569FD001579FB00D11244A
:100F70008A1B9B0B982F990F890F5F01A21AB30A46
:100F8000AE9CD001AF9CB00DBE9CB00D11245B2F68
:100F9000089F80011124012F11275F01A01AB10AB7
:100FA000AE9C8001AF9C100DBE9C100D11245F0102
:100FB000A81AB108A29EC001A39E900DB29E900DEA
:100FC0001124892F9927E81BF90BEE9DC001EF9D95
:100FD000900DFE9D900D1124E92F62307105A1F056
:100FE00050F46115710509F49DCF6130710581F0F0
:100FF000EB2F512F97CF6430710569F080F0663088
:10100000710509F48FCFF4CFE42F4B2F592F8ACFDE
:10101000E42F412F87CFEB2F542F492F83CF4B2F16
:101020005D2DE12F7FCF0E947C059C0190911803DC
:1010300080911903982B21F030931503209314030A
:1010400090911A0380911B03982B21F03093120387
:1010500020931103E0910203F0910303309749F0CC
:1010600082E0809316030480F581E02D86E193E011
:101070000994089590E080E00E94D20690E080E01C
:101080000E94BC061092EE021092ED020E9495059D
:1010900086E0E6E1F3E0DF011D928A95E9F7109220
:1010A0001303109210031092A4020C94130860937F
:1010B000F1027093F2028093F3029093F4020C9485
:1010C0003A0840911803803F59F48091190387FF33
:1010D0000DC01092190341110BC01092130308C0E8
:1010E000813F81F48091190318169CF3442381F009
:1010F00080911A0390911B03892B09F05AC010921A
:1011000010030895823F49F447FFF0CF109218036F
:10111000809119038111ECCFE0CF833F19F41416AD
:10112000ACF3E4CF90911A03893F29F41916F4F631
:1011300010921A03DBCF8A3F19F497FFD7CFF8CF6D
:1011400090911B038B3F29F497FFD0CF10921B0384
:10115000CDCF8C3F19F41916CCF3C8CF9CE0980F73
:10116000953090F4845F990B21E030E0B90102C022
:10117000660F771F8A95E2F7CB0180959091170350
:10118000892380931703B2CF8D3F31F48091A4025D
:101190008E7F8093A402AACF8E3F21F48091A40277
:1011A0008D7FF7CF8F3F09F0A1CF8091A4028B7F75
:1011B000F0CF0895882309F452C0823871F40E9458
:1011C000E80681FF4CC089E30E9405060E94950550
:1011D00089E30E94DA050C949505833859F40E943E
:1011E000E80680FF3CC083E50E9405060E94950545
:1011F00083E5EFCF843859F40E94E80682FF2FC0C0
:1012000087E40E9405060E94950587E4E2CF9CEFE3
:10121000980F913AF0F290E2980F983050F487705E
:1012200091E001C0990F8A95EAF7892F0E948E05F7
:10123000D2CF9BE5980F933020F490E080E00C949F
:10124000D20698E5980F973120F490E080E00C9456
:10125000BC06803F20F00E9461080C94130808959A
:101260008091A40280FD16C081FD16C082FD16C0CB
:10127000809110038823A1F0883280F428E0829FB7
:10128000C001112468E270E00E94B52E862F672B02
:1012900039F0089582E0089584E0089588E0089583
:1012A00081E008958091A40280FD14C081FD14C0E6
:1012B00082FD16C080911303882381F0843180F46D
:1012C00022E3829FC001112464E170E00E94B52EE8
:1012D000862F08958CE0089589E1089585E00895AA
:1012E00082E30895803F31F40E94520981958093F2
:1012F00019030895813F19F40E945209F8CF823FE3
:1013000031F40E9452098195809318030895833F18
:1013100019F40E945209F8CF893F29F40E9430093C
:1013200080931A0308958A3F21F40E943009819521
:10133000F7CF8B3F31F40E943009819580931B03D6
:1013400008958C3F19F40E943009F8CF9CE0980F63
:10135000953070F4845F990B21E030E001C0220FDA
:101360008A95EAF780911703822B809317030895DB
:101370008D3F31F48091A40281608093A40208958E
:101380008E3F21F48091A4028260F7CF8F3FB9F79E
:101390008091A4028460F1CFF894E82FE295EF7079
:1013A000F0E031A1282F2F7081E090E001C0880F7C
:1013B0002A95EAF7982F9095932391A392A1892BD0
:1013C00082A3789408959091FF0292FF06C0282F7F
:1013D00028712830F9F4877F846093FF06C0282F96
:1013E00028712831F1F4877E84612091000320FF69
:1013F00006C0382F38713830D9F4877F816021FFDB
:1014000006C0282F28712831D1F4877E816194FD90
:10141000877E0895282F24712430F9F68B7F886009
:10142000DCCF282F2471243101F78B7E8861DDCF3A
:10143000382F3171313019F78E7F8860E0CF282F37
:101440002171213121F78E7E8861E1CF809580FF67
:1014500008C0589A81FF07C05D9A82FF06C05C9A57
:1014600008955898F7CF5D98F8CF5C980895CF937A
:10147000DF939C013A9521153F4168F5EC01CC279B
:10148000D170DC01AA27B270AC01442754709C01D2
:101490002227387094FF11C080E1CD2B09F480E041
:1014A000AB2B09F08062452B09F08064232B09F0F7
:1014B0008068FB01DF91CF91099481E0CD2B09F485
:1014C00080E0AB2B09F08260452B09F08460232B70
:1014D00081F38860EECFDF91CF910895CF93DF93B2
:1014E000EC010E94DA08CE01805E9109089720F095
:1014F00066E976E0209711F46BEA76E0CE01DF91A1
:10150000CF910C94370AFC018081813029F4FB01D2
:10151000808191810C946E0A823021F4FB018281DA
:101520009381F8CF0895CF9384E090E00E944E2FEE
:10153000C82F81E290E00E944E2F982F8C2FCF91E0
:1015400008950F931F93CF93DF9328E0629FE001EC
:10155000112450E0440F551FC40FD51F30E3839F63
:10156000C00DD11D1124CE0186960E944E2F082F4A
:1015700010E0102F0027CE0187960E944E2F980171
:10158000282BC901DF91CF911F910F910895462F0C
:101590008A3038F4763028F4643018F4672F0C94CD
:1015A000A10A90E080E00895CF93DF930E94C70ADC
:1015B000EC0182389105A9F1D8F58133910509F440
:1015C00096C048F58932910509F48AC08A9709F4D2
:1015D00095C0C11521E5D20708F0BCC0C11530E5A2
:1015E000D30708F014C1C83ED10508F09CC0C03E26
:1015F000D10560F5C83AD10508F087C0C53AD105D4
:1016000008F0FDC0C130D10509F12097F9F0C430D0
:10161000D105E0F440C08533910509F45AC0C9975B
:10162000C1F68091FF02837089F0C0EED0E00EC059
:10163000833E910599F170F4803E910501F1823E5F
:10164000910539F68091FF0282FD21C0CE01DF9124
:10165000CF910895863E910561F1873E910571F124
:10166000843E910509F0B5CF8091000381FFEECF54
:101670008091FF02C7EED0E084FD0DC0E7CF8091DE
:10168000FF0280FD12C19091000390FFDFCFC3EEF7
:10169000D0E084FFDBCFD0E0C0E0D8CF8091FF0264
:1016A00082FD06C19091000390FDBFCF84FFCECF95
:1016B000F2CF8091FF0283FDDDCFC8CF8091FF0282
:1016C00083FDF9C09091000391FFF0CFC4EED0E00C
:1016D000BDCF8091FF0285FFB9CFC9E2D0E0B6CF80
:1016E0008091FF0285FFB2CFC5E3D0E0AFCF8091FC
:1016F000FF0286FFABCFCAE2D0E0A8CF8091FF0205
:1017000086FFA4CFC1E3D0E0A1CFCF3BD10518F62F
:10171000C85AD0E0CC0FDD1FCF58DE4F0990D881DA
:10172000C02DD46493CFC11540E2D40758F4C1153D
:1017300081E0D80708F08ACFC03FD10508F4ABCFCD
:10174000D06584CFC11590E4D90708F4A4CFDF7029
:10175000D06A7CCFC11525E5D20700F5C11534E567
:10176000D30708F08AC0C11543E5D40708F071C05B
:10177000C11582E5D80708F467C0CE0183709927A8
:1017800021E030E002C0220F331F8A95E2F7C695B0
:10179000C69580E2C89FE001112452C0C11599E5A9
:1017A000D907A8F4C11528E5D20708F06BC0C11508
:1017B00036E5D30708F06FCF8C2F0E94E309C82FBE
:1017C000D0E0DC2FCC27CC27DF71D0623FCFC11512
:1017D0004AE5D40708F45BC0CE01905681159042CB
:1017E00008F059CF8D2F8F710E94E30990E0982F58
:1017F000882788279F719C012C2BE901E6CFC55AC9
:10180000D0E0C259DE4FC881D0E0D0641FCFCE01F6
:10181000E4E096958795EA95E1F783702C2F26955D
:101820002695237040E2249F90011124382B8C2FA1
:101830008370C1E0D0E002C0CC0FDD1F8A95E2F7D3
:10184000C22BD32BDC6802CFDC2FCC27C16FD06A30
:10185000FDCECE018370992721E030E002C0220F37
:10186000331F8A95E2F7C695C69590E2C99FE001BD
:101870001124C22BD32BDA68E9CEDC2FCC27C46F1E
:10188000D06AE4CEDC2FCC27C06FD06ADFCE8C2F9D
:101890008F700E94E30934E0D695C7953A95E1F739
:1018A000CF709C2FEC01D069D1CEC9E3D0E0CECE71
:1018B000C2EED0E0CBCEC6EED0E0C8CEBF92CF9283
:1018C000DF92EF92FF920F931F93CF93DF938C01E0
:1018D000C0905F03D0906003E0906103F0906203DA
:1018E0008091F1029091F202A091F302B091F40282
:1018F000C82AD92AEA2AFB2ACFE1D0E0BC2ED70198
:10190000C6010C2E04C0B695A795979587950A94A5
:10191000D2F780FD0EC0219788F7B12C8B2DDF9177
:10192000CF911F910F91FF90EF90DF90CF90BF90DC
:101930000895B8018C2F0E94D40A019761F3EECF6D
:10194000CF93DF93EC010E945E0CBE01DF91CF913B
:101950000C94D40A0E94A00C292F2F7092959F708E
:1019600092509E3078F4E92FF0E0E550F04D0C9461
:10197000C92E803F19F020F4883E20F481E00895BC
:10198000843FE1F380E00895883EC0F3813FD1F7C2
:10199000F5CF822F86958695869508956F927F92D2
:1019A0008F929F92AF92BF92CF92DF92EF92FF926F
:1019B0000F931F93CF93DF9381EAC82E84E0D82E34
:1019C0000EE510E0E801E09736011CC0F5018590B6
:1019D0009490692DC7010E94622F682DC70101965E
:1019E0000E94622F82E0A80EB11C82E0E80EF11C7A
:1019F000CE15DF0559F788E0680E711C28960C1784
:101A00001D0731F07E0188E0E81AF1085301DECFAE
:101A1000005D1F4F80E3C80ED11C0E3382E0180713
:101A200089F6DF91CF911F910F91FF90EF90DF909A
:101A3000CF90BF90AF909F908F907F906F900895C0
:101A4000CF93DF93C6E0D2E060E0CE010E94622F28
:101A50002196C11584E0D807B9F7DF91CF91089599
:101A6000CF93DF9300D00F92CDB7DEB7909155039F
:101A7000943011F589837B836A839093E9008FEF1B
:101A80009091E800815095FD06C095ED9A95F1F78B
:101A900000008111F5CF8091E80085FF0DC050E076
:101AA00040E063E070E0CE0101960E942D04809139
:101AB000E8008E778093E8000F900F900F90DF91F1
:101AC000CF910895BC0184E00C94300DBC0183E0FB
:101AD0000C94300D9C0184E08093E9009FEF80918D
:101AE000E800915085FD06C085ED8A95F1F700006C
:101AF0009111F5CF8091E80085FF0CC050E040E0E7
:101B000066E070E0C9010E942D048091E8008E77A4
:101B10008093E8000895CF93DF93EC018091420118
:101B20008823B1F18091FF0287FF32C060E284E038
:101B30008093E9008FEF9091E800815095FD06C0F9
:101B400095ED9A95F1F700008111F5CF8091E800AD
:101B500085FF1BC08091420170E050E040E08111A0
:101B600004C050E040E068E070E0CE010E942D0427
:101B70008091E8008E778093E80080E2FE01A3E385
:101B8000B3E001900D928A95E1F7DF91CF9108952E
:101B900068E081E0CDCF81E08093E00080E2809337
:101BA000D8001092C9008FE19EE40197F1F700C0C0
:101BB000000087E090EBDC018093BF039093C003AB
:101BC000A093C103B093C20388E19CE00FB6F894E0
:101BD000A895809360000FBE90936000FFCFCF93D5
:101BE000C82F882309F4AEC08238C1F40E94E806E9
:101BF00081FDA8C089E30E9405060E9495052FEF8C
:101C000081EE94E0215080409040E1F700C0000058
:101C100089E30E94DA05CF910C9495058338A1F4ED
:101C20000E94E80680FD8EC083E50E9405060E94A2
:101C300095052FEF81EE94E0215080409040E1F730
:101C400000C0000083E5E5CF8438A1F40E94E806D7
:101C500082FD78C087E40E9405060E9495052FEF5B
:101C600081EE94E0215080409040E1F700C00000F8
:101C700087E4CFCF8CEF8C0F813A88F580914201B9
:101C8000882301F18091FF0287FF1CC0EC2FE695AD
:101C9000E695E695F0E0E653FE4F828190E04C2F0A
:101CA000477021E030E002C0220F331F4A95E2F76F
:101CB00082239323892B79F08C2F0E94DA050E94CE
:101CC000950509C0ECECF1E08191C817A9F321E07A
:101CD000E23DF207C9F78C2F0E9405069CCF80E2F7
:101CE0008C0F883068F4C77021E030E001C0220F0B
:101CF000CA95EAF78091EF02822B8093EF028BCF97
:101D0000EBE5EC0FE33040F4F0E0E259FE4F808168
:101D100090E0CF910C94D206E8E5EC0FE73150F457
:101D2000F0E0EE0FFF1FEF58FE4F80819181CF91C1
:101D30000C94BC06C03F30F08C2F0E947209CF91EA
:101D40000C941308CF9108951F93CF93DF93182F0E
:101D5000D0E0C0E0893311F4C0E5D0E0812F0E94CB
:101D6000EF0D209731F4812FDF91CF911F910C94CB
:101D7000DA088FE99FE00197F1F700C00000219792
:101D8000F0CF0F931F93CF93DF93C62FD42F022F43
:101D9000FC0182818823A1F0609365030E947C0589
:101DA0009093640380936303C77081E001C0880F40
:101DB000CA95EAF7DF91CF911F910F910C94B2066B
:101DC00080916503681335C080916303909164032B
:101DD0000E946D05883C910560F510E21D0FCD173E
:101DE000B9F080E28C0F883040F4C77081E001C008
:101DF000880FCA95EAF70E94AB06183048F481E0D4
:101E00009D2F977001C0880F9A95EAF70E94B2063D
:101E1000802F0E94A40E183098F4D77081E001C082
:101E2000880FDA95EAF7DF91CF911F910F910C940B
:101E3000AB06C77081E001C0880FCA95EAF7F3CFFF
:101E4000DF91CF911F910F910895DF92EF92FF9252
:101E50000F931F93CF93DF93E82FF0E0E050FE4FF6
:101E6000D490282F26952695269530E0F901E0514B
:101E7000FE4F0491877010E0082E02C0159507955B
:101E80000A94E2F701701127F901E052FE4FE49045
:101E9000F12C082E02C0F594E7940A94E2F791E041
:101EA000E922FF24F901E053FE4FC491D0E002C0C3
:101EB000D595C7958A95E2F7C170DD270115110503
:101EC00019F081EE0E94EF0DE114F10419F086EE95
:101ED0000E94EF0D8D2D0E94A40EEF2819F086EEC2
:101EE0000E94DA08012B19F081EE0E94DA08CD2B4E
:101EF00051F08CE2DF91CF911F910F91FF90EF9005
:101F0000DF900C94A40EDF91CF911F910F91FF9061
:101F1000EF90DF900895CF93DF93EC01805E9109FD
:101F2000089720F061EA76E0209711F462EB76E002
:101F3000CE010E94370A8C2FDF91CF910C94EF0DC8
:101F4000FC018081813029F4FB01808191810C9416
:101F50008B0F823021F4FB0182819381F8CF0895A9
:101F6000CF93DF93EC018881823039F4FB018281C9
:101F700093810E948B0F81E08B87DF91CF91089531
:101F8000CF9390919C02992321F0811116C0109259
:101F90009C02CF910895EC2FF0E0EE0FFF1FE45765
:101FA000FD4F808191810E948B0F0E949505CF5F2C
:101FB00080919C02C81778F3EACFC0E0F9CFAF92C6
:101FC000BF92CF92DF92EF921F93CF93DF93CDB763
:101FD000DEB7C455D1090FB6F894DEBF0FBECDBF32
:101FE0008091BA0380FD0AC0E6E6F3E01182108218
:101FF0001282339683E0EA3BF807C1F775E8A72E13
:1020000073E0B72EDE011196AE014B5A5F4F1A2FC7
:102010007B2FF5018491282F30E0C901880F991F8B
:10202000820F931F8A599C4FFC01C080D180E280AF
:10203000CD92DD92ED92FFEFAF1ABF0AA417B5075C
:1020400041F7279A35B13F7725B120686FB7F894EB
:10205000812F972FFC017191CF01E8E025B9000095
:1020600000C077FF35B9770F000000C000C000C086
:1020700035B900C0EA9591F78417950759F76FBFF6
:102080008FE594E00197F1F700C00000CC5ADF4FD4
:102090000FB6F894DEBF0FBECDBFDF91CF911F9179
:1020A000EF90DF90CF90BF90AF9008951F93CF93A4
:1020B000DF9300D00F92CDB7DEB7142F9091BA0303
:1020C00090FF1AC09E012F5F3F4F462F6FEF0E9477
:1020D0007A071C3189F08B819981412F50E0FA01F8
:1020E000EE0FFF1FE40FF51FEA59FC4F2A812183F1
:1020F000908382830E94DF0F0F900F900F90DF91EB
:10210000CF911F910895CF92DF92EF92FF920F939C
:102110001F93CF93DF936B017C01C701AA27BB27D5
:10212000C0E10097A105B10519F4D701CB01C0E0CA
:10213000492F5A2F6B2F77274115510561057105DE
:1021400019F0C85FDB01CA01AC01BD01E4E076957E
:10215000679557954795EA95D1F741155105610562
:10216000710519F0CC5FDB01CA01AC01BD0132E0A1
:1021700076956795579547953A95D1F7411551054D
:102180006105710519F0CE5FDB01CA01B695A7950F
:1021900097958795892B8A2B8B2B09F0CF5FC230BF
:1021A00009F497C080F4CC2389F1C13009F45FC0F1
:1021B000C701B601DF91CF911F910F91FF90EF9072
:1021C000DF90CF900895C33009F4C2C0C43081F7C6
:1021D000CEE1D0E08C2F4C2F4E51D093EB01C09329
:1021E000EA01242F2D7F213049F0942F9F7E9930D2
:1021F00029F0423119F04B3109F0DCC06CE80E9443
:1022000056102196CA33D10529F7D2CF08E310E042
:102210001093EB010093EA012C2F2D7F802F2130AA
:1022200041F09C2F9F7E993021F0C23111F0CB31CB
:1022300051F44C2F6CE80E945610CF5F0E5F1F4F79
:10224000CC3131F7B5CF222331F0C43021F0CE307C
:1022500011F0C73119F44C2F62E3EDCFC831D9F337
:10226000C331C9F34C2F60E59A3029F7F4CF0FE062
:1022700010E0C0E01093EB010093EA012C2F2D7FBA
:10228000802F213041F09C2F9F7E993021F0C23168
:1022900011F0CB3151F44C2F6CE80E945610CF5FF7
:1022A0000E5F1F4FCC3131F783CF222331F0C43082
:1022B00021F0CE3011F0C73119F44C2F62E3EDCF8D
:1022C000C831D9F3C331C9F34C2F60E59A3029F7EF
:1022D000F4CF0CED10E0C0E00F3F110509F0E0F481
:1022E0001093EB010093EA012C2F2D7F8091EA01DE
:1022F000213041F09C2F9F7E993021F0C23111F0A6
:10230000CB3191F44C2F6CE80E945610CF5F0E5FDA
:102310001F4FCC3109F74CCFC8018F5F91099093C3
:10232000EB018093EA01E0CF222331F0C43021F0A9
:10233000CE3011F0C73119F44C2F62E3E5CFC8312C
:10234000D9F3C331C9F34C2F60E59A30E9F6F4CFE5
:1023500007E810E0C0E01093EB010093EA012C2F96
:102360002D7F802F213041F09C2F9F7E993021F0CE
:10237000C23111F0CB3151F44C2F6CE80E94561051
:10238000CF5F0E5F1F4FCC3131F712CF222331F0D8
:10239000C43021F0CE3011F0C73119F44C2F62E374
:1023A000EDCFC831D9F3C331C9F34C2F60E59A3072
:1023B00029F7F4CF222331F0443021F04E3011F0D0
:1023C000473111F462E31BCF4831E1F34331D1F3DC
:1023D00060E59A3009F013CFF5CF0E948310609327
:1023E0005F037093600380936103909362030C9486
:1023F0003A080F931F9360915F037091600380917F
:102400006103909162038B019C01067011272227C2
:102410003327063011052105310529F468601F9125
:102420000F910C94ED11677FFACF0F931F9341E04A
:1024300050E060E070E004C0440F551F661F771F36
:102440008A95D2F7CB01BA016095709580959095E9
:1024500000915F031091600320916103309162034A
:1024600060237123822393231F910F910C94ED110C
:102470009091EC02809589238093EC02282F27709D
:1024800071F4282F082E000C330B9217130639F025
:102490008595859585950E9415121092EC020895F8
:1024A0000F931F9341E050E060E070E004C0440FE0
:1024B000551F661F771F8A95D2F780915F03909111
:1024C0006003A0916103B09162038A019B01082B14
:1024D000192B2A2B3B2BC901B8011F910F910C948A
:1024E000ED11EF92FF921F93CF93DF93EC0186E6FD
:1024F000E82E83E0F82E10E08C8197014091BD0317
:102500006091BC03810F0E947A07175F83E0E80E99
:10251000F11C1C3F89F70E94DF0F9A818C8190FF8C
:1025200008C08F5F8C83DF91CF911F91FF90EF9058
:1025300008958150F7CFBF92CF92DF92EF92FF9232
:102540000F931F93CF93DF93FC018281DD24DA94F4
:1025500080FD02C0DD24D39406E613E0D0E0C0E0A5
:102560002CE1B22EF80111821082128294E0E92E41
:10257000F12CC12C8091EF018C0D8D310CF43DC0FC
:102580006B2D0E94932E892F082E000C990B8C170F
:102590009D0791F48091BD038E9DA0018F9D500DEC
:1025A0001124559547955595479598016091BC0321
:1025B0008091BB030E947A07CD0CF1E0EF1AF1087D
:1025C000C9F621960D5F1F4FCC31D10559F60E94F7
:1025D000DF0F8091EF0191E0D91215C0811111C078
:1025E0008BE18093EF01DF91CF911F910F91FF90CD
:1025F000EF90DF90CF90BF90089587FFC5CF845EA6
:10260000C3CF8150EECF90E00196BE010E94B52E5F
:10261000E8CF0F931F93CF93DF93C6E6D3E0FE017D
:10262000118210821282339683E0EA3BF807C1F7E9
:1026300010E000E08091F001082E000C990B0817C3
:1026400019078CF180911401082E000C990B80174A
:1026500091074CF19E014091BD036091BC038091B4
:10266000BB030E947A070F5F1F4F23960C311105A1
:1026700009F70E94DF0F809113019091F001980FEC
:102680009093F00120911401280F20931401121649
:1026900014F49B311CF0819580931301DF91CF914D
:1026A0001F910F910895198218821A82DCCF8F92A0
:1026B0009F92AF92BF92CF92DF92EF92FF920F93D1
:1026C0001F93CF93DF93EC014C81042F10E098010E
:1026D000D8010E94EA2F9B01AC010E94B52F4B014B
:1026E0005C01E0E2F0E0E01BF10BA5E5B0E0AC013D
:1026F0009B010E94B52F6B017C019F01DF010E94AD
:10270000D62E9B01AC010E94C02F9B01AC01280D6D
:10271000391D4A1D5B1DC701B6010E94C82FF22E4C
:10272000822F90E039E23F15D8F143E0249F9001D9
:10273000112435952795122F109596E6C92E93E012
:10274000D92E00E085E5E82EEF188E2D01FD8F2DA6
:102750009601412F6091BC030E947A070F5F53E0FE
:10276000C50ED11C0C3189F70E94DF0F9C8181E0DE
:10277000992319F0903219F48FEF8093150180910D
:102780001501890F8C83DF91CF911F910F91FF90DD
:10279000EF90DF90CF90BF90AF909F908F90089573
:1027A00025E530E0A901481B590BCA019A01220F07
:1027B000331F280F391F37FFBCCF2F5F3F4FB9CFD3
:1027C000EF92FF920F931F93CF93DF938C01C6E696
:1027D000D3E0F12CE12CF80194816091BC0380914D
:1027E000BB03FEE0EF16F104FCF49923F9F09E011F
:1027F0004091BD030E947A072FEFE21AF20A239656
:102800008CE1E816F10439F70E94DF0FF8018481AA
:1028100090E00196817099278483DF91CF911F9179
:102820000F91FF90EF900895992309F39E0140E0E6
:10283000E1CF9091BA0390FF0CC0E6E6F3E081830C
:1028400060834283339693E0EA3BF907C1F70C9427
:10285000DF0F08950F931F93CF93DF9300D00F9254
:10286000CDB7DEB78C018091F10181110AC09E01C4
:102870002F5F3F4F48EC6FEF0E947A078A81809369
:10288000F101F8016481613069F08091F10140E06B
:10289000662361F040E0623011F44091F10180E084
:1028A00060E004C06091F10140E080E00E941914F2
:1028B000F801848190E0019663E070E00E94B52EFB
:1028C00084830F900F900F90DF91CF911F910F9104
:1028D0000895CF93DF9300D00F92CDB7DEB79091DC
:1028E000BA0390FF0AC09E012F5F3F4F0E947A07F4
:1028F0004B8169818A810E9419140F900F900F906B
:10290000DF91CF910895CF93DF93EC01EC81F0E05C
:10291000EF55FC4F4491EAEBF3E0628181810E9424
:1029200069148C818F5F8C83DF91CF910895CF9351
:10293000DF93EC01EAEBF3E0438162818C810E943A
:1029400069148C818F5F8C83DF91CF910895BF9242
:10295000CF92DF92EF92FF920F931F93CF93DF936B
:102960009FE9E92E91E0F92EC9EFD2E0C12CD12CDC
:1029700001E010E0F70181917F01F894E82FE295E2
:10298000EF70F0E021A18F70A80102C0440F551F25
:102990008A95E2F7CA01922F982B91A392A1809574
:1029A000892382A3789400C0E5EAF1E030E020E0DA
:1029B000B12C4191A42FA295AF70B0E090968C916C
:1029C00090E04F7002C0959587954A95E2F780FD9B
:1029D00050C0802F022E01C0880F0A94EAF7B82A4F
:1029E0002F5F3F4F2430310521F7F7013197808168
:1029F0000E94CC0955E0C51619F080EA8A95F1F7D6
:102A00008881B816C1F1B88281E0D82AC394219692
:102A1000E6E0CE12AFCFDD2081F181E08093EE01C0
:102A20000E947C059093ED018093EC018091EC0174
:102A30009091ED010E946D05069718F18091F902C1
:102A4000809326038091FA02809327038091FB02F2
:102A5000809328038091FC02809329038091FD02DA
:102A600080932A038091FE0280932B031092EE0143
:102A700008C080E0B4CF80E0C8CF8091EE01811122
:102A8000D5CF80912C0110E006E18F3F09F067C09F
:102A900080912D0181116EC080918702882371F091
:102AA00080918502909186020E946D05893E934037
:102AB00028F082EE0E94DA08109287028091840248
:102AC000882389F080918202909183020E946D0593
:102AD000893E934040F081EE0E94DA0883EE0E9426
:102AE000DA08109284028D2DDF91CF911F910F9102
:102AF000FF90EF90DF90CF90BF900895029FF0017C
:102B0000039FF00D1124EA5EFE4FE288F388E11482
:102B1000F10419F488ECE82EF12C029FE001039FE8
:102B2000D00D1124CA5EDE4F8E818823B9F08D85C9
:102B30009E850E946D05E816F90680F4109F7001CD
:102B400011248989811105C0C7018A5E9E4F0E94A8
:102B5000F406C701845E9E4F0E9415071F5F212F58
:102B600030E080912C01082E000C990B82179307FE
:102B70002CF68ECF80919D02882309F48DCF809111
:102B80009E0290919F02009709F486CF0E946D05E6
:102B90008D32914008F480CF10929D0281E00E9416
:102BA000C00F7ACF4F925F926F927F928F929F92D7
:102BB000AF92BF92CF92DF92EF92FF920F931F934B
:102BC000CF93DF93FC016280448081E08483E1EA5B
:102BD000F3E07490E0E2F4E0E491C2EFD1E036E695
:102BE000E32E33E0F32E4EE7C42E42E0D42E52E023
:102BF000A52EBB24B39488248A94912C55245A94EE
:102C0000E7190E2F10E082E0861530F08091BB03AB
:102C100088838091BC038983411021C01B821A8262
:102C200097014A81698188810E947A07259683E00D
:102C3000E80EF11CCC16DD0631F7DF91CF911F9124
:102C40000F91FF90EF90DF90CF90BF90AF909F904B
:102C50008F907F906F905F904F900C94DF0F8B81DF
:102C60008823E9F081508B83859DC00111246C81FC
:102C700070E00E94A12EFB01FF27EF55FC4F8491CD
:102C8000E82FE719E59DC0011124B8010E94A12E8B
:102C90008091BD03689FB00111247A83C1CF0E9447
:102CA000312F2091BD03269521582A9DA0012B9DEF
:102CB000500D1124452F5527841795070CF0B0CFE0
:102CC00082E0861588F40E94312FB4010E94B52E4F
:102CD00088830E94312F2091BC032695622F70E0DB
:102CE0000E94B52E280F29831A828091BD03893C4A
:102CF00020F088EC8C838B8393CF8431D8F784E1E8
:102D0000F9CF6BEE7EEF90E080E00E94802F60E0D4
:102D100082E090E00E94622F60E083E090E00E94F9
:102D2000622F1092F1021092F2021092F3021092AE
:102D3000F40260E084E090E00E94622F60E081E2B3
:102D400090E00E94622F60E085E090E00E94622F98
:102D500060E086E090E00E94622F6FEF87E090E0F5
:102D60000E94622F40E050E0BA0188E090E00E94AB
:102D7000742F60E08DE090E00E94622F40E050E010
:102D8000BA0188E190E00E94742F60E087E190E052
:102D90000E94622F40E050E0BA018CE190E00E9476
:102DA000742F60E080E290E00E94622F40E050E0EB
:102DB000BA0188E190E00E94742F40E050E0BA012F
:102DC0008FE090E00E94742F40E050E0BA0183E170
:102DD00090E00C94742FCF92DF92EF92FF926B01F0
:102DE0007C010E946407B701A60188E090E0FF9093
:102DF000EF90DF90CF900C94742F5F926F927F9240
:102E00008F929F92AF92BF92CF92DF92EF92FF92FA
:102E10000F931F93CF93DF9300D00F92CDB7DEB700
:102E2000182F762E042F622E9091BA0390FF29C09E
:102E3000E92FE695AE2FB0E0AD5BBE4F8C9180934D
:102E400024039E7F923081F59E012F5F3F4F812F9B
:102E50000E947A074B8169818A810E94191410931C
:102E6000BB037092BC030093BD03662051F06091D8
:102E7000BA037091BB038091BC039091BD030E9483
:102E8000EB160F900F900F90DF91CF911F910F9144
:102E9000FF90EF90DF90CF90BF90AF909F908F907A
:102EA0007F906F905F900895823019F40091BD0378
:102EB000D6CF863019F41091BB03D1CF8930D9F326
:102EC000893169F6E9518E2F8170582EE695F0E030
:102ED000E058FC4FA590B490BB2486E6E82E83E032
:102EE000F82ED12CC12C9CE1892E912CC601B40165
:102EF0000E94A12E812F511013C0860F9701402FE1
:102F0000672D0E947A07CA0CDB1C83E0E80EF11CD7
:102F10008AEBE81683E0F80649F70E94DF0F9FCF9F
:102F2000861BECCFEAEBF3E0438128E0421B08F478
:102F300040E021E0628181810C94FD16EAEBF3E030
:102F4000438128E0420F08F44FEF21E06281818144
:102F50000C94FD16EAEBF3E0628128E0621B08F4B2
:102F600060E021E0438181810C94FD16EAEBF3E0FF
:102F7000628128E0620F08F46FEF21E043818181D4
:102F80000C94FD16EAEBF3E0818121E0438162813C
:102F900088500C94FD16EAEBF3E0818121E0438137
:102FA0006281885F0C94FD168091BE03882319F01E
:102FB00081508093BE036091BA037091BB038091EE
:102FC000BC039091BD030C94EB168091BE0383303B
:102FD00018F48F5F8093BE036091BA037091BB03B6
:102FE0008091BC039091BD030C94EB16EAEBF3E0E7
:102FF00083E0808311828FEF828388E2838314824F
:1030000060817181828193810C94EB161092EF02A2
:1030100080914201ECECF1E0882359F08091FF02AD
:1030200087FF07C08EE1DF011D928A95E9F70C94B6
:103030003A0886E0F8CF1F93CF93DF93CDB7DEB782
:10304000AA970FB6F894DEBF0FBECDBF87E593E019
:103050002091F100DC012D93CD01B3E08F359B076A
:10306000B9F780915803833009F471C0B8F4813006
:1030700009F448C0823009F4B2C08091E80083FFAF
:103080003AC180915703909158039A3008F033C1A8
:10309000E92FF0E0E75FFF4C0C94C92E8A3009F469
:1030A0008DC08B3009F470C0893039F78091570397
:1030B000813219F780915B0390915C03009711F0C6
:1030C0000297D9F68091E800877F8093E80080918D
:1030D000E80082FF37C09091F3008091F2000297E0
:1030E00029F48091F1008B7F813021F48091F100EF
:1030F000809332038091E8008B778093E8000E94F0
:103100005704BBCF80915703813A09F0B6CF809125
:10311000E800877F8093E80080915B0390915C03D7
:10312000892B61F460E283E393E070E00E9409057B
:103130008091E8008B778093E8009FCF60E090E07B
:1031400080E0F3CF809155038111C1CF96CF80915C
:103150005703813A09F091CF80915B0390915C0312
:10316000892B09F08ACF8091E800877F8093E8005F
:103170008091E80080FFFCCF809142018093F100B4
:103180008091E8008E77B9CF80915703813209F0A2
:1031900074CF80915B0390915C03892B09F06DCF14
:1031A0008091E800877F8093E8000E945704809117
:1031B0005903809342010E9406185FCF8091570304
:1031C000813209F05ACF8091E800877F8093E80030
:1031D0000E94570480915A03809331034ECF80910F
:1031E0005703813A09F049CF8091E800877F8093A7
:1031F000E8008091E80080FFFCCF80913103BECFD2
:10320000803899F0823809F076C080915B038F7026
:10321000873008F070C08093E9008091EB0085FB57
:10322000882780F91092E90006C08091530390919D
:103230005403911182609091E800977F9093E80089
:103240008093F1001092F1008091E8008E77B5C173
:10325000882309F4A2C1823009F04DC0809159033E
:103260008111A6C180915B038F702FEF280F26304C
:1032700008F041C08093E9002091EB0020FF98C145
:10328000933031F48091EB0080628093EB0090C129
:103290009091EB0090619093EB0021E030E001C051
:1032A000220F8A95EAF72093EA001092EA008091B3
:1032B000EB008860EACF81111EC0109159031F777F
:1032C0008091E3008078812B8093E3008091E80077
:1032D000877F8093E8000E9457048091E80080FF78
:1032E000FCCF8091E30080688093E30082E01111BD
:1032F00083E0809355038091E80083FF0AC08091AA
:10330000E800877F8093E8008091EB0080628093E3
:10331000EB00AA960FB6F894DEBF0FBECDBFDF91CB
:10332000CF911F9108958058823028F7209159033A
:1033300030915A032C3DE3E03E07A1F583E08A83F8
:103340008AE289834FB7F894DE01139620E03EE0CD
:1033500051E2E32FF0E050935700E49120FF03C0C7
:10336000E295EF703F5FEF708E2F90E0EA30C0F093
:10337000C7968D939D932F5F243159F74FBF80914E
:10338000E800877F8093E8006AE270E0CE01019652
:103390000E9409058091E8008B778093E800ABCF0D
:1033A000C096E7CF80915B0390915C03432F552734
:1033B0004330510509F44AC078F54130510509F40C
:1033C0007AC08BE590E0E6E9F6E04230510509F07D
:1033D00092CF2091E800277F2093E80020915D03A1
:1033E00030915E038217930708F49C0140E0211599
:1033F000310509F065C0411163C08091E80082FD8C
:10340000C9CF80915503882329F2853019F2809124
:10341000E80083FFF2CFBECF4132510509F43CC032
:103420004232510509F067CF8330910508F063CF30
:10343000FC01EE0FFF1FE454FE4F0190F081E02DE0
:1034400087549E4FDC018C9190E01AC033272130C5
:103450003105D1F02115310561F02230310509F037
:103460004ACFE3E0F7E0E4918E2F90E0E3E0F7E06D
:1034700007C0E3E2F7E0E4918E2F90E0E3E2F7E0AB
:10348000009709F438CFA5CFEFE0F7E0E4918E2F55
:1034900090E0EFE0F7E0F4CF8330910508F02BCF18
:1034A000880F991FFC01EE53FE4F0190F081E02D33
:1034B00089E090E08ECF82E190E0E1EFF6E089CF05
:1034C00080915503882309F465CF853009F462CFD4
:1034D0008091E80083FD5ECF8091E80082FD8DCF72
:1034E0008091E80080FF83CF9091F3008091F200FB
:1034F0002115310519F08830910550F041E0089709
:1035000009F040E08091E8008E778093E8006FCF6B
:1035100044914093F1003196215031090196E8CF52
:10352000803809F0E8CE8091E800877F8093E8003A
:10353000809156038093F10087CE8111DCCE1091EB
:103540005903123008F0D7CE8091E800877F80932E
:10355000E800109356030E945704112311F084E0F1
:1035600005C08091E30087FDFACF81E08093550389
:1035700042E061EC81E00E94760442E261EC84E08A
:103580000E94760442E261EC82E00E94760442E20C
:1035900060EC83E00E947604AECE809159038130C6
:1035A00009F0A9CE81E0933009F080E080935403C4
:1035B0001092E9008091E800877F8093E8000E94E4
:1035C000570499CE6091BA03669570E04BE050E0E5
:1035D00088E091E00E94412F892B19F481E08093CB
:1035E00025030E947C0590930803809307030895A8
:1035F0009091BA0390FF36C09170811129C09260FA
:103600009093BA03662351F06091BA037091BB03A3
:103610008091BC039091BD030E94EB166091BA03A8
:10362000669570E04BE050E088E091E00E94412F09
:10363000892BA9F01092250381E080930A0320E0F2
:103640004091BD036091BC038091BB030C94FD16B7
:103650008B3210F09465D4CF880F982BD1CF0E9475
:10366000E21AEACF08958091BA038695815009F451
:103670008AE261E00C94F81A8091BA0386958F5F14
:103680008B3208F081E061E00C94F81A9091BA0353
:1036900090FF07C09695981720F0961710F40C9499
:1036A0003C1B61E00C94F81A3F924F925F926F922C
:1036B0007F928F929F92AF92BF92CF92DF92EF92C2
:1036C000FF920F931F93CF93DF9300D000D00F9200
:1036D000CDB7DEB77C01DC0113968D919C911497D8
:1036E000892B41F08C9111969C9189238F3F11F089
:1036F0000C94FC230F900F900F900F900F90DF9180
:10370000CF911F910F91FF90EF90DF90CF90BF90DE
:10371000AF909F908F907F906F905F904F903F9071
:1037200008950E945E0C182F682F89819A810E944B
:10373000600669817A81812F0E94C70A8C01F70196
:103740008281811111C0D70112968C9181114AC0DA
:1037500000313FE5130709F404C101314FE51407B7
:1037600009F017C782E0FEC080912C018F3F59F30A
:10377000B6E1CB2EB1E0DB2EB12CA12C9924939491
:1037800080912C01082E000C990B8A159B05DCF208
:10379000F60186818823F9F081859285801791074B
:1037A00039F480918802909189028017910799F0ED
:1037B000D6011F969C921F971C961C930E931B97E5
:1037C00051968C91811103C0C6010E94F406C60176
:1037D00006960E941507BFEFAB1ABB0AE6E1CE0EB4
:1037E000D11CCECF980122513F452031310508F040
:1037F000C6C68FEF93E00E944E2F0251A6E0CA2E5C
:10380000A2E0DA2E882389F18091EC02877009F416
:1038100071CFD70112968C91882309F46BCF82E087
:103820000F900F900F900F900F90DF91CF911F91FD
:103830000F91FF90EF90DF90CF90BF90AF909F904F
:103840008F907F906F905F904F903F900C943812C4
:10385000C114F4E0DF06C1F2C6010E944E2F8111AF
:1038600001C001502FEFC21AD20A0111F1CF1C8200
:103870001B82BB24B394FAE0AF2E86010F5F1F4F6B
:10388000C6010E944E2F89831A82882309F4BCCF77
:103890009FEF980F933020F58A83B98232E0C30EF0
:1038A000D11CC8010E944E2F8B83882309F4ACCF12
:1038B0008E010F5F1F4FD8018C918823F1F2813068
:1038C00009F046C011969C91119712968C919130F7
:1038D00049F40E5F1F4F0E94A40E0F5F1F4FEBCFE6
:1038E0006801E6CF923029F40E5F1F4F0E94EF0D62
:1038F000F4CF933029F40E5F1F4F0E94DA08EDCF0A
:10390000943019F00F5F1F4FE8CF0E5F1F4F30E06C
:1039100020E0B8016F5F7F4FF80141818053990B20
:103920008A30910550F021503109B8F28FE99FE0BB
:103930000197F1F700C00000F6CFA29EF001A39E10
:10394000F00D11249C012E0F3F1F842F8B01E1CF1E
:103950000E94250FC2CF81E00E9450120E94F911EF
:1039600053CF81E00E941512F9CF82E0F5CF0238E3
:10397000FFE51F0709F453C003382FE5120709F0CC
:1039800014C6882309F464C080918402811109C09F
:1039900081E08093840281EE0E94EF0D83EE0E940D
:1039A000EF0D0E947C05909383028093820281EE4A
:1039B0000E94EF0D80E513C0882369F18091870292
:1039C000811106C081E08093870282EE0E94EF0D94
:1039D0000E947C0590938602809385028BE20E9470
:1039E000EF0DE3C58823A1F080918702811106C005
:1039F00081E08093870282EE0E94EF0D0E947C0599
:103A0000909386028093850281EE0E94EF0DE6CFAF
:103A100081EE0E94DA088BE20E94DA08C6C588238C
:103A2000A9F080918402811109C081E08093840211
:103A300081EE0E94EF0D83EE0E94EF0D0E947C0547
:103A400090938302809382028FE4C9CF8FE4E4CF06
:103A500080E5E2CF882309F4F6C58189882309F43B
:103A6000F2C5C501845E9E4F0E941507ECC582EE2B
:103A70000E94EF0D2DC688E193E00E948B0F88E134
:103A800093E00E946E0A24C682EE0E94EF0D87E545
:103A90000E94A40E1DC686EE0E94A40E88E1F8CFF7
:103AA000895A30C682EE0E94DA0844C68CE20E942F
:103AB000A40E80918B02882309F43CC689E30E94FE
:103AC000A40E38C688E2FBCF083FFCE51F0789F447
:103AD000D70112968C918823C9F010929D02109202
:103AE0002D0110929F0210929E0281E00E94C00F51
:103AF00034C680912D01093FBCE51B0739F4F7015D
:103B00009281992319F08111E8CF24C6D0902D011C
:103B1000DD2021F11092A1021092A002C12C65E0DB
:103B2000562E88248394912C442443946090A002C0
:103B30007090A10282E06816710468F18091A2027F
:103B4000882309F4ADC00E947C0590939F02809366
:103B50009E0280E00E94C00FC11056CE033FBCE51C
:103B60001B0709F4D3C008F05CC6083DFCE51F073D
:103B700009F4C8C0093D2CE5120709F4D3C0073D7C
:103B80003CE5130709F0E9C526E241EE61EEC70105
:103B90000E94C10E39CE569CF001579CF00D1124A5
:103BA000E25DFE4F808191813FEF20E0E22FF0E067
:103BB000EE0FFF1FE80FF91F4591549104171507E9
:103BC00009F4322F452B11F02F5FF0CF3F3FE9F47E
:103BD000312CC328DD2059F0569CF001579CF00D84
:103BE0001124E25DFE4FDD24D39484818111D12C18
:103BF0005D2D5170D52E8091A0029091A102019669
:103C00009093A1028093A00291CF30909D02D701A2
:103C100012969C91569CF001579CF00D1124E25D88
:103C2000FE4F8481540101C0AA0C3A95EAF799230A
:103C3000B9F0A82AA482332059F2C40102C0880F27
:103C4000991F2A95E2F70197A816190611F68281A5
:103C50009381009711F00E948B0F4092A202B9CF7E
:103C6000A40102C0440F551F2A95E2F79A01215082
:103C700031098217130691F482819381009711F024
:103C80000E946E0A569CF001579CF00D1124E25DD3
:103C9000FE4FA0948481A822A4829BCF312CF2CF26
:103CA000C1100EC081E00E94C00FDD2009F456CF84
:103CB00010929F0210929E0281E080939D024ECF4F
:103CC000D70112968C91882309F49ECD80919D0294
:103CD000882309F499CD0E947C0590939F028093DC
:103CE0009E02E0919C02E83008F08ECD81E08E0FBC
:103CF00080939C02F0E0EE0FFF1FE457FD4F11830D
:103D0000008382CD27E245EE65EE41CF26E241EE0B
:103D100060EE3DCF27E245EE64EE39CF26E241EE7C
:103D200062EE35CF28E241E0EFCF8091FF02806163
:103D30000630FCE51F0709F48BC08091FF02886004
:103D400007301C4508F484C08091FF02806280C067
:103D50008091FF028D7F0C303CE5130709F478C099
:103D600070F48091FF028C600A305CE5150709F45D
:103D70006FC008F47CC08091FF028E7F69C0809183
:103D8000FF02877F0E309CE5190709F461C080911E
:103D9000FF028B7F0F301C4508F45AC08091FF0250
:103DA0008F7E56C00B3FBCE51B0709F458C030F5A9
:103DB0000331FCE51F0709F468C078F401313CE5E4
:103DC000130709F45EC002311C4509F004C50E94C6
:103DD00006188091FF028F773BC005315CE515071F
:103DE00009F45BC008F46FC08091000381600A3F52
:103DF0001C4509F0F0C480930003EDC40F3FACE50F
:103E00001A0709F446C088F4809100038D7F0D3FA6
:103E1000ECE51E0781F3809100038E7F0E3F1C4569
:103E200050F3809100038360E6CF01302DE5120747
:103E300009F452C0F0F160E002301D4509F0CBC436
:103E40008EE090E00E94622FC6C48091FF028160E4
:103E50008093FF02C0C48091FF028460F9CF8091FB
:103E600000038260C8CF8091FF028064F1CF0E947E
:103E700006188091FF028068EBCF8091FF028F7D52
:103E8000E7CF8091FF028F7BE3CF8091FF02837F9A
:103E9000DFCF809100038C7FAECF8091FF0282FB49
:103EA000992790F921E0922790FB82F990FB83F902
:103EB000CFCF80910003982F909591708E7F892BA2
:103EC00090FB81F998CF0E9406189091FF02892FEC
:103ED00097FB87F98058BCCF61E0B2CF8091EF02A9
:103EE00006315CE5150709F0B8C48A7A91E009F457
:103EF00090E09093A302811106C089E20E9405061A
:103F00000E94950581CC85E3F9CF85E3A3C4809118
:103F1000BA0380FF1BC08E7F8093BA036091BA03FF
:103F20007091BB038091BC039091BD030E94EB167E
:103F3000109225038FEF90E7A2E081509040A040BF
:103F4000E1F700C000000E94DF0F5ECC816080932B
:103F5000BA0361E086950E94F81A56CC43E35BE110
:103F60006CE37BE10E945F074FCC4CE35BE163E3D2
:103F70007BE1F8CF42EC57E16BEC77E1F3CF4BEC10
:103F800057E162EC77E1EECF4AEA57E166EB77E181
:103F9000E9CF46EB57E16AEA77E1E4CF42E957E13E
:103FA0006EE977E1DFCF4EE957E162E977E1DACFF9
:103FB00044ED57E165EE77E1D5CF45EE57E164ED8D
:103FC00077E1D0CF61E081E0C6CF65E082E00E947A
:103FD000461B1ACC68E086E0FACF6EE089E0F7CFA6
:103FE00064E18FE0F4CF67E185E1F1CF61E088E142
:103FF000B2CF62E289E1EBCF61E083E2ACCF0115A1
:10400000BCE51B0709F448C00E3D1C4509F451C02E
:10401000F70100811181992309F44EC0C8010E9463
:104020005E0CD82E682FC8010E946006B8018D2D45
:104030000E94D40A8C01882ED7011296DC90129728
:104040001596AC90A2943FE0A3228091EC02877079
:10405000A1F0CD2CDD2091F0812F807F803421F0E4
:1040600080E2800F883048F082E00E943812809110
:10407000EC028770CC24C3948111C12CB12EB29470
:104080002FE0B222BBE0BB1508F44DC0EB2DF0E0F1
:10409000ED5EFF4C0C94C92E0E940618FFEF24E33E
:1040A0003CE0F15020403040E1F700C000000E94A9
:1040B000CB0D0E948116A8CBC8010E943906D82ECC
:1040C000B5CFE12FEF70AE2E107F19F0A29490EFD4
:1040D000A922DD20C9F0AA2069F080E2800F883093
:1040E00010F081100BC08091EF02A82AA092EF027D
:1040F0000E949505802F0E94EF0D15C08091EE0261
:10410000A82AA092EE02F4CF802F0E94DA08AA20FB
:1041100051F0005E083010F081103CC08A2D0E94E2
:104120008E050E949505AB2DA850BB0B149720F46B
:104130000E94E8060E94260ACC2009F4DBCA80917E
:10414000EC0280FDD7CAF701128285958595859589
:104150000E945012C7010E94541B8091EC02859569
:10416000859585950F900F900F900F900F90DF9190
:10417000CF911F910F91FF90EF90DF90CF90BF9064
:10418000AF909F908F907F906F905F904F903F90F7
:104190000C941512A0948091EE02A822A092EE0237
:1041A000C0CFF12FFF709F2E107F103219F0929424
:1041B00080EF9822882089F021E0821679F1DD20B5
:1041C000D1F1AA2089F1D70115968C91159780FF1E
:1041D00091CF8F7015968C9327C0DD2091F0909130
:1041E000F002892D892BA11003C00E94B2069BCF3B
:1041F00031E0A312FACF981709F495CF8093F0021B
:1042000092CFA11006C00E948805892D0E94AB069E
:104210008ACF41E0A41609F486CFF5CFDD2031F036
:1042200055E05A1508F47FCF892DDFCF84E08A1539
:1042300008F479CFEACFAA2041F3B9E38B1209C081
:10424000EFEFF7EE23E0E150F0402040E1F700C04F
:104250000000802F0E94DA0866CF812F8695869510
:10426000837061F0813009F05ECFC8019370D11086
:1042700002C090E080E00E94BC0655CFC801937058
:10428000D11002C090E080E00E94D2064CCF802F77
:10429000DD2029F00E9472090E94130844CF0E9479
:1042A0006108FACF812F837009F066C0D1103BCF2F
:1042B000802F829586958770880F880F602F6F708A
:1042C000462E512C712C612C082E04C0440C551C18
:1042D000661C771C0A94D2F740E050E0BA0104FF54
:1042E0000FC04FE050E060E070E004C0440F551F85
:1042F000661F771F8A95D2F7409550956095709507
:10430000812F869586958370823019F1D8F40091BB
:10431000F1021091F2022091F3023091F402813007
:1043200069F04429552966297729CB01BA01602310
:104330007123822393230E945708F5CE402A512AE5
:10434000622A732ACB01BA01642975298629972923
:10435000F2CF44295529662977290091F10210915D
:10436000F2022091F3023091F402CB01BA016027EE
:10437000712782279327DFCF8695DD2011F0812FCB
:104380008170882309F4CFCE802F8295869587701F
:10439000880F880F602F6F70462E512C712C612C66
:1043A000082E04C0440C551C661C771C0A94D2F7D6
:1043B00040E050E0BA0104FF0FC04FE050E060E081
:1043C00070E004C0440F551F661F771F8A95D2F70F
:1043D0004095509560957095812F86958695837050
:1043E000823019F1D8F400915F031091600320919D
:1043F000610330916203813069F0442955296629AF
:104400007729CB01BA0160237123822393230E9471
:10441000ED1189CE402A512A622A732ACB01BA01B2
:104420006429752986299729F2CF442955296629B7
:10443000772900915F03109160032091610330910F
:104440006203CB01BA016027712782279327DFCF50
:104450001F70DD2029F0812F0E945012802FC5CEC1
:10446000802F0E94AB06812F0E9415125CCE802FF8
:1044700032EF831609F450C0381578F040EF8416F7
:1044800019F151EF851609F43FC0DD2009F467C02A
:10449000A11030CE812F8F713CC093EF891609F4A3
:1044A00040C0A4EF8A12F1CFDD2009F44DC01F7186
:1044B000812F0E945012F8E01F9FC00111248360D9
:1044C0008093EC02812F25C0DD20C9F0B4E0BA153D
:1044D00008F429CE1F7161E070E080E090E004C034
:1044E000660F771F881F991F1A95D2F700915F03F7
:1044F000109160032091610330916203A4CFE5E045
:10450000EA1508F410CEE6CF812F8F71DD2009F473
:10451000ABCF0E94501207CE812F8F71DD20C9F3DF
:10452000A3CF60E070E0CB01DD2009F470CF1F71F4
:1045300061E070E080E090E004C0660F771F881FA4
:10454000991F1A95D2F763CF81E00E94381221E0BB
:104550002A1508F0E8CD82E00E943812E4CDAA20A6
:1045600059F0893309F075CE3FEF47EE53E03150F3
:1045700040405040E1F76BCE812F8F7175CF0031F5
:10458000FFE51F0709F4E7C901312FE5120709F418
:10459000ECC90138AFE51A0709F424CA08F0E7C9E5
:1045A0000038EFE51E0709F407CAC80197558F3F89
:1045B000910511F008F047C020912C01022E000C4B
:1045C000330B2817390714F480932C01D701129666
:1045D0002C91129736E1389F5001399FB00C11246D
:1045E000F501EA5EFE4F6F01208B12969C91868149
:1045F000992309F42FCA128701878F5F86830E944F
:104600007C05D6011E969C938E931D978091F00297
:1046100017968C9317978091EE029091EF02892B59
:1046200018968C931897ED91FC911197309739F06B
:1046300054966D917C91C501845E9E4F09951093AF
:10464000890200938802D70112968C91882369F021
:10465000C801815E9C45059740F46FE1600F60934F
:10466000F5028CE090E00E94622F17FF67C0F7010F
:104670008281882309F462C0E0910203F091030370
:1046800080E0309721F00190F081E02D099586952A
:10469000817080938B029091F502913029F48823E8
:1046A00019F089E30E94A40E8091EF0280938A02A0
:1046B0001092EF028091F502813009F4DCC9882361
:1046C00009F4D5C9823009F4DFC9843009F4E3C99B
:1046D0008FE39CE90197F1F700C000005801E894CE
:1046E000B7F8ECE0CE2ED12CC5010C2C02C096956B
:1046F00087950A94E2F78F7096EF980F963008F43A
:10470000CFC9805D0E94250F94E0C91AD108ACEF93
:10471000CA16AFEFDA0641F78091F502813009F44D
:10472000C5C9882309F4BEC9823009F4BBC98430E5
:1047300009F4C8C980918A028093EF021092A20204
:10474000073FBCE51B0709F0BFC9F7018281882339
:1047500009F4DCC981E080932D01F701928199234E
:1047600009F46FC0109265030230FCE51F0708F4DE
:10477000B5CB06312CE5120738F098012A5F3C458D
:104780002930310508F0AACB0E94930A90930003C8
:104790008093FF0200313CE5130709F46ECB08F06B
:1047A00001CB08305CE5150709F45DCB08F0D0CAF1
:1047B00004309CE5190709F44ECB08F0B6CA023064
:1047C000BCE51B0709F441CB8091FF0282600330F6
:1047D0001C4509F43DCB6091FF021091000384E079
:1047E00090E00E94622F612F81E290E00E94622F90
:1047F0000E9406180C94041C85E0F701DE01119656
:1048000001900D928A95E1F7D70112962C9189813A
:104810009A8121110C94911B0E943906182F0C9437
:10482000991B053F4CE5140709F478CA08F472CACD
:1048300027E245EE66EE063F8CE5180709F4A7C9A6
:104840008CCF06311C4509F0E3CB8091A302811186
:104850005CCB89E20E94DA0553CB8272F801E25CFC
:10486000FC45E431F10508F0CACBE15EFF4C0C9445
:10487000C92E1F93CF93DF938091AA02807FA9F462
:104880008091A702882389F08091DC02D091AB024D
:104890006091A5027091A602A091A802B091A90210
:1048A000C62FC72316E0D81304C0DF91CF911F9104
:1048B000089590E0109711F0CF3F19F4019687709A
:1048C000F2CF189F9001199F300D1124F901E45582
:1048D000FD4F41814713F2CF40814613EFCF428114
:1048E0004111ECCF438154814A1B5B0B483C51057D
:1048F00028F78091AA028F7080618093AA02F90143
:10490000EF54FD4F80818F708061808385EA92E053
:104910000E94541BDF91CF911F910C948C06AF9293
:10492000BF92CF92DF92EF92FF920F931F93CF939C
:10493000DF93CDB7DEB761970FB6F894DEBF0FBE39
:10494000CDBF8C0185E0F801DE011D9601900D922E
:104950008A95E1F7F80180819181E28025EAA22E13
:1049600022E0B22E6091A8027091A9026115710532
:1049700009F43EC13091A5024091A602232F2423C1
:104980002F3F09F435C1C380D480F090A702F6010F
:10499000E61BF70BFF2009F4FBC02091AA02522F5F
:1049A000507FE83CF10508F0BBC0511178C0FE2CE7
:1049B000491321C038131FC0E1101DC02F702061A2
:1049C0002093AA02C5010E94541B8091AA02F801FB
:1049D00085838F2D61960FB6F894DEBF0FBECDBFD5
:1049E000DF91CF911F910F91FF90EF90DF90CF90CB
:1049F000BF90AF900895CD2829F0282F29232F3F6D
:104A000009F014C120E0F22FF170DF2E20FF3DC02D
:104A10002091DC024091AB0256E0241315C08D8733
:104A20009E878D859E850E94A00C292F22952F7030
:104A30002230F8F0243020F59F70F9F0F8019581CC
:104A4000907FD9F4D12C1FC030E0529FF001539FCA
:104A5000F00D1124E455FD4F6181961306C060816D
:104A6000861303C06281E61210C02F5F3F4F27708C
:104A7000D4CF9F7011F0882329F3805E883010F323
:104A8000C8010E94541BFD2CA4CFEE2009F4A1CF35
:104A90008091AA0281608093AA02F12C9ACF4913D7
:104AA00012C0381310C0E1100EC0F8012583C801F0
:104AB0000E94541B86E0F801A5EAB2E001900D9235
:104AC0008A95E1F786CF8D879E878D859E850E948A
:104AD000AA0C882309F1EE20F9F08091AA02803215
:104AE00070F02091A5023091A60238872F83198695
:104AF000DB86CA868C87CE0107960E94541B86E00F
:104B0000F801A5EAB2E001900D928A95E1F70E94C2
:104B10003924FF24F3945DCFC8010E94541BF9CFC0
:104B200051110AC085EA92E00E94541B86E0F5010B
:104B300011928A95E9F7B1CF49130FC038130DC010
:104B4000E1100BC0F8012583C8010E94541B86E0C8
:104B5000F50111928A95E9F73CCF8D879E878D8567
:104B60009E850E94AA0C8823B9F2EE20A9F28091BA
:104B7000AA02803220F22091A5023091A6023A8347
:104B800029831B82DD82CC828E83CE010196B5CF34
:104B9000E83CF105E0F6FE2CEE2009F4BDCF491308
:104BA00016C0381314C08091AA0280FD83CF982FBD
:104BB000907F09F47FCFF8018583903F09F477CF88
:104BC000982F907F905F8F70892B858370CF8D8712
:104BD0009E878D859E850E94AA0C811190CF809121
:104BE000AA0281608093AA02C8010E94541BF1CEE0
:104BF000EE2009F491CF8D879E878D859E850E943A
:104C0000AA0CF82E882309F487CF86E0F801A5EADC
:104C1000B2E001900D928A95E1F78091A502909102
:104C2000A6020E94A00C0E943924D3CE21E02E259A
:104C3000EACE1F93CF93DF93CDB7DEB767970FB65A
:104C4000F894DEBF0FBECDBF342F4B8B252F5C8B6E
:104C50006D8B7E8B8F8B8E899F8961111092EE02F6
:104C60001A8A198A3D872E876F87998B888B86E0F1
:104C7000FE013D96DE01179601900D928A95E1F7AF
:104C8000CE0107960E948F24882389F016E0809138
:104C9000DC029091AB02891349C067960FB6F89475
:104CA000DEBF0FBECDBFDF91CF911F91089586E08B
:104CB000FE013796DE01119601900D928A95E1F77B
:104CC0008A859B85892B11F38F81988589238F3F56
:104CD000E9F22091AB0230E0C90101968770992773
:104CE0004091DC024817190671F40E9406181092D0
:104CF000AB021092DC0286E0E5EAF2E0DF011D92F1
:104D00008A95E9F7C3CF96E0929FD001939FB00DAB
:104D10001124A455BD4FFE01319601900D929A9534
:104D2000E1F78093AB020E948C06B0CF819FC00157
:104D3000112484559D4F0E948F24882309F4ADCF00
:104D40008091DC0290E00196877099278093DC02C5
:104D50009ECF1F920F920FB60F9211242F933F9365
:104D60004F935F936F937F938F939F93AF93BF9373
:104D7000CF93DF93EF93FF93D091E900DF708091A1
:104D8000EC00C82FC17080FDC0E81092E90080914E
:104D9000F000877F8093F00078940E941B18109297
:104DA000E9008091F00088608093F000CD2BCF70F7
:104DB000C093E900FF91EF91DF91CF91BF91AF9147
:104DC0009F918F917F916F915F914F913F912F9123
:104DD0000F900FBE0F901F9018951F920F920FB655
:104DE0000F9211242F933F934F935F936F937F9371
:104DF0008F939F93AF93BF93EF93FF938091E100C5
:104E000082FF09C08091E20082FF05C08091E1002D
:104E10008B7F8093E1008091DA0080FF24C0809135
:104E2000D80080FF20C08091DA008E7F8093DA0066
:104E30008091D90080FF9BC080E189BD82E189BD5E
:104E400009B400FEFDCF81E08093550380913003CB
:104E5000811109C00E94DD030E94A8048091E20034
:104E600084608093E2008091E10080FF17C0809110
:104E7000E20080FF13C08091E2008E7F8093E20009
:104E80008091E20080618093E2008091D80080628E
:104E90008093D80019BC85E0809355038091E10090
:104EA00084FF29C08091E20084FF25C080E189BD94
:104EB00082E189BD89B5982F917080FFFBCF8091E9
:104EC000D8008F7D8093D8008091E1008F7E809301
:104ED000E1008091E2008F7E8093E2008091E20009
:104EE00081608093E20080915603882309F445C0D5
:104EF00084E0809355038091E10083FF27C0809177
:104F0000E20083FF23C08091E100877F8093E1006E
:104F100082E080935503109256038091E1008E7FCA
:104F20008093E1008091E2008E7F8093E200809187
:104F3000E20080618093E20042E060E080E00E9455
:104F400076048091F00088608093F000FF91EF91EB
:104F5000BF91AF919F918F917F916F915F914F9191
:104F60003F912F910F900FBE0F901F90189519BC75
:104F7000109255031092300376CF8091E30087FDA5
:104F800093E090935503B7CFCDB7DEB7EE970FB64A
:104F9000F894DEBF0FBECDBF84B7877F84BF0FB646
:104FA000F894A895809160008861809360001092C9
:104FB00060000FBE80E890E00FB6F8948093610027
:104FC000909361000FBE85B7806885BF85B7806804
:104FD00085BF88E695E09093C9018093C8010E943F
:104FE000DD030E94A8048091E20084608093E200C7
:104FF0007894809155038823A1F01091E9001F70E7
:105000009091EC00892F817090FD80E8182B109210
:10501000E9008091E80083FD0E941B181F70109327
:10502000E90082E084BD93E095BD9AEF97BD80933F
:105030006E0080EF0E94CC0984E30E94CC0985E3D6
:105040000E94CC0986E30E94CC0986E60E94CC0926
:1050500087E60E94CC0986EF0E94CC0987EF0E9468
:10506000CC0983E90E94CC0986E90E94CC09E9EFCA
:10507000F2E08FEF92E0A6E2B3E011921D928E175C
:105080009F07D9F70E94A7148FE39CE90197F1F7D6
:1050900000C000000E94A7148091260380FF17C063
:1050A0006FEF82E290E00E94622F6FEF83E290E068
:1050B0000E94622F6FEF84E290E00E94622F6FEFF8
:1050C0007FEF90E080E00E94802F0E94CB0D90E067
:1050D00080E00E945C2F8B3E9E4F11F00E94811653
:1050E000509A589A559A5D9A549A5C9A8CE090E03E
:1050F0000E944E2F90E0B0E0A0E08093F5029093E4
:10510000F602A093F702B093F80282E290E00E94C8
:105110004E2F813209F084C583E290E00E944E2F29
:10512000863009F07DC584E290E00E944E2F8431E4
:1051300009F076C590E080E00E945C2F8B3E9E4F88
:1051400011F00E94811682E090E00E944E2F809321
:105150001D030E94930A909300038093FF0283E053
:1051600090E00E944E2F682F70E090E080E00E9457
:10517000570860915F037091600380916103909183
:1051800062030E94831080910103811136C090E078
:1051900080E00E945C2F8B3E9E4F21F00E94811682
:1051A0000E94F61788E090E00E94562F6093BA03A1
:1051B0007093BB038093BC039093BD036E7F71F427
:1051C0000E94F61788E090E00E94562F6093BA0381
:1051D0007093BB038093BC039093BD030E9464074C
:1051E000109225038091BA0380FF04C060E0869589
:1051F0000E94F81A81E0809301035198599A5298BD
:105200005A9A89B1869581704A9933C290E0892B68
:1052100080930F038091BA0381608093BA0361E0A9
:1052200086950E94F81A60E081E20E94F81A21E057
:1052300042E36FEF8AE30E94FD1661E070E080E0D8
:1052400090E00E94ED1188E391E090930303809336
:10525000020398E1C92ED12C20E4A22E86E293E02D
:1052600036E0B32EB80E809155039924939400E153
:1052700012E1853009F451C20E94A714882359F025
:105280008FB7F89440912C0350912D0360912E0319
:1052900070912F038FBFEEE1F3E0A6E2B3E010E0E0
:1052A00000E0302F8D919191981709F458C2292F61
:1052B000282790E099249394422F492109F44AC267
:1052C0009DAB3EAB892191E009F490E09FAB0E9439
:1052D0007C058160782F99AF88AF4DA95EA96FA931
:1052E00089AD0E941926F801E25EFC4F8081982664
:1052F0009082809125038823D1F180912403E0914D
:10530000BA03E695E81BE0930903823009F03EC238
:10531000F0E0EE56F94FE4910E2F10E083E8882E6E
:1053200084E1982E80910A03882361F010920A0389
:105330000E947C05909308038093070310920C034E
:1053400010920B030E947C05E0910703F091080383
:105350008E1B9F0B8F3F9F4750F4E00FF11FF09380
:105360000803E093070387E093E0F4010995E091D7
:105370000F03EE0FEE0FE0930F0389B181FBEE24D4
:10538000E0F84A996FC280E08E29E82BE0930F0382
:10539000EF70F0E0E755FE4F808190910E03890F8A
:1053A00080930E0320E084302CF180910D038F5FF9
:1053B00080930D0318AA19AA81E08AAB0E947C058C
:1053C0008160782F9CAB8BAB48A959A96AA98CA99D
:1053D0000E9419261BA61CA61DA60E947C058160A2
:1053E000782F9FA78EA74BA55CA56DA58FA50E94C2
:1053F000192621E080910E038D3F34F580910D0335
:10540000815080930D0312E01EA31FA281E088A7A4
:105410000E947C058160782F9AA789A74EA15FA181
:1054200068A58AA50E94192619A31AA21BA20E9488
:105430007C058160782F9DA38CA349A15AA16BA103
:105440008DA10E94192621E080910E03082E000CE8
:10545000990B64E070E00E94B52E80930E03222326
:1054600059F08FB7F89440912C0350912D0360911F
:105470002E0370912F038FBF86E0E6E1F3E0DE019B
:10548000119601900D928A95E1F790901803809003
:10549000190310911A0300911B0310921803109224
:1054A000190310921A0310921B03892D882909F4FD
:1054B00048C080911403909115030E946D059C01D2
:1054C00090911303992309F4D2C323333105C8F112
:1054D0009F3F19F09F5F90931303992059F00E940A
:1054E00052099FEF19140CF491E0899F802D11242B
:1054F00080931803882059F00E9452099FEF1814D6
:105500000CF491E0899F802D112480931903309130
:1055100018033323B1F020911903222391F045EBB6
:105520003403C0011124992309F49FC190931803F7
:1055300045EB240390011124332309F49AC13093DD
:105540001903812F802B09F448C080911103909199
:1055500012030E946D059C0190911003992309F498
:1055600081C325363105C8F19F3F19F09F5F9093A5
:105570001003112359F00E9430099FEF11160CF40B
:1055800091E0899F802D112480931A03002359F004
:105590000E9430099FEF10160CF491E0899F802D36
:1055A000112480931B0330911A033323B1F020910F
:1055B0001B03222391F045EB3403C00111249923EE
:1055C00009F45BC190931A0345EB24039001112465
:1055D000332309F456C130931B0380911803909133
:1055E0001903892B90911A03892B90911B03892B06
:1055F00011F00E94130886E0FE013196A6E1B3E0A7
:1056000001900D928A95E1F70E94E80690911C03A3
:10561000891731F00E94E80680931C030E94260A35
:1056200080915503843009F01ECE83E08093E90019
:105630008091E80082FF17CE8091E80090E085FF1E
:1056400006C00E94FC03882309F41FC191E08091E9
:10565000E8008B778093E800992309F404CEE98170
:10566000E150E33108F093C1F0E0ED5CFF4C0C94A5
:10567000C92E92E0CCCD80915503843009F440C00E
:1056800080E00E94260A1092250380910603811172
:1056900016C0909206038091BA03982F9170909350
:1056A00005038E7F8093BA034FEF80E792E041506D
:1056B00080409040E1F700C000000E94DF0F109290
:1056C00004030FB6F894A895C09260000FBEA09294
:1056D000600083B7817F846083BF83B7816083BFAD
:1056E0007894889583B78E7F83BF0FB6F894A8957A
:1056F00080916000886180936000109260000FBE0E
:1057000080915403882349F00E94A714E6E2F3E055
:10571000819181116FC2BE12FBCF809155038530FC
:1057200009F4A9CF0E9406180E94E8060E94260AE2
:105730001092060380910503882349F08091BA03F3
:1057400081608093BA0360E086950E94F81A0E94F7
:10575000E21A92CD9F5F990C943009F0ADCD0F5FA6
:105760001F4F0630110509F09CCD8FEF8AAF8BAF2C
:105770001CAE0E947C058160782F9EAF8DAF4AAD34
:105780005BAD6CAD8EAD0E941926B3CD863059F459
:10579000F0E0E157F94FE4910E2F10E0B7E98B2EBE
:1057A000B4E19B2EBFCD893061F4E695F0E0E4577B
:1057B000F94FE4910E2F10E0A1E78A2EA2E19A2E74
:1057C000B1CD8F3061F4E695F0E0E757F94FE49101
:1057D0000E2F10E0FBE98F2EF2E19F2EA3CD853135
:1057E00059F4F0E0EA57F94FE4910E2F10E0E9E0A8
:1057F0008E2EE3E19E2E96CD08E210E057E5852E31
:1058000053E1952E883109F48DCD833249F4E4E8D3
:10581000F6E0059114917AE2872E74E1972E82CDFD
:1058200004EF11E040EE842E43E1942E843209F41B
:1058300079CD00ED17E037E6832E35E0932E8532E3
:1058400009F070CD8E2F63E00E94872EE92FF0E0E3
:10585000EF57F94FE4910E2F10E062ED862E65E1CF
:10586000962E60CD82E090E08FCD81E0809318038A
:105870005FCE81E08093190364CE81E080931A03A8
:10588000A3CE81E080931B03A8CE00E210E0CE01FE
:1058900001964C018091E80085FD0AC08091E800E6
:1058A0008B778093E8000E94FC03882399F3CECE87
:1058B0008091F100F40181934F010150110951F7DA
:1058C000C5CE1A8289E08B832DC08A81823009F48B
:1058D000C0C18330A9F0813009F059C02FB7F894C6
:1058E00060912C0370912D0380912E0390912F03D2
:1058F0002FBF0E94CF2E6B837C838D839E8312C02B
:10590000809126038B83809127038C8380912803C9
:105910008D83809129038E8380912A038F838091C8
:105920002B03888780915503843009F09CCC10911B
:10593000E9001F709091EC00892F817090FD80E844
:10594000182B82E08093E9008091E80080FF0DC071
:1059500050E040E060E270E0CE0101960E942D042C
:105960008091E8008E778093E8001F701093E90023
:105970007ACC8A81823059F46B817C818D819E81C1
:105980000E94CF2E85E290E00E94622FCBCF8FEF56
:105990008983C8CF4C816B818A810E94A10A982794
:1059A000892798279E838D83BDCF8D809E809824E4
:1059B000892498248A810B81F8E00F9F80011124AB
:1059C00020E3829F000D111D11248C8190E0880F2F
:1059D000991F080F191F692DC80186960E94622F12
:1059E000682DC8018796D0CF0E94CE0C9BCF8A81AC
:1059F0008138C1F060F4803809F094CF20E04B8109
:105A00006091BC038091BB030E94FD168BCF82384E
:105A100059F1833809F086CF20E04091BD036C81B5
:105A20008B81F2CF60E08B810E94F81A9B8180917C
:105A3000BA03911111C08E7F8093BA03109225038F
:105A40004FEF80E792E0415080409040E1F700C086
:105A500000000E94DF0F66CF81608093BA0360E090
:105A600086950E94F81A5ECF8B818093BE035ACF31
:105A70008A81813899F030F4803809F053CF8091D1
:105A8000BD0321CF823891F0833809F04BCF80914C
:105A9000BB038B838091BC038C8344CF8091BA037A
:105AA00080FF02C086950FCF80E00DCF8091BE03AE
:105AB0000ACF6091BA037091BB038091BC039091AF
:105AC000BD030E94EB162ECF80E18A832BCF81E0AD
:105AD0008A838AEFF8CE0A811B81102701271027BD
