:100000000C9469030C94B0030C94B0030C94B003EB
:100010000C94B0030C94B0030C94B0030C94B00394
:100020000C94B0030C94B0030C9410210C94CC20CD
:100030000C947B270C94B0030C94B0030C94B00385
:100040000C94B0030C94B0030C94B0030C94B00364
:100050000C94B0030C9457270C94B0030C94B00389
:100060000C94B0030C94B0030C94B0030C94B00344
:100070000C94B0030C94B0030C94B0030C94B00334
:100080000C94B0030C94B0030C94B0030C94B00324
:100090000C94B0030C94B0030C94B0030C94B00314
:1000A0000C94B0030C94B0030C94B00305010980C8
:1000B000A101850319012AB700150126B700950192
:1000C00075108100C0050C0901A101850419012AE0
:1000D000A002150126A002950175108100C005013E
:1000E0000906A1018505050719E029E71500250185
:1000F0009508750181020507190029EF15002501F2
:1001000095F075018102050819012905950575010C
:100110009102950175039101C00660FF0961A1017B
:100120000962150026FF00952075088102096315F4
:100130000026FF00952075089102C005010906A15F
:1001400001050719E029E7150025019508750181CA
:10015000029501750881010507190029FF15002680
:10016000FF00950675088100050819012905950508
:1001700075019102950175039101C0000000000016
:10018000000000000000000000000000000000006F
:100190000000000000000000000000000000007EE1
:1001A0000F00D4FFFFFFC700000078000000000030
:1001B0000000002A2B2800000000000000000000C2
:1001C00000000000000029000000002C1E34202147
:1001D0002224342627252E362D3738271E1F20218E
:1001E00022232425263333362E37381F04050607ED
:1001F00008090A0B0C0D0E0F101112131415161707
:1002000018191A1B1C1D2F3130232D350405060724
:1002100008090A0B0C0D0E0F1011121314151617E6
:1002200018191A1B1C1D2F3130354C00010101011A
:1002300001010101010202020202020202020303A1
:100240000303030303030404040404040405050571
:100250000505060606060607070707070808080833
:10026000090909090A0A0A0B0B0B0C0C0C0D0D0DE0
:100270000E0E0E0F0F0F1010111111121213131476
:1002800014151516161717181819191A1A1B1B1CEE
:100290001D1D1E1E1F202021222223242425262648
:1002A000272829292A2B2C2D2D2E2F30313232337D
:1002B0003435363738393A3B3C3D3E3F4041424386
:1002C0004445464748494A4C4D4E4F50515354556A
:1002D0005658595A5B5D5E5F616264656668696B1A
:1002E0006C6D6F7072737577787A7B7D7E80828398
:1002F0008587888A8C8E8F91939596989A9C9EA0DC
:10030000A2A3A5A7A9ABADAFB1B3B5B7BABCBEC0E8
:10031000C2C4C6C9CBCDCFD1D4D6D8DBDDDFE2E4B1
:10032000E7E9EBEEF0F3F5F8FAFDFFFFAA7F5540A1
:10033000080706050D0C0B0A11100F161514131AD9
:10034000181B120903010002040E17192223252687
:1003500028292A2C2D2F3032333536383A3B3D3E72
:100360004042434547494A4C4E5051535557595ABC
:100370005C5E6062646668696B6D6F7173757779D6
:100380007B7D7F81838587898A8C8E9092949698D5
:100390009A9C9E9FA1A3A5A7A8AAACAEAFB1B3B4E7
:1003A000B6B8B9BBBCBEBFC1C2C3C5C6C7C9CACB3C
:1003B000CCCDCED0D1D2D2D3D4D5D6D7D7D8D9D907
:1003C000DADADBDBDBDCDCDCDCDCDDDDDDDDDCDC70
:1003D000DCDCDCDBDBDBDADAD9D9D8D7D7D6D5D48D
:1003E000D3D2D2D1D0CECDCCCBCAC9C7C6C5C3C259
:1003F000C1BFBEBCBBB9B8B6B4B3B1AFAEACAAA8AE
:10040000A7A5A3A19F9E9C9A98969492908E8C8A61
:1004100089878583817F7D7B79777573716F6D6B3C
:100420006968666462605E5C5A5957555351504E14
:100430004C4A4947454342403E3D3B3A38363533C6
:1004400032302F2D2C2A2928262523224E007F00EA
:100450004B00000001515400550056005F00600041
:10046000610057005C005D005E00000059005A000A
:100470005B00580062000000630000004F000100B4
:10048000500000000100AD002C0053000100025399
:100490000353010001000100010000000100010000
:1004A0000100005C010000000100000030000100BC
:1004B0002F00000010500500170001000D0016006D
:1004C0000700010001000100100000000100010010
:1004D000E10001002C000000E20000004E000100DD
:1004E0004B0000001050B9004A000100010052000A
:1004F00001000100500051004F000000B6002C0028
:10050000B700280001000000010000004E000100BB
:100510004B0000001050B9004A00010001005200D9
:1005200001000100500051004F000000B6002C00F7
:10053000B700280001000000470000000100010092
:100540000100000010500100010001000100010045
:100550000100010050000100010000000100010045
:100560000100010001000000010000000100010085
:100570000100000010500100010001000100010015
:100580000100010050000100010000000100010015
:100590000100010001000000010000000100010055
:1005A00001000000105001000100010001000100E5
:1005B00001000100500001000100000001000100E5
:1005C0000100010001000000010000000100010025
:1005D00001000000105001000100010001000100B5
:1005E00001000100500001000100000001000100B5
:1005F00001000100010000000100000001000100F5
:100600000100000010500100010001000100010084
:100610000100010050000100010000000100010084
:100620000100010001000000010000001E0F050094
:10063000047F3F1F643214643214783C1E1E140A77
:100640000509025B00030100A0FA09040000010390
:100650000101000921110100012240000705810369
:1006600008000A0904010002030000000921110129
:100670000001222200070582032000010705030371
:1006800020000109040200010300000009211101FA
:100690000001226D000705840320000A12011001E9
:1006A000000000084B4115000200010200010A038E
:1006B0005000530031003700000012034100540085
:1006C0004C0041004E005400490053000000040358
:1006D000090411241FBECFEFDAE0DEBFCDBF04B6A0
:1006E00003FE27C080916D0390916E03A0916F036C
:1006F000B09170038730904BA740B04BD1F410926B
:100700006D0310926E0310926F031092700314BE6B
:1007100084B7877F84BF0FB6F894A8958091600056
:10072000886180936000109260000FBEE0E0F8E303
:10073000099523E0A2EAB1E001C01D92AD36B207EF
:10074000E1F711E0A0E0B1E0E2ECF2E502C00590D3
:100750000D92A23AB107D9F70E94E7210C9414290F
:100760000C940000E8EDF0E080818E7F8083109291
:10077000E2001092DA001092E100A0EEB0E08C915D
:1007800081608C9380818F77808319BCA7EDB0E066
:100790008C918E7F8C9380818F7E80831092DA0281
:1007A00008952091E4003091E50095E6A90120919B
:1007B000EC00822F817020FF06C08091E80080FF4E
:1007C00006C080E008952091E80022FD1AC08091C3
:1007D000FF02882389F0853089F08091EB0085FD48
:1007E0000FC02091E4003091E50042175307F9F261
:1007F0009150E1F684E0089582E0089583E0089541
:1008000081E00895EF92FF920F931F93CF937C01A5
:100810008B010E94D103C82F811117C08091E8007D
:1008200085FD0BC08091E8008E778093E8000E94E0
:10083000D103882399F3C82F08C0F70181917F0164
:100840008093F1000150110949F78C2FCF911F912E
:100850000F91FF90EF9008958091010387FF13C0DF
:100860008091E80082FF06C08091E8008B7780933A
:10087000E80004C08091FF028111F2CF08958091B9
:10088000FF028823D9F38091E80080FFF8CF8091A0
:10089000E8008E77ECCF982F9093E900242F762FE5
:1008A00050E0891731F07091EC002091ED005091EB
:1008B000F00021FD07C09F5F973071F78093E9003A
:1008C00081E008953091EB003E7F3093EB00309152
:1008D000ED003D7F3093ED003091EB0031603093BF
:1008E000EB007093EC002093ED005093F00020910A
:1008F000EE0027FDE0CF80E00895CF92DF92EF92E7
:10090000FF920F931F93CF93DF93C8EDD0E08881C0
:100910008F7E8883E7EDF0E080818160808384E0D2
:1009200082BF81E08093DA0288818E7F888302EE25
:1009300010E0F80110821092DA0081EEC82ED12C5E
:10094000F601108288818F77888388818068888308
:1009500088818F7D888319BC1092FF02109200035A
:100960001092FE021092FD0290EEE92EF12CF7019A
:1009700080818B7F808388818160888342E060E012
:1009800080E00E944B04F60180818E7F8083F80115
:10099000808181608083808188608083F70180818D
:1009A0008E7F8083888180618883DF91CF911F91C2
:1009B0000F91FF90EF90DF90CF900895FC01809110
:1009C00007039091080386179707A0F0611571053A
:1009D00029F49091E8009E779093E80090E06115EB
:1009E000710551F4911108C08091E80082FF34C074
:1009F00080E00895BC01F2CF8091FF028823C1F10D
:100A00008530C1F18091E80083FD30C08091E8001D
:100A100082FDEACF8091E80080FFE1CF8091F30072
:100A20002091F200382F6115710519F02830310539
:100A300058F091E02830310509F090E02091E8006D
:100A40002E772093E800CBCF81918093F100615005
:100A500071092F5F3F4FE7CF8091FF02882341F05C
:100A6000853041F08091E80083FFBECF81E008959A
:100A700082E0089583E00895089580E00895089540
:100A80008091DC0208952FB7F8948091090390912A
:100A90000A03A0910B03B0910C032FBF089580911E
:100AA000AA0281111092AA0208958091A902909140
:100AB000A802892B9091A702892B8093A401909181
:100AC000AA029923A1F0892B8093A40180911C0193
:100AD000882341F18091B90287FF24C08EE1E6EAC4
:100AE000F1E090E0815000F591110E944F05E091F6
:100AF000BC02F091BD023097E1F080911C01882387
:100B000059F08091B90287FF07C08091A4018093BA
:100B1000A50185E08093A4010280F381E02D84EAA1
:100B200091E0099486E0DBCF21912223D9F29F5FE7
:100B3000D9CF089590911C019923D1F09091B902D9
:100B400097FF16C0E82FE695E695E695EE31E0F4BE
:100B5000F0E0EC55FE4F282F277081E090E001C0B7
:100B6000880F2A95EAF780959281892382830895D8
:100B7000E6EAF1E09191891303C0DF0111971C921D
:100B800091E0EC3AF907B1F7089590911C0199238F
:100B9000C1F09091B90297FF14C0E82FE695E69551
:100BA000E695EE31F8F4F0E0EC55FE4F877021E069
:100BB00030E001C0220F8A95EAF78281822B82837E
:100BC0000895A6EAB1E0EFEF90E02D91821751F081
:100BD000EF3F19F4211101C0E92F9F5F9630A9F76B
:100BE000EF3F09F408950E2E000CFF0BEC55FE4F5D
:100BF000E6CF990F990F890F982F97708695869554
:100C0000869525E0829FF0011124E956FD4F50E0C2
:100C100040E080E0219130E0092E02C03695279512
:100C20000A94E2F721703327042E01C0220F0A94A0
:100C3000EAF7822B4F5F5F4F4530510559F7089512
:100C4000990F990F890F982F977041E001C0440FB9
:100C50009A95EAF786958695869595E0899FF001A5
:100C60001124E956FD4F30E020E070E05191DF01A2
:100C70001197CB01022E02C0969587950A94E2F750
:100C8000817081958527842385278C932F5F3F4F23
:100C90002530310559F708958091960290916502AB
:100CA000981301C008958F5F8770FACF882341F0B1
:100CB00080959091A80289238093A8020C945505F1
:100CC0000895882339F09091A802982B9093A80258
:100CD0000C9455050895882341F080959091A902C0
:100CE00089238093A9020C9455050895882339F02F
:100CF0009091A902982B9093A9020C945505089500
:100D000020915A0230915B022817390771F09093B5
:100D10005B0280935A02E091BC02F091BD023097D1
:100D200021F00084F185E02D099408952091580266
:100D3000309159022817390771F090935902809326
:100D40005802E091BC02F091BD02309721F006807C
:100D5000F781E02D0994089590E080E00E949606C6
:100D600090E080E00E9480061092A8021092A702F4
:100D70000C9455056093AB027093AC028093AD0266
:100D80009093AE020C94AC06E091BC02F091BD02CF
:100D9000309721F00190F081E02D099480E00895D2
:100DA000882309F452C0823871F40E94C40681FF7E
:100DB0004CC089E30E94C5050E94550589E30E9445
:100DC0009A050C945505833859F40E94C40680FF97
:100DD0003CC083E50E94C5050E94550583E5EFCF21
:100DE000843859F40E94C40682FF2FC087E40E9411
:100DF000C5050E94550587E4E2CF9CEF980F913A14
:100E0000F0F290E2980F983088F4877021E030E09B
:100E1000A90102C0440F551F8A95E2F7CA018095C7
:100E20009091A90289238093A902CBCF9BE5980FCB
:100E3000933020F490E080E00C949606885A873135
:100E400020F490E080E00C9480060895FA0181116E
:100E500001C0FB01099480916803982F9E7F61F483
:100E6000817082608093680380916B03893C18F0E5
:100E700088EC80936B0308958635B0F381708465A8
:100E8000F1CFAF92BF92DF92EF92FF920F931F9339
:100E9000CF93DF93182F062FE901493C08F048EC67
:100EA000E42FF0E0E55DFD4F011110C0E4915E2FED
:100EB0004E2F4983E8835A83DF91CF911F910F9181
:100EC000FF90EF90DF90BF90AF900895202F30E01B
:100ED0004491D42EE42EF12C56E0159FC00111242C
:100EE000EFEFF0E0BF010E94BC27812F90E0880F58
:100EF000991F55E5569FD001579FB00D11248A1BAD
:100F00009B0B982F990F890F5F01A21AB30AAE9C11
:100F1000D001AF9CB00DBE9CB00D11245B2F089F7B
:100F200080011124012F11275F01A01AB10AAE9C84
:100F30008001AF9C100DBE9C100D11245F01A81AFA
:100F4000B108A29EC001A39E900DB29E900D1124E7
:100F5000892F9927E81BF90BEE9DC001EF9D900D9D
:100F6000FE9D900D1124E92F62307105A1F050F41F
:100F70006115710509F49DCF6130710581F0EB2F8A
:100F8000512F97CF6430710569F080F0663071059C
:100F900009F48FCFF4CFE42F4B2F592F8ACFE42FB2
:100FA000412F87CFEB2F542F492F83CF4B2F5D2D10
:100FB000E12F7FCFF894E82FE295EF70F0E031A1B8
:100FC000282F2F7081E090E001C0880F2A95EAF762
:100FD000982F9095932391A392A1892B82A3789423
:100FE00008959091B90292FF06C0282F28712830E9
:100FF000F9F4877F846093FF06C0282F2871283179
:10100000F1F4877E84612091BA0220FF06C0382F58
:1010100038713830D9F4877F816021FF06C0282FCE
:1010200028712831D1F4877E816194FD877E0895EF
:10103000282F24712430F9F68B7F8860DCCF282F8D
:101040002471243101F78B7E8861DDCF382F317117
:10105000313019F78E7F8860E0CF282F2171213140
:1010600021F78E7E8861E1CF809580FF08C0589A75
:1010700081FF07C05D9A82FF06C05C9A0895589868
:10108000F7CF5D98F8CF5C980895CF92DF92EF92FA
:10109000FF926C01EE24FF2420E0C114D104E1048E
:1010A000F10419F0C701B60120E1C72ED82EE92EB0
:1010B000FF24C114D104E104F10419F0285FC70131
:1010C000B6016B017C0154E0F694E794D794C79481
:1010D0005A95D1F7C114D104E104F10419F02C5F41
:1010E000C701B6016B017C0142E0F694E794D79406
:1010F000C7944A95D1F7C114D104E104F10419F061
:101100002E5FC701B6019695879577956795672BF2
:10111000682B692B09F02F5F822FFF90EF90DF90F3
:10112000CF900895CF9384E090E00E946928C82F63
:1011300081E290E00E946928982F8C2FCF9108952A
:101140000F931F93CF93DF9328E0629FE001112458
:1011500050E0440F551FC40FD51F30E3839FC00DCF
:10116000D11D1124CE0186960E946928082F10E017
:10117000102F0027CE0187960E9469289801282BFE
:10118000C901DF91CF911F910F910895462F8A30A9
:1011900038F4763028F4643018F4672F0C94A008E3
:1011A00090E080E00895CF93DF930E94C608EC01A1
:1011B00082389105A9F1D8F58133910509F496C0DB
:1011C00048F58932910509F48AC08A9709F495C0D7
:1011D000C11522E5D20708F0B6C0C11531E5D30725
:1011E00008F026C1C83ED10508F09CC0C03ED1051C
:1011F00060F5C83AD10508F087C0C53AD10508F0B6
:10120000EFC0C130D10509F12097F9F0C430D10504
:10121000E0F440C08533910509F45AC0C997C1F67E
:101220008091B902837089F0C0EED0E00EC0833E99
:10123000910599F170F4803E910501F1823E91058E
:1012400039F68091B90282FD21C0CE01DF91CF91A4
:101250000895863E910561F1873E910571F1843EC6
:10126000910509F0B5CF8091BA0281FFEECF809150
:10127000B902C7EED0E084FD0DC0E7CF8091B9027E
:1012800080FD07C19091BA0290FFDFCFC3EED0E09E
:1012900084FFDBCFD0E0C0E0D8CF8091B90282FDDF
:1012A000FBC09091BA0290FDBFCF84FFCECFF2CFAA
:1012B0008091B90283FDDDCFC8CF8091B90283FD53
:1012C000EEC09091BA0291FFF0CFC4EED0E0BDCF56
:1012D0008091B90285FFB9CFC9E2D0E0B6CF809145
:1012E000B90285FFB2CFC5E3D0E0AFCF8091B9029C
:1012F00086FFABCFCAE2D0E0A8CF8091B90286FFCB
:10130000A4CFC1E3D0E0A1CFCF3BD10518F6C85A96
:10131000D0E0CC0FDD1FC55BDE4F0990D881C02D1A
:10132000D46493CFC11540E5D40708F064C0C1155B
:1013300080E4D80708F05CC0CE019A9581159F41E2
:1013400008F483CFA7CFC11536E5D30718F5C1152B
:1013500045E5D40708F084C0C11584E5D80708F036
:101360007AC09C2F969596959E0123703327C115C0
:10137000D34508F462C0C1E0D0E002C0CC0FDD1F4D
:101380002A95E2F730E2939FC0011124C82BD92B94
:10139000DA685BCFC1158AE5D80778F4C11599E5FD
:1013A000D90708F068C0C11528E5D20708F472CF44
:1013B000DC2FCC27C06FD06A48CFCE019056811564
:1013C000904208F067CF8D2F8F710E94F10790E057
:1013D000982F882788279F719C012C2BE90149C0F1
:1013E000C55AD0E0C85BDE4FC881D0E0D0642DCFB5
:1013F000DF70D06A2ACFCE01E4E096958795EA9512
:10140000E1F783702C2F26952695237040E2249FC8
:1014100090011124382B8C2F8370C1E0D0E002C0E2
:10142000CC0FDD1F8A95E2F7C22BD32BDC680DCFE2
:10143000DC2FCC27C16FD06A08CFC1E0D0E002C05A
:10144000CC0FDD1F2A95E2F720E2929FC001112404
:10145000C82BD92BEBCFDC2FCC27C46FD06AF5CEAD
:101460008C2F0E94F107C82FD0E0DC2FCC27CC278F
:10147000DF71D062EACE8C2F8F700E94F10734E0CA
:10148000D695C7953A95E1F7CF709C2FEC01D069BE
:10149000DCCEC9E3D0E0D9CEC2EED0E0D6CEC6EEE7
:1014A000D0E0D3CEBF92CF92DF92EF92FF920F9314
:1014B0001F93CF93DF938C01C0901003D090110342
:1014C000E0901203F09013038091AB029091AC0274
:1014D000A091AD02B091AE02C82AD92AEA2AFB2A0D
:1014E000CFE1D0E0BC2ED701C6010C2E04C0B695CA
:1014F000A795979587950A94D2F780FD0EC02197FE
:1015000088F7B12C8B2DDF91CF911F910F91FF9018
:10151000EF90DF90CF90BF900895B8018C2F0E947C
:10152000D308019761F3EECFCF93DF93EC010E94D4
:10153000520ABE01DF91CF910C94D3080E94940A05
:10154000292F2F7092959F7092509E3078F4E92F3A
:10155000F0E0EA5EF64D0C94E427803F19F020F4A9
:10156000883E20F481E00895843FE1F380E008950F
:10157000883EC0F3813FD1F7F5CF822F86958695BF
:10158000869508956F927F928F929F92AF92BF92AD
:10159000CF92DF92EF92FF920F931F93CF93DF933F
:1015A0008CE4C82E84E0D82E0EE510E0E801E09728
:1015B00036011CC0F50185909490692DC7010E94E9
:1015C0007D28682DC70101960E947D2882E0A80E23
:1015D000B11C82E0E80EF11CCE15DF0559F788E05A
:1015E000680E711C28960C171D0731F07E0188E0EB
:1015F000E81AF1085301DECF005D1F4F80E3C80EEB
:10160000D11C0E3382E0180789F6DF91CF911F912C
:101610000F91FF90EF90DF90CF90BF90AF909F9091
:101620008F907F906F900895CF93DF93C6E0D2E0C4
:1016300060E0CE010E947D282196C11584E0D80784
:10164000B9F7DF91CF910895CF93DF9300D00F9238
:10165000CDB7DEB79091FF02943011F589837B837B
:101660006A839093E9008FEF9091E800815095FD97
:1016700006C095ED9A95F1F700008111F5CF8091A4
:10168000E80085FF0DC050E040E063E070E0CE016F
:1016900001960E9402048091E8008E778093E80012
:1016A0000F900F900F90DF91CF910895BC0184E0CF
:1016B0000C94240BBC0183E00C94240BCF93DF9398
:1016C000EC0180911C018823B1F18091B90287FF60
:1016D00032C060E284E08093E9008FEF9091E800EF
:1016E000815095FD06C095ED9A95F1F700008111A6
:1016F000F5CF8091E80085FF1BC080911C0170E050
:1017000050E040E0811104C050E040E068E070E04B
:10171000CE010E9402048091E8008E778093E80059
:1017200080E2FE01ADEDB2E001900D928A95E1F705
:10173000DF91CF91089568E081E0CDCF81E0809383
:10174000E00080E28093D8001092C9008FE19EE40F
:101750000197F1F700C0000087E090EBDC01809377
:101760006D0390936E03A0936F03B093700388E1B1
:101770009CE00FB6F894A895809360000FBE9093FC
:101780006000FFCFCF93C82F882309F4A6C082380A
:10179000C1F40E94C40681FDA0C089E30E94C50572
:1017A0000E9455052FEF81EE94E02150804090403B
:1017B000E1F700C0000089E30E949A05CF910C94E4
:1017C00055058338A1F40E94C40680FD86C083E5D8
:1017D0000E94C5050E9455052FEF81EE94E021502F
:1017E00080409040E1F700C0000083E5E5CF8438F9
:1017F000A1F40E94C40682FD70C087E40E94C50562
:101800000E9455052FEF81EE94E0215080409040DA
:10181000E1F700C0000087E4CFCF8CEF8C0F813A56
:1018200088F580911C01882301F18091B90287FF1E
:101830001CC0EC2FE695E695E695F0E0EC55FE4FE2
:10184000828190E04C2F477021E030E002C0220FEF
:10185000331F4A95E2F782239323892B79F08C2F4B
:101860000E949A050E94550509C0E6EAF1E08191BF
:10187000C817A9F321E0EC3AF207C9F78C2F0E94B0
:10188000C5059CCF80E28C0F883068F4C77021E0DA
:1018900030E001C0220FCA95EAF78091A902822B9D
:1018A0008093A9028BCFEBE5EC0FE33040F4F0E03E
:1018B000E85BFE4F808190E0CF910C949606C85A69
:1018C000C73158F4EC2FF0E0EE0FFF1FE55BFE4F41
:1018D00080819181CF910C948006CF9108951F93C0
:1018E000CF93DF93182FD0E0C0E0893311F4C0E527
:1018F000D0E0812F0E94C20B209731F4812FDF911D
:10190000CF911F910C94D0068FE99FE00197F1F7DA
:1019100000C000002197F0CF0F931F93CF93DF9368
:10192000C62FD42F022FFC0182818823A1F060935F
:101930000F030E94430590930E0380930D03C7701D
:1019400081E001C0880FCA95EAF7DF91CF911F911E
:101950000F910C94760680910F03681340C020917C
:101960000D0330910E034FB7F894809109039091C5
:101970000A03A0910B03B0910C034FBF821B930B82
:10198000883C910560F510E21D0F6D17B9F080E2FB
:10199000860F883040F4C77081E001C0880FCA9577
:1019A000EAF70E946B06183048F481E09D2F97708B
:1019B00001C0880F9A95EAF70E947606802F0E9450
:1019C0006F0C183098F4D77081E001C0880FDA9559
:1019D000EAF7DF91CF911F910F910C946B06C770BE
:1019E00081E001C0880FCA95EAF7F3CFDF91CF916C
:1019F0001F910F910895DF92EF92FF920F931F9323
:101A0000CF93DF93E82FF0E0E555FE4FD490282FD9
:101A100026952695269530E0F901E556FE4F04916E
:101A2000877010E0082E02C0159507950A94E2F71A
:101A300001701127F901E557FE4FE490F12C082EB3
:101A400002C0F594E7940A94E2F791E0E922FF24BA
:101A5000F901E558FE4FC491D0E002C0D595C79575
:101A60008A95E2F7C170DD270115110519F081EEA5
:101A70000E94C20BE114F10419F086EE0E94C20B21
:101A80008D2D0E946F0CEF2819F086EE0E94D00673
:101A9000012B19F081EE0E94D006CD2B51F08CE283
:101AA000DF91CF911F910F91FF90EF90DF900C94F9
:101AB0006F0CDF91CF911F910F91FF90EF90DF900E
:101AC0000895AF92BF92CF92DF92EF921F93CF9380
:101AD000DF93CDB7DEB7C455D1090FB6F894DEBF9A
:101AE0000FBECDBF8091680380FD0AC0E4E1F3E042
:101AF000118210821282339683E0E836F807C1F72C
:101B000070E3A72E73E0B72EDE011196AE014B5A9B
:101B10005F4F1A2F7B2FF5018491282F30E0C901E8
:101B2000880F991F820F931F8C5E9C4FFC01C08011
:101B3000D180E280CD92DD92ED92FFEFAF1ABF0A25
:101B4000A417B50741F7279A35B13F7725B120682B
:101B50006FB7F894812F972FFC017191CF01E8E0C6
:101B600025B9000000C077FF35B9770F000000C02D
:101B700000C000C035B900C0EA9591F784179507F9
:101B800059F76FBF8FE594E00197F1F700C00000AF
:101B9000CC5ADF4F0FB6F894DEBF0FBECDBFDF913A
:101BA000CF911F91EF90DF90CF90BF90AF900895AD
:101BB0001F93CF93DF9300D00F92CDB7DEB7142FD2
:101BC0009091680390FF1AC09E012F5F3F4F462FF0
:101BD0006FEF0E9441071C3189F08B819981412F61
:101BE00050E0FA01EE0FFF1FE40FF51FEC5EFC4F13
:101BF0002A812183908382830E94610D0F900F9030
:101C00000F90DF91CF911F910895CF92DF92EF92C5
:101C1000FF920F931F93CF936B017C010E944508A5
:101C2000C82F823009F47BC078F4882399F1813081
:101C300009F452C0C701B601CF911F910F91FF90D7
:101C4000EF90DF90CF900895833009F497C08430EF
:101C500089F70EE110E0C0E01093C5010093C401C4
:101C6000802FC53068F09C2F9F7E993049F0CE3090
:101C700039F0C23129F0C73119F0CB3109F0A1C0D8
:101C80004C2F6CE80E94D80DCF5F0F5F1F4FCC31F7
:101C900019F7D0CF08E310E01093C5010093C401F9
:101CA000802FC53060F09C2F9F7E993041F0CE3060
:101CB00031F0C23121F0C73111F0CB3151F44C2F4A
:101CC0006CE80E94D80DCF5F0E5F1F4FCC3121F71B
:101CD000B1CF4C2F60E5F5CF0FE010E0C0E01093DE
:101CE000C5010093C401802FC53060F09C2F9F7EFA
:101CF000993041F0CE3031F0C23121F0C73111F0CE
:101D0000CB3151F44C2F6CE80E94D80DCF5F0E5FA1
:101D10001F4FCC3121F78ECF4C2F60E5F5CF0CED66
:101D200010E0C0E00F3F110509F000F51093C50168
:101D30000093C4018091C401C53070F09C2F9F7E38
:101D4000993051F0CE3041F0C23131F0C73121F03D
:101D50004C2F60E5CB3111F44C2F6CE80E94D80D6C
:101D6000CF5F0E5F1F4FCC31E9F664CFC8018F5FA4
:101D700091099093C5018093C401DCCF07E810E07E
:101D8000C0E01093C5010093C401802FC53060F0FE
:101D90009C2F9F7E993041F0CE3031F0C23121F03E
:101DA000C73111F0CB3151F44C2F6CE80E94D80DA3
:101DB000CF5F0E5F1F4FCC3121F73CCF4C2F60E53A
:101DC000F5CF4C2F60E55ECF0E94050E60931003A7
:101DD0007093110380931203909313030C94AC0639
:101DE0000F931F9360911003709111038091120360
:101DF000909113038B019C01067011272227332732
:101E0000063011052105310529F468601F910F91F5
:101E10000C94E40E677FFACF0F931F9341E050E0DC
:101E200060E070E004C0440F551F661F771F8A955D
:101E3000D2F7CB01BA01609570958095909500918D
:101E400010031091110320911203309113036023AA
:101E50007123822393231F910F910C94E40E909190
:101E6000A602809589238093A602282F277071F4FB
:101E7000282F082E000C330B9217130639F0859586
:101E8000859585950E940C0F1092A60208950F93D8
:101E90001F9341E050E060E070E004C0440F551F24
:101EA000661F771F8A95D2F78091100390911103D6
:101EB000A0911203B09113038A019B01082B192BE7
:101EC0002A2B3B2BC901B8011F910F910C94E40EF2
:101ED000EF92FF921F93CF93DF93EC0184E1E82E02
:101EE00083E0F82E10E08C81970140916B036091A4
:101EF0006A03810F0E944107175F83E0E80EF11C1F
:101F00001C3F89F70E94610D9A818C8190FF08C067
:101F10008F5F8C83DF91CF911F91FF90EF90089599
:101F20008150F7CFBF92CF92DF92EF92FF920F9343
:101F30001F93CF93DF93FC018281DD24DA9480FD2F
:101F400002C0DD24D39404E113E0D0E0C0E02CE132
:101F5000B22EF80111821082128294E0E92EF12C47
:101F6000C12C8091C9018C0D8D310CF43DC06B2DBD
:101F70000E94AE27892F082E000C990B8C179D0705
:101F800091F480916B038E9DA0018F9D500D1124C3
:101F90005595479555954795980160916A038091AD
:101FA00069030E944107CD0CF1E0EF1AF108C9F670
:101FB00021960D5F1F4FCC31D10559F60E94610D5E
:101FC0008091C90191E0D91215C0811111C08BE136
:101FD0008093C901DF91CF911F910F91FF90EF90F6
:101FE000DF90CF90BF90089587FFC5CF845EC3CFA9
:101FF0008150EECF90E00196BE010E94D027E8CF3D
:102000000F931F93CF93DF93C4E1D3E0FE011182BE
:1020100010821282339683E0E836F807C1F710E0A9
:1020200000E08091CA01082E000C990B08171907CF
:102030008CF180911001082E000C990B80179107EC
:102040004CF19E0140916B0360916A03809169039A
:102050000E9441070F5F1F4F23960C31110509F7AE
:102060000E94610D80910F019091CA01980F909389
:10207000CA0120911001280F20931001121614F4A8
:102080009B311CF0819580930F01DF91CF911F91BF
:102090000F910895198218821A82DCCF8F929F9235
:1020A000AF92BF92CF92DF92EF92FF920F931F9366
:1020B000CF93DF93EC014C81042F10E09801D801FD
:1020C0000E9405299B01AC010E94D0284B015C01B4
:1020D000E0E2F0E0E01BF10BA5E5B0E0AC019B0114
:1020E0000E94D0286B017C019F01DF010E94F12733
:1020F0009B01AC010E94DB289B01AC01280D391D1E
:102100004A1D5B1DC701B6010E94E328F22E822FF3
:1021100090E039E23F15D8F143E0249F900111246B
:1021200035952795122F109594E1C92E93E0D92E5D
:1021300000E085E5E82EEF188E2D01FD8F2D96012C
:10214000412F60916A030E9441070F5F53E0C50E63
:10215000D11C0C3189F70E94610D9C8181E099238B
:1021600019F0903219F48FEF8093110180911101D1
:10217000890F8C83DF91CF911F910F91FF90EF908A
:10218000DF90CF90BF90AF909F908F90089525E5FE
:1021900030E0A901481B590BCA019A01220F331FD5
:1021A000280F391F37FFBCCF2F5F3F4FB9CFEF92BA
:1021B000FF920F931F93CF93DF938C01C4E1D3E081
:1021C000F12CE12CF801948160916A0380916903FC
:1021D000FEE0EF16F104FCF49923F9F09E01409122
:1021E0006B030E9441072FEFE21AF20A23968CE15B
:1021F000E816F10439F70E94610DF801848190E03E
:102200000196817099278483DF91CF911F910F915F
:10221000FF90EF900895992309F39E0140E0E1CFEC
:102220009091680390FF0CC0E4E1F3E08183608348
:102230004283339693E0E836F907C1F70C94610DB9
:1022400008950F931F93CF93DF9300D00F92CDB7D4
:10225000DEB78C018091CB0181110AC09E012F5FF6
:102260003F4F48EC6FEF0E9441078A818093CB017A
:10227000F8016481613069F08091CB0140E0662310
:1022800061F040E0623011F44091CB0180E060E009
:1022900004C06091CB0140E080E00E941011F80181
:1022A000848190E0019663E070E00E94D0278483EF
:1022B0000F900F900F90DF91CF911F910F91089584
:1022C000CF93DF9300D00F92CDB7DEB79091680324
:1022D00090FF0AC09E012F5F3F4F0E9441074B8134
:1022E00069818A810E9410110F900F900F90DF91E9
:1022F000CF910895CF93DF93EC01EC81F0E0E45BA4
:10230000FC4F4491E8E6F3E0628181810E94601114
:102310008C818F5F8C83DF91CF910895CF93DF9372
:10232000EC01E8E6F3E0438162818C810E94601158
:102330008C818F5F8C83DF91CF910895BF92CF9274
:10234000DF92EF92FF920F931F93CF93DF9389E772
:10235000E82E81E0F82EC3EBD2E0C12CD12C01E0B5
:1023600010E0F70181917F01F894E82FE295EF707A
:10237000F0E021A18F70A80102C0440F551F8A957B
:10238000E2F7CA01922F982B91A392A180958923FD
:1023900082A3789400C0EFE7F1E030E020E0B12CB8
:1023A0004191A42FA295AF70B0E090968C9190E0EF
:1023B0004F7002C0959587954A95E2F780FD5CC005
:1023C000802F022E01C0880F0A94EAF7B82A2F5FE7
:1023D0003F4F2430310521F7F701319780810E946A
:1023E000DA0755E0C51619F080EA8A95F1F7888179
:1023F000B81609F443C0B88281E0D82AC394219664
:10240000E6E0CE12AECFDD20D9F181E08093C801A5
:102410000E9443059093C7018093C6012091C60195
:102420003091C7014FB7F8948091090390910A0346
:10243000A0910B03B0910C034FBF821B930B069727
:1024400018F18091B3028093D4028091B4028093FA
:10245000D5028091B5028093D6028091B602809316
:10246000D7028091B7028093D8028091B8028093FE
:10247000D9021092C80108C080E0A8CF80E0BDCF8B
:102480008091C8018111CACF8D2DDF91CF911F910D
:102490000F91FF90EF90DF90CF90BF9008954F92F3
:1024A0005F926F927F928F929F92AF92BF92CF92E4
:1024B000DF92EF92FF920F931F93CF93DF93FC0174
:1024C0006280448081E08483ECE4F3E07490EBEC80
:1024D000F3E0E491CCECD1E034E1E32E33E0F32EF1
:1024E00048E5C42E42E0D42E52E0A52EBB24B3947E
:1024F00088248A94912C55245A94E7190E2F10E0C1
:1025000082E0861530F080916903888380916A03A8
:102510008983411021C01B821A8297014A816981F7
:1025200088810E944107259683E0E80EF11CCC16B5
:10253000DD0631F7DF91CF911F910F91FF90EF9062
:10254000DF90CF90BF90AF909F908F907F906F90D3
:102550005F904F900C94610D8B818823E9F081503E
:102560008B83859DC00111246C8170E00E94BC2783
:10257000FB01FF27E45BFC4F8491E82FE719E59D01
:10258000C0011124B8010E94BC2780916B03689F91
:10259000B00111247A83C1CF0E944C2820916B0393
:1025A000269521582A9DA0012B9D500D1124452FC1
:1025B0005527841795070CF0B0CF82E0861588F474
:1025C0000E944C28B4010E94D02788830E944C2886
:1025D00020916A032695622F70E00E94D027280F71
:1025E00029831A8280916B03893C20F088EC8C83CC
:1025F0008B8393CF8431D8F784E1F9CF6BEE7EEFF4
:1026000090E080E00E949B2860E082E090E00E94E1
:102610007D2860E083E090E00E947D281092AB026C
:102620001092AC021092AD021092AE0260E084E013
:1026300090E00E947D2860E081E290E00E947D2889
:1026400060E085E090E00E947D2860E086E090E018
:102650000E947D286FEF87E090E00E947D2840E097
:1026600050E0BA0188E090E00E948F2860E08DE0A1
:1026700090E00E947D2840E050E0BA0188E190E0BF
:102680000E948F2860E087E190E00E947D2840E072
:1026900050E0BA018CE190E00E948F2860E080E277
:1026A00090E00E947D2840E050E0BA0188E190E08F
:1026B0000E948F2840E050E0BA018FE090E00E9435
:1026C0008F2840E050E0BA0183E190E00C948F281D
:1026D000CF92DF92EF92FF926B017C010E942B0759
:1026E000B701A60188E090E0FF90EF90DF90CF90D7
:1026F0000C948F285F926F927F928F929F92AF92ED
:10270000BF92CF92DF92EF92FF920F931F93CF93DE
:10271000DF9300D00F92CDB7DEB7182F762E042F9F
:10272000622E9091680390FF29C0E92FE695AE2FA5
:10273000B0E0A35EBE4F8C918093D2029E7F923018
:1027400081F59E012F5F3F4F812F0E9441074B81F2
:1027500069818A810E9410111093690370926A0343
:1027600000936B03662051F06091680370916903D8
:1027700080916A0390916B030E9468130F900F90F1
:102780000F90DF91CF911F910F91FF90EF90DF900D
:10279000CF90BF90AF909F908F907F906F905F9001
:1027A0000895823019F400916B03D6CF863019F466
:1027B00010916903D1CF8930D9F3893169F6E95194
:1027C0008E2F8170582EE695F0E0E55DFC4FA590C8
:1027D000B490BB2484E1E82E83E0F82ED12CC12CE8
:1027E0009CE1892E912CC601B4010E94BC27812F47
:1027F000511013C0860F9701402F672D0E9441078B
:10280000CA0CDB1C83E0E80EF11C88E6E81683E0C6
:10281000F80649F70E94610D9FCF861BECCFE8E6D2
:10282000F3E0438128E0421B08F440E021E06281AC
:1028300081810C947A13E8E6F3E0438128E0420FAB
:1028400008F44FEF21E0628181810C947A13E8E66D
:10285000F3E0628128E0621B08F460E021E043813C
:1028600081810C947A13E8E6F3E0628128E0620F3C
:1028700008F46FEF21E0438181810C947A13E8E63C
:10288000F3E0818121E04381628188500C947A13C6
:10289000E8E6F3E0818121E043816281885F0C9466
:1028A0007A1380916C03882319F0815080936C0314
:1028B000609168037091690380916A0390916B0342
:1028C0000C94681380916C03833018F48F5F8093AD
:1028D0006C03609168037091690380916A03909121
:1028E0006B030C946813E8E6F3E083E080831182C5
:1028F0008FEF828388E28383148260817181828179
:1029000093810C9468131092A90280911C01E6EA4D
:10291000F1E0882359F08091B90287FF07C08EE16A
:10292000DF011D928A95E9F70C94AC0686E0F8CF9A
:102930001F93CF93DF93CDB7DEB7AA970FB6F89466
:10294000DEBF0FBECDBF81E093E02091F100DC013E
:102950002D93CD01B3E089309B07B9F78091020335
:10296000833009F471C0B8F4813009F448C0823072
:1029700009F4B2C08091E80083FF3AC1809101035D
:10298000909102039A3008F033C1E92FF0E0EC5D3A
:10299000F64D0C94E4278A3009F48DC08B3009F48D
:1029A00070C0893039F780910103813219F7809125
:1029B000050390910603009711F00297D9F68091D4
:1029C000E800877F8093E8008091E80082FF37C0AD
:1029D0009091F3008091F200029729F48091F10028
:1029E0008B7F813021F48091F1008093DC02809113
:1029F000E8008B778093E8000E942C04BBCF809185
:102A00000103813A09F0B6CF8091E800877F809377
:102A1000E8008091050390910603892B61F460E240
:102A20008DED92E070E00E94DE048091E8008B77EB
:102A30008093E8009FCF60E090E080E0F3CF80914A
:102A4000FF028111C1CF96CF80910103813A09F035
:102A500091CF8091050390910603892B09F08ACFCD
:102A60008091E800877F8093E8008091E80080FFF4
:102A7000FCCF80911C018093F1008091E8008E775B
:102A8000B9CF80910103813209F074CF80910503A1
:102A900090910603892B09F06DCF8091E800877F24
:102AA0008093E8000E942C048091030380931C0112
:102AB0000E9483145FCF80910103813209F05ACFC5
:102AC0008091E800877F8093E8000E942C04809129
:102AD00004038093DB024ECF80910103813A09F019
:102AE00049CF8091E800877F8093E8008091E800DB
:102AF00080FFFCCF8091DB02BECF803899F0823816
:102B000009F076C0809105038F70873008F070C09F
:102B10008093E9008091EB0085FB882780F9109273
:102B2000E90006C08091FD029091FE029111826041
:102B30009091E800977F9093E8008093F1001092C5
:102B4000F1008091E8008E77B5C1882309F4A2C115
:102B5000823009F04DC0809103038111A6C180919C
:102B600005038F702FEF280F263008F041C08093A7
:102B7000E9002091EB0020FF98C1933031F480915F
:102B8000EB0080628093EB0090C19091EB0090612C
:102B90009093EB0021E030E001C0220F8A95EAF724
:102BA0002093EA001092EA008091EB008860EACF5F
:102BB00081111EC0109103031F778091E30080787C
:102BC000812B8093E3008091E800877F8093E80069
:102BD0000E942C048091E80080FFFCCF8091E300EC
:102BE00080688093E30082E0111183E08093FF020C
:102BF0008091E80083FF0AC08091E800877F80937E
:102C0000E8008091EB0080628093EB00AA960FB6FB
:102C1000F894DEBF0FBECDBFDF91CF911F91089515
:102C20008058823028F720910303309104032C3D13
:102C3000E3E03E07A1F583E08A838AE289834FB708
:102C4000F894DE01139620E03EE051E2E32FF0E03D
:102C500050935700E49120FF03C0E295EF703F5F6F
:102C6000EF708E2F90E0EA30C0F0C7968D939D9361
:102C70002F5F243159F74FBF8091E800877F809301
:102C8000E8006AE270E0CE0101960E94DE048091C5
:102C9000E8008B778093E800ABCFC096E7CF8091B8
:102CA000050390910603432F55274330510509F43E
:102CB0004AC078F54130510509F47AC08BE590E0BF
:102CC000E1E4F6E04230510509F092CF2091E800AE
:102CD000277F2093E8002091070330910803821793
:102CE000930708F49C0140E02115310509F065C007
:102CF000411163C08091E80082FDC9CF8091FF023D
:102D0000882329F2853019F28091E80083FFF2CF01
:102D1000BECF4132510509F43CC04232510509F0A1
:102D200067CF8330910508F063CFFC01EE0FFF1FE2
:102D3000EA56FE4F0190F081E02D8D569E4FDC014A
:102D40008C9190E01AC0332721303105D1F0211544
:102D5000310561F02230310509F04ACFEEEAF6E0A4
:102D6000E4918E2F90E0EEEAF6E007C0EEECF6E09C
:102D7000E4918E2F90E0EEECF6E0009709F438CF66
:102D8000A5CFEAEBF6E0E4918E2F90E0EAEBF6E0D7
:102D9000F4CF8330910508F02BCF880F991FFC01E9
:102DA000E456FE4F0190F081E02D89E090E08ECF57
:102DB00082E190E0ECE9F6E089CF8091FF02882380
:102DC00009F465CF853009F462CF8091E80083FD76
:102DD0005ECF8091E80082FD8DCF8091E80080FF7A
:102DE00083CF9091F3008091F2002115310519F005
:102DF0008830910550F041E0089709F040E080915B
:102E0000E8008E778093E8006FCF44914093F10003
:102E10003196215031090196E8CF803809F0E8CE8B
:102E20008091E800877F8093E80080910003809381
:102E3000F10087CE8111DCCE10910303123008F02F
:102E4000D7CE8091E800877F8093E800109300033D
:102E50000E942C04112311F084E005C08091E3004E
:102E600087FDFACF81E08093FF0242E061EC81E0D0
:102E70000E944B0442E261EC84E00E944B0442E277
:102E800061EC82E00E944B0442E260EC83E00E942D
:102E90004B04AECE80910303813009F0A9CE81E0CE
:102EA000933009F080E08093FE021092E900809157
:102EB000E800877F8093E8000E942C0499CE6091FF
:102EC0006803669570E04BE050E084E091E00E947A
:102ED0005C28892B19F481E08093D3020E9443057A
:102EE0009093C2028093C10208959091680390FF6D
:102EF00036C09170811129C0926090936803662357
:102F000051F0609168037091690380916A03909118
:102F10006B030E94681360916803669570E04BE054
:102F200050E084E091E00E945C28892BA9F0109287
:102F3000D30281E08093C40220E040916B03609152
:102F40006A03809169030C947A138B3210F09465B4
:102F5000D4CF880F982BD1CF0E945F17EACF089566
:102F6000809168038695815009F48AE261E00C94AF
:102F700075178091680386958F5F8B3208F081E02A
:102F800061E00C9475179091680390FF07C09695C7
:102F9000981720F0961710F40C94B91761E00C9470
:102FA00075174F925F926F927F928F929F92AF921E
:102FB000BF92CF92DF92EF92FF920F931F93CF9326
:102FC000DF9300D000D00F92CDB7DEB77C01FC01BB
:102FD00083819481892B31F08081918189238F3F76
:102FE00009F041C60F900F900F900F900F90DF9156
:102FF000CF911F910F91FF90EF90DF90CF90BF90F6
:10300000AF909F908F907F906F905F904F900895BA
:103010000E94520A182F682F89819A810E942006E7
:1030200069817A81812F0E94C6088C01F701828113
:10303000882309F40CC6C80182519F45409708F0C7
:103040003BC58FEF93E00E946928025166E0C62ECF
:1030500062E0D62E882371F18091A602877011F26A
:10306000F7018281882309F4BDCF82E00F900F9091
:103070000F900F900F90DF91CF911F910F91FF90C4
:10308000EF90DF90CF90BF90AF909F908F907F9008
:103090006F905F904F900C942F0FC114F4E0DF06F7
:1030A000D9F2C6010E946928811101C001502FEF99
:1030B000C21AD20A0111F1CF1C821B82BB24B39425
:1030C0005AE0A52E86010F5F1F4FC6010E94692896
:1030D00089831A82882309F4BFCF9FEF980F93301A
:1030E00008F58A83B98232E0C30ED11CC8010E9460
:1030F00069288B83882309F4AFCF8E010F5F1F4FA0
:10310000F80180818823F1F2813009F043C0918178
:103110008281913049F40E5F1F4F0E946F0C0F5F48
:103120001F4FEECF6801E9CF923029F40E5F1F4F99
:103130000E94C20BF4CF933029F40E5F1F4F0E9400
:10314000D006EDCF943019F00F5F1F4FE8CF0E5F20
:103150001F4F30E020E0B8016F5F7F4FF8014181E1
:103160008053990B8A30910550F021503109B8F203
:103170008FE99FE00197F1F700C00000F6CFA29E13
:10318000F001A39EF00D11249C012E0F3F1F842FF0
:103190008B01E1CF0E94FB0CC2CF81E00E94470F60
:1031A0000E94F00E59CF81E00E940C0FF9CF82E00F
:1031B000F5CF82EE0E94C20BC9C483E00E94610673
:1031C00088E10E94C20B88E10E94D00683E00E9441
:1031D0005606BCC482EE0E94C20B87E50E946F0CAB
:1031E000B5C486EE0E946F0C88E1F8CF895AC8C436
:1031F00082EE0E94D006DCC48CE20E946F0C8091AB
:103200005D02882309F4D4C489E30E946F0CD0C402
:1032100088E2FBCF033FFCE51F0739F1A0F4083D2E
:103220003CE51307F1F0093D8CE5180751F1073D26
:103230009CE5190709F0C0C426E241EE61EEC70122
:103240000E948C0C09CF053FECE51E07B1F088F019
:10325000063F2CE5120709F0AFC427E245EE66EE03
:10326000EECF27E245EE65EEEACF26E241EE60EED4
:10327000E6CF27E245EE64EEE2CF26E241EE62EED3
:10328000DECF28E241E0EFCF8091B90280610630C5
:103290009CE5190709F48CC08091B9028860073059
:1032A0001C4508F485C08091B902806281C080917C
:1032B000B9028D7F0C30FCE51F0709F479C070F46A
:1032C0008091B9028C600A303CE5130709F470C0A4
:1032D00008F481C08091B9028E7F6AC08091B902E2
:1032E000877F0E309CE5190709F462C08091B9020E
:1032F0008B7F0F301C4508F45BC08091B9028F7E34
:1033000057C00B3FFCE51F0709F45DC030F50331E2
:103310003CE5130709F46DC078F401319CE5190709
:1033200009F463C002311C4509F081C40E94831472
:103330008091B9028F773CC00531FCE51F0709F485
:1033400060C008F474C08091BA0281600A3F1C45D5
:1033500009F06DC48093BA026AC40F3F8CE5180768
:1033600009F44BC088F48091BA028D7F0D3FECE5E3
:103370001E0781F38091BA028E7F0E3F1C4550F3E9
:103380008091BA028360E6CF01302DE5120709F47F
:1033900057C008F442C060E002301D4509F047C440
:1033A0008EE090E00E947D2842C48091B902816045
:1033B0008093B9023CC48091B9028260F9CF8091B8
:1033C000B9028460F5CF8091BA028260C3CF809148
:1033D000B9028064EDCF0E9483148091B9028068A5
:1033E000E7CF8091B9028F7DE3CF8091B9028F7BC7
:1033F000DFCF8091B902837FDBCF8091BA028C7FCF
:10340000A9CF8091B90282FB992790F921E09227F8
:1034100090FB82F990FB83F9CBCF8091BA02982F71
:10342000909591708E7F892B90FB81F993CF0E94AC
:1034300083149091B902892F97FB87F98058B8CFF0
:1034400061E0AECF8091A9020631ECE51E0709F0DC
:1034500027C48A7A91E009F490E090935E0281118A
:1034600006C089E20E94C5050E945505F5CD85E399
:10347000F9CF85E312C48091680380FF1BC08E7F63
:1034800080936803609168037091690380916A0377
:1034900090916B030E9468131092D302FFEF20E714
:1034A00032E0F15020403040E1F700C000000E94BF
:1034B000610DD2CD81608093680361E086950E94A2
:1034C0007517CACD40EB57E169EB77E10E942607FB
:1034D000C3CD49EB57E160EB77E1F8CF4FE354E11F
:1034E00068E474E1F3CF48E454E16FE374E1EECFB4
:1034F00047E254E163E374E1E9CF43E354E167E277
:1035000074E1E4CF4FE054E16BE174E1DFCF4BE1D4
:1035100054E16FE074E1DACF41E554E162E674E131
:10352000D5CF42E654E161E574E1D0CF61E081E0BE
:10353000C6CF65E082E00E94C3178ECD68E086E0CA
:10354000FACF6EE089E0F7CF64E18FE0F4CF67E176
:1035500085E1F1CF61E088E1B2CF62E289E1EBCFB2
:1035600061E083E2ACCF01158CE5180709F445C092
:103570000E3D1C4509F44EC0F701008111819923CD
:1035800009F44BC0C8010E94520AD82E682FC80106
:103590000E942006B8018D2D0E94D3088C01882E30
:1035A000F701D280A580A2943FE0A3228091A602D9
:1035B0008770A1F0CD2CDD2091F0812F807F8034A9
:1035C00021F080E2800F883048F082E00E942F0FC7
:1035D0008091A6028770CC24C3948111C12CB12E96
:1035E000B2942FE0B222FBE0FB1508F450C0EB2DA3
:1035F000F0E0E25DF64D0C94E4270E948314FFEFA7
:1036000024E33CE0F15020403040E1F700C00000EE
:103610000E949E0B0E94FE121FCDC8010E94F90558
:10362000D82EB8CF212F2F70A22E107F19F0A29480
:1036300090EFA922DD20C9F0AA2069F080E2800F76
:10364000883010F081100BC08091A902A82AA092A6
:10365000A9020E945505802F0E94C20B18C08091BC
:10366000A802A82AA092A802F4CF802F0E94D00618
:10367000AA2069F0A094005E083010F081103DC0CF
:103680008091A902A822A092A9020E945505EB2DC3
:10369000E850FF0B349720F40E94C4060E943408BF
:1036A000CC2009F49FCC8091A60280FD9BCCF70131
:1036B00012828595859585950E94470FC7010E94C6
:1036C000D1178091A6028595859585950F900F90CD
:1036D0000F900F900F90DF91CF911F910F91FF905E
:1036E000EF90DF90CF90BF90AF909F908F907F90A2
:1036F0006F905F904F900C940C0F8091A802A822BD
:10370000A092A802C2CF312F3F70932E107F1032AB
:1037100019F0929480EF9822882071F081E0881649
:1037200061F1DD20B9F1AA2071F1F701858180FFF7
:1037300092CF8F70858327C0DD2091F09091AA02EF
:10374000892F8929A11003C00E947606A0CFE1E04D
:10375000AE12FACF981709F49ACF8093AA0297CFA6
:10376000A11006C00E944F05892D0E946B068FCFC5
:10377000F1E0AF1609F48BCFF5CFDD2031F025E075
:103780002A1508F484CF892DDFCF34E03A1508F4E8
:103790007ECFEACFAA2041F3F9E38F1286C12FEF43
:1037A00037EE83E0215030408040E1F700C0000058
:1037B0007CC1812F86958695837061F0813009F0F8
:1037C00066CFC8019370D11002C090E080E00E94E3
:1037D00080065DCFC8019370D11002C090E080E0F8
:1037E0000E94960654CF812F837009F066C0D110D5
:1037F0004ECF802F829586958770880F880F602F17
:103800006F70462E512C712C612C082E04C0440C74
:10381000551C661C771C0A94D2F740E050E0BA01B0
:1038200004FF0FC04FE050E060E070E004C0440FC0
:10383000551F661F771F8A95D2F740955095609562
:103840007095812F869586958370823019F1D8F412
:103850000091AB021091AC022091AD023091AE020A
:10386000813069F04429552966297729CB01BA01AD
:1038700060237123822393230E94BA0608CF402A33
:10388000512A622A732ACB01BA0164297529862933
:103890009729F2CF44295529662977290091AB024F
:1038A0001091AC022091AD023091AE02CB01BA0171
:1038B0006027712782279327DFCF8695DD2011F0BF
:1038C000812F8170882309F4E2CE802F829586951E
:1038D0008770880F880F602F6F70462E512C712CC7
:1038E000612C082E04C0440C551C661C771C0A94DD
:1038F000D2F740E050E0BA0104FF0FC04FE050E0C3
:1039000060E070E004C0440F551F661F771F8A9562
:10391000D2F74095509560957095812F8695869544
:103920008370823019F1D8F40091100310911103C3
:103930002091120330911303813069F044295529F5
:1039400066297729CB01BA0160237123822393234F
:103950000E94E40E9CCE402A512A622A732ACB018F
:10396000BA016429752986299729F2CF4429552956
:1039700066297729009110031091110320911203F9
:1039800030911303CB01BA01602771278227932757
:10399000DFCF1F70DD2029F0812F0E94470F802F7D
:1039A000D3CE802F0E946B06812F0E940C0F6FCE0A
:1039B000802F92EF891609F450C0981578F0E0EF47
:1039C0008E1619F1F1EF8F1609F43FC0DD2009F4CE
:1039D00067C0A11040CE812F8F713CC023EF8216AB
:1039E00009F440C034EF8312F1CFDD2009F44DC05B
:1039F0001F71812F0E94470FE8E01E9FC001112414
:103A000083608093A602812F25C0DD20C9F084E069
:103A10008A1508F43CCE1F7161E070E080E090E010
:103A200004C0660F771F881F991F1A95D2F700915F
:103A30001003109111032091120330911303A4CFAE
:103A400095E09A1508F423CEE6CF812F8F71DD2003
:103A500009F4ABCF0E94470F1ACE812F8F71DD2062
:103A6000C9F3A3CF60E070E0CB01DD2009F470CF93
:103A70001F7161E070E080E090E004C0660F771F86
:103A8000881F991F1A95D2F763CF81E00E942F0FEC
:103A9000F1E0FA1508F0FBCD82E00E942F0FF7CD80
:103AA000AA2039F0893309F47ACE802F0E94D006FB
:103AB000EECD812F8F7179CF0031FFE51F0709F41B
:103AC0006CCB01312FE5120709F471CBC801815E7F
:103AD0009C45059740F46FE1600F6093AF028CE066
:103AE00090E00E947D2817FF95CBF7018281882303
:103AF00009F462C0E091BC02F091BD0280E0309711
:103B000021F00190F081E02D0995869581708093D8
:103B10005D029091AF02913029F4882319F089E376
:103B20000E946F0C8091A90280935C021092A902FE
:103B30008091AF02813009F440CB882309F439CB5E
:103B4000823009F447CB843009F44BCB8FE39CE9F6
:103B50000197F1F700C000005801E894B7F84CE075
:103B6000C42ED12CC5010C2C02C0969587950A94C1
:103B7000E2F78F7096EF980F963008F437CB805DA0
:103B80000E94FB0C94E0C91AD108ECEFCE16EFEFBF
:103B9000DE0641F78091AF02813009F42DCB8823F6
:103BA00009F426CB823009F423CB843009F430CBDE
:103BB00080915C028093A902F7019281992309F414
:103BC00063C010920F030230FCE51F0708F43ACCE3
:103BD00006312CE5120738F098012A5F3C45293060
:103BE000310508F02FCC0E9492089093BA0280937E
:103BF000B90200313CE5130709F4F3CB08F081CB9F
:103C000008309CE5190709F4E2CB08F050CB0430EA
:103C1000FCE51F0709F4D3CB08F036CB02303CE5B6
:103C2000130709F4C2CB03301C4509F4C4CB6091DF
:103C3000B9021091BA0284E090E00E947D28612FC1
:103C400081E290E00E947D280E94831405CA003121
:103C50003FE5130709F4A7CA01318FE5180709F0FA
:103C600042CF82E0A1CA85E0DE01119601900D925B
:103C70008A95E1F7F701228189819A812111C8C9CA
:103C80000E94F905182FCCC906311C4509F074CCE7
:103C900080915E028111EDCB89E20E949A05E4CB0E
:103CA0008272F801E25CFC45E431F10508F05BCC7E
:103CB000E65CF64D0C94E4271F93CF93DF9380913D
:103CC0006402807FA9F480916102882389F0809149
:103CD0009602D091650260915F0270916002A0919E
:103CE0006202B0916302C62FC72316E0D81304C046
:103CF000DF91CF911F91089590E0109711F0CF3F81
:103D000019F401968770F2CF189F9001199F300D1A
:103D10001124F901EA59FD4F41814713F2CF408147
:103D20004613EFCF42814111ECCF438154814A1BAE
:103D30005B0B483C510528F7809164028F708061CD
:103D400080936402F901E559FD4F80818F70806195
:103D500080838FE592E00E94D117DF91CF911F9170
:103D60000C944C06AF92BF92CF92DF92EF92FF92EB
:103D70000F931F93CF93DF93CDB7DEB761970FB645
:103D8000F894DEBF0FBECDBF8C0185E0F801DE01E7
:103D90001D9601900D928A95E1F7F801808191813D
:103DA000E2802FE5A22E22E0B22E60916202709195
:103DB00063026115710509F43EC130915F024091C3
:103DC0006002232F24232F3F09F435C1C380D48000
:103DD000F0906102F601E61BF70BFF2009F4FBC02F
:103DE00020916402522F507FE83CF10508F0BBC0DF
:103DF000511178C0FE2C491321C038131FC0E110A7
:103E00001DC02F70206120936402C5010E94D1174C
:103E100080916402F80185838F2D61960FB6F89426
:103E2000DEBF0FBECDBFDF91CF911F910F91FF90ED
:103E3000EF90DF90CF90BF90AF900895CD2829F0FC
:103E4000282F29232F3F09F014C120E0F22FF17011
:103E5000DF2E20FF3DC0209196024091650256E082
:103E6000241315C08D879E878D859E850E94940A98
:103E7000292F22952F702230F8F0243020F59F70E2
:103E8000F9F0F8019581907FD9F4D12C1FC030E072
:103E9000529FF001539FF00D1124EA59FD4F6181AB
:103EA000961306C06081861303C06281E61210C0BB
:103EB0002F5F3F4F2770D4CF9F7011F0882329F3D5
:103EC000805E883010F3C8010E94D117FD2CA4CF6A
:103ED000EE2009F4A1CF8091640281608093640296
:103EE000F12C9ACF491312C0381310C0E1100EC044
:103EF000F8012583C8010E94D11786E0F801AFE5DB
:103F0000B2E001900D928A95E1F786CF8D879E876A
:103F10008D859E850E949E0A882309F1EE20F9F086
:103F200080916402803270F020915F0230916002D3
:103F300038872F831986DB86CA868C87CE01079641
:103F40000E94D11786E0F801AFE5B2E001900D9232
:103F50008A95E1F70E945C1EFF24F3945DCFC801AF
:103F60000E94D117F9CF51110AC08FE592E00E944B
:103F7000D11786E0F50111928A95E9F7B1CF49137F
:103F80000FC038130DC0E1100BC0F8012583C80124
:103F90000E94D11786E0F50111928A95E9F73CCF8E
:103FA0008D879E878D859E850E949E0A8823B9F203
:103FB000EE20A9F280916402803220F220915F020B
:103FC000309160023A8329831B82DD82CC828E830A
:103FD000CE010196B5CFE83CF105E0F6FE2CEE20CF
:103FE00009F4BDCF491316C0381314C08091640280
:103FF00080FD83CF982F907F09F47FCFF8018583D0
:10400000903F09F477CF982F907F905F8F70892B26
:10401000858370CF8D879E878D859E850E949E0AA1
:10402000811190CF80916402816080936402C80105
:104030000E94D117F1CEEE2009F491CF8D879E8793
:104040008D859E850E949E0AF82E882309F487CFCD
:1040500086E0F801AFE5B2E001900D928A95E1F7B4
:1040600080915F02909160020E94940A0E945C1EFF
:10407000D3CE21E02E25EACE1F93CF93DF93CDB789
:10408000DEB767970FB6F894DEBF0FBECDBF342FF3
:104090004B8B252F5C8B6D8B7E8B8F8B8E899F89B5
:1040A00061111092A8021A8A198A3D872E876F879C
:1040B000998B888B86E0FE013D96DE011796019074
:1040C0000D928A95E1F7CE0107960E94B21E8823D1
:1040D00089F016E08091960290916502891349C09B
:1040E00067960FB6F894DEBF0FBECDBFDF91CF91BC
:1040F0001F91089586E0FE013796DE01119601902A
:104100000D928A95E1F78A859B85892B11F38F8122
:10411000988589238F3FE9F22091650230E0C9013B
:10412000019687709927409196024817190671F4F5
:104130000E948314109265021092960286E0EFE5C9
:10414000F2E0DF011D928A95E9F7C3CF96E0929FD6
:10415000D001939FB00D1124AA59BD4FFE01319695
:1041600001900D929A95E1F7809365020E944C06AA
:10417000B0CF819FC00111248A599D4F0E94B21E69
:10418000882309F4ADCF8091960290E00196877064
:104190009927809396029ECF1F920F920FB60F928F
:1041A00011242F933F934F935F936F937F938F933C
:1041B0009F93AF93BF93CF93DF93EF93FF93D091F0
:1041C000E900DF708091EC00C82FC17080FDC0E86D
:1041D0001092E9008091F000877F8093F00078943E
:1041E0000E9498141092E9008091F00088608093FA
:1041F000F000CD2BCF70C093E900FF91EF91DF91DC
:10420000CF91BF91AF919F918F917F916F915F916E
:104210004F913F912F910F900FBE0F901F901895C7
:104220001F920F920FB60F9211242F933F934F932B
:104230005F936F937F938F939F93AF93BF93EF930E
:10424000FF938091E10082FF09C08091E20082FF2C
:1042500005C08091E1008B7F8093E1008091DA00BE
:1042600080FF24C08091D80080FF20C08091DA00B8
:104270008E7F8093DA008091D90080FF9BC080E11F
:1042800089BD82E189BD09B400FEFDCF81E0809344
:10429000FF028091DA02811109C00E94B2030E94DC
:1042A0007D048091E20084608093E2008091E100CF
:1042B00080FF17C08091E20080FF13C08091E20070
:1042C0008E7F8093E2008091E20080618093E20023
:1042D0008091D80080628093D80019BC85E08093DB
:1042E000FF028091E10084FF29C08091E20084FFF9
:1042F00025C080E189BD82E189BD89B5982F917083
:1043000080FFFBCF8091D8008F7D8093D800809173
:10431000E1008F7E8093E1008091E2008F7E8093A8
:10432000E2008091E20081608093E20080910003CE
:10433000882309F445C084E08093FF028091E10066
:1043400083FF27C08091E20083FF23C08091E100BA
:10435000877F8093E10082E08093FF021092000348
:104360008091E1008E7F8093E1008091E2008E7F5A
:104370008093E2008091E20080618093E20042E05D
:1043800060E080E00E944B048091F00088608093A0
:10439000F000FF91EF91BF91AF919F918F917F912D
:1043A0006F915F914F913F912F910F900FBE0F90A2
:1043B0001F90189519BC1092FF021092DA0276CF66
:1043C0008091E30087FD93E09093FF02B7CFCDB7D4
:1043D000DEB7AA970FB6F894DEBF0FBECDBF84B785
:1043E000877F84BF0FB6F894A8958091600088619C
:1043F00080936000109260000FBE80E890E00FB6DE
:10440000F89480936100909361000FBE85B7806837
:1044100085BF85B7806885BF8DE395E09093A30144
:104420008093A2010E94B2030E947D048091E20069
:1044300084608093E20078948091FF028823A1F049
:104440001091E9001F709091EC00892F817090FD10
:1044500080E8182B1092E9008091E80083FD0E940B
:1044600098141F701093E90082E084BD93E095BD1D
:104470009AEF97BD80936E0080EF0E94DA0784E385
:104480000E94DA0785E30E94DA0786E30E94DA07D2
:1044900086E60E94DA0787E60E94DA0786EF0E9426
:1044A000DA0787EF0E94DA0783E90E94DA0786E9D4
:1044B0000E94DA07E3EBF2E0A4EDB2E011921D9264
:1044C00022E0E93BF207D1F70E949E118FE39CE9BD
:1044D0000197F1F700C000000E949E118091D40264
:1044E00080FF17C06FEF82E290E00E947D286FEF9F
:1044F00083E290E00E947D286FEF84E290E00E94CA
:104500007D286FEF7FEF90E080E00E949B280E9463
:104510009E0B90E080E00E9477288B3E9E4F11F02A
:104520000E94FE12509A589A559A5D9A549A5C9A33
:104530008CE090E00E94692890E0B0E0A0E08093D9
:10454000AF029093B002A093B102B093B20282E2A4
:1045500090E00E946928813209F087C483E290E0EC
:104560000E946928853009F080C484E290E00E94AE
:104570006928883109F079C490E080E00E947728AA
:104580008B3E9E4F11F00E94FE1282E090E00E944E
:1045900069288093CB020E9492089093BA0280937C
:1045A000B90283E090E00E946928682F70E090E0F3
:1045B00080E00E94BA06609110037091110380910F
:1045C0001203909113030E94050E8091BB0281118A
:1045D00036C090E080E00E9477288B3E9E4F21F00D
:1045E0000E94FE120E94731488E090E00E947128DD
:1045F000609368037093690380936A0390936B03DD
:104600006E7F71F40E94731488E090E00E9471281C
:10461000609368037093690380936A0390936B03BC
:104620000E942B071092D3028091680380FF04C080
:1046300060E086950E94751781E08093BB025198D7
:10464000599A52985A9A89B1869581704A9946C169
:1046500090E0892B8093C9028091680381608093E8
:10466000680361E086950E94751760E081E20E9410
:10467000751721E04EE16FEF8AE30E947A1382E121
:1046800091E09093BD028093BC0298E1C92ED12C99
:1046900020E4622E84ED92E036E0732E780E809155
:1046A000FF02BB24B39400E112E1853009F46AC132
:1046B0000E949E11882359F08FB7F8944091090306
:1046C00050910A0360910B0370910C038FBFECECC7
:1046D000F2E0A4EDB2E010E000E0302F8D91919176
:1046E000981709F471C1292F282790E0BB24B394AF
:1046F000422F4B2109F463C199A33AA38B2191E086
:1047000009F490E09BA30E9443058160782F9DA34C
:104710008CA349A15AA16BA18DA10E943C20F80154
:10472000E453FD4F8081B826B0828091D302882364
:10473000D1F18091D202E0916803E695E81BE09305
:10474000C302823009F057C1F0E0E35CF94FE49115
:104750000E2F10E08AE7A82E81E1B82E8091C402C6
:10476000882361F01092C4020E9443059093C20214
:104770008093C1021092C6021092C5020E944305A6
:10478000E091C102F091C2028E1B9F0B8F3F9F47A9
:1047900050F4E00FF11FF093C202E093C10281ECEC
:1047A00092E0F5010995E091C902EE0FEE0FE0935A
:1047B000C90289B181FBEE24E0F84A9988C180E002
:1047C0008E29E82BE093C902EF70F0E0ED57FE4F21
:1047D00080819091C802890F8093C80220E08430C4
:1047E000B4F08091C7028F5F8093C702609110037D
:1047F0007091110380911203909113030E94450858
:1048000042E060E00E94A0080E946F0C21E08091CD
:10481000C8028D3FB4F48091C70281508093C702D3
:104820006091100370911103809112039091130312
:104830000E94450840E060E00E94A0080E946F0CC2
:1048400021E08091C802082E000C990B64E070E012
:104850000E94D0278093C802222359F08FB7F89482
:104860004091090350910A0360910B0370910C036E
:104870008FBF0E94C4069091CA02891731F00E942E
:10488000C4068093CA020E9434088091FF028430DB
:1048900009F005CF83E08093E9008091E80082FF72
:1048A000FECE8091E80090E085FF06C00E94D10313
:1048B000882309F40FC191E08091E8008B77809301
:1048C000E800992309F4EBCEE981E150E33108F0E7
:1048D00083C1F0E0E25BF64D0C94E42792E0B9CEA0
:1048E0008091FF02843009F440C080E00E943408C7
:1048F0001092D3028091C002811116C0B092C00202
:1049000080916803982F91709093BF028E7F80935F
:1049100068038FEF90E7E2E081509040E040E1F7DC
:1049200000C000000E94610D1092BE020FB6F89404
:10493000A895C09260000FBE6092600083B7817F2F
:10494000846083BF83B7816083BF7894889583B781
:104950008E7F83BF0FB6F894A89580916000886120
:1049600080936000109260000FBE8091FE02882349
:1049700049F00E949E11E4EDF2E0819181115FC245
:104980007E12FBCF8091FF02853009F4A9CF0E94EF
:1049900083140E94C4060E9434081092C0028091C1
:1049A000BF02882349F08091680381608093680387
:1049B00060E086950E9475170E945F1779CE9F5F11
:1049C000BB0C943009F094CE0F5F1F4F06301105D9
:1049D00009F083CE8FEF8EA38FA318A60E94430504
:1049E0008160782F9AA789A74EA15FA168A58AA5A3
:1049F0000E943C209ACE863059F4F0E0E65CF94FF4
:104A0000E4910E2F10E0BEE8AB2EB1E1BB2EA6CE96
:104A1000893061F4E695F0E0E95CF94FE4910E2FFE
:104A200010E0A8E6AA2EAFE0BA2E98CE8F3061F43F
:104A3000E695F0E0EC5CF94FE4910E2F10E0F2E91E
:104A4000AF2EFFE0BF2E8ACE853159F4F0E0EF5C47
:104A5000F94FE4910E2F10E0E0E0AE2EE0E1BE2E23
:104A60007DCE08E210E05EE4A52E50E1B52E88313F
:104A700009F474CE833249F4EFE2F6E00591149123
:104A800071E2A72E71E1B72E69CE04EF11E047ED78
:104A9000A42E40E1B42E843209F460CE00ED17E07C
:104AA0003CE3A32E35E0B32E853209F057CE8E2F8E
:104AB00063E00E94A227E92FF0E0E45DF94FE49162
:104AC0000E2F10E06FE4A62E62E1B62E47CE82E0F4
:104AD00090E076CE00E210E0CE0101965C0180917C
:104AE000E80085FD0AC08091E8008B778093E8009C
:104AF0000E94D103882399F3DECE8091F100F50165
:104B000081935F010150110951F7D5CE1A8289E0D6
:104B10008B832DC08A81823009F4C0C18330A9F013
:104B2000813009F059C02FB7F89460910903709152
:104B30000A0380910B0390910C032FBF0E94EA2778
:104B40006B837C838D839E8312C08091D4028B8380
:104B50008091D5028C838091D6028D838091D7027B
:104B60008E838091D8028F838091D902888780912B
:104B7000FF02843009F093CD1091E9001F709091ED
:104B8000EC00892F817090FD80E8182B82E08093E3
:104B9000E9008091E80080FF0DC050E040E060E255
:104BA00070E0CE0101960E9402048091E8008E77A9
:104BB0008093E8001F701093E90071CD8A818230E4
:104BC00059F46B817C818D819E810E94EA2785E268
:104BD00090E00E947D28CBCF8FEF8983C8CF4C8196
:104BE0006B818A810E94A0089827892798279E8335
:104BF0008D83BDCFAD80BE80BA24AB24BA248A8118
:104C00000B81F8E00F9F8001112420E3829F000DAB
:104C1000111D11248C8190E0880F991F080F191F16
:104C20006B2DC80186960E947D286A2DC801879643
:104C3000D0CF0E94C20A9BCF8A818138C1F060F434
:104C4000803809F094CF20E04B8160916A03809115
:104C500069030E947A138BCF823859F1833809F0A7
:104C600086CF20E040916B036C818B81F2CF60E0B6
:104C70008B810E9475179B8180916803911111C0EF
:104C80008E7F809368031092D3028FEF90E7E2E06B
:104C900081509040E040E1F700C000000E94610DAB
:104CA00066CF81608093680360E086950E947517E7
:104CB0005ECF8B8180936C035ACF8A81813899F0C3
:104CC00030F4803809F053CF80916B0321CF8238C4
:104CD00091F0833809F04BCF809169038B838091E9
:104CE0006A038C8344CF8091680380FF02C086955D
:104CF0000FCF80E00DCF80916C030ACF60916803E5
:104D00007091690380916A0390916B030E9468130C
:104D10002ECF80E18A832BCF81E08A838AEFF8CE81
:104D20008A809B809824892498248E010F5F1F4FCE
:104D3000AC80A00EB12EB11CC4018A5F9D4FA0169D
:104D4000B10609F414CFFAEF8F16F1E09F0650F484
:104D50000E946928F8018483FFEF8F1A9F0A0F5F72
:104D60001F4FEACFF8011482F7CF0A811B81102769
:104D700001271027CE0101964C01AC80A00EB12E68
:104D8000B11CC8018A5F9D4F0A151B0509F4EFCEBF
:104D90000A3FE1E01E0720F4F40164810E947D28AF
:104DA000FFEF8F1A9F0A0F5F1F4FEBCF0E94140B6C
:104DB000DECE8AE0AFCFAA80BB80BA24AB24BA246F
:104DC0008E010F5F1F4F8C80800E912E911CC501AC
:104DD00086968016910609F4CACE20EEA21621E02E
:104DE000B20650F40E946928F8018483FFEFAF1ADD
:104DF000BF0A0F5F1F4FEBCFF8011482F7CF0A8174
:104E00001B81102701271027CE0101964C01AC8091
:104E1000A00EB12EB11CC8018696A016B10609F4E9
:104E2000A6CE003EE1E01E0720F4F40164810E945A
:104E30007D28FFEF8F1A9F0A0F5F1F4FECCF09BD30
:104E400019BD09B400FEFDCF8091D8008F7D8093FD
:104E5000D8008091E00082608093E0008091E000C3
:104E600081FDFCCF0E9483148DCD60E085E290E04F
:104E70000E947D280E94C20A0E94140B61E282E215
:104E800090E00E947D2865E083E290E00E947D280A
:104E900068E184E290E00E947D286ECB85E290E09C
:104EA0000E9469281B821C821D828E8360CE7894AA
:104EB0001F921FB61F9211248F939F93AF93BF939E
:104EC0008091090390910A03A0910B03B0910C0308
:104ED0000196A11DB11D8093090390930A03A0932D
:104EE0000B03B0930C03BF91AF919F918F911F90D3
:104EF0001FBE1F9018951F921FB61F9211248F93EB
:104F00009F93AF93BF938091BE02811113C0809194
:104F1000090390910A03A0910B03B0910C034196F1
:104F2000A11DB11D8093090390930A03A0930B0365
:104F3000B0930C03BF91AF919F918F911F901FBEB3
:104F40001F901895991B79E004C0991F961708F0D7
:104F5000961B881F7A95C9F78095089587FB082EC0
:104F6000062687FD819567FD61950E94A2270EF4B4
:104F7000919507FC81950895AA1BBB1B51E107C0C1
:104F8000AA1FBB1FA617B70710F0A61BB70B881FD9
:104F9000991F5A95A9F780959095BC01CD01089568
:104FA00097FB072E16F4009407D077FD09D00E94D6
:104FB000BC2707FC05D03EF4909581959F4F08953E
:104FC000709561957F4F0895EE0FFF1F0590F49146
:104FD000E02D09946927962769277827872778275E
:104FE00008950E940529332312F48A1B9B0B0C940D
:104FF000FB270E940529B7FF0895821B930B089594
:105000008F929F92AF92BF92CF92DF92EF92FF92D8
:10501000CF93DF93EC01688179818A819B8161154F
:1050200071058105910521F464E279ED8BE597E046
:105030002DE133EF41E050E00E94B12849015A01CF
:105040009B01AC01A7EAB1E40E94D0286B017C016E
:10505000ACEEB4EFA50194010E94DE28DC01CB0187
:105060008C0D9D1DAE1DBF1DB7FF03C00197A1098B
:10507000B04888839983AA83BB839F77DF91CF91C0
:10508000FF90EF90DF90CF90BF90AF909F908F9068
:1050900008950E940028089580E091E00E94002871
:1050A0000895B0E0A0E08093000190930101A093E7
:1050B0000201B09303010895FC014150504030F0CB
:1050C00001900616D1F73197CF01089588279927C7
:1050D0000895F999FECF92BD81BDF89A992780B5C0
:1050E0000895A6E1B0E044E050E00C94A328A8E1C4
:1050F000B0E042E050E00C94A328262FF999FECFAF
:1051000092BD81BDF89A019700B4021639F01FBA1A
:1051100020BD0FB6F894FA9AF99A0FBE0895039637
:10512000272F0E947E280E947D28252F0E947E28FE
:10513000242F0C947E280196272F0E947E280C9401
:105140007D28DC01CB01FC01F999FECF06C0F2BD40
:10515000E1BDF89A319600B40D9241505040B8F735
:105160000895052E97FB1EF400940E94C82857FD51
:1051700007D00E94E32807FC03D04EF40C94C82803
:1051800050954095309521953F4F4F4F5F4F089573
:1051900090958095709561957F4F8F4F9F4F0895A3
:1051A0000E940529A59F900DB49F900DA49F800D8E
:1051B000911D11240895B7FF0C94D0280E94D02887
:1051C000821B930B0895A1E21A2EAA1BBB1BFD01A3
:1051D0000DC0AA1FBB1FEE1FFF1FA217B307E407D6
:1051E000F50720F0A21BB30BE40BF50B661F771F2E
:1051F000881F991F1A9469F760957095809590950E
:105200009B01AC01BD01CF010895A29FB001B39FE6
:10521000C001A39F700D811D1124911DB29F700DBF
:10522000811D1124911D0895F894FFCFAD0AAD0A98
:10523000B60AB60AB80AB60AB60AB60AAD0AAD0A7E
:10524000BD0AB60AB60ABD0A7D15A515F815A5153D
:10525000F815D8151016F8150D171A17121B121B72
:10526000831B831BD91B471B471B471BF31BC91CF5
:10527000D81CD81C3B1A621A691A6E1A731A781A4B
:105280007D1A821A871A8C1A911A961A991A9E1ADE
:10529000A11AA41AA71AAA1AAD1AB01A86258A2525
:1052A000DE25EF25FA2519261C265D267E26EC250F
:1052B000EC2589268C269026B526D626D926DB26EF
:0252C000FF26C7
:1052C2000100000001191A1B1C1D1E1F20212201B2
:1052D200020140055E0B3F055A0B560B010001020D
:1052E2000202020606060909090909090F0F0F0F32
:1052F2000F0F15151518191919191919191919193D
:105302002324252525252525818283E200E900EA3B
:1053120000B500B600B700CD008301CC008A01922F
:105322000194012102230224022502260227022AD5
:1053320002B300B4006F007000F03435366667F6D1
:10534200F7939600FF0100010000FFFF000001003B
:1053520001FF0040226D3B011901AC0053066C06AF
:025362008C06B7
:00000001FF
