:100000000C944E030C9495030C9495030C94950357
:100010000C9495030C9495030C9495030C94950300
:100020000C9495030C9495030C94B8230C947423AE
:100030000C94C2270C9495030C9495030C9495038F
:100040000C9495030C9495030C9495030C949503D0
:100050000C9495030C949E270C9495030C94950393
:100060000C9495030C9495030C9495030C949503B0
:100070000C9495030C9495030C9495030C949503A0
:100080000C9495030C9495030C9495030C94950390
:100090000C9495030C9495030C9495030C94950380
:1000A0000C9495030C9495030C94950357006000F1
:1000B000000057005F00000000000000000000008A
:1000C0000000000000000000000000000000000030
:1000D0000000000000000000000000007E0F00D4BF
:1000E000FFFFFFC7000000780000000000000000D4
:1000F0002A2B280000000000000000000000000083
:1001000000000029000000002C1E3420212224348D
:100110002627252E362D3738271E1F20212223245F
:1001200025263333362E37381F0405060708090AFB
:100130000B0C0D0E0F101112131415161718191A97
:100140001B1C1D2F3130232D350405060708090A15
:100150000B0C0D0E0F101112131415161718191A77
:100160001B1C1D2F3130354C000101010101010123
:10017000010102020202020202020203030303035C
:10018000030303040404040404040505050505062B
:1001900006060606070707070708080808090909E9
:1001A000090A0A0A0B0B0B0C0C0C0D0D0D0E0E0E92
:1001B0000F0F0F1010111111121213131414151523
:1001C00016161717181819191A1A1B1B1C1D1D1E95
:1001D0001E1F2020212222232424252626272829E9
:1001E000292A2B2C2D2D2E2F303132323334353617
:1001F0003738393A3B3C3D3E3F4041424344454617
:100200004748494A4C4D4E4F5051535455565859F2
:100210005A5B5D5E5F616264656668696B6C6D6F99
:100220007072737577787A7B7D7E8082838587880C
:100230008A8C8E8F91939596989A9C9EA0A2A3A546
:10024000A7A9ABADAFB1B3B5B7BABCBEC0C2C4C647
:10025000C9CBCDCFD1D4D6D8DBDDDFE2E4E7E9EB03
:10026000EEF0F3F5F8FAFDFFFFAA7F554008070608
:10027000050D0C0B0A11100F161514131A181B126A
:100280000903010002040E17192223252628292A12
:100290002C2D2F3032333536383A3B3D3E404243E9
:1002A0004547494A4C4E5051535557595A5C5E6028
:1002B00062646668696B6D6F71737577797B7D7F3A
:1002C00081838587898A8C8E90929496989A9C9E39
:1002D0009FA1A3A5A7A8AAACAEAFB1B3B4B6B8B955
:1002E000BBBCBEBFC1C2C3C5C6C7C9CACBCCCDCEBD
:1002F000D0D1D2D2D3D4D5D6D7D7D8D9D9DADADBA0
:10030000DBDBDCDCDCDCDCDDDDDDDDDCDCDCDCDC2B
:10031000DBDBDBDADAD9D9D8D7D7D6D5D4D3D2D26A
:10032000D1D0CECDCCCBCAC9C7C6C5C3C2C1BFBE52
:10033000BCBBB9B8B6B4B3B1AFAEACAAA8A7A5A3BD
:10034000A19F9E9C9A98969492908E8C8A8987857C
:1003500083817F7D7B79777573716F6D6B6968665B
:100360006462605E5C5A5957555351504E4C4A492D
:1003700047454342403E3D3B3A3836353332302FD5
:100380002D2C2A2928262523224B007F004E0000F1
:100390000001515400550000575F00600061005794
:1003A000005C005D005E00000059005A005B0058D0
:1003B000006200000063000000500001004F0000D8
:1003C000000100AD002C0053001450025303532AC7
:1003D0000001000100010000000100010001000017
:1003E0005C005C0000010000002F000100300000F4
:1003F0000010500500170011030D00160007002D16
:1004000001060119011000000011011D03E1005750
:10041000012C000000E20000002A5D0100295D00BF
:10042000001050B9004A0017012B0352002B011A8B
:1004300001500051004F000000B6002C00B700280A
:10044000004E0000004B0000002A5D0100295D0005
:1004500000105001000100010001005200010001E4
:1004600000500051004F00000010033D08010047FC
:1004700000680000006900000001000100010000A8
:100480000001000100010001000100010001000164
:100490000001000100010000000100010001000155
:1004A0000001000000010000000100010001000047
:1004B0000001000100010001000100010001000134
:1004C0000001000100010000000100010001000125
:1004D0000001000000010000000100010001000017
:1004E0000001000100010001000100010001000104
:1004F00000010001000100000001000100010001F5
:1005000000010000000100000001000100010000E6
:1005100000010001000100010001000100010001D3
:1005200000010001000100000001000100010001C4
:1005300000010000000100000001000100010000B6
:1005400000010001000100010001000100010001A3
:100550000001000100010000000100010001000194
:100560000001000000010000001E0F0500047F3F95
:100570001F643214643214783C1E1E140A050501EF
:100580000980A101850319012AB700150126B700CA
:10059000950175108100C0050C0901A101850419A0
:1005A000012AA002150126A002950175108100C044
:1005B00005010906A1018505050719E029E71500D0
:1005C00025019508750181020507190029EF15001D
:1005D000250195F075018102050819012905950588
:1005E00075019102950175039101C005010906A1EC
:1005F00001050719E029E715002501950875018116
:10060000029501750881010507190029FF150026CB
:10061000FF00950675088100050819012905950553
:1006200075019102950175039101C009023B000219
:100630000100A0FA090400000103010100092111D1
:100640000100012240000705810308000A09040196
:10065000000103000000092111010001226D0007C3
:1006600005820320000A12011001000000084B411E
:1006700015000200010200010A035000530031007E
:10068000370000001203410054004C0041004E00AE
:1006900054004900530000000403090411241FBE44
:1006A000CFEFDAE0DEBFCDBF04B603FE27C08091F6
:1006B000A1039091A203A091A303B091A40387305A
:1006C000904BA740B04BD1F41092A1031092A2031B
:1006D0001092A3031092A40314BE84B7877F84BF33
:1006E0000FB6F894A89580916000886180936000AF
:1006F000109260000FBEE0E0F8E3099523E0AAEB5A
:10070000B1E001C01D92A13AB207E1F711E0A0E00B
:10071000B1E0ECE1F3E502C005900D92AA3BB10710
:10072000D9F70E948F240C9454290C940000E8ED12
:10073000F0E080818E7F80831092E2001092DA00D8
:100740001092E100A0EEB0E08C9181608C938081EA
:100750008F77808319BCA7EDB0E08C918E7F8C934E
:1007600080818F7E80831092160308952091E4008B
:100770003091E50095E6A9012091EC00822F81706F
:1007800020FF06C08091E80080FF06C080E0089549
:100790002091E80022FD1AC080913B03882389F054
:1007A000853089F08091EB0085FD0FC02091E40039
:1007B0003091E50042175307F9F29150E1F684E0D9
:1007C000089582E0089583E0089581E00895EF920E
:1007D000FF920F931F93CF937C018B010E94B6036E
:1007E000C82F811117C08091E80085FD0BC0809152
:1007F000E8008E778093E8000E94B603882399F37F
:10080000C82F08C0F70181917F018093F10001504A
:10081000110949F78C2FCF911F910F91FF90EF9005
:10082000089580913D0387FF13C08091E80082FF07
:1008300006C08091E8008B778093E80004C0809127
:100840003B038111F2CF089580913B038823D9F3B4
:100850008091E80080FFF8CF8091E8008E77ECCFA0
:10086000982F9093E900242F762F50E0891731F0CC
:100870007091EC002091ED005091F00021FD07C037
:100880009F5F973071F78093E90081E00895309180
:10089000EB003E7F3093EB003091ED003D7F3093D5
:1008A000ED003091EB0031603093EB007093EC0081
:1008B0002093ED005093F0002091EE0027FDE0CF53
:1008C00080E00895CF92DF92EF92FF920F931F93F3
:1008D000CF93DF93C8EDD0E088818F7E8883E7EDEA
:1008E000F0E080818160808384E082BF81E080933A
:1008F000160388818E7F888302EE10E0F801108253
:100900001092DA0081EEC82ED12CF6011082888177
:100910008F77888388818068888388818F7D8883AA
:1009200019BC10923B0310923C0310923A031092B0
:10093000390390EEE92EF12CF70180818B7F8083C3
:1009400088818160888342E060E080E00E9430041A
:10095000F60180818E7F8083F801808181608083B1
:10096000808188608083F70180818E7F8083888189
:1009700080618883DF91CF911F910F91FF90EF905D
:10098000DF90CF900895FC01809143039091440340
:1009900086179707A0F06115710529F49091E8007A
:1009A0009E779093E80090E06115710551F49111E4
:1009B00008C08091E80082FF34C080E00895BC0147
:1009C000F2CF80913B038823C1F18530C1F1809142
:1009D000E80083FD30C08091E80082FDEACF80917D
:1009E000E80080FFE1CF8091F3002091F200382FE2
:1009F0006115710519F02830310558F091E0283063
:100A0000310509F090E02091E8002E772093E8006E
:100A1000CBCF81918093F100615071092F5F3F4FDF
:100A2000E7CF80913B03882341F0853041F08091EE
:100A3000E80083FFBECF81E0089582E0089583E05F
:100A40000895089580E00895089580911803089509
:100A50009C014FB7F89480910A0390910B03A091E9
:100A60000C03B0910D034FBF821B930B08952FB75A
:100A7000F89480910A0390910B03A0910C03B0911C
:100A80000D032FBF08958091DE0281111092DE02C6
:100A9000089580959091DD0298239093DD0208954A
:100AA0008091DD029091DC02892B9091DB02892BF1
:100AB0008093BC019091DE029923A1F0892B809351
:100AC000BC0180914201882341F18091F10287FFAE
:100AD00024C08EE1EEEBF1E090E0815000F5911141
:100AE0000E944305E091F402F091F5023097E1F0A5
:100AF00080914201882359F08091F10287FF07C05D
:100B00008091BC018093BD0185E08093BC0102808F
:100B1000F381E02D8CEB91E0099486E0DBCF21910D
:100B20002223D9F29F5FD9CF089590914201992352
:100B3000D1F09091F10297FF16C0E82FE695E69567
:100B4000E695EE31E0F4F0E0E454FE4F282F2770F4
:100B500081E090E001C0880F2A95EAF780959281A4
:100B6000892382830895EEEBF1E09191891303C00C
:100B7000DF0111971C9291E0E43CF907B1F7089569
:100B8000909142019923C1F09091F10297FF14C016
:100B9000E82FE695E695E695EE31F8F4F0E0E454BA
:100BA000FE4F877021E030E001C0220F8A95EAF7FE
:100BB0008281822B82830895AEEBB1E0EFEF90E06B
:100BC0002D91821751F0EF3F19F4211101C0E92F47
:100BD0009F5F9630A9F7EF3F09F408950E2E000CA1
:100BE000FF0BE454FE4FE6CF990F990F890F982F12
:100BF000977086958695869525E0829FF001112451
:100C0000E553FD4F50E040E080E0219130E0092EB7
:100C100002C0369527950A94E2F721703327042EF7
:100C200001C0220F0A94EAF7822B4F5F5F4F4530D5
:100C3000510559F70895990F990F890F982F9770BB
:100C400041E001C0440F9A95EAF78695869586950E
:100C500095E0899FF0011124E553FD4F30E020E03D
:100C600070E05191DF011197CB01022E02C09695E1
:100C700087950A94E2F781708195852784238527DB
:100C80008C932F5F3F4F2530310559F708958091A0
:100C9000CA0290919902981301C008958F5F8770DE
:100CA000FACF882341F080959091DC0289238093CC
:100CB000DC020C9450050895882339F09091DC02F1
:100CC000982B9093DC020C9450050895882321F012
:100CD0000E9449050C9450050895882339F090919D
:100CE000DD02982B9093DD020C945005089520911D
:100CF0007202309173022817390771F090937302D2
:100D000080937202E091F402F091F502309721F0A5
:100D10000084F185E02D09940895209170023091AE
:100D200071022817390771F0909371028093700255
:100D3000E091F402F091F502309721F00680F781FE
:100D4000E02D0994089590E080E00E948D0690E0E7
:100D500080E00E9477061092DC021092DB020C9475
:100D600050056093DF027093E0028093E10290935C
:100D7000E2020C94A306E091F402F091F5023097A0
:100D800021F00190F081E02D099480E008958823FE
:100D900009F44BC0823871F40E94BB0681FF45C044
:100DA00089E30E94C0050E94500589E30E949505D1
:100DB0000C945005833859F40E94BB0680FF35C05F
:100DC00083E50E94C0050E94500583E5EFCF84387B
:100DD00059F40E94BB0682FF28C087E40E94C00528
:100DE0000E94500587E4E2CF9CEF980F913AF0F211
:100DF00090E2980F983050F4877091E001C0990FFD
:100E00008A95EAF7892F0E944905D2CF9BE5980F72
:100E1000933020F490E080E00C948D06885A87315E
:100E200020F490E080E00C9477060895CF93DF9350
:100E3000EC0181E0898B8091DD029F81892B809379
:100E4000DD028091DC029885892B8093DC020E9470
:100E50005005EA81FB81309739F06C897D89CE019C
:100E60000696DF91CF910994DF91CF910895EF928B
:100E7000FF920F931F93CF93DF93EC018A8581112B
:100E800039C0EB80FC8087E5F81A26E12E9DC00171
:100E90002F9D900D1124DC01AA5EBE4F1496ED919A
:100EA000FC911597309731F054966D917C91845E4A
:100EB0009E4F099586E18E9D80018F9D100D112416
:100EC0000A5E1E4FF80187810E944905F80180855E
:100ED000982F90958091DC0289238093DC020E94F8
:100EE0005005188219861B861E821D821092780278
:100EF00010927702DF91CF911F910F91FF90EF90A9
:100F00000895FA01811101C0FB01099480919C03AD
:100F1000982F9E7F61F48170826080939C03809102
:100F20009F03893C18F088EC80939F0308958635D1
:100F3000B0F381708465F1CFAF92BF92DF92EF92F0
:100F4000FF920F931F93CF93DF93182F062FE90182
:100F5000493C08F048ECE42FF0E0E859FE4F01115D
:100F600010C0E4915E2F4E2F4983E8835A83DF91AE
:100F7000CF911F910F91FF90EF90DF90BF90AF90B6
:100F80000895202F30E04491D42EE42EF12C56E029
:100F9000159FC0011124EFEFF0E0BF010E9403286C
:100FA000812F90E0880F991F55E5569FD001579FDC
:100FB000B00D11248A1B9B0B982F990F890F5F018D
:100FC000A21AB30AAE9CD001AF9CB00DBE9CB00D6E
:100FD00011245B2F089F80011124012F11275F012D
:100FE000A01AB10AAE9C8001AF9C100DBE9C100DE2
:100FF00011245F01A81AB108A29EC001A39E900D02
:10100000B29E900D1124892F9927E81BF90BEE9DB4
:10101000C001EF9D900DFE9D900D1124E92F6230CF
:101020007105A1F050F46115710509F49DCF61308F
:10103000710581F0EB2F512F97CF6430710569F066
:1010400080F06630710509F48FCFF4CFE42F4B2F79
:10105000592F8ACFE42F412F87CFEB2F542F492FC1
:1010600083CF4B2F5D2DE12F7FCFF894E82FE295B2
:10107000EF70F0E031A1282F2F7081E090E001C0E7
:10108000880F2A95EAF7982F9095932391A392A120
:10109000892B82A3789408959091F10292FF06C063
:1010A000282F28712830F9F4877F846093FF06C0C9
:1010B000282F28712831F1F4877E84612091F20273
:1010C00020FF06C0382F38713830D9F4877F81600F
:1010D00021FF06C0282F28712831D1F4877E816135
:1010E00094FD877E0895282F24712430F9F68B7F94
:1010F0008860DCCF282F2471243101F78B7E886132
:10110000DDCF382F3171313019F78E7F8860E0CF15
:10111000282F2171213121F78E7E8861E1CFCF9375
:10112000DF9326E0829FC0011124FC01E70FF11D2F
:10113000EE0FFF1FEE0FFF1FE60FF11DEE0FFF1F5B
:10114000E757FC4FC591D491CE01C238D105B9F112
:10115000E8F5C133D10509F499C050F5C932D1057C
:1011600009F48DC0CA32D10509F497C0C11532E522
:10117000D30708F0B6C0C11541E5D40708F024C173
:10118000C83ED10508F09DC0C13ED10568F5C83AFA
:10119000D10508F089C0C53AD10508F0EDC0C130CD
:1011A000D10511F1209709F443C02497E8F440C019
:1011B000C533D10509F45CC0C933D105B9F6209116
:1011C000F102237089F080EE90E00EC0C33ED1059D
:1011D00091F168F4C03ED105F9F0C23ED10531F677
:1011E0002091F10222FD20C0DF91CF910895C63EEB
:1011F000D10561F1C73ED10581F1C43ED10509F0A9
:10120000B5CF2091F20221FFEFCF8091F10284FD52
:101210000FC087EE90E0E8CF2091F10220FD01C1E0
:101220003091F20230FFE0CF83EE90E024FFDCCF7C
:1012300090E080E0D9CF2091F10222FDF5C03091FD
:10124000F20230FDC0CF24FFCFCFF2CF2091F102C8
:1012500023FFCACF24FDECCFDCCF2091F10223FD88
:10126000E6C03091F20231FFEECF84EE90E0BCCFC9
:101270002091F10225FFB8CF89E290E0B5CF20910F
:10128000F10225FFB1CF85E390E0AECF2091F102CE
:1012900026FFAACF8AE290E0A7CF2091F10226FF95
:1012A000A3CF81E390E0A0CFCF3BD10508F6C85A89
:1012B000D0E0CC0FDD1FCF58DE4F88819981946438
:1012C00093CFC11520E5D20708F062C0C11530E404
:1012D000D30708F059C0DA95C115DF4108F484CF6F
:1012E000A7CFC11586E5D80718F5C11525E5D207A2
:1012F00008F080C0C11534E5D30708F076C09C2FF4
:1013000096959695AE0143705527C115D34508F4BF
:1013100060C021E030E002C0220F331F4A95E2F79F
:1013200040E2949FC0011124822B932B9A685CCFDA
:10133000C1152AE5D20778F4C11539E5D30708F0BD
:1013400063C0C11548E5D40708F472CF9C2F8827E5
:10135000806F906A49CFCE0190568115904208F077
:1013600067CF8D2F8F710E944C0890E0982F8827AF
:1013700088279F718C2B46C0C55AD0E0C259DE4FDA
:10138000888190E0906430CFCE019F70906A2CCF1E
:101390009E01E4E036952795EA95E1F723708C2FBE
:1013A00086958695837030E2839FC0011124922B2D
:1013B000C37021E030E002C0220F331FCA95E2F76C
:1013C000822B932B9C6810CF9C2F8827816F906A6B
:1013D0000BCF21E030E002C0220F331F4A95E2F725
:1013E00040E2949FC0011124EBCF9C2F8827846F8B
:1013F000906AFACE8C2F0E944C0890E0982F882794
:1014000088279F719062F0CE8C2F8F700E944C08BD
:1014100034E0D695C7953A95E1F7CF709C2F906947
:10142000E3CE89E390E0E0CE82EE90E0DDCE86EE82
:1014300090E0DACEBF92CF92DF92EF92FF920F93BD
:101440001F93CF93DF938C01C090ED02D090EE02FA
:10145000E090EF02F090F0028091DF029091E002C4
:10146000A091E102B091E202C82AD92AEA2AFB2A15
:10147000CFE1D0E0BC2ED701C6010C2E04C0B6953A
:10148000A795979587950A94D2F780FD0EC021976E
:1014900088F7B12C8B2DDF91CF911F910F91FF9089
:1014A000EF90DF90CF90BF900895B8018C2F0E94ED
:1014B0008F08019761F3EECFCF93DF93EC010E9489
:1014C0001A0ABE01DF91CF910C948F080E945C0A2A
:1014D000292F2F7092959F7092509E3078F4E92FAB
:1014E000F0E0EA5AF64D0C942B28803F19F020F4D6
:1014F000883E20F481E00895843FE1F380E0089580
:10150000883EC0F3813FD1F7F5CF822F869586952F
:1015100086950895809580FF08C0589A81FF07C07E
:101520005D9A82FF06C05C9A08955898F7CF5D983F
:10153000F8CF5C980895CF93DF939C013A952115DD
:101540003F4168F5EC01CC27D170DC01AA27B270CD
:10155000AC01442754709C012227387094FF11C0BD
:1015600080E1CD2B09F480E0AB2B09F08062452BA4
:1015700009F08064232B09F08068FB01DF91CF9193
:10158000099481E0CD2B09F480E0AB2B09F0826057
:10159000452B09F08460232B81F38860EECFDF9127
:1015A000CF910895CF93DF93EC010E94C706CE013F
:1015B000805E9109089720F061E576E0209711F4AC
:1015C00066E676E0CE01DF91CF910C949B0AFC0198
:1015D0008081813029F4FB01808191810C94D20AB1
:1015E000823021F4FB0182819381F8CF0895CF935B
:1015F000DF9300D00F92CDB7DEB790913B039430CC
:1016000019F589837B836A8382E08093E9008FEFF9
:101610009091E800815095FD06C095ED9A95F1F7FF
:1016200000008111F5CF8091E80085FF0DC050E0EA
:1016300040E063E070E0CE0101960E94E7038091F4
:10164000E8008E778093E8000F900F900F90DF9165
:10165000CF910895BC0184E00C94F70ABC0183E0AB
:101660000C94F70ACF93DF93EC0180914201882319
:10167000B1F18091F10287FF32C060E282E0809395
:10168000E9008FEF9091E800815095FD06C095ED3F
:101690009A95F1F700008111F5CF8091E80085FF60
:1016A0001BC08091420170E050E040E0811104C015
:1016B00050E040E068E070E0CE010E94E7038091D6
:1016C000E8008E778093E80080E2FE01A9E1B3E0B4
:1016D00001900D928A95E1F7DF91CF91089568E02E
:1016E00081E0CDCFCF93C82F882309F4A6C08238DC
:1016F000C1F40E94BB0681FDA0C089E30E94C00521
:101700000E9450052FEF81EE94E0215080409040E0
:10171000E1F700C0000089E30E949505CF910C9489
:1017200050058338A1F40E94BB0680FD86C083E586
:101730000E94C0050E9450052FEF81EE94E02150D9
:1017400080409040E1F700C0000083E5E5CF843899
:10175000A1F40E94BB0682FD70C087E40E94C00510
:101760000E9450052FEF81EE94E021508040904080
:10177000E1F700C0000087E4CFCF8CEF8C0F813AF7
:1017800088F580914201882301F18091F10287FF61
:101790001CC0EC2FE695E695E695F0E0E454FE4F8C
:1017A000828190E04C2F477021E030E002C0220F90
:1017B000331F4A95E2F782239323892B79F08C2FEC
:1017C0000E9495050E94500509C0EEEBF1E0819161
:1017D000C817A9F321E0E43CF207C9F78C2F0E9457
:1017E000C0059CCF80E28C0F883068F4C77021E080
:1017F00030E001C0220FCA95EAF78091DD02822B0A
:101800008093DD028BCFEBE5EC0FE33040F4F0E0AA
:10181000E259FE4F808190E0CF910C948D06C85A1A
:10182000C73158F4EC2FF0E0EE0FFF1FEF58FE4FDA
:1018300080819181CF910C947706CF9108951F9369
:10184000CF93DF93182FD0E0C0E0893311F4C0E5C7
:10185000D0E0812F0E94720B209731F4812FDF910D
:10186000CF911F910C94C7068FE99FE00197F1F784
:1018700000C000002197F0CF0F931F93CF93DF9309
:10188000C62FD42F022FFC0182818823A1F0609300
:1018900047030E9437059093460380934503C77022
:1018A00081E001C0880FCA95EAF7DF91CF911F91BF
:1018B0000F910C946D0680914703681335C0809199
:1018C0004503909146030E942805883C910560F5E8
:1018D00010E21D0FCD17B9F080E28C0F883040F474
:1018E000C77081E001C0880FCA95EAF70E946606BA
:1018F000183048F481E09D2F977001C0880F9A95A9
:10190000EAF70E946D06802F0E941F0C183098F491
:10191000D77081E001C0880FDA95EAF7DF91CF91A7
:101920001F910F910C946606C77081E001C0880F6B
:10193000CA95EAF7F3CFDF91CF911F910F910895E8
:10194000DF92EF92FF920F931F93CF93DF93E82FD5
:10195000F0E0E851FF4FD490282F26952695269544
:1019600030E0F901E852FF4F0491877010E0082E33
:1019700002C0159507950A94E2F701701127F90145
:10198000E853FF4FE490F12C082E02C0F594E79441
:101990000A94E2F791E0E922FF24F901E854FF4FAD
:1019A000C491D0E002C0D595C7958A95E2F7C17081
:1019B000DD270115110519F081EE0E94720BE1146B
:1019C000F10419F086EE0E94720B8D2D0E941F0CFF
:1019D000EF2819F086EE0E94C706012B19F081EE60
:1019E0000E94C706CD2B51F08CE2DF91CF911F9161
:1019F0000F91FF90EF90DF900C941F0CDF91CF912F
:101A00001F910F91FF90EF90DF900895CF93DF9398
:101A1000EC01805E9109089720F06CE576E0209754
:101A200011F46DE676E0CE010E949B0A8C2FDF91C7
:101A3000CF910C94720BFC018081813029F4FB0161
:101A4000808191810C94060D823021F4FB0182810A
:101A50009381F8CF0895CF93DF93EC018881823092
:101A600039F4FB01828193810E94060D81E08B870E
:101A7000DF91CF910895CF9390918B02992321F01C
:101A8000811116C010928B02CF910895EC2FF0E0D7
:101A9000EE0FFF1FE558FD4F808191810E94060DDA
:101AA0000E945005CF5F80918B02C81778F3EACF70
:101AB000C0E0F9CFAF92BF92CF92DF92EF921F9327
:101AC000CF93DF93CDB7DEB7C455D1090FB6F894E5
:101AD000DEBF0FBECDBF80919C0380FD0AC0E8E44D
:101AE000F3E0118210821282339683E0EC39F8071A
:101AF000C1F77DE6A72E72E0B72EDE011196AE018A
:101B00004B5A5F4F1A2F7B2FF5018491282F30E01D
:101B1000C901880F991F820F931F885B9C4FFC019E
:101B2000C080D180E280CD92DD92ED92FFEFAF1ABE
:101B3000BF0AA417B50741F7279A35B13F7725B1FA
:101B400020686FB7F894812F972FFC017191CF0116
:101B5000E8E025B9000000C077FF35B9770F000035
:101B600000C000C000C035B900C0EA9591F78417E5
:101B7000950759F76FBF8FE594E00197F1F700C023
:101B80000000CC5ADF4F0FB6F894DEBF0FBECDBFBA
:101B9000DF91CF911F91EF90DF90CF90BF90AF90EA
:101BA00008951F93CF93DF9300D00F92CDB7DEB788
:101BB000142F90919C0390FF1AC09E012F5F3F4FFE
:101BC000462F6FEF0E949C071C3189F08B81998111
:101BD000412F50E0FA01EE0FFF1FE40FF51FE85B05
:101BE000FC4F2A812183908382830E945A0D0F909B
:101BF0000F900F90DF91CF911F910895CF92DF92B8
:101C0000EF92FF920F931F93CF93DF936B017C01B1
:101C1000C701AA27BB27C0E10097A105B10519F4A8
:101C2000D701CB01C0E0492F5A2F6B2F77274115E1
:101C300051056105710519F0C85FDB01CA01AC01EE
:101C4000BD01E4E07695679557954795EA95D1F7FC
:101C5000411551056105710519F0CC5FDB01CA0121
:101C6000AC01BD0132E076956795579547953A9559
:101C7000D1F7411551056105710519F0CE5FDB0102
:101C8000CA01B695A79597958795892B8A2B8B2B9B
:101C900009F0CF5FC23009F497C080F4CC2389F1FA
:101CA000C13009F45FC0C701B601DF91CF911F9128
:101CB0000F91FF90EF90DF90CF900895C33009F41B
:101CC00015C1C43081F7CEE1D0E08C2F4C2F4E519E
:101CD000D093DD01C093DC01242F2D7F213049F00A
:101CE000942F9F7E993029F0423119F04B3109F041
:101CF0002FC16CE80E94D10D2196CA33D10529F776
:101D0000D2CF08E310E01093DD010093DC012C2F0B
:101D10002D7F802F213041F09C2F9F7E993021F024
:101D2000C23111F0CB3151F44C2F6CE80E94D10D2F
:101D3000CF5F0E5F1F4FCC3131F7B5CF222331F08B
:101D4000C43021F0CE3011F0C73119F44C2F6FE0C0
:101D5000EDCFC831D9F3C331C9F34C2F60E59A30C8
:101D600029F7F4CF0FE010E0C0E01093DD010093FD
:101D7000DC012C2F2D7F802F213041F09C2F9F7E66
:101D8000993021F0C23111F0CB3151F44C2F6CE875
:101D90000E94D10DCF5F0E5F1F4FCC3131F783CF43
:101DA000222331F0C43021F0CE3011F0C73119F4C4
:101DB0004C2F6FE0EDCFC831D9F3C331C9F34C2FAD
:101DC00060E59A3029F7F4CF0CED10E0C0E00F3F4A
:101DD000110509F0B8F41093DD010093DC018C2F9C
:101DE0008D7F4C2F6CE8813051F0882331F0C43066
:101DF00021F0CE3011F0C73169F44C2F6FE08091A3
:101E0000DC0145C0C8018F5F91099093DD0180938B
:101E1000DC01E5CF46E06FE584E9C630C1F145E07D
:101E20006FE58CE8C53099F14FE0CF30B1F049E073
:101E30006CE8C93009F441C04DE06FE5CD3009F4DC
:101E400053C04CE06FE589EBCC3009F14BE06FE516
:101E5000CB3099F1C73021F447E06FE583EC17C030
:101E600042E16CE886EEC23191F041E1C13169F0A6
:101E700040E16FE583E0C03151F046E16FE585E078
:101E8000C63129F0C53161F445E16FE580E00E947B
:101E9000D10DCF5F0E5F1F4FCC3109F098CF03CF2C
:101EA0004AE16EE1CA3179F0C83119F448E16EE1D6
:101EB000D5CFC43121F444E16EE18EEBE8CFCB31D4
:101EC00021F44BE16CE888ECE2CF4AE0CA3009F437
:101ED00095CFC33111F443E191CF4C2F60E5C93167
:101EE00009F08DCF49E16CE884EBD1CF07E810E031
:101EF000C0E01093DD010093DC012C2F2D7F802F9B
:101F0000213041F09C2F9F7E993021F0C23111F099
:101F1000CB3151F44C2F6CE80E94D10DCF5F0E5F96
:101F20001F4FCC3131F7BFCE222331F0C43021F026
:101F3000CE3011F0C73119F44C2F6FE0EDCFC8311E
:101F4000D9F3C331C9F34C2F60E59A3029F7F4CFA8
:101F5000222331F0443021F04E3011F0473111F49A
:101F60006FE0C8CE4831E1F34331D1F360E59A30F8
:101F700009F0C0CEF5CF0E94FE0D6093ED02709384
:101F8000EE028093EF029093F0020C94A3060F935D
:101F90001F9341E050E060E070E004C0440F551F23
:101FA000661F771F8A95D2F7CB01BA0160957095AD
:101FB000809590950091ED021091EE022091EF0234
:101FC0003091F00260237123822393231F910F919C
:101FD0000C94BB0F9091DA02809589238093DA02EA
:101FE000282F277071F4282F082E000C330B92171E
:101FF000130639F08595859585950E94C70F109237
:10200000DA0208950F931F9341E050E060E070E022
:1020100004C0440F551F661F771F8A95D2F7809121
:10202000ED029091EE02A091EF02B091F0028A01D0
:102030009B01082B192B2A2B3B2BC901B8011F919F
:102040000F910C94BB0F4F925F926F927F928F9281
:102050009F92AF92BF92CF92DF92EF92FF920F9337
:102060001F93CF93DF93FC016280448081E08483DF
:10207000E9E8F2E07490E8E0F3E0E491C4EED1E046
:1020800038E4E32E33E0F32E40E7C42E42E0D42EB2
:1020900052E0A52EBB24B39488248A94912C552415
:1020A0005A94E7190E2F10E082E0861530F08091E7
:1020B0009D03888380919E038983411021C01B82E8
:1020C0001A8297014A81698188810E949C0725961E
:1020D00083E0E80EF11CCC16DD0631F7DF91CF91DD
:1020E0001F910F91FF90EF90DF90CF90BF90AF9036
:1020F0009F908F907F906F905F904F900C945A0DAF
:102100008B818823E9F081508B83859DC001112448
:102110006C8170E00E940328FB01FF27E757FD4F09
:102120008491E82FE719E59DC0011124B8010E94B0
:10213000032880919F03689FB00111247A83C1CF47
:102140000E948C2820919F03269521582A9DA0014A
:102150002B9D500D1124452F5527841795070CF002
:10216000B0CF82E0861588F40E948C28B4010E94CA
:10217000172888830E948C2820919E032695622F21
:1021800070E00E941728280F29831A8280919F03EC
:10219000893C20F088EC8C838B8393CF8431D8F7F3
:1021A00084E1F9CFEF92FF921F93CF93DF93EC017D
:1021B00088E4E82E83E0F82E10E08C8197014091AE
:1021C0009F0360919E03810F0E949C07175F83E02D
:1021D000E80EF11C1C3F89F70E945A0D9A818C81F0
:1021E00090FF08C08F5F8C83DF91CF911F91FF908C
:1021F000EF9008958150F7CFBF92CF92DF92EF9288
:10220000FF920F931F93CF93DF93FC018281DD2414
:10221000DA9480FD02C0DD24D39408E413E0D0E01A
:10222000C0E02CE1B22EF80111821082128294E0FB
:10223000E92EF12CC12C8091E1018C0D8D310CF433
:102240003DC06B2D0E94F527892F082E000C990B9D
:102250008C179D0791F480919F038E9DA0018F9D07
:10226000500D1124559547955595479598016091C6
:102270009E0380919D030E949C07CD0CF1E0EF1A14
:10228000F108C9F621960D5F1F4FCC31D10559F6E3
:102290000E945A0D8091E10191E0D91215C081117F
:1022A00011C08BE18093E101DF91CF911F910F91DC
:1022B000FF90EF90DF90CF90BF90089587FFC5CF3C
:1022C000845EC3CF8150EECF90E00196BE010E94A4
:1022D0001728E8CF0F931F93CF93DF93C8E4D3E081
:1022E000FE01118210821282339683E0EC39F807E6
:1022F000C1F710E000E08091E201082E000C990B7C
:10230000081719078CF180911401082E000C990B05
:10231000801791074CF19E0140919F0360919E03AD
:1023200080919D030E949C070F5F1F4F23960C31E5
:10233000110509F70E945A0D809113019091E20155
:10234000980F9093E20120911401280F209314011B
:10235000121614F49B311CF0819580931301DF91C8
:10236000CF911F910F910895198218821A82DCCFA4
:102370008F929F92AF92BF92CF92DF92EF92FF9295
:102380000F931F93CF93DF93EC014C81042F10E048
:102390009801D8010E9445299B01AC010E94102997
:1023A0004B015C01E0E2F0E0E01BF10BA5E5B0E0E1
:1023B000AC019B010E9410296B017C019F01DF0190
:1023C0000E9431289B01AC010E941B299B01AC019A
:1023D000280D391D4A1D5B1DC701B6010E94232926
:1023E000F22E822F90E039E23F15D8F143E0249F8E
:1023F0009001112435952795122F109598E4C92E38
:1024000093E0D92E00E085E5E82EEF188E2D01FD32
:102410008F2D9601412F60919E030E949C070F5FB4
:1024200053E0C50ED11C0C3189F70E945A0D9C81D6
:1024300081E0992319F0903219F48FEF8093150100
:1024400080911501890F8C83DF91CF911F910F919E
:10245000FF90EF90DF90CF90BF90AF909F908F90C4
:10246000089525E530E0A901481B590BCA019A01DE
:10247000220F331F280F391F37FFBCCF2F5F3F4F6D
:10248000B9CFEF92FF920F931F93CF93DF938C01FD
:10249000C8E4D3E0F12CE12CF801948160919E0313
:1024A00080919D03FEE0EF16F104FCF49923F9F00E
:1024B0009E0140919F030E949C072FEFE21AF20AAF
:1024C00023968CE1E816F10439F70E945A0DF801C1
:1024D000848190E00196817099278483DF91CF9168
:1024E0001F910F91FF90EF900895992309F39E019A
:1024F00040E0E1CF90919C0390FF0CC0E8E4F3E052
:10250000818360834283339693E0EC39F907C1F706
:102510000C945A0D08950F931F93CF93DF9300D01F
:102520000F92CDB7DEB78C018091E30181110AC013
:102530009E012F5F3F4F48EC6FEF0E949C078A81FE
:102540008093E301F8016481613069F08091E301D7
:1025500040E0662361F040E0623011F44091E30115
:1025600080E060E004C06091E30140E080E00E9410
:102570007A12F801848190E0019663E070E00E9495
:10258000172884830F900F900F90DF91CF911F91A8
:102590000F910895CF93DF9300D00F92CDB7DEB7A0
:1025A00090919C0390FF0AC09E012F5F3F4F0E94B5
:1025B0009C074B8169818A810E947A120F900F904B
:1025C0000F90DF91CF910895CF93DF93EC01EC81D1
:1025D000F0E0E757FD4F4491ECE9F3E0628181813F
:1025E0000E94CA128C818F5F8C83DF91CF910895F6
:1025F000CF93DF93EC01ECE9F3E0438162818C81BE
:102600000E94CA128C818F5F8C83DF91CF910895D5
:10261000BF92CF92DF92EF92FF920F931F93CF93CF
:10262000DF939FE9E92E91E0F92EC7EED2E0C12CAD
:10263000D12C01E010E0F70181917F01F894E82F9F
:10264000E295EF70F0E021A18F70A80102C0440F65
:10265000551F8A95E2F7CA01922F982B91A392A158
:102660008095892382A3789400C0E5EAF1E030E008
:1026700020E0B12C4191A42FA295AF70B0E09096CC
:102680008C9190E04F7002C0959587954A95E2F73E
:1026900080FD50C0802F022E01C0880F0A94EAF7F7
:1026A000B82A2F5F3F4F2430310521F7F7013197CA
:1026B00080810E94350855E0C51619F080EA8A9598
:1026C000F1F78881B816C1F1B88281E0D82AC394A5
:1026D0002196E6E0CE12AFCFDD2081F181E080933C
:1026E000E0010E9437059093DF018093DE01809125
:1026F000DE019091DF010E942805069718F1809174
:10270000E7028093F9028091E8028093FA028091B7
:10271000E9028093FB028091EA028093FC0280919F
:10272000EB028093FD028091EC028093FE021092F6
:10273000E00108C080E0B4CF80E0C8CF8091E00124
:102740008111D5CF80912C0110E006E18F3F09F077
:1027500052C080912D01811159C080917602882349
:1027600071F080917402909175020E942805893E53
:10277000934028F082EE0E94C706109276028D2DBB
:10278000DF91CF911F910F91FF90EF90DF90CF904D
:10279000BF900895029FF001039FF00D1124EA5E9F
:1027A000FE4FE288F388E114F10419F488ECE82E76
:1027B000F12C029FE001039FD00D1124CA5EDE4F71
:1027C0008E818823B9F08D859E850E942805E816A4
:1027D000F90680F4109F700111248989811105C0C8
:1027E000C7018A5E9E4F0E941607C701845E9E4FF6
:1027F0000E9437071F5F212F30E080912C01082EA7
:10280000000C990B821793072CF6A3CF80918C02B2
:10281000882309F4A2CF80918D0290918E020097B7
:1028200009F49BCF0E9428058D32914008F495CF82
:1028300010928C0281E00E943B0D8FCFCF9384E0F9
:1028400090E00E94A928C82F81E290E00E94A92868
:10285000982F8C2FCF910895CF92DF92EF92FF9215
:102860006B017C010E948607B701A60188E090E019
:10287000FF90EF90DF90CF900C94CF285F926F92F3
:102880007F928F929F92AF92BF92CF92DF92EF9200
:10289000FF920F931F93CF93DF9300D00F92CDB78A
:1028A000DEB7182F762E042F622E90919C0390FF96
:1028B00029C0E92FE695AE2FB0E0AD5BBE4F8C91FD
:1028C000809305039E7F923081F59E012F5F3F4FDD
:1028D000812F0E949C074B8169818A810E947A1214
:1028E00010939D0370929E0300939F03662051F006
:1028F00060919C0370919D0380919E0390919F0332
:102900000E942C140F900F900F90DF91CF911F9188
:102910000F91FF90EF90DF90CF90BF90AF909F907E
:102920008F907F906F905F900895823019F400919E
:102930009F03D6CF863019F410919D03D1CF8930F3
:10294000D9F3893169F6E9518E2F8170582EE695B9
:10295000F0E0E859FD4FA590B490BB2488E4E82E40
:1029600083E0F82ED12CC12C9CE1892E912CC6013C
:10297000B4010E940328812F511013C0860F9701C4
:10298000402F672D0E949C07CA0CDB1C83E0E80ED9
:10299000F11C8CE9E81683E0F80649F70E945A0D0D
:1029A0009FCF861BECCFECE9F3E0438128E0421B8C
:1029B00008F440E021E0628181810C943E14ECE94E
:1029C000F3E0438128E0420F08F44FEF21E06281F9
:1029D00081810C943E14ECE9F3E0628128E0621BF3
:1029E00008F460E021E0438181810C943E14ECE91D
:1029F000F3E0628128E0620F08F46FEF21E0438189
:102A000081810C943E14ECE9F3E0818121E0438163
:102A1000628188500C943E14ECE9F3E0818121E05E
:102A200043816281885F0C943E148091A0038823C7
:102A300019F081508093A00360919C0370919D03D5
:102A400080919E0390919F030C942C148091A0037D
:102A5000833018F48F5F8093A00360919C03709182
:102A60009D0380919E0390919F030C942C14ECE99C
:102A7000F3E083E0808311828FEF828388E2838397
:102A8000148260817181828193810C942C146BEE8D
:102A90007EEF90E080E00E94DB2860E082E090E042
:102AA0000E94BD2860E083E090E00E94BD28109263
:102AB000DF021092E0021092E1021092E20260E066
:102AC00084E090E00E94BD2860E081E290E00E94F6
:102AD000BD2860E085E090E00E94BD2860E086E0CF
:102AE00090E00E94BD286FEF87E090E00E94BD2833
:102AF00040E050E0BA0188E090E00E94CF2860E01A
:102B00008DE090E00E94BD2840E050E0BA0188E1ED
:102B100090E00E94CF2860E087E190E00E94BD280D
:102B200040E050E0BA018CE190E00E94CF2860E0E4
:102B300080E290E00E94BD2840E050E0BA0188E1C8
:102B400090E00E94CF2840E050E0BA018FE090E092
:102B50000E94CF2840E050E0BA0183E190E00C945D
:102B6000CF281092DD0280914201EEEBF1E0882344
:102B700059F08091F10287FF07C08EE1DF011D92BD
:102B80008A95E9F70C94A30686E0F8CF1F93CF93BC
:102B9000DF93CDB7DEB7AA970FB6F894DEBF0FBEAE
:102BA000CDBF8DE393E02091F100FC012193CF0193
:102BB000F3E085349F07B9F780913E03833009F431
:102BC0006FC0B8F4813009F446C0823009F4B0C057
:102BD0008091E80083FF7BC280913D0390913E038A
:102BE0009A3008F074C2E92FF0E0EC59F64D0C94DD
:102BF0002B288A3009F48BC08B3009F46EC08930E1
:102C000039F780913D03813219F78091410390910A
:102C100042030297E8F68091E800877F8093E800FE
:102C20008091E80082FF37C09091F3008091F2001C
:102C3000029729F48091F1008B7F813021F48091FB
:102C4000F100809318038091E8008B778093E8006F
:102C50000E941104BDCF80913D03813A09F0B8CFA5
:102C60008091E800877F8093E800809141039091F4
:102C70004203892B61F460E289E193E070E00E94F5
:102C8000C3048091E8008B778093E800A1CF60E0D7
:102C900090E080E0F3CF80913B038111C1CF98CFCA
:102CA00080913D03813A09F093CF80914103909147
:102CB0004203892B09F08CCF8091E800877F8093B5
:102CC000E8008091E80080FFFCCF80914201809372
:102CD000F1008091E8008E77B9CF80913D03813279
:102CE00009F076CF8091410390914203892B09F03E
:102CF0006FCF8091E800877F8093E8000E941104E5
:102D000080913F03809342010E94B11561CF809171
:102D10003D03813209F05CCF8091E800877F80938A
:102D2000E8000E941104809140038093170350CF64
:102D300080913D03813A09F04BCF8091E800877F75
:102D40008093E8008091E80080FFFCCF809117031A
:102D5000BECF803899F0823809F0B9C18091410323
:102D60008F70873008F0B3C18093E9008091EB0049
:102D700085FB882780F91092E90006C0809139030D
:102D800090913A03911182609091E800977F90931F
:102D9000E8008093F1001092F1008091E8008E77B6
:102DA00092C1882309F480C1823009F090C18091DA
:102DB0003F03811183C1809141038F702FEF280F52
:102DC000263008F084C18093E9002091EB0020FFB9
:102DD00075C1933031F48091EB0080628093EB00F9
:102DE0006DC19091EB0090619093EB0021E030E099
:102DF00001C0220F8A95EAF72093EA001092EA00B8
:102E00008091EB008860EACF811161C110913F038E
:102E10001F778091E3008078812B8093E30080917D
:102E2000E800877F8093E8000E9411048091E80009
:102E300080FFFCCF8091E30080688093E30082E014
:102E4000111183E080933B0342C18058823008F027
:102E50003EC180913F03909140038C3D23E0920757
:102E6000A1F583E08A838AE289834FB7F894DE0173
:102E7000139620E03EE051E2E32FF0E0509357003C
:102E8000E49120FF03C0E295EF703F5FEF708E2F5B
:102E900090E0EA30C0F0C7968D939D932F5F243168
:102EA00059F74FBF8091E800877F8093E8006AE27E
:102EB00070E0CE0101960E94C3048091E8008B77F8
:102EC0008093E80004C1C096E7CF40914103509140
:102ED0004203292F33272330310509F444C078F504
:102EE0002130310509F46FC08BE390E0EBE2F6E0AE
:102EF0002230310509F0EBC02091E800277F2093B4
:102F0000E80020914303309144038217930708F4AB
:102F10009C0140E02115310509F064C0411162C0F7
:102F20008091E80082FDC9CF80913B03882329F27C
:102F3000853019F28091E80083FFF2CFBECF2132B5
:102F40003105A9F12232310509F0C1C04115510501
:102F500009F443C04130510509F0B9C08DE690E055
:102F6000EEE7F5E0C9CF992781309105C1F00097D0
:102F700059F0029709F0ABC0E8E7F6E0E4918E2F34
:102F800090E0E8E7F6E007C0E8E9F6E0E4918E2F8C
:102F900090E0E8E9F6E0009709F499C0ADCFE4E8E5
:102FA000F6E0E4918E2F90E0E4E8F6E0F4CF4115EE
:102FB000510571F04130510509F089C089E090E078
:102FC000E6E5F6E099CF82E190E0E6E6F6E094CF20
:102FD00089E090E0EDE3F6E08FCF80E490E0EBEE67
:102FE000F5E08ACF80913B03882309F466CF8530D2
:102FF00009F463CF8091E80083FD5FCF8091E80002
:1030000082FD8ECF8091E80080FF84CF9091F30005
:103010008091F2002115310519F08830910550F0AA
:1030200041E0089709F040E08091E8008E778093B6
:10303000E80070CF44914093F1003196215031095E
:103040000196E8CF803809F042C08091E800877F80
:103050008093E80080913C038093F1009ECE811123
:1030600036C010913F03123090F58091E800877FC1
:103070008093E80010933C030E941104112311F087
:1030800084E005C08091E30087FDFACF81E0809362
:103090003B0342E061EC81E00E94300442E261ECDB
:1030A00082E00E94300413C080913F03813079F4A4
:1030B00081E0933009F080E080933A031092E900B8
:1030C0008091E800877F8093E8000E94110480913E
:1030D000E80083FF0AC08091E800877F8093E800C2
:1030E0008091EB0080628093EB00AA960FB6F89473
:1030F000DEBF0FBECDBFDF91CF911F9108956091CC
:103100009C03669570E04BE050E088E091E00E94FF
:103110009C28892B19F481E0809306030E943705CF
:10312000909300038093FF02089590919C0390FF79
:1031300036C09170811129C0926090939C036623E0
:1031400051F060919C0370919D0380919E0390913A
:103150009F030E942C1460919C03669570E04BE0E5
:1031600050E088E091E00E949C28892BA9F0109201
:10317000060381E08093020320E040919F03609169
:103180009E0380919D030C943E148B3210F0946545
:10319000D4CF880F982BD1CF0E947F18EACF089503
:1031A00080919C038695815009F48AE261E00C9439
:1031B000951880919C0386958F5F8B3208F081E093
:1031C00061E00C94951890919C0390FF07C0969530
:1031D000981720F0961710F40C94D91861E00C940D
:1031E00095183F924F925F926F927F928F929F922B
:1031F000AF92BF92CF92DF92EF92FF920F931F9305
:10320000CF93DF9300D000D00F92CDB7DEB77C0113
:10321000DC0113968D919C911497892B41F01C91A0
:1032200011960C91812F80238F3F09F0B2C70F9028
:103230000F900F900F900F90DF91CF911F910F91F2
:10324000FF90EF90DF90CF90BF90AF909F908F90C6
:103250007F906F905F904F903F9008950E941A0A60
:10326000D82E682F89819A810E941B06E02FF0E0FA
:10327000B6E0DB9EE00DF11D1124EE0FFF1FEE0FF7
:10328000FF1FE10FF11DEE0FFF1FE757FC4F0591E8
:103290001491F7018281811133C1D70112968C916B
:1032A0000932BDE51B0709F469C10A32EDE51E07C5
:1032B00009F47AC1C80197558F3F910511F008F0C4
:1032C00047C020912C01022E000C330B2817390720
:1032D00014F480932C01D70112962C91129736E1A9
:1032E000389F5001399FB00C1124F501EA5EFE4F62
:1032F0006F01208B12969C918681992309F471C1EC
:10330000128701878F5F86830E943705D6011E963C
:103310009C938E931D978091DE0217968C9317973E
:103320008091DC029091DD02892B18968C9318977E
:10333000ED91FC911197309739F054966D917C91F5
:10334000C501845E9E4F0995109378020093770221
:10335000D70112968C91882369F0C801825E9C4542
:10336000059740F46EE1600F6093E3028CE090E01B
:103370000E94BD2817FF67C0F7018281882309F4E6
:1033800062C0E091F402F091F50280E0309721F004
:103390000190F081E02D09958695817080937A02E5
:1033A0009091E302913029F4882319F089E30E9477
:1033B0001F0C8091DD02809379021092DD028091D2
:1033C000E302813009F41EC1882309F417C1823059
:1033D00009F421C1843009F425C18FE39CE90197E8
:1033E000F1F700C000005801E894B7F82CE0C22EB5
:1033F000D12CC5010C2C02C0969587950A94E2F752
:103400008F7096EF980F963008F411C1805D0E947E
:10341000A00C94E0C91AD108ACEFCA16AFEFDA06D7
:1034200041F78091E302813009F407C1882309F450
:1034300000C1823009F4FDC0843009F40AC18091D2
:1034400079028093DD0210929102083FBCE51B07D0
:1034500009F001C1F7018281882309F41EC181E0CE
:1034600080932D01F7019281992309F4B5C610923A
:1034700047030230FCE51F0708F417C306312CE5AB
:10348000120738F098012B5F3C452930310508F0D0
:103490000CC30E941E149093F2028093F10200313B
:1034A0003CE5130709F4D0C208F063C208305CE5BC
:1034B000150709F4BFC208F032C204309CE51907B1
:1034C00009F4B0C208F018C20230BCE51B0709F4C9
:1034D000A3C28091F102826003301C4509F49FC2AF
:1034E0006091F1021091F20284E090E00E94BD2808
:1034F000612F81E290E00E94BD280E94B115C5C1F4
:1035000080912C018F3F09F4C8CE36E1C32E31E003
:10351000D32EB12CA12C9924939480912C01082EA8
:10352000000C990B8A159B050CF4B7CED6011696A4
:103530008C9116978823D9F019968D919C918017BC
:10354000910739F480917702909178028017910762
:1035500071F0F6019786148703878189811103C072
:10356000C6010E941607C60106960E943707FFEFA4
:10357000AF1ABF0A26E1C20ED11CCFCF882369F152
:1035800080917602811106C081E08093760282EEFE
:103590000E94720B0E94370590937502809374020B
:1035A0008BE20E94720B86CE8823A1F08091760276
:1035B000811106C081E08093760282EE0E94720B38
:1035C0000E943705909375028093740281EE0E94E9
:1035D000720BE6CF81EE0E94C7068BE20E94C706FF
:1035E00069CE882309F4B4CE8189882309F4B0CE4A
:1035F000C501845E9E4F0E943707AACE82EE0E94CC
:10360000720BEBCE88E193E00E94060D88E193E017
:103610000E94D20AE2CE82EE0E94720B87E50E94DF
:103620001F0CDBCE86EE0E941F0C88E1F8CF895A72
:10363000EECE82EE0E94C70602CF8CE20E941F0CE3
:1036400080917A02882309F4FACE89E30E941F0C44
:10365000F6CE88E2FBCF093FFCE51F0789F4D701CE
:1036600012968C918823C9F010928C0210922D0131
:1036700010928E0210928D0281E00E943B0DF2CEDC
:1036800080912D010A3FBCE51B0739F4F7019281B7
:10369000992319F08111E8CFE2CED0902D01DD20E1
:1036A00021F11092900210928F02C12C85E0582EC9
:1036B00088248394912C4424439460908F027090CA
:1036C000900282E06816710468F18091910288236B
:1036D00009F4ADC00E94370590938E0280938D024D
:1036E00080E00E943B0DC110D0C0043FBCE51B0729
:1036F00009F4F3C008F060C5093DFCE51F0709F4B3
:10370000E8C00A3D2CE5120709F4F3C0083D3CE58A
:10371000130709F0A7CE26E241EE61EEC7010E9431
:103720003C0CB3C0569CF001579CF00D1124E25D97
:10373000FE4F808191813FEF20E0E22FF0E0EE0F1D
:10374000FF1FE80FF91F459154910417150709F45D
:10375000322F452B11F02F5FF0CF3F3FE9F4312C92
:10376000C328DD2059F0569CF001579CF00D112420
:10377000E25DFE4FDD24D39484818111D12C5D2D37
:103780005170D52E80918F02909190020196909366
:10379000900280938F0291CF30908C02D7011296C5
:1037A0009C91569CF001579CF00D1124E25DFE4F58
:1037B0008481540101C0AA0C3A95EAF79923B9F023
:1037C000A82AA482332059F2C40102C0880F991F8D
:1037D0002A95E2F70197A816190611F682819381BE
:1037E000009711F00E94060D40929102B9CFA401FA
:1037F00002C0440F551F2A95E2F79A012150310962
:103800008217130691F482819381009711F00E9430
:10381000D20A569CF001579CF00D1124E25DFE4F38
:10382000A0948481A822A4829BCF312CF2CFC11016
:103830000EC081E00E943B0DDD2009F456CF1092AE
:103840008E0210928D0281E080938C024ECFD701C0
:1038500012968C918823C9F080918C028823A9F05C
:103860000E94370590938E0280938D02E0918B0227
:10387000E83058F481E08E0F80938B02F0E0EE0F79
:10388000FF1FE558FD4F118300838091DA02877096
:1038900009F4CDCCD70112968C91882309F4C7CCBA
:1038A00082E00F900F900F900F900F90DF91CF91CB
:1038B0001F910F91FF90EF90DF90CF90BF90AF904E
:1038C0009F908F907F906F905F904F903F900C945F
:1038D000EA0F27E245EE65EE21CF26E241EE60EEEB
:1038E0001DCF27E245EE64EE19CF26E241EE62EEEF
:1038F00015CF28E241E0EFCF8091F10280610630E0
:10390000FCE51F0709F48BC08091F1028860073045
:103910001C4508F484C08091F102806280C08091CF
:10392000F1028D7F0C303CE5130709F478C070F488
:103930008091F1028C600A305CE5150709F46FC0D4
:1039400008F47CC08091F1028E7F69C08091F10201
:10395000877F0E309CE5190709F461C08091F10260
:103960008B7F0F301C4508F45AC08091F1028F7E86
:1039700056C00C3FBCE51B0709F458C030F50331B5
:10398000FCE51F0709F468C078F401313CE5130732
:1039900009F45EC002311C4509F0A2CD0E94B115A8
:1039A0008091F1028F773BC005315CE5150709F482
:1039B0005BC008F46FC08091F20281600B3F1C4530
:1039C00009F08ECD8093F2028BCD0115ADE51A077B
:1039D00009F446C088F48091F2028D7F0E3FECE539
:1039E0001E0781F38091F2028E7F0F3F1C4550F33A
:1039F0008091F2028360E6CF02302DE5120709F4D0
:103A000052C0F0F160E003301D4509F069CD8EE051
:103A100090E00E94BD2864CD8091F1028160809386
:103A2000F1025ECD8091F1028460F9CF8091F202C3
:103A30008260C8CF8091F1028064F1CF0E94B115FD
:103A40008091F1028068EBCF8091F1028F7DE7CF0A
:103A50008091F1028F7BE3CF8091F102837FDFCFF2
:103A60008091F2028C7FAECF8091F10282FB992788
:103A700090F921E0922790FB82F990FB83F9CFCF58
:103A80008091F202982F909591708E7F892B90FBF8
:103A900081F998CF0E94B1159091F102892F97FB7F
:103AA00087F98058BCCF61E0B2CF8091DD0206314A
:103AB0005CE5150709F09CC38A7A91E009F490E06F
:103AC00090939202811106C089E20E94C0050E9473
:103AD0005005DBCE85E3F9CF85E387C380919C0356
:103AE00080FF1BC08E7F80939C0360919C0370912C
:103AF0009D0380919E0390919F030E942C1410922D
:103B000006038FEF90E7A2E081509040A040E1F7DC
:103B100000C000000E945A0DB8CE816080939C03C3
:103B200061E086950E949518B0CE40ED58E169EDB0
:103B300078E10E948107A9CE49ED58E160ED78E176
:103B4000F8CF43E055E16CE075E1F3CF4CE055E18F
:103B500063E075E1EECF4BEE54E167EF74E1E9CF3E
:103B600047EF54E16BEE74E1E4CF43ED54E16FEDC8
:103B700074E1DFCF4FED54E163ED74E1DACF45E15D
:103B800055E166E275E1D5CF46E255E165E175E1C3
:103B9000D0CF61E081E0C6CF65E082E00E94E3180B
:103BA00074CE68E086E0FACF6EE089E0F7CF64E19A
:103BB0008FE0F4CF67E185E1F1CF61E088E1B2CF3A
:103BC00062E289E1EBCF61E083E2ACCF0115BCE5B5
:103BD0001B0709F448C00F3D1C4509F473C0F701E9
:103BE00000811181992309F470C0C8010E941A0A4A
:103BF000D82E682FC8010E941B06B8018D2D0E9487
:103C00008F088C01882ED7011296DC90129715969A
:103C1000AC90A2947FE0A7228091DA028770A1F095
:103C2000CD2CDD2091F0812F807F803421F080E247
:103C3000800F883048F082E00E94EA0F8091DA021B
:103C40008770CC24C3948111C12CB12EB2946FE043
:103C5000B622BBE0BB1508F46FC0EB2DF0E0E259D3
:103C6000F64D0C942B280E94B115FFEF24E33CE0A5
:103C7000F15020403040E1F700C0000081E0809327
:103C8000E00080E28093D8001092C9008FE19EE4AA
:103C90000197F1F700C0000087E090EBDC01809312
:103CA000A1039093A203A093A303B093A40388E17C
:103CB0009CE00FB6F894A895809360000FBE909397
:103CC0006000FFCF0E944715E0CDC8010E94F405B7
:103CD000D82E93CFE12FEF70AE2E107F19F0A29463
:103CE00050EFA522DD20C9F0AA2069F080E2800F04
:103CF000883010F081100BC08091DD02A82AA092BC
:103D0000DD020E945005802F0E94720B15C0809129
:103D1000DC02A82AA092DC02F4CF802F0E94C70602
:103D2000AA2051F0005E083010F0811048C08A2DA2
:103D30000E9449050E945005AB2DA850BB0B14975B
:103D400020F40E94BB060E948A0ACC20A9F0809130
:103D5000DA0280FD11C0F70112828595859585955F
:103D60000E940210C7010E94F1188091DA02859525
:103D7000859585950E94C70F85E0F701DE011196B4
:103D800001900D928A95E1F789819A810E94F4054C
:103D9000EA81F0E026E0829FE00DF11D1124CF01C1
:103DA000880F991F880F991FE981E80FF92FF11DDE
:103DB000EE0FFF1FE757FC4F8591949138CAA094EE
:103DC0008091DC02A822A092DC02B4CFF12FFF7018
:103DD0009F2E107F103219F0929440EF9422882089
:103DE00089F021E0821679F1DD20D1F1AA2089F154
:103DF000D70115968C91159780FF85CF8F701596FA
:103E00008C9327C0DD2091F09091DE02892D892BC3
:103E1000A11003C00E946D068FCF31E0A312FACF2C
:103E2000981709F489CF8093DE0286CFA11006C0CF
:103E30000E944305892D0E9466067ECF41E0A416AC
:103E400009F47ACFF5CFDD2031F055E05A1508F4AA
:103E500073CF892DDFCF84E08A1508F46DCFEACFC8
:103E6000AA2041F3B9E38B1209C0EFEFF7EE23E08C
:103E7000E150F0402040E1F700C00000802F0E9498
:103E8000C7065ACF812F86958695837061F0813061
:103E900009F052CFC8019370D11002C090E080E0C9
:103EA0000E94770649CFC8019370D11002C090E0FC
:103EB00080E00E948D0640CF812F837009F066C09C
:103EC000D1103ACF802F829586958770880F880F02
:103ED000602F6F70462E512C712C612C082E04C05F
:103EE000440C551C661C771C0A94D2F740E050E045
:103EF000BA0104FF0FC04FE050E060E070E004C082
:103F0000440F551F661F771F8A95D2F7409550952D
:103F100060957095812F869586958370823019F112
:103F2000D8F40091DF021091E0022091E10230917B
:103F3000E202813069F04429552966297729CB01AD
:103F4000BA0160237123822393230E94B106F4CE29
:103F5000402A512A622A732ACB01BA0164297529A1
:103F600086299729F2CF4429552966297729009176
:103F7000DF021091E0022091E1023091E202CB01D8
:103F8000BA016027712782279327DFCF8695DD202E
:103F900011F0812F8170882309F4CECE802F829575
:103FA00086958770880F880F602F6F70462E512C72
:103FB000712C612C082E04C0440C551C661C771C07
:103FC0000A94D2F740E050E0BA0104FF0FC04FE07E
:103FD00050E060E070E004C0440F551F661F771F7B
:103FE0008A95D2F74095509560957095812F86956A
:103FF00086958370823019F1D8F40091ED0210910A
:10400000EE022091EF023091F002813069F04429F4
:10401000552966297729CB01BA01602371238223B0
:1040200093230E94BB0F88CE402A512A622A732A0A
:10403000CB01BA016429752986299729F2CF442931
:104040005529662977290091ED021091EE02209101
:10405000EF023091F002CB01BA016027712782276D
:104060009327DFCF1F70DD2029F0812F0E940210DF
:10407000802FD0CE802F0E946606812F0E94C70F0E
:104080005BCE802F32EF831609F450C0381578F0DC
:1040900040EF841619F151EF851609F43FC0DD2079
:1040A00009F467C0A1102FCE812F8F713CC093EF10
:1040B000891609F440C0A4EF8A12F1CFDD2009F47B
:1040C0004DC01F71812F0E940210F8E01F9FC00198
:1040D000112483608093DA02812F25C0DD20C9F08E
:1040E000B4E0BA1508F428CE1F7161E070E080E0FA
:1040F00090E004C0660F771F881F991F1A95D2F7AA
:104100000091ED021091EE022091EF023091F00249
:10411000A4CFE5E0EA1508F40FCEE6CF812F8F712A
:10412000DD2009F4ABCF0E94021006CE812F8F71E3
:10413000DD20C9F3A3CF60E070E0CB01DD2009F4FE
:1041400070CF1F7161E070E080E090E004C0660F06
:10415000771F881F991F1A95D2F763CF81E00E94BD
:10416000EA0F21E02A1508F0E7CD82E00E94EA0F6D
:10417000E3CDAA2059F0893309F080CE3FEF47EE16
:1041800053E0315040405040E1F776CE812F8F719F
:1041900075CF85E0F701DE01119601900D928A95A9
:1041A000E1F7D70112962C9189819A81211156C885
:1041B0000E94F405D82E5AC8063F4CE5140709F4AE
:1041C00094CB08F48ECB27E245EE66EE073F8CE5F4
:1041D000180709F4A3CA46C906311C4509F0FFCCEB
:1041E00080919202811178CC89E20E9495056FCC72
:1041F0008272F801E35CFC45E431F10508F0E6CC9D
:10420000E658F64D0C942B281F93CF93DF938091A3
:104210009802807FA9F480919502882389F080918B
:10422000CA02D09199026091930270919402A09178
:104230009602B0919702C62FC72316E0D81304C088
:10424000DF91CF911F91089590E0109711F0CF3F2B
:1042500019F401968770F2CF189F9001199F300DC5
:104260001124F901E656FD4F41814713F2CF4081F9
:104270004613EFCF42814111ECCF438154814A1B59
:104280005B0B483C510528F7809198028F70806144
:1042900080939802F901E156FD4F80818F70806113
:1042A000808383E992E00E94F118DF91CF911F9102
:1042B0000C944706AF92BF92CF92DF92EF92FF929B
:1042C0000F931F93CF93DF93CDB7DEB761970FB6F0
:1042D000F894DEBF0FBECDBF8C0185E0F801DE0192
:1042E0001D9601900D928A95E1F7F80180819181E8
:1042F000E28023E9A22E22E0B22E60919602709114
:1043000097026115710509F43EC130919302409105
:104310009402232F24232F3F09F435C1C380D48076
:10432000F0909502F601E61BF70BFF2009F4FBC0A5
:1043300020919802522F507FE83CF10508F0BBC055
:10434000511178C0FE2C491321C038131FC0E11051
:104350001DC02F70206120939802C5010E94F118A2
:1043600080919802F80185838F2D61960FB6F8949D
:10437000DEBF0FBECDBFDF91CF911F910F91FF9098
:10438000EF90DF90CF90BF90AF900895CD2829F0A7
:10439000282F29232F3F09F014C120E0F22FF170BC
:1043A000DF2E20FF3DC02091CA024091990256E0C5
:1043B000241315C08D879E878D859E850E945C0A7B
:1043C000292F22952F702230F8F0243020F59F708D
:1043D000F9F0F8019581907FD9F4D12C1FC030E01D
:1043E000529FF001539FF00D1124E656FD4F61815D
:1043F000961306C06081861303C06281E61210C066
:104400002F5F3F4F2770D4CF9F7011F0882329F37F
:10441000805E883010F3C8010E94F118FD2CA4CFF3
:10442000EE2009F4A1CF80919802816080939802D8
:10443000F12C9ACF491312C0381310C0E1100EC0EE
:10444000F8012583C8010E94F11886E0F801A3E96C
:10445000B2E001900D928A95E1F786CF8D879E8715
:104460008D859E850E94660A882309F1EE20F9F069
:1044700080919802803270F02091930230919402E2
:1044800038872F831986DB86CA868C87CE010796EC
:104490000E94F11886E0F801A3E9B2E001900D92C4
:1044A0008A95E1F70E940421FF24F3945DCFC801AF
:1044B0000E94F118F9CF51110AC083E992E00E94DD
:1044C000F11886E0F50111928A95E9F7B1CF491309
:1044D0000FC038130DC0E1100BC0F8012583C801CF
:1044E0000E94F11886E0F50111928A95E9F73CCF18
:1044F0008D879E878D859E850E94660A8823B9F2E6
:10450000EE20A9F280919802803220F2209193024D
:10451000309194023A8329831B82DD82CC828E8380
:10452000CE010196B5CFE83CF105E0F6FE2CEE2079
:1045300009F4BDCF491316C0381314C080919802F6
:1045400080FD83CF982F907F09F47FCFF80185837A
:10455000903F09F477CF982F907F905F8F70892BD1
:10456000858370CF8D879E878D859E850E94660A84
:10457000811190CF80919802816080939802C80148
:104580000E94F118F1CEEE2009F491CF8D879E871D
:104590008D859E850E94660AF82E882309F487CFB0
:1045A00086E0F801A3E9B2E001900D928A95E1F767
:1045B00080919302909194020E945C0A0E940421CF
:1045C000D3CE21E02E25EACE1F93CF93DF93CDB734
:1045D000DEB767970FB6F894DEBF0FBECDBF342F9E
:1045E0004B8B252F5C8B6D8B7E8B8F8B8E899F8960
:1045F00061111092DC021A8A198A3D872E876F8713
:10460000998B888B86E0FE013D96DE01179601901E
:104610000D928A95E1F7CE0107960E945A218823D0
:1046200089F016E08091CA0290919902891349C0DD
:1046300067960FB6F894DEBF0FBECDBFDF91CF9166
:104640001F91089586E0FE013796DE0111960190D4
:104650000D928A95E1F78A859B85892B11F38F81CD
:10466000988589238F3FE9F22091990230E0C901B2
:104670000196877099274091CA024817190671F46C
:104680000E94B115109299021092CA0286E0E3E9E5
:10469000F2E0DF011D928A95E9F7C3CF96E0929F81
:1046A000D001939FB00D1124A656BD4FFE01319647
:1046B00001900D929A95E1F7809399020E94470626
:1046C000B0CF819FC001112486569D4F0E945A2170
:1046D000882309F4ADCF8091CA0290E001968770DB
:1046E00099278093CA029ECF1F920F920FB60F9206
:1046F00011242F933F934F935F936F937F938F93E7
:104700009F93AF93BF93CF93DF93EF93FF93D0919A
:10471000E900DF708091EC00C82FC17080FDC0E817
:104720001092E9008091F000877F8093F0007894E8
:104730000E94C6151092E9008091F0008860809375
:10474000F000CD2BCF70C093E900FF91EF91DF9186
:10475000CF91BF91AF919F918F917F916F915F9119
:104760004F913F912F910F900FBE0F901F90189572
:104770001F920F920FB60F9211242F933F934F93D6
:104780005F936F937F938F939F93AF93BF93EF93B9
:10479000FF938091E10082FF09C08091E20082FFD7
:1047A00005C08091E1008B7F8093E1008091DA0069
:1047B00080FF24C08091D80080FF20C08091DA0063
:1047C0008E7F8093DA008091D90080FF9BC080E1CA
:1047D00089BD82E189BD09B400FEFDCF81E08093EF
:1047E0003B0380911603811109C00E9497030E9428
:1047F00062048091E20084608093E2008091E10095
:1048000080FF17C08091E20080FF13C08091E2001A
:104810008E7F8093E2008091E20080618093E200CD
:104820008091D80080628093D80019BC85E0809385
:104830003B038091E10084FF29C08091E20084FF66
:1048400025C080E189BD82E189BD89B5982F91702D
:1048500080FFFBCF8091D8008F7D8093D80080911E
:10486000E1008F7E8093E1008091E2008F7E809353
:10487000E2008091E20081608093E20080913C033D
:10488000882309F445C084E080933B038091E100D4
:1048900083FF27C08091E20083FF23C08091E10065
:1048A000877F8093E10082E080933B0310923C037A
:1048B0008091E1008E7F8093E1008091E2008E7F05
:1048C0008093E2008091E20080618093E20042E008
:1048D00060E080E00E9430048091F0008860809366
:1048E000F000FF91EF91BF91AF919F918F917F91D8
:1048F0006F915F914F913F912F910F900FBE0F904D
:104900001F90189519BC10923B031092160376CF96
:104910008091E30087FD93E090933B03B7CFCDB741
:10492000DEB72A970FB6F894DEBF0FBECDBF84B7AF
:10493000877F84BF0FB6F894A89580916000886146
:1049400080936000109260000FBE80E890E00FB688
:10495000F89480936100909361000FBE85B78068E2
:1049600085BF85B7806885BF82E295E09093BB01E3
:104970008093BA010E9497030E9462048091E20032
:1049800084608093E200789480913B038823A1F0B7
:104990001091E9001F709091EC00892F817090FDBB
:1049A00080E8182B1092E9008091E80083FD0E94B6
:1049B000C6151F701093E90082E084BD93E095BD99
:1049C0009AEF97BD80936E0080EF0E94350884E3D4
:1049D0000E94350885E30E94350886E30E94350869
:1049E00086E60E94350887E60E94350886EF0E9419
:1049F000350887EF0E94350883E90E94350886E96B
:104A00000E943508E7EEF2E0A9EFB2E011921D92A4
:104A100022E0ED3EF207D1F790E080E00E94B72857
:104A20008B3E9E4F11F00E944715509A589A559A06
:104A30005D9A549A5C9A8CE090E00E94A92890E0DC
:104A4000B0E0A0E08093E3029093E402A093E5023B
:104A5000B093E60290E080E00E94B7288B3E9E4F24
:104A600011F00E94471582E090E00E94A9288093EF
:104A70000F030E941E149093F2028093F10283E0D0
:104A800090E00E94A928682F70E090E080E00E94EA
:104A9000B1066091ED027091EE028091EF0290916B
:104AA000F0020E94FE0D8091F302811136C090E069
:104AB00080E00E94B7288B3E9E4F21F00E94471550
:104AC0000E94371588E090E00E94B12860939C0313
:104AD00070939D0380939E0390939F036E7F71F468
:104AE0000E94371588E090E00E94B12860939C03F3
:104AF00070939D0380939E0390939F030E9486076B
:104B00001092060380919C0380FF04C060E08695AC
:104B10000E94951881E08093F3025198599A529817
:104B20005A9A89B1869581704A99F6C090E0892B8E
:104B30008093090380919C03816080939C0361E0D2
:104B400086950E94951860E081E20E94951821E008
:104B50004EE16FEF8AE30E943E1488E391E0909368
:104B6000F5028093F402A8E1CA2ED12CB0E4AB2E5A
:104B700089EF92E016E0B12EB80E80913B039924A4
:104B8000939400E112E1853009F41AC10E940813E0
:104B9000882359F08FB7F89440910A0350910B0382
:104BA00060910C0370910D038FBFA0E1B3E0E9EFBA
:104BB000F2E010E000E0302F81919D91981709F408
:104BC00021C1292F282790E099249394422F49212D
:104BD00009F413C199833A83892191E009F490E0A3
:104BE0009B830E9437058160782F9D838C83498148
:104BF0005A816B818D810E94E422F801E05FFC4FB5
:104C0000808198269082809106038823D1F180913B
:104C10000503E0919C03E695E81BE09301038230D5
:104C200009F007C1F0E0E658FA4FE4910E2F10E0CA
:104C3000F4EE8F2EF2E19F2E80910203882361F023
:104C4000109202030E943705909300038093FF02A5
:104C500010920403109203030E943705E091FF02B3
:104C6000F09100038E1B9F0B8F3F9F4750F4E00F86
:104C7000F11FF0930003E093FF028FEF92E0F40145
:104C80000995E0910903EE0FEE0FE093090389B156
:104C900081FBEE24E0F84A9938C180E08E29E82BA8
:104CA000E0930903EF70F0E0E755FE4F80819091AB
:104CB0000803890F909107039F5F843034F420E04C
:104CC0008D3F34F49091070391509093070321E0B6
:104CD000082E000C990B64E070E00E941728809366
:104CE0000803222359F08FB7F89440910A0350919A
:104CF0000B0360910C0370910D038FBF0E94BB06E4
:104D000090910E03891709F438CF0E94BB06809357
:104D10000E030E948A0A31CF92E009CF80913B03B3
:104D2000843009F440C080E00E948A0A1092060391
:104D30008091F802811116C09092F80280919C0334
:104D4000982F91709093F7028E7F80939C038FEF42
:104D500090E7E2E081509040E040E1F700C00000C1
:104D60000E945A0D1092F6020FB6F894A895C092C0
:104D700060000FBEA092600083B7817F846083BF14
:104D800083B7816083BF7894889583B78E7F83BF14
:104D90000FB6F894A89580916000886180936000B8
:104DA000109260000FBE80913A03882349F00E9460
:104DB0000813E9EFF2E081918111AAC0BE12FBCF86
:104DC00080913B03853009F4A9CF0E94B1150E9460
:104DD000BB060E948A0A1092F8028091F70288238B
:104DE00049F080919C03816080939C0360E08695EC
:104DF0000E9495180E947F18C9CE9F5F990C94302D
:104E000009F0E4CE0F5F1F4F0630110509F0D3CE35
:104E10008FEF8E838F8318860E9437058160782FED
:104E20009A8789874E815F8168858A850E94E422FE
:104E3000EACE863059F4F0E0E958FA4FE4910E2FAB
:104E400010E0E8EF8E2EE2E19E2EF6CE893061F47E
:104E5000E695F0E0EC58FA4FE4910E2F10E072ED79
:104E6000872E70E1972EE8CE8F3061F4E695F0E062
:104E7000EF58FA4FE4910E2F10E06CEF862E60E1B0
:104E8000962EDACE853159F4F0E0E259FA4FE491EA
:104E90000E2F10E05AE6852E51E1952ECDCE08E278
:104EA00010E028EB822E21E1922E883109F4C4CE45
:104EB000833249F4ECE6F5E0059114914BE8842E39
:104EC00042E1942EB9CE04EF11E091E4892E92E1F3
:104ED000992E843209F4B0CE853281F48E2F63E0AE
:104EE0000E94E927E92FF0E0E759FA4FE4910E2FED
:104EF00010E033E2832E30E1932E9ECE00ED17E0DA
:104F000081E2882E85E0982E97CE82E090E0C6CE92
:104F100009BD19BD09B400FEFDCF8091D8008F7D79
:104F20008093D8008091E00082608093E0008091BF
:104F3000E00081FDFCCF0E94B11542CF78941F9212
:104F40001FB61F9211248F939F93AF93BF938091AD
:104F50000A0390910B03A0910C03B0910D030196ED
:104F6000A11DB11D80930A0390930B03A0930C0322
:104F7000B0930D03BF91AF919F918F911F901FBE72
:104F80001F9018951F921FB61F9211248F939F9305
:104F9000AF93BF938091F602811113C080910A03F1
:104FA00090910B03A0910C03B0910D034196A11DAC
:104FB000B11D80930A0390930B03A0930C03B0934D
:104FC0000D03BF91AF919F918F911F901FBE1F90B6
:104FD0001895991B79E004C0991F961708F0961B45
:104FE000881F7A95C9F78095089587FB082E0626B5
:104FF00087FD819567FD61950E94E9270EF49195E3
:1050000007FC81950895AA1BBB1B51E107C0AA1F8D
:10501000BB1FA617B70710F0A61BB70B881F991F59
:105020005A95A9F780959095BC01CD01089597FBFD
:10503000072E16F4009407D077FD09D00E940328AC
:1050400007FC05D03EF4909581959F4F089570958B
:1050500061957F4F0895EE0FFF1F0590F491E02DAD
:1050600009940E944529332312F48A1B9B0B0C944C
:105070003B280E944529B7FF0895821B930B089592
:105080008F929F92AF92BF92CF92DF92EF92FF9258
:10509000CF93DF93EC01688179818A819B816115CF
:1050A00071058105910521F464E279ED8BE597E0C6
:1050B0002DE133EF41E050E00E94F12849015A010F
:1050C0009B01AC01A7EAB1E40E9410296B017C01AD
:1050D000ACEEB4EFA50194010E941E29DC01CB01C6
:1050E0008C0D9D1DAE1DBF1DB7FF03C00197A1090B
:1050F000B04888839983AA83BB839F77DF91CF9140
:10510000FF90EF90DF90CF90BF90AF909F908F90E7
:1051100008950E944028089580E091E00E94402870
:105120000895B0E0A0E08093000190930101A09366
:105130000201B09303010895FC014150504030F04A
:1051400001900616D1F73197CF0108958827992746
:105150000895F999FECF92BD81BDF89A992780B53F
:105160000895A6E1B0E044E050E00C94E328A8E103
:10517000B0E042E050E00C94E328262FF999FECFEE
:1051800092BD81BDF89A019700B4021639F01FBA9A
:1051900020BD0FB6F894FA9AF99A0FBE08950396B7
:1051A000272F0E94BE280E94BD28252F0E94BE28BE
:1051B000242F0C94BE280196272F0E94BE280C9401
:1051C000BD28DC01CB01FC01F999FECF06C0F2BD80
:1051D000E1BDF89A319600B40D9241505040B8F7B5
:1051E0000895052E97FB1EF400940E94082957FD90
:1051F00007D00E94232907FC03D04EF40C94082901
:1052000050954095309521953F4F4F4F5F4F0895F2
:1052100090958095709561957F4F8F4F9F4F089522
:105220000E944529A59F900DB49F900DA49F800DCD
:10523000911D11240895B7FF0C9410290E94102984
:10524000821B930B0895A1E21A2EAA1BBB1BFD0122
:105250000DC0AA1FBB1FEE1FFF1FA217B307E40755
:10526000F50720F0A21BB30BE40BF50B661F771FAD
:10527000881F991F1A9469F760957095809590958D
:105280009B01AC01BD01CF010895A29FB001B39F66
:10529000C001A39F700D811D1124911DB29F700D3F
:1052A000811D1124911D0895F894FFCF750A750A88
:1052B0007E0A7E0A800A7E0A7E0A7E0A750A750ABE
:1052C000850A7E0A7E0A850AA916D1166718D116A4
:1052D000671804172517671822182F186A1E6A1EE8
:1052E000E61EE61E421F9C1E9C1E9C1E5C1F32205A
:1052F000412041206E1D951D9C1DA11DA61DAB1DAD
:10530000B01DB51DBA1DBF1DC41DC91DCC1DD11DAD
:0C531000D41DD71DDA1DDD1DE01DE31DBE
:10531C00010000005600530001191A1B1C1D1E1F12
:10532C002021220102012B0D1B0DE70A00000000B9
:10533C00000000000000000000000401FF01B200AA
:10534C002A0000AC004C00002505320B24052E0B66
:10535C002A0B0100010202020206060609090909CC
:10536C0009090F0F0F0F0F0F15151518191919190A
:10537C001919191919192324252525252525818263
:10538C0083E200E900EA00B500B600B700CD008367
:10539C0001CC008A019201940121022302240225EE
:1053AC0002260227022A02B300B4006F007000F03C
:1053BC003435366667F6F7939600FF01000100005E
:0A53CC00FFFF0000010001FF0000D8
:00000001FF
