:100000000C94BF030C9406040C9406040C94060490
:100010000C9406040C9406040C9406040C94060438
:100020000C9406040C9406040C94B9250C947525C4
:100030000C94F12C0C9406040C9406040C94060405
:100040000C9406040C9406040C9406040C94060408
:100050000C9406040C94CD2C0C9406040C94060409
:100060000C9406040C9406040C9406040C940604E8
:100070000C9406040C9406040C9406040C940604D8
:100080000C9406040C9406040C9406040C940604C8
:100090000C9406040C9406040C9406040C940604B8
:1000A0000C9406040C9406040C940604580060009A
:1000B000000058005E00000058005D00000058007D
:1000C0005C00000057006000000057005F00000067
:1000D00000000FFF78FF000000000000D7FF78FF4E
:1000E00000000000000080FF64FF0000000000002E
:1000F00005FF78FF0000000000005FFF5AFF0000CE
:10010000000005010902A10185020901A1000509FC
:1001100019012908150025019508750181020501BD
:10012000093009311581257F950275088106093846
:100130001581257F950175088106050C0A38021581
:1001400081257F950175088106C0C005010980A140
:1001500001850319012AB700150126B7009501751D
:10016000108100C0050C0901A101850419012AA014
:1001700002150126A002950175108100C005010934
:1001800006A1018505050719E029E7150025019558
:1001900008750181020507190029EF150025019551
:1001A000F075018102050819012905950575019170
:1001B00002950175039101C00660FF0961A1010963
:1001C00062150026FF00952075088102096315005D
:1001D00026FF00952075089102C005010906A101BE
:1001E000050719E029E71500250195087501810229
:1001F0009501750881010507190029FF150026FFE3
:1002000000950675088100050819012905950575F1
:10021000019102950175039101C0000000000000EA
:1002200000000000000000000000000000000000CE
:1002300000000000000000000000000000007E0F31
:1002400000D4FFFFFFC7000000780000000000009E
:1002500000002A2B28000000000000000000000021
:10026000000000000029000000002C1E3420212284
:1002700024342627252E362D3738271E1F202122ED
:10028000232425263333362E37381F040506070866
:10029000090A0B0C0D0E0F10111213141516171856
:1002A000191A1B1C1D2F3130232D35040506070894
:1002B000090A0B0C0D0E0F10111213141516171836
:1002C000191A1B1C1D2F3130354C00010101010191
:1002D00001010101020202020202020202030303FF
:1002E00003030303030404040404040405050505CF
:1002F000050606060606070707070708080808098F
:100300000909090A0A0A0B0B0B0C0C0C0D0D0D0E3A
:100310000E0E0F0F0F1010111111121213131414CF
:10032000151516161717181819191A1A1B1B1C1D44
:100330001D1E1E1F2020212222232424252626279D
:100340002829292A2B2C2D2D2E2F303132323334CF
:1003500035363738393A3B3C3D3E3F4041424344D5
:1003600045464748494A4C4D4E4F505153545556B7
:1003700058595A5B5D5E5F616264656668696B6C63
:100380006D6F7072737577787A7B7D7E80828385DE
:1003900087888A8C8E8F91939596989A9C9EA0A21E
:1003A000A3A5A7A9ABADAFB1B3B5B7BABCBEC0C228
:1003B000C4C6C9CBCDCFD1D4D6D8DBDDDFE2E4E7EC
:1003C000E9EBEEF0F3F5F8FAFDFFFFAA7F554008E0
:1003D0000706050D0C0B0A11100F161514131A1829
:1003E0001B120903010002040E17192223252628D7
:1003F000292A2C2D2F3032333536383A3B3D3E40BA
:1004000042434547494A4C4E5051535557595A5CFF
:100410005E6062646668696B6D6F71737577797B16
:100420007D7F81838587898A8C8E90929496989A15
:100430009C9E9FA1A3A5A7A8AAACAEAFB1B3B4B62A
:10044000B8B9BBBCBEBFC1C2C3C5C6C7C9CACBCC85
:10045000CDCED0D1D2D2D3D4D5D6D7D7D8D9D9DA58
:10046000DADBDBDBDCDCDCDCDCDDDDDDDDDCDCDCCD
:10047000DCDCDBDBDBDADAD9D9D8D7D7D6D5D4D3F5
:10048000D2D2D1D0CECDCCCBCAC9C7C6C5C3C2C1CA
:10049000BFBEBCBBB9B8B6B4B3B1AFAEACAAA8A727
:1004A000A5A3A19F9E9C9A98969492908E8C8A89DF
:1004B000878583817F7D7B79777573716F6D6B69BC
:1004C00068666462605E5C5A5957555351504E4C91
:1004D0004A4947454342403E3D3B3A383635333240
:1004E000302F2D2C2A2928262523224E007F004B31
:1004F00000000001515400550056005F006000618B
:100500000057005C005D005E00000059005A005B6F
:1005100000580062000000630000004F000100501E
:100520000000000100AD002C0053001450025303E2
:10053000532A000100010001000000010001000138
:1005400000005C005C000001000000300001002F92
:1005500000000010500500170011030D00160007E1
:10056000002D01060119011000000011011D03E119
:100570000057012C000000E2000000805F010081B4
:100580005F00001050B9004A0017012B0352002BE6
:10059000011A01500051004F000000B6002C00B7B6
:1005A0000028004E0000004B000000805F01008129
:1005B0005F00001050010001000100010052000125
:1005C000000100500051004F00000010033D0801E1
:1005D00000530068000000690000000100010001F4
:1005E0000000000100010001000100010001000104
:1005F00000010001000100010000000100010001F4
:1006000000010001000000010000000100010001E4
:1006100000000001000100010001000100010001D3
:1006200000010001000100010000000100010001C3
:1006300000010001000000010000000100010001B4
:1006400000000001000100010001000100010001A3
:100650000001000100010001000000010001000193
:100660000001000100000001000000010001000184
:100670000000000100010001000100010001000173
:100680000001000100010001000000010001000163
:100690000001000100000001000000010001000154
:1006A0000000000100010001000100010001000143
:1006B0000001000100010001000000010001000133
:1006C0000001000100000001000000F800EE00E45D
:1006D00000DA00D00000001E0F0500047F3F1F64F9
:1006E0003214643214783C1E1E140A0509025B00A1
:1006F000030100A0FA09040000010301010009211F
:10070000110100012240000705810308000A0904C5
:100710000100020300000009211101000122220052
:1007200007058203200001070503032000010904D7
:100730000200010300000009211101000122B6009E
:100740000705840320000A12011001000000084B75
:100750004115000200010200010A0350005300315C
:1007600000370000001203410054004C0041004ECD
:100770000054004900530000000403090400112440
:100780001FBECFEFDAE0DEBFCDBF04B603FE27C049
:100790008091B8039091B903A091BA03B091BB03C3
:1007A0008730904BA740B04BD1F41092B803109211
:1007B000B9031092BA031092BB0314BE84B7877FAB
:1007C00084BF0FB6F894A8958091600088618093EB
:1007D0006000109260000FBEE0E0F8E3099523E0AE
:1007E000A2ECB1E001C01D92A83BB207E1F711E015
:1007F000A0E0B1E0E0ECFDE502C005900D92A23C66
:10080000B107D9F70E9490260C94932E0C94000007
:10081000E8EDF0E080818E7F80831092E2001092FC
:10082000DA001092E100A0EEB0E08C9181608C9330
:1008300080818F77808319BCA7EDB0E08C918E7F8B
:100840008C9380818F7E8083109282030895209103
:10085000E4003091E50095E6A9012091EC00822F9B
:10086000817020FF06C08091E80080FF06C080E014
:1008700008952091E80022FD1AC08091A7038823E3
:1008800089F0853089F08091EB0085FD0FC02091C3
:10089000E4003091E50042175307F9F29150E1F678
:1008A00084E0089582E0089583E0089581E008954A
:1008B000EF92FF920F931F93CF937C018B010E94C5
:1008C0002704C82F811117C08091E80085FD0BC057
:1008D0008091E8008E778093E8000E9427048823A7
:1008E00099F3C82F08C0F70181917F018093F1002F
:1008F0000150110949F78C2FCF911F910F91FF9053
:10090000EF9008958091A90387FF13C08091E800BC
:1009100082FF06C08091E8008B778093E80004C0D6
:100920008091A7038111F2CF08958091A7038823B6
:10093000D9F38091E80080FFF8CF8091E8008E77AE
:10094000ECCF982F9093E900242F762F50E0891751
:1009500031F07091EC002091ED005091F00021FDFC
:1009600007C09F5F973071F78093E90081E0089599
:100970003091EB003E7F3093EB003091ED003D7FF6
:100980003093ED003091EB0031603093EB007093C9
:10099000EC002093ED005093F0002091EE0027FD35
:1009A000E0CF80E00895CF92DF92EF92FF920F9315
:1009B0001F93CF93DF93C8EDD0E088818F7E88832B
:1009C000E7EDF0E080818160808384E082BF81E098
:1009D0008093820388818E7F888302EE10E0F80185
:1009E00010821092DA0081EEC82ED12CF60110820E
:1009F00088818F77888388818068888388818F7DCC
:100A0000888319BC1092A7031092A8031092A60322
:100A10001092A50390EEE92EF12CF70180818B7FD7
:100A2000808388818160888342E060E080E00E946A
:100A3000A104F60180818E7F8083F801808181602E
:100A40008083808188608083F70180818E7F8083AE
:100A5000888180618883DF91CF911F910F91FF90F2
:100A6000EF90DF90CF900895FC018091AF039091BB
:100A7000B00386179707A0F06115710529F49091CE
:100A8000E8009E779093E80090E06115710551F4BD
:100A9000911108C08091E80082FF34C080E0089581
:100AA000BC01F2CF8091A7038823C1F18530C1F149
:100AB0008091E80083FD30C08091E80082FDEACF9C
:100AC0008091E80080FFE1CF8091F3002091F20057
:100AD000382F6115710519F02830310558F091E073
:100AE0002830310509F090E02091E8002E7720931E
:100AF000E800CBCF81918093F100615071092F5FA5
:100B00003F4FE7CF8091A703882341F0853041F024
:100B10008091E80083FFBECF81E0089582E00895D0
:100B200083E00895089580E00895809184030895F6
:100B30009C014FB7F89480917E0390917F03A09120
:100B40008003B09181034FBF821B930B08952FB791
:100B5000F89480917E0390917F03A0918003B091DF
:100B600081032FBF089580913A03811110923A03B7
:100B700008958091390390913803892B9091370320
:100B8000892B8093C40190913A039923A1F0892B7A
:100B90008093C40180913B01882341F180914903F6
:100BA00087FF24C08EE1E6ECF1E090E0815000F593
:100BB00091110E94B305E0914E03F0914F033097DD
:100BC000E1F080913B01882359F08091490387FF30
:100BD00007C08091C4018093C50185E08093C40162
:100BE0000280F381E02D84EC91E0099486E0DBCF74
:100BF00021912223D9F29F5FD9CF089590913B0193
:100C00009923D1F09091490397FF16C0E82FE695FC
:100C1000E695E695EE31E0F4F0E0EC53FE4F282F38
:100C2000277081E090E001C0880F2A95EAF780954F
:100C30009281892382830895E6ECF1E091918913F2
:100C400003C0DF0111971C9291E0EC3CF907B1F76A
:100C5000089590913B019923C1F09091490397FF2A
:100C600014C0E82FE695E695E695EE31F8F4F0E04D
:100C7000EC53FE4F877021E030E001C0220F8A95CF
:100C8000EAF78281822B82830895A6ECB1E0EFEF30
:100C900090E02D91821751F0EF3F19F4211101C01E
:100CA000E92F9F5F9630A9F7EF3F09F408950E2EC4
:100CB000000CFF0BEC53FE4FE6CF990F990F890FF5
:100CC000982F977086958695869525E0829FF001EE
:100CD0001124E95DFC4F50E040E080E0219130E0DC
:100CE000092E02C0369527950A94E2F72170332722
:100CF000042E01C0220F0A94EAF7822B4F5F5F4F48
:100D00004530510559F70895990F990F890F982F7C
:100D1000977041E001C0440F9A95EAF78695869551
:100D2000869595E0899FF0011124E95DFC4F30E044
:100D300020E070E05191DF011197CB01022E02C03B
:100D4000969587950A94E2F781708195852784238B
:100D500085278C932F5F3F4F2530310559F7089534
:100D6000809126039091F502981301C008958F5F3A
:100D70008770FACF882341F08095909138038923BA
:100D8000809338030C94B9050895882339F0909125
:100D90003803982B909338030C94B9050895882351
:100DA00041F08095909139038923809339030C9405
:100DB000B9050895882339F090913903982B9093C1
:100DC00039030C94B90508952091CC023091CD02DD
:100DD0002817390771F09093CD028093CC02E091EF
:100DE0004E03F0914F03309721F00084F185E02D00
:100DF000099408952091CA023091CB02281739072F
:100E000071F09093CB028093CA02E0914E03F0916F
:100E10004F03309721F00680F781E02D0994089563
:100E2000E0914E03F0914F03309721F00190F08153
:100E3000E02D099480E00895FA01811101C0FB01C1
:100E4000099480917303982F9E7F61F48170826072
:100E50008093730380917603853B18F084EB809335
:100E6000760308958635B0F381708465F1CFAF9233
:100E7000BF92DF92EF92FF920F931F93CF93DF9376
:100E8000182F062FE901453B08F044EBE42FF0E072
:100E9000E653FD4F011110C0E4915E2F4E2F4983A0
:100EA000E8835A83DF91CF911F910F91FF90EF90CC
:100EB000DF90BF90AF900895202F30E04491D42E62
:100EC000E42EF12C56E0159FC0011124EFEFF0E065
:100ED000BF010E94322D812F90E0880F991F55E5A8
:100EE000569FD001579FB00D11248A1B9B0B982F42
:100EF000990F890F5F01A21AB30AAE9CD001AF9C73
:100F0000B00DBE9CB00D11245B2F089F80011124F1
:100F1000012F11275F01A01AB10AAE9C8001AF9C7E
:100F2000100DBE9C100D11245F01A81AB108A29EDD
:100F3000C001A39E900DB29E900D1124892F992778
:100F4000E81BF90BEE9DC001EF9D900DFE9D900DED
:100F50001124E92F62307105A1F050F4611571057B
:100F600009F49DCF6130710581F0EB2F512F97CFA0
:100F70006430710569F080F06630710509F48FCF37
:100F8000F4CFE42F4B2F592F8ACFE42F412F87CF57
:100F9000EB2F542F492F83CF4B2F5D2DE12F7FCF88
:100FA0000E94A7059C019091640380916503982B92
:100FB00021F0309361032093600390916603809148
:100FC0006703982B21F030935E0320935D03E0913B
:100FD0004E03F0914F03309749F082E08093620313
:100FE0000480F581E02D82E693E00994089590E075
:100FF00080E00E94FA0690E080E00E94E4061092F1
:101000003803109237030E94B90586E0E2E6F3E068
:10101000DF011D928A95E9F710925F0310925C033D
:101020001092EE020C94D00760933B0370933C0344
:1010300080933D0390933E030C94F7074091640323
:10104000803F59F48091650387FF0DC010926503BE
:1010500041110BC010925F0308C0813F81F4809161
:10106000650318169CF3442381F0809166039091E8
:101070006703892B09F05AC010925C030895823FE0
:1010800049F447FFF0CF109264038091650381110A
:10109000ECCFE0CF833F19F41416ACF3E4CF90917A
:1010A0006603893F29F41916F4F610926603DBCF24
:1010B0008A3F19F497FFD7CFF8CF909167038B3F02
:1010C00029F497FFD0CF10926703CDCF8C3F19F44E
:1010D0001916CCF3C8CF9CE0980F953090F4845F3C
:1010E000990B21E030E0B90102C0660F771F8A95A5
:1010F000E2F7CB018095909163038923809363038A
:10110000B2CF8D3F31F48091EE028E7F8093EE025C
:10111000AACF8E3F21F48091EE028D7FF7CF8F3FD3
:1011200009F0A1CF8091EE028B7FF0CF0895882344
:1011300009F459C0823871F40E94100781FF53C02E
:1011400089E30E9429060E94B90589E30E94FE05F1
:101150000C94B905833859F40E94100780FF43C0EE
:1011600083E50E9429060E94B90583E5EFCF843804
:1011700059F40E94100782FF36C087E40E942906B6
:101180000E94B90587E4E2CF9CEF980F913AF0F204
:1011900090E2980F983088F4877021E030E0A90140
:1011A00002C0440F551F8A95E2F7CA0180959091BD
:1011B0003903892380933903CBCF9BE5980F933074
:1011C00020F490E080E00C94FA0698E5980F9731AF
:1011D00020F490E080E00C94E406803F20F00E9430
:1011E0001E080C94D00708958091EE0280FD16C071
:1011F00081FD16C082FD16C080915C038823A1F09A
:10120000883280F428E0829FC001112468E270E0F7
:101210000E94462D862F672B39F0089582E00895AD
:1012200084E0089588E0089581E008958091EE02B9
:1012300080FD14C081FD14C082FD16C080915F0343
:10124000882381F0843180F422E3829FC00111243D
:1012500064E170E00E94462D862F08958CE0089589
:1012600089E1089585E0089582E30895803F31F48F
:101270000E9416098195809365030895813F19F4B2
:101280000E941609F8CF823F31F40E941609819519
:10129000809364030895833F19F40E941609F8CFE0
:1012A000893F29F40E94F4088093660308958A3FD9
:1012B00021F40E94F4088195F7CF8B3F31F40E940E
:1012C000F40881958093670308958C3F19F40E9478
:1012D000F408F8CF9CE0980F953070F4845F990B78
:1012E00021E030E001C0220F8A95EAF78091630384
:1012F000822B8093630308958D3F31F48091EE0239
:1013000081608093EE0208958E3F21F48091EE0279
:101310008260F7CF8F3FB9F78091EE028460F1CF02
:10132000F894E82FE295EF70F0E031A1282F2F70AC
:1013300081E090E001C0880F2A95EAF7982F9095F8
:10134000932391A392A1892B82A3789408959091DD
:10135000490392FF06C0282F28712830F9F4877FAF
:10136000846093FF06C0282F28712831F1F4877E0E
:10137000846120914A0320FF06C0382F387138302D
:10138000D9F4877F816021FF06C0282F287128317A
:10139000D1F4877E816194FD877E0895282F247182
:1013A0002430F9F68B7F8860DCCF282F247124311C
:1013B00001F78B7E8861DDCF382F3171313019F71D
:1013C0008E7F8860E0CF282F2171213121F78E7E1A
:1013D0008861E1CF809580FF08C0589A81FF07C0DF
:1013E0005D9A82FF06C05C9A08955898F7CF5D9881
:1013F000F8CF5C980895CF93DF939C013A9521151F
:101400003F4168F5EC01CC27D170DC01AA27B2700E
:10141000AC01442754709C012227387094FF11C0FE
:1014200080E1CD2B09F480E0AB2B09F08062452BE5
:1014300009F08064232B09F08068FB01DF91CF91D4
:10144000099481E0CD2B09F480E0AB2B09F0826098
:10145000452B09F08460232B81F38860EECFDF9168
:10146000CF910895CF93DF93EC010E949708CE01AE
:10147000805E9109089720F06AEB76E0209711F4DE
:101480006FEC76E0CE01DF91CF910C94FB09CF9306
:1014900084E090E00E94E82DC82F81E290E00E9455
:1014A000E82D982F8C2FCF9108950F931F93CF93F2
:1014B000DF9328E0629FE001112450E0440F551FA4
:1014C000C40FD51F30E3839FC00DD11D1124CE0161
:1014D00086960E94E82D082F10E0102F0027CE01DD
:1014E00087960E94E82D9801282BC901DF91CF91A2
:1014F0001F910F910895462F8A3038F4763028F4E2
:10150000643018F4672F0C94550A90E080E0089539
:10151000CF93DF930E947B0AEC0182389105A9F1F9
:10152000D8F58133910509F496C048F589329105C3
:1015300009F48AC08A9709F495C0C11521E5D2073C
:1015400008F0BCC0C11530E5D30708F014C1C83E8F
:10155000D10508F09CC0C03ED10560F5C83AD10560
:1015600008F087C0C53AD10508F0FDC0C130D105EB
:1015700009F12097F9F0C430D105E0F440C085337B
:10158000910509F45AC0C997C1F680914903837047
:1015900089F0C0EED0E00EC0833E910599F170F461
:1015A000803E910501F1823E910539F68091490313
:1015B00082FD21C0CE01DF91CF910895863E910535
:1015C00061F1873E910571F1843E910509F0B5CF37
:1015D00080914A0381FFEECF80914903C7EED0E0AE
:1015E00084FD0DC0E7CF8091490380FD12C1909129
:1015F0004A0390FFDFCFC3EED0E084FFDBCFD0E023
:10160000C0E0D8CF8091490382FD06C190914A0382
:1016100090FDBFCF84FFCECFF2CF8091490383FDF1
:10162000DDCFC8CF8091490383FDF9C090914A0373
:1016300091FFF0CFC4EED0E0BDCF8091490385FF8C
:10164000B9CFC9E2D0E0B6CF8091490385FFB2CFD0
:10165000C5E3D0E0AFCF8091490386FFABCFCAE2AC
:10166000D0E0A8CF8091490386FFA4CFC1E3D0E0AA
:10167000A1CFCF3BD10518F6C85AD0E0CC0FDD1F63
:10168000C659DE4F0990D881C02DD46493CFC115BF
:1016900040E2D40758F4C11581E0D80708F08ACF9A
:1016A000C03FD10508F4ABCFD06584CFC11590E41D
:1016B000D90708F4A4CFDF70D06A7CCFC11525E527
:1016C000D20700F5C11534E5D30708F08AC0C1156B
:1016D00043E5D40708F071C0C11582E5D80708F4C6
:1016E00067C0CE018370992721E030E002C0220F4D
:1016F000331F8A95E2F7C695C69580E2C89FE00140
:10170000112452C0C11599E5D907A8F4C11528E5DF
:10171000D20708F06BC0C11536E5D30708F06FCFCC
:101720008C2F0E94A709C82FD0E0DC2FCC27CC2714
:10173000DF71D0623FCFC1154AE5D40708F45BC022
:10174000CE0190568115904208F059CF8D2F8F71A0
:101750000E94A70990E0982F882788279F719C01F5
:101760002C2BE901E6CFC55AD0E0C959DE4FC8811C
:10177000D0E0D0641FCFCE01E4E096958795EA953E
:10178000E1F783702C2F26952695237040E2249F45
:1017900090011124382B8C2F8370C1E0D0E002C05F
:1017A000CC0FDD1F8A95E2F7C22BD32BDC6802CF6A
:1017B000DC2FCC27C16FD06AFDCECE018370992774
:1017C00021E030E002C0220F331F8A95E2F7C69570
:1017D000C69590E2C99FE0011124C22BD32BDA6891
:1017E000E9CEDC2FCC27C46FD06AE4CEDC2FCC2727
:1017F000C06FD06ADFCE8C2F8F700E94A70934E0B3
:10180000D695C7953A95E1F7CF709C2FEC01D0693A
:10181000D1CEC9E3D0E0CECEC2EED0E0CBCEC6EE84
:10182000D0E0C8CEBF92CF92DF92EF92FF920F939B
:101830001F93CF93DF938C01C090B103D090B2037C
:10184000E090B303F090B40380913B0390913C038C
:10185000A0913D03B0913E03C82AD92AEA2AFB2A67
:10186000CFE1D0E0BC2ED701C6010C2E04C0B69546
:10187000A795979587950A94D2F780FD0EC021977A
:1018800088F7B12C8B2DDF91CF911F910F91FF9095
:10189000EF90DF90CF90BF900895B8018C2F0E94F9
:1018A000880A019761F3EECFCF93DF93EC010E949A
:1018B000120CBE01DF91CF910C94880A0E94540C47
:1018C000292F2F7092959F7092509E3078F4E92FB7
:1018D000F0E0EB56F14D0C945A2D803F19F020F4B6
:1018E000883E20F481E00895843FE1F380E008958C
:1018F000883EC0F3813FD1F7F5CF822F869586953C
:10190000869508956F927F928F929F92AF92BF9229
:10191000CF92DF92EF92FF920F931F93CF93DF93BB
:101920008BEEC82E84E0D82E0EE510E0E801E0979B
:1019300036011CC0F50185909490692DC7010E9465
:10194000FC2D682DC70101960E94FC2D82E0A80E97
:10195000B11C82E0E80EF11CCE15DF0559F788E0D6
:10196000680E711C28960C171D0731F07E0188E067
:10197000E81AF1085301DECF005D1F4F80E3C80E67
:10198000D11C0E3382E0180789F6DF91CF911F91A9
:101990000F91FF90EF90DF90CF90BF90AF909F900E
:1019A0008F907F906F900895CF93DF93C6E0D2E041
:1019B00060E0CE010E94FC2D2196C11584E0D8077D
:1019C000B9F7DF91CF910895CF93DF9300D00F92B5
:1019D000CDB7DEB79091A703943011F589837B834F
:1019E0006A839093E9008FEF9091E800815095FD14
:1019F00006C095ED9A95F1F700008111F5CF809121
:101A0000E80085FF0DC050E040E063E070E0CE01EB
:101A100001960E9458048091E8008E778093E80038
:101A20000F900F900F90DF91CF910895BC0184E04B
:101A30000C94E40CBC0183E00C94E40C9C0184E065
:101A40008093E9009FEF8091E800915085FD06C0EA
:101A500085ED8A95F1F700009111F5CF8091E800AE
:101A600085FF0CC050E040E066E070E0C9010E94D4
:101A700058048091E8008E778093E8000895CF9312
:101A8000DF93EC0180913B018823B1F18091490300
:101A900087FF32C060E284E08093E9008FEF90918D
:101AA000E800815095FD06C095ED9A95F1F700008C
:101AB0008111F5CF8091E80085FF1BC080913B012B
:101AC00070E050E040E0811104C050E040E068E088
:101AD00070E0CE010E9458048091E8008E778093D8
:101AE000E80080E2FE01A5E8B3E001900D928A953E
:101AF000E1F7DF91CF91089568E081E0CDCF81E0FB
:101B00008093E00080E28093D8001092C9008FE1BA
:101B10009EE40197F1F700C0000087E090EBDC0144
:101B20008093B8039093B903A093BA03B093BB0317
:101B300088E19CE00FB6F894A895809360000FBEF2
:101B400090936000FFCFCF93C82F882309F4AEC0D5
:101B50008238C1F40E94100781FDA8C089E30E9469
:101B600029060E94B9052FEF81EE94E021508040B4
:101B70009040E1F700C0000089E30E94FE05CF918C
:101B80000C94B9058338A1F40E94100780FD8EC023
:101B900083E50E9429060E94B9052FEF81EE94E0AB
:101BA000215080409040E1F700C0000083E5E5CF80
:101BB0008438A1F40E94100782FD78C087E40E9457
:101BC00029060E94B9052FEF81EE94E02150804054
:101BD0009040E1F700C0000087E4CFCF8CEF8C0F7E
:101BE000813A88F580913B01882301F18091490376
:101BF00087FF1CC0EC2FE695E695E695F0E0EC53E8
:101C0000FE4F828190E04C2F477021E030E002C00F
:101C1000220F331F4A95E2F782239323892B79F011
:101C20008C2F0E94FE050E94B90509C0E6ECF1E088
:101C30008191C817A9F321E0EC3CF207C9F78C2F7A
:101C40000E9429069CCF80E28C0F883068F4C77010
:101C500021E030E001C0220FCA95EAF780913903F4
:101C6000822B809339038BCFEBE5EC0FE33040F40C
:101C7000F0E0E959FE4F808190E0CF910C94FA0694
:101C8000E8E5EC0FE73150F4F0E0EE0FFF1FE65906
:101C9000FE4F80819181CF910C94E406C03F30F0DB
:101CA0008C2F0E943609CF910C94D007CF910895C4
:101CB0001F93CF93DF93182FD0E0C0E0893311F446
:101CC000C0E5D0E0812F0E94A30D209731F4812F31
:101CD000DF91CF911F910C9497088FE99FE00197B6
:101CE000F1F700C000002197F0CF0F931F93CF931F
:101CF000DF93C62FD42F022FFC0182818823A1F00D
:101D00006093B7030E94A7059093B6038093B50331
:101D1000C77081E001C0880FCA95EAF7DF91CF91C3
:101D20001F910F910C94DA068091B703681335C0A8
:101D30008091B5039091B6030E949805883C910567
:101D400060F510E21D0FCD17B9F080E28C0F8830DE
:101D500040F4C77081E001C0880FCA95EAF70E947D
:101D6000CF06183048F481E09D2F977001C0880F8E
:101D70009A95EAF70E94DA06802F0E94580E1830D2
:101D800098F4D77081E001C0880FDA95EAF7DF9107
:101D9000CF911F910F910C94CF06C77081E001C0C5
:101DA000880FCA95EAF7F3CFDF91CF911F910F917A
:101DB0000895DF92EF92FF920F931F93CF93DF93DB
:101DC000E82FF0E0E65BFD4FD490282F269526956E
:101DD000269530E0F901E65CFD4F0491877010E034
:101DE000082E02C0159507950A94E2F70170112795
:101DF000F901E65DFD4FE490F12C082E02C0F59448
:101E0000E7940A94E2F791E0E922FF24F901E65E03
:101E1000FD4FC491D0E002C0D595C7958A95E2F7F1
:101E2000C170DD270115110519F081EE0E94A30D87
:101E3000E114F10419F086EE0E94A30D8D2D0E948D
:101E4000580EEF2819F086EE0E949708012B19F022
:101E500081EE0E949708CD2B51F08CE2DF91CF915B
:101E60001F910F91FF90EF90DF900C94580EDF912F
:101E7000CF911F910F91FF90EF90DF900895CF9336
:101E8000DF93EC01805E9109089720F065EC76E025
:101E9000209711F46AED76E0CE010E94FB098C2FA9
:101EA000DF91CF910C94A30DCF939091E6029923EB
:101EB00021F0811116C01092E602CF910895EC2F07
:101EC000F0E0EE0FFF1FEA52FD4F808191810E94EA
:101ED0003F0F0E94B905CF5F8091E602C81778F3E3
:101EE000EACFC0E0F9CFBF92CF92DF92EF92FF929C
:101EF0000F931F93CF93DF9388E9E82E81E0F82EAC
:101F0000C3E4D3E0C12CD12C01E010E0F7018191B2
:101F10007F01F894E82FE295EF70F0E021A18F7037
:101F2000A80102C0440F551F8A95E2F7CA01922FFB
:101F3000982B91A392A18095892382A3789400C0C5
:101F4000EEE9F1E030E020E0B12C4191A42FA29520
:101F5000AF70B0E090968C9190E04F7002C0959574
:101F600087954A95E2F780FD50C0802F022E01C070
:101F7000880F0A94EAF7B82A2F5F3F4F24303105C3
:101F800021F7F701319780810E94900955E0C5162D
:101F900019F080EA8A95F1F78881B816C1F1B88204
:101FA00081E0D82AC3942196E6E0CE12AFCFDD209F
:101FB00081F181E08093E6010E94A7059093E501FD
:101FC0008093E4018091E4019091E5010E949805DD
:101FD000069718F18091430380937803809144031E
:101FE000809379038091450380937A03809146031F
:101FF00080937B038091470380937C038091480307
:1020000080937D031092E60108C080E0B4CF80E0A9
:10201000C8CF8091E6018111D5CF8091120188232C
:10202000A1F08091E702882381F08091E8029091ED
:10203000E902009751F00E9498058F35914028F0F1
:102040001092E70281E00E94540F8091D30288230E
:1020500071F08091D1029091D2020E949805893E40
:10206000934028F082EE0E9497081092D30280914C
:10207000D0028823A9F08091CE029091CF020E94D5
:102080009805883E934060F00E94A7059093CF0288
:102090008093CE0282E50E94580E81E50E94580E80
:1020A0008D2DDF91CF911F910F91FF90EF90DF90D9
:1020B000CF90BF9008956BEE7EEF90E080E00E949D
:1020C0001A2E60E082E090E00E94FC2D60E083E048
:1020D00090E00E94FC2D10923B0310923C03109262
:1020E0003D0310923E0360E084E090E00E94FC2DEE
:1020F00060E081E290E00E94FC2D60E085E090E0ED
:102100000E94FC2D60E086E090E00E94FC2D6FEFC5
:1021100087E090E00E94FC2D40E050E0BA0188E0AA
:1021200090E00E940E2E60E08DE090E00E94FC2D79
:1021300040E050E0BA0188E190E00E940E2E60E09D
:1021400087E190E00E94FC2D40E050E0BA018CE174
:1021500090E00E940E2E60E080E290E00E94FC2D54
:1021600040E050E0BA0188E190E00E940E2E40E08D
:1021700050E0BA018FE090E00E940E2E40E050E067
:10218000BA0183E190E00C940E2ECF92DF92EF9291
:10219000FF926B017C010E942107B701A60188E034
:1021A00090E0FF90EF90DF90CF900C940E2E8091F6
:1021B0007703882319F0815080937703609173032C
:1021C0007091740380917503909176030C94C510FF
:1021D00080917703833018F48F5F80937703609149
:1021E00073037091740380917503909176030C943E
:1021F000C510E3E7F3E083E0808311828FEF8283F1
:1022000088E28383148260817181828193810C943E
:10221000C5101092390380913B01E6ECF1E0882370
:1022200059F08091490387FF07C08EE1DF011D92BD
:102230008A95E9F70C94F70786E0F8CF1F93CF93C0
:10224000DF93CDB7DEB7AA970FB6F894DEBF0FBE07
:10225000CDBF89EA93E02091F100DC012D93CD01FF
:10226000B3E0813B9B07B9F78091AA03833009F45F
:1022700071C0B8F4813009F448C0823009F4B2C0AA
:102280008091E80083FF3AC18091A9039091AA034D
:102290009A3008F033C1E92FF0E0ED55F14D0C9480
:1022A0005A2D8A3009F48DC08B3009F470C0893002
:1022B00039F78091A903813219F78091AD0390918C
:1022C000AE03009711F00297D9F68091E800877F5E
:1022D0008093E8008091E80082FF37C09091F3007E
:1022E0008091F200029729F48091F1008B7F813078
:1022F00021F48091F100809384038091E8008B7732
:102300008093E8000E948204BBCF8091A903813AA8
:1023100009F0B6CF8091E800877F8093E800809134
:10232000AD039091AE03892B61F460E285E893E000
:1023300070E00E9434058091E8008B778093E8007C
:102340009FCF60E090E080E0F3CF8091A703811100
:10235000C1CF96CF8091A903813A09F091CF8091A6
:10236000AD039091AE03892B09F08ACF8091E800EC
:10237000877F8093E8008091E80080FFFCCF809108
:102380003B018093F1008091E8008E77B9CF809176
:10239000A903813209F074CF8091AD039091AE030F
:1023A000892B09F06DCF8091E800877F8093E8004A
:1023B0000E9482048091AB0380933B010E9409112B
:1023C0005FCF8091A903813209F05ACF8091E80054
:1023D000877F8093E8000E9482048091AC03809301
:1023E00083034ECF8091A903813A09F049CF8091B0
:1023F000E800877F8093E8008091E80080FFFCCFB1
:1024000080918303BECF803899F0823809F076C07E
:102410008091AD038F70873008F070C08093E90021
:102420008091EB0085FB882780F91092E90006C0B7
:102430008091A5039091A603911182609091E8008C
:10244000977F9093E8008093F1001092F1008091C3
:10245000E8008E77B5C1882309F4A2C1823009F063
:102460004DC08091AB038111A6C18091AD038F70E7
:102470002FEF280F263008F041C08093E90020910B
:10248000EB0020FF98C1933031F48091EB00806223
:102490008093EB0090C19091EB0090619093EB00E2
:1024A00021E030E001C0220F8A95EAF72093EA008C
:1024B0001092EA008091EB008860EACF81111EC083
:1024C0001091AB031F778091E3008078812B80937C
:1024D000E3008091E800877F8093E8000E948204F7
:1024E0008091E80080FFFCCF8091E30080688093BA
:1024F000E30082E0111183E08093A7038091E8005C
:1025000083FF0AC08091E800877F8093E800809174
:10251000EB0080628093EB00AA960FB6F894DEBFC2
:102520000FBECDBFDF91CF911F91089580588230AB
:1025300028F72091AB033091AC032C3DE3E03E073C
:10254000A1F583E08A838AE289834FB7F894DE019C
:10255000139620E03EE051E2E32FF0E05093570065
:10256000E49120FF03C0E295EF703F5FEF708E2F84
:1025700090E0EA30C0F0C7968D939D932F5F243191
:1025800059F74FBF8091E800877F8093E8006AE2A7
:1025900070E0CE0101960E9434058091E8008B77AF
:1025A0008093E800ABCFC096E7CF8091AD039091C8
:1025B000AE03432F55274330510509F44AC078F53F
:1025C0004130510509F47AC08BE590E0ECEEF6E07D
:1025D0004230510509F092CF2091E800277F2093E7
:1025E000E8002091AF033091B0038217930708F4FD
:1025F0009C0140E02115310509F065C0411163C01F
:102600008091E80082FDC9CF8091A703882329F239
:10261000853019F28091E80083FFF2CFBECF4132BE
:10262000510509F43CC04232510509F067CF8330AF
:10263000910508F063CFFC01EE0FFF1FEB54FE4F36
:102640000190F081E02D8E549E4FDC018C9190E042
:102650001AC0332721303105D1F02115310561F041
:102660002230310509F04ACFE9E5F7E0E4918E2FF9
:1026700090E0E9E5F7E007C0E9E7F7E0E4918E2FA5
:1026800090E0E9E7F7E0009709F438CFA5CFE5E659
:10269000F7E0E4918E2F90E0E5E6F7E0F4CF8330A9
:1026A000910508F02BCF880F991FFC01E554FE4FD0
:1026B0000190F081E02D89E090E08ECF82E190E002
:1026C000E7E4F7E089CF8091A703882309F465CF79
:1026D000853009F462CF8091E80083FD5ECF809160
:1026E000E80082FD8DCF8091E80080FF83CF90913C
:1026F000F3008091F2002115310519F08830910521
:1027000050F041E0089709F040E08091E8008E77B2
:102710008093E8006FCF44914093F10031962150AF
:1027200031090196E8CF803809F0E8CE8091E800C1
:10273000877F8093E8008091A8038093F10087CE83
:102740008111DCCE1091AB03123008F0D7CE80910E
:10275000E800877F8093E8001093A8030E9482041A
:10276000112311F084E005C08091E30087FDFACFCA
:1027700081E08093A70342E061EC81E00E94A10424
:1027800042E261EC84E00E94A10442E261EC82E05A
:102790000E94A10442E260EC83E00E94A104AECE5C
:1027A0008091AB03813009F0A9CE81E0933009F02C
:1027B00080E08093A6031092E9008091E800877F73
:1027C0008093E8000E94820499CE6091730366951D
:1027D00070E04BE050E084E091E00E94DB2D892B1B
:1027E00019F481E0809371030E94A705909354032C
:1027F0008093530308955F926F927F928F929F927E
:10280000AF92BF92CF92DF92EF92FF920F931F93FE
:10281000CF93DF93CDB7DEB7C455D1090FB6F89487
:10282000DEBF0FBECDBF8091730380FD0AC0EAEE0C
:10283000F1E0118210821282339622E0EE33F20729
:10284000C1F780904C0390904D038114910409F4DA
:1028500059C080915203811155C0D12CC12C6624DE
:102860006394712C13E0512E8091720393010C2C10
:1028700001C0220F0A94EAF7822309F43BC0F60153
:10288000EE0FFF1FE80DF91DE590F490E114F1043F
:10289000C9F145E050E0B701CE0101960E94D22D6A
:1028A00009810F3F39F18A81800F9927991F8D3156
:1028B000910514F08CE190E05C01AA0CBB1C8A0D20
:1028C0009B1DFC01E651FE4F5F01059D8001112417
:1028D00006511E4F0A151B0520F0F5E0EF0EF11C06
:1028E000D8CF98014D816C818B810E9437070D5F95
:1028F0001F4FF0CF2FEFC21AD20A38E0C316D1040F
:1029000009F0B2CF7FECA72E73E0B72EDE0111964F
:10291000AE014B5A5F4F1A2F7B2FF5018491282F60
:1029200030E0C901880F991F820F931F86519E4F77
:10293000FC01C080D180E280CD92DD92ED92FFEF6C
:10294000AF1ABF0AA417B50741F7279A35B13F77E9
:1029500025B120686FB7F894812F972FFC017191F2
:10296000CF01E8E025B9000000C077FF35B9770F47
:10297000000000C000C000C035B900C0EA9591F762
:102980008417950759F76FBF8FE594E00197F1F72A
:1029900000C00000CC5ADF4F0FB6F894DEBF0FBE68
:1029A000CDBFDF91CF911F910F91FF90EF90DF90FE
:1029B000CF90BF90AF909F908F907F906F905F90DF
:1029C00008954F925F926F927F928F929F92AF92F3
:1029D000BF92CF92DF92EF92FF920F931F93CF930C
:1029E000DF93FC016280448081E08483EBEEF3E0BE
:1029F0007490EAE6F4E0E491CEE3D2E03AEEE32E1E
:102A000031E0F32E4AECC42E42E0D42E52E0A52E43
:102A1000BB24B39488248A94912C55245A94E719A2
:102A20000E2F10E082E0861530F0809174038883C9
:102A3000809175038983411021C01B821A829701FE
:102A40004A81698188810E943707259683E0E80ED4
:102A5000F11CCC16DD0631F7DF91CF911F910F915C
:102A6000FF90EF90DF90CF90BF90AF909F908F90AE
:102A70007F906F905F904F900C94FB138B81882315
:102A8000E9F081508B83859DC00111246C8170E039
:102A90000E94322DFB01FF27E551FC4F8491E82F66
:102AA000E719E59DC0011124B8010E94322D8091E3
:102AB0007603689FB00111247A83C1CF0E94C22D92
:102AC00020917603269521582A9DA0012B9D500D1B
:102AD0001124452F5527841795070CF0B0CF82E0BD
:102AE000861588F40E94C22DB4010E94462D888369
:102AF0000E94C22D209175032695622F70E00E94DE
:102B0000462D280F29831A8280917603893C20F074
:102B100088EC8C838B8393CF8431D8F784E1F9CF11
:102B2000EF92FF921F93CF93DF93EC018AEEE82E92
:102B300081E0F82E10E08C8197014091760360913E
:102B40007503810F0E943707175F83E0E80EF11CC1
:102B50001C3F89F70E94FB139A818C8190FF08C06B
:102B60008F5F8C83DF91CF911F91FF90EF9008953D
:102B70008150F7CFBF92CF92DF92EF92FF920F93E7
:102B80001F93CF93DF93FC018281DD24DA9480FDD3
:102B900002C0DD24D3940AEE11E0D0E0C0E02CE1C5
:102BA000B22EF80111821082128294E0E92EF12CEB
:102BB000C12C8091E7018C0D8D310CF43DC06B2D43
:102BC0000E94242D892F082E000C990B8C179D072D
:102BD00091F4809176038E9DA0018F9D500D11245C
:102BE0005595479555954795980160917503809146
:102BF00074030E943707CD0CF1E0EF1AF108C9F613
:102C000021960D5F1F4FCC31D10559F60E94FB1361
:102C10008091E70191E0D91215C0811111C08BE1BB
:102C20008093E701DF91CF911F910F91FF90EF907B
:102C3000DF90CF90BF90089587FFC5CF845EC3CF4C
:102C40008150EECF90E00196BE010E94462DE8CF64
:102C50000F931F93CF93DF93CAEED1E0FE01118251
:102C600010821282339682E0EE33F807C1F710E04B
:102C700000E08091E801082E000C990B0817190755
:102C80008CF180911001082E000C990B8017910790
:102C90004CF19E014091760360917503809174031D
:102CA0000E9437070F5F1F4F23960C31110509F75C
:102CB0000E94FB1380910F019091E801980F90936F
:102CC000E80120911001280F20931001121614F42E
:102CD0009B311CF0819580930F01DF91CF911F9163
:102CE0000F910895198218821A82DCCF8F929F92D9
:102CF000AF92BF92CF92DF92EF92FF920F931F930A
:102D0000CF93DF93EC014C81042F10E09801D801A0
:102D10000E94842E9B01AC010E944F2E4B015C014E
:102D2000E0E2F0E0E01BF10BA5E5B0E0AC019B01B7
:102D30000E944F2E6B017C019F01DF010E94672DD5
:102D40009B01AC010E945A2E9B01AC01280D391D3C
:102D50004A1D5B1DC701B6010E94622EF22E822F12
:102D600090E039E23F15D8F143E0249F900111240F
:102D700035952795122F10959AEEC92E91E0D92EF0
:102D800000E085E5E82EEF188E2D01FD8F2D9601D0
:102D9000412F609175030E9437070F5F53E0C50E06
:102DA000D11C0C3189F70E94FB139C8181E099238F
:102DB00019F0903219F48FEF809311018091110175
:102DC000890F8C83DF91CF911F910F91FF90EF902E
:102DD000DF90CF90BF90AF909F908F90089525E5A2
:102DE00030E0A901481B590BCA019A01220F331F79
:102DF000280F391F37FFBCCF2F5F3F4FB9CFEF925E
:102E0000FF920F931F93CF93DF938C01CAEED1E013
:102E1000F12CE12CF8019481609175038091740389
:102E2000FEE0EF16F104FCF49923F9F09E014091C5
:102E300076030E9437072FEFE21AF20A23968CE1FD
:102E4000E816F10439F70E94FB13F801848190E041
:102E50000196817099278483DF91CF911F910F9103
:102E6000FF90EF900895992309F39E0140E0E1CF90
:102E70009091730390FF0CC0EAEEF1E081836083D0
:102E80004283339692E0EE33F907C1F70C94FB13BB
:102E900008950F931F93CF93DF9300D00F92CDB778
:102EA000DEB78C018091E90181110AC09E012F5F7C
:102EB0003F4F44EB6FEF0E9437078A818093E9010F
:102EC000F8016481613069F08091E90140E0662396
:102ED00061F040E0623011F44091E90180E060E08F
:102EE00004C06091E90140E080E00E943817F801D9
:102EF000848190E0019663E070E00E94462D848317
:102F00000F900F900F90DF91CF911F910F91089527
:102F1000CF93DF9300D00F92CDB7DEB790917303BC
:102F200090FF0AC09E012F5F3F4F0E9437074B81E1
:102F300069818A810E9438170F900F900F90DF915E
:102F4000CF910895CF93DF93EC01EC81F0E0E55150
:102F5000FC4F4491E3E7F3E0628181810E9488178E
:102F60008C818F5F8C83DF91CF910895CF93DF9316
:102F7000EC01E3E7F3E0438162818C810E948817D2
:102F80008C818F5F8C83DF91CF9108955F926F92D8
:102F90007F928F929F92AF92BF92CF92DF92EF92E9
:102FA000FF920F931F93CF93DF9300D00F92CDB773
:102FB000DEB7182F762E042F622E9091730390FFA8
:102FC00029C0E92FE695AE2FB0E0A45CBE4F8C91EE
:102FD000809370039E7F923081F59E012F5F3F4F5B
:102FE000812F0E9437074B8169818A810E9438179F
:102FF000109374037092750300937603662051F06A
:1030000060917303709174038091750390917603BE
:103010000E94C5100F900F900F90DF91CF911F91DC
:103020000F91FF90EF90DF90CF90BF90AF909F9067
:103030008F907F906F905F900895823019F4009187
:103040007603D6CF863019F410917403D1CF89302E
:10305000D9F3893169F6E9518E2F8170582EE695A2
:10306000F0E0E653FC4FA590B490BB248AEEE82E26
:1030700081E0F82ED12CC12C9CE1892E912CC60127
:10308000B4010E94322D812F511013C0860F970179
:10309000402F672D0E943707CA0CDB1C83E0E80E27
:1030A000F11C8EE3E81682E0F80649F70E94FB1354
:1030B0009FCF861BECCF9091730390FF36C0917029
:1030C000811129C0926090937303662351F060913F
:1030D00073037091740380917503909176030E943D
:1030E000C51060917303669570E04BE050E084E09A
:1030F00091E00E94DB2D892BA9F01092710381E0F1
:103100008093560320E0409176036091750380918F
:1031100074030C94C6178B3210F09465D4CF880FCB
:10312000982BD1CF0E94E513EACF089521E030E03B
:10313000A90102C0440F551F8A95E2F7CA012091E8
:103140007203662399F0822B80937203809171033E
:10315000811106C08091730360E086950E945B1820
:103160008091730380FD05C00C94FB13809582232E
:10317000EBCF0895809173038695815009F48AE21C
:1031800061E00C945B188091730386958F5F8B329E
:1031900008F081E061E00C945B189091730390FF5C
:1031A00007C09695981720F0961710F40C94C31842
:1031B00061E00C945B18E3E7F3E0438128E0421BF5
:1031C00008F440E021E0628181810C94C617E3E7B6
:1031D000F3E0438128E0420F08F44FEF21E06281E1
:1031E00081810C94C617E3E7F3E0628128E0621B5B
:1031F00008F460E021E0438181810C94C617E3E785
:10320000F3E0628128E0620F08F46FEF21E0438170
:1032100081810C94C617E3E7F3E0818121E04381CB
:10322000628188500C94C617E3E7F3E0818121E0C6
:1032300043816281885F0C94C617CF92DF92EF9230
:10324000FF920F931F936B017C0161E0C114D104C5
:10325000E104F10409F06C2D617080E00E94961881
:1032600060E0C114D104E104F10441F0D701C601CA
:10327000B695A79597958795682F617081E00E9414
:10328000961860E0C114D104E104F10459F0D701AB
:10329000C60122E0B695A795979587952A95D1F70F
:1032A000682F617082E00E94961860E0C114D1041A
:1032B000E104F10459F0D701C60103E0B695A795E2
:1032C000979587950A95D1F7682F617083E00E94E2
:1032D000961860E0C114D104E104F10459F0D7015B
:1032E000C60114E0B695A795979587951A95D1F7DD
:1032F000682F617084E00E949618A70166277727DF
:1033000080E1411551056105710519F4B701A60168
:1033100080E0052F162F272F3327011511052105D2
:10332000310519F0885FB901A8018A019B01F4E019
:103330003695279517950795FA95D1F7011511053B
:103340002105310519F08C5FB901A8018A019B01A3
:10335000E2E03695279517950795EA95D1F701157F
:1033600011052105310519F08E5FB901A801769587
:10337000679557954795452B462B472B09F08F5F4F
:10338000823019F168F48823A1F08130C9F0C701B7
:10339000B6011F910F91FF90EF90DF90CF900895AD
:1033A0008330C1F0843099F720E044E66FEF8FE07E
:1033B00004C020E044E66FEF82E30E94C617E7CF27
:1033C00020E044E66FEF85E0F8CF20E044E66FEFC1
:1033D00080E8F3CF20E044E66FEF87EDEECF0E9468
:1033E0001D196093B1037093B2038093B30390935C
:1033F000B4030C94F7070F931F936091B10370917E
:10340000B2038091B3039091B4038B019C010670C9
:10341000112722273327063011052105310529F40C
:1034200068601F910F910C94EF19677FFACF0F938B
:103430001F9341E050E060E070E004C0440F551F6E
:10344000661F771F8A95D2F7CB01BA0160957095F8
:10345000809590950091B1031091B2032091B30330
:103460003091B40360237123822393231F910F9122
:103470000C94EF199091360380958923809336033D
:10348000282F277071F4282F082E000C330B921769
:10349000130639F08595859585950E94171A109227
:1034A000360308950F931F9341E050E060E070E011
:1034B00004C0440F551F661F771F8A95D2F780916D
:1034C000B1039091B203A091B303B091B4038A0108
:1034D0009B01082B192B2A2B3B2BC901B8011F91EB
:1034E0000F910C94EF193F924F925F926F927F92DF
:1034F0008F929F92AF92BF92CF92DF92EF92FF9204
:103500000F931F93CF93DF9300D000D00F92CDB7CE
:10351000DEB77C01FC0183819481892B31F08081AD
:10352000918189238F3F09F0D8C70F900F900F909A
:103530000F900F90DF91CF911F910F91FF90EF901F
:10354000DF90CF90BF90AF909F908F907F906F90C3
:103550005F904F903F9008950E94120C182F682F93
:1035600089819A810E94840669817A81812F0E94D3
:103570007B0A8C01F7018281882309F4A2C7980194
:1035800022513F452031310508F0A9C68FEF93E065
:103590000E94E82D0251A6E0CA2EA2E0DA2E88236E
:1035A00081F180913603877009F4BFCFF7018281E2
:1035B000882309F4BACF82E00F900F900F900F90FC
:1035C0000F90DF91CF911F910F91FF90EF90DF90BF
:1035D000CF90BF90AF909F908F907F906F905F90B3
:1035E0004F903F900C943A1AC114F4E0DF06C9F2F0
:1035F000C6010E94E82D811101C001502FEFC21AAF
:10360000D20A0111F1CF1C821B82BB24B394FAE0D1
:10361000AF2E86010F5F1F4FC6010E94E82D8983E0
:103620001A82882309F4BDCF9FEF980F933008F5D5
:103630008A83B98232E0C30ED11CC8010E94E82DF2
:103640008B83882309F4ADCF8E010F5F1F4FF801E4
:1036500080818823F1F2813009F043C09181828119
:10366000913049F40E5F1F4F0E94580E0F5F1F4F9D
:10367000EECF6801E9CF923029F40E5F1F4F0E9410
:10368000A30DF4CF933029F40E5F1F4F0E949708CB
:10369000EDCF943019F00F5F1F4FE8CF0E5F1F4F33
:1036A00030E020E0B8016F5F7F4FF8014181805327
:1036B000990B8A30910550F021503109B8F28FE909
:1036C0009FE00197F1F700C00000F6CFA29EF00145
:1036D000A39EF00D11249C012E0F3F1F842F8B0100
:1036E000E1CF0E94D90EC2CF81E00E94521A0E94FF
:1036F000FB1957CF81E00E94171AF9CF82E0F5CF6E
:1037000003384FE5140709F45CC004385FE515077A
:1037100009F000C6882309F444CF8091D00291E0DB
:1037200089278093D0020E94A7059093CF028093AF
:10373000CE0237CF882369F18091D302811106C070
:1037400081E08093D30282EE0E94A30D0E94A70520
:103750009093D2028093D1028BE20E94A30DDAC52E
:103760008823A1F08091D302811106C081E080936B
:10377000D30282EE0E94A30D0E94A7059093D2026D
:103780008093D10281EE0E94A30DE6CF81EE0E94CC
:1037900097088BE20E949708BDC5882309F4BAC533
:1037A00081EE0E94A30D83EE0E94A30D8FE40E9480
:1037B000A30D8FE40E94970883EE0E94970881EE84
:1037C000E9CF882309F4A6C581EE0E94A30D83EEFC
:1037D0000E94A30D80E50E94A30D80E5EBCF82EE51
:1037E0000E94A30DDBC588E193E00E943F0F88E1B2
:1037F00093E00E94320AD2C582EE0E94A30D87E5B3
:103800000E94580ECBC586EE0E94580E88E1F8CF74
:10381000895ADEC582EE0E949708F2C58CE20E94AA
:10382000580E8091D502882309F4EAC589E30E94E5
:10383000580EE6C588E2FBCF083FFCE51F0781F480
:10384000F70182818823C9F01092E70210921201D9
:103850001092E9021092E80281E00E94540FE3C541
:1038600080911201093FFCE51F0739F4F7019281AD
:10387000992319F08111E8CFD3C5D0901201DD2032
:1038800021F11092EB021092EA02C12C65E0562E53
:1038900088248394912C442443946090EA0270908D
:1038A000EB0286E06816710468F18091EC028823CF
:1038B00009F4ACC00E94A7059093E9028093E80246
:1038C00080E00E94540FC1106CCE033FFCE51F073F
:1038D00009F4D1C008F012C6083D3CE5130709F40D
:1038E000C6C0093D4CE5140709F4D1C0073D5CE5AD
:1038F000150709F098C526E241EE61EEC7010E9466
:10390000750E4FCE569CF001579CF00D1124ED5EC4
:10391000FE4F808191813FEF20E0E22FF0E0EE0F3B
:10392000FF1FE80FF91F459154910417150709F47B
:10393000322F452B11F02F5FF0CF3F3FE9F4312CB0
:10394000C328DD2059F0569CF001579CF00D11243E
:10395000ED5EFE4FDD24D39484818111D12C5D2D49
:103960005170D52E8091EA029091EB0201969093CE
:10397000EB028093EA0291CF3090E702F701928147
:10398000569CF001579CF00D1124ED5EFE4F848192
:10399000540101C0AA0C3A95EAF79923B9F0A82A74
:1039A000A482332061F2C40102C0880F991F2A95B6
:1039B000E2F70197A816190619F6828193810097FC
:1039C00011F00E943F0F4092EC02BACFA40102C056
:1039D000440F551F2A95E2F79A01215031098217A9
:1039E000130691F482819381009711F00E94320AAC
:1039F000569CF001579CF00D1124ED5EFE4FA094F3
:103A00008481A822A4829CCF312CF2CFC1100EC099
:103A100081E00E94540FDD2009F457CF1092E90293
:103A20001092E80281E08093E7024FCFF701828194
:103A3000882309F4B6CD8091E702882309F4B1CD3B
:103A40000E94A7059093E9028093E802E091E602C4
:103A5000E83008F0A6CD81E08E0F8093E602F0E01A
:103A6000EE0FFF1FEA52FD4F118300839ACD27E22C
:103A700045EE65EE43CF26E241EE60EE3FCF27E212
:103A800045EE64EE3BCF26E241EE62EE37CF28E210
:103A900041E0EFCF80914903806106303CE5130798
:103AA00009F489C080914903886007301C4508F4F7
:103AB00082C08091490380627EC0809149038D7FDE
:103AC0000C305CE5150709F476C070F48091490369
:103AD0008C600A309CE5190709F46DC008F47AC0BF
:103AE000809149038E7F67C080914903877F0E30A4
:103AF000FCE51F0709F45FC0809149038B7F0F30FD
:103B00001C4508F458C0809149038F7E54C00B3F78
:103B10003CE5130709F456C030F503315CE51507A1
:103B200009F46AC078F401319CE5190709F460C012
:103B300002311C4509F0B5C40E9409118091490366
:103B40008F7739C00531FCE51F0709F45DC008F423
:103B500071C080914A0381600A3F1C4509F0A1C4ED
:103B600080934A039EC40F3F4CE5140709F448C0F4
:103B700070F40D3F8CE5180799F180914A038E7F10
:103B80000E3F1C4568F380914A038360E9CF013002
:103B9000EDE51E0709F457C008F442C060E00230AA
:103BA0001D4509F07EC48EE090E00E94FC2D79C492
:103BB0008091490381608093490373C480914903D4
:103BC0008460F9CF80914A038260CACF8091490313
:103BD0008064F1CF0E940911809149038068EBCF86
:103BE00080914A038D7FBCCF809149038F7DE3CFC5
:103BF000809149038F7BDFCF80914903837FDBCFA7
:103C000080914A038C7FACCF8091490382FB992736
:103C100090F921E0922790FB82F990FB83F9CBCFBA
:103C200080914A03982F909591708E7F892B90FBFD
:103C300081F996CF0E94091190914903892F97FB32
:103C400087F98058B8CF61E0AECF85E383C485E3C0
:103C50006EC4992309F48FC0809139038272F801F0
:103C6000E25CFC45E431F10508F07CC0E355F14D20
:103C70000C945A2D8091730380FF1BC08E7F80931C
:103C80007303609173037091740380917503909135
:103C900076030E94C510109271033FEF40E752E097
:103CA000315040405040E1F700C000000E94FB133B
:103CB00078CC81608093730361E086950E945B18E5
:103CC00070CC4AEB58E163EC78E10E941C0769CCA8
:103CD00043EC58E16AEB78E1F8CF4BE059E164E15D
:103CE00079E1F3CF44E159E16BE079E1EECF43EFC5
:103CF00058E16FEF78E1E9CF4FEF58E163EF78E1FA
:103D0000E4CF4BED58E167EE78E1DFCF47EE58E1C5
:103D10006BED78E1DACF47ED50E168EE70E1D5CF99
:103D200048EE50E167ED70E1D0CF61E081E0C6CFB1
:103D300065E082E00E94CD1834CC68E086E0FACFDE
:103D40006EE089E0F7CF64E18FE0F4CF67E185E1D1
:103D5000F1CF61E088E1B2CF62E289E1EBCF61E0CF
:103D600083E2ACCF01158CE5180709F445C00E3D80
:103D70001C4509F44EC0F70100811181992309F413
:103D80004BC0C8010E94120CD82E682FC8010E9497
:103D90008406B8018D2D0E94880A8C01882EF701B7
:103DA000D280A580A2943FE0A32280913603877041
:103DB000A1F0CD2CDD2091F0812F807F803421F087
:103DC00080E2800F883048F082E00E943A1A8091A9
:103DD00036038770CC24C3948111C12CB12EB294C8
:103DE0002FE0B222FBE0FB1508F450C0EB2DF0E011
:103DF000EF53F14D0C945A2D0E940911FFEF24E36B
:103E00003CE0F15020403040E1F700C000000E944B
:103E10007F0D0E945B10C5CBC8010E945D06D82EA5
:103E2000B8CF212F2F70A22E107F19F0A29490EFFF
:103E3000A922DD20C9F0AA2069F080E2800F883035
:103E400010F081100BC080913903A82AA092390389
:103E50000E94B905802F0E94A30D18C080913803DD
:103E6000A82AA0923803F4CF802F0E949708AA2096
:103E700069F0A094005E083010F081103FC080917E
:103E80003903A822A09239030E94B9052B2D28508E
:103E9000330B2430310520F40E9410070E94EA09F8
:103EA000CC2009F442CB8091360380FD3ECBF70154
:103EB00012828595859585950E94521AC7010E94A8
:103EC000731A809136038595859585950F900F908F
:103ED0000F900F900F90DF91CF911F910F91FF9056
:103EE000EF90DF90CF90BF90AF909F908F907F909A
:103EF0006F905F904F903F900C94171A8091380309
:103F0000A822A0923803C0CF312F3F70932E107F8C
:103F1000103219F0929480EF9822882071F041E0DD
:103F2000841661F1DD20B9F1AA2071F1F7018581D4
:103F300080FF90CF8F70858327C0DD2091F0909116
:103F40003A03892D892BA11003C00E94DA069ECF67
:103F500051E0A512FACF981709F498CF80933A034D
:103F600095CFA11006C00E94B305892D0E94CF06EF
:103F70008DCF81E0A81609F489CFF5CFDD2031F08F
:103F800095E09A1508F482CF892DDFCFE4E0EA1599
:103F900008F47CCFEACFAA2041F3F9E38F1209C0DD
:103FA0002FEF37EE43E0215030404040E1F700C0B2
:103FB0000000802F0E94970869CF812F86958695F3
:103FC000837061F0813009F061CFC8019370D11026
:103FD00002C090E080E00E94E40658CFC8019370D0
:103FE000D11002C090E080E00E94FA064FCF802FEF
:103FF000DD2029F00E9436090E94D00747CF0E9499
:104000001E08FACF812F837009F066C0D1103ECF11
:10401000802F829586958770880F880F602F6F702C
:10402000462E512C712C612C082E04C0440C551CBA
:10403000661C771C0A94D2F740E050E0BA0104FFF6
:104040000FC04FE050E060E070E004C0440F551F27
:10405000661F771F8A95D2F74095509560957095A9
:10406000812F869586958370823019F1D8F400915E
:104070003B0310913C0320913D0330913E0381307E
:1040800069F04429552966297729CB01BA016023B3
:104090007123822393230E941408F8CE402A512AC8
:1040A000622A732ACB01BA016429752986299729C6
:1040B000F2CF442955296629772900913B031091B5
:1040C0003C0320913D0330913E03CB01BA016027B0
:1040D000712782279327DFCF8695DD2011F0812F6E
:1040E0008170882309F4D2CE802F829586958770BF
:1040F000880F880F602F6F70462E512C712C612C09
:10410000082E04C0440C551C661C771C0A94D2F778
:1041100040E050E0BA0104FF0FC04FE050E060E023
:1041200070E004C0440F551F661F771F8A95D2F7B1
:104130004095509560957095812F869586958370F2
:10414000823019F1D8F40091B1031091B20320919B
:10415000B3033091B403813069F0442955296629AD
:104160007729CB01BA0160237123822393230E9414
:10417000EF198CCE402A512A622A732ACB01BA0148
:104180006429752986299729F2CF4429552966295A
:1041900077290091B1031091B2032091B3033091BC
:1041A000B403CB01BA016027712782279327DFCFA1
:1041B0001F70DD2029F0812F0E94521A802FC5CE5A
:1041C000802F0E94CF06812F0E94171A5FCE802F6A
:1041D00052EF851609F450C0581578F090EF891603
:1041E00019F1E1EF8E1609F43FC0DD2009F467C034
:1041F000A11030CE812F8F713CC0F3EF8F1609F4E0
:1042000040C024EF8212F1CFDD2009F44DC01F71B0
:10421000812F0E94521A58E0159FC001112483601B
:1042200080933603812F25C0DD20C9F034E03A1594
:1042300008F42CCE1F7161E070E080E090E004C0D3
:10424000660F771F881F991F1A95D2F70091B10347
:104250001091B2032091B3033091B403A4CF45E091
:104260004A1508F413CEE6CF812F8F71DD2009F4B3
:10427000ABCF0E94521A0ACE812F8F71DD20C9F375
:10428000A3CF60E070E0CB01DD2009F470CF1F7197
:1042900061E070E080E090E004C0660F771F881F47
:1042A000991F1A95D2F763CF81E00E943A1A81E0F4
:1042B0008A1508F0EBCD82E00E943A1AE7CDAA20D9
:1042C00059F0893309F075CE9FEFE7EEF3E0915096
:1042D000E040F040E1F76BCE812F8F7175CF003158
:1042E000FFE51F0709F400CA01312FE5120709F4A1
:1042F00005CA0238EFE51E0709F44FCA08F000CAE4
:1043000000382FE5120709F415CA01383FE51307F5
:1043100009F426CAF7018281882369F0C801815E09
:104320009C45059740F46FE1600F60933F038CE07C
:1043300090E00E94FC2D17FF67C0F701828188235F
:1043400009F462C0E0914E03F0914F0380E0309792
:1043500021F00190F081E02D099586958170809380
:10436000D50290913F03913029F4882319F089E315
:104370000E94580E809139038093D4021092390321
:1043800080913F03813009F42ECA882309F427CA9B
:10439000823009F431CA843009F435CA8FE39CE9CC
:1043A0000197F1F700C000005801E894B7F8ECE07D
:1043B000CE2ED12CC5010C2C02C0969587950A945F
:1043C000E2F78F7096EF980F963008F421CA805D5F
:1043D0000E94D90E94E0C91AD108ECEFCE16EFEF87
:1043E000DE0641F780913F03813009F417CA882324
:1043F00009F410CA823009F40DCA843009F41ACACB
:104400008091D402809339031092EC02073FFCE5BF
:104410001F0709F011CAF7018281882309F42DCA08
:1044200081E080931201F7019281992309F476C00B
:104430001092B7030230FCE51F0708F47BC0063179
:104440002CE5120738F098012A5F3C4529303105E8
:1044500008F070C00E94470A90934A038093490372
:1044600000313CE5130709F4BFCB08F050CB08300E
:104470005CE5150709F4AACB08F01FCB04309CE5D6
:10448000190709F49BCB08F005CB0230FCE51F07A8
:1044900009F48ECB80914903826003301C4509F4F6
:1044A0008ACB6091490310914A0384E090E00E9416
:1044B000FC2D612F81E290E00E94FC2D0E940911E9
:1044C00070C800313FE5130709F414C901314FE505
:1044D000140709F00ECF82E00EC985E0DE011196C7
:1044E00001900D928A95E1F7F701228189819A81E5
:1044F000211132C80E945D06182F36C8053F8CE591
:10450000180709F4C0CA08F4BACA27E245EE66EEF5
:10451000063FECE51E0709F4F1C985CF06311C45BD
:1045200009F029CC8091ED02811191CB89E20E94A2
:10453000FE0512C006312CE5120709F08ACB8091E6
:1045400039038A7A91E009F490E09093ED028111A9
:104550007CCB89E20E9429060E94B90522C81F93DC
:10456000CF93DF938091F402807FA9F48091F102D0
:10457000882389F080912603D091F5026091EF02A3
:104580007091F002A091F202B091F302C62FC723FE
:1045900016E0D81304C0DF91CF911F91089590E0E9
:1045A000109711F0CF3F19F401968770F2CF189F42
:1045B0009001199F300D1124F901EA50FD4F4181FE
:1045C0004713F2CF40814613EFCF42814111ECCF28
:1045D000438154814A1B5B0B483C510528F780916D
:1045E000F4028F7080618093F402F901E550FD4F71
:1045F00080818F70806180838FEE92E00E94731AB9
:10460000DF91CF911F910C94B006AF92BF92CF92E1
:10461000DF92EF92FF920F931F93CF93DF93CDB76B
:10462000DEB761970FB6F894DEBF0FBECDBF8C0129
:1046300085E0F801DE011D9601900D928A95E1F763
:10464000F80180819181E2802FEEA22E22E0B22E2D
:104650006091F2027091F3026115710509F43EC197
:104660003091EF024091F002232F24232F3F09F4D1
:1046700035C1C380D480F090F102F601E61BF70B40
:10468000FF2009F4FBC02091F402522F507FE83C38
:10469000F10508F0BBC0511178C0FE2C491321C0B0
:1046A00038131FC0E1101DC02F7020612093F40249
:1046B000C5010E94731A8091F402F80185838F2D41
:1046C00061960FB6F894DEBF0FBECDBFDF91CF91DC
:1046D0001F910F91FF90EF90DF90CF90BF90AF9020
:1046E0000895CD2829F0282F29232F3F09F014C140
:1046F00020E0F22FF170DF2E20FF3DC02091260335
:104700004091F50256E0241315C08D879E878D8554
:104710009E850E94540C292F22952F702230F8F08C
:10472000243020F59F70F9F0F8019581907FD9F43D
:10473000D12C1FC030E0529FF001539FF00D112487
:10474000EA50FD4F6181961306C06081861303C055
:104750006281E61210C02F5F3F4F2770D4CF9F7049
:1047600011F0882329F3805E883010F3C8010E947D
:10477000731AFD2CA4CFEE2009F4A1CF8091F4028E
:1047800081608093F402F12C9ACF491312C0381340
:1047900010C0E1100EC0F8012583C8010E94731AF1
:1047A00086E0F801AFEEB2E001900D928A95E1F754
:1047B00086CF8D879E878D859E850E945E0C88237F
:1047C00009F1EE20F9F08091F402803270F020912E
:1047D000EF023091F00238872F831986DB86CA8674
:1047E0008C87CE0107960E94731A86E0F801AFEE1F
:1047F000B2E001900D928A95E1F70E94AF22FF246A
:10480000F3945DCFC8010E94731AF9CF51110AC009
:104810008FEE92E00E94731A86E0F50111928A955C
:10482000E9F7B1CF49130FC038130DC0E1100BC029
:10483000F8012583C8010E94731A86E0F5011192E0
:104840008A95E9F73CCF8D879E878D859E850E944E
:104850005E0C8823B9F2EE20A9F28091F402803236
:1048600020F22091EF023091F0023A8329831B82DB
:10487000DD82CC828E83CE010196B5CFE83CF10576
:10488000E0F6FE2CEE2009F4BDCF491316C0381314
:1048900014C08091F40280FD83CF982F907F09F49B
:1048A0007FCFF8018583903F09F477CF982F907FD1
:1048B000905F8F70892B858370CF8D879E878D85C4
:1048C0009E850E945E0C811190CF8091F4028160E0
:1048D0008093F402C8010E94731AF1CEEE2009F40D
:1048E00091CF8D879E878D859E850E945E0CF82EC8
:1048F000882309F487CF86E0F801AFEEB2E001909B
:104900000D928A95E1F78091EF029091F0020E945A
:10491000540C0E94AF22D3CE21E02E25EACE1F9365
:10492000CF93DF93CDB7DEB767970FB6F894DEBFAE
:104930000FBECDBF342F4B8B252F5C8B6D8B7E8BA9
:104940008F8B8E899F896111109238031A8A198A78
:104950003D872E876F87998B888B86E0FE013D9679
:10496000DE01179601900D928A95E1F7CE01079628
:104970000E940523882389F016E0809126039091F8
:10498000F502891349C067960FB6F894DEBF0FBED3
:10499000CDBFDF91CF911F91089586E0FE0137963C
:1049A000DE01119601900D928A95E1F78A859B852B
:1049B000892B11F38F81988589238F3FE9F220910C
:1049C000F50230E0C90101968770992740912603CE
:1049D0004817190671F40E9409111092F5021092FD
:1049E000260386E0EFEEF2E0DF011D928A95E9F7FB
:1049F000C3CF96E0929FD001939FB00D1124AA508F
:104A0000BD4FFE01319601900D929A95E1F780938A
:104A1000F5020E94B006B0CF819FC00111248A50D8
:104A20009D4F0E940523882309F4ADCF8091260372
:104A300090E0019687709927809326039ECF1F935D
:104A4000CF93DF93CDB7DEB764970FB6F894DEBF90
:104A50000FBECDBF882351F119821A8281E08B836A
:104A60000E94A7058160782F9D838C8349815A819C
:104A70006B818D810E948F241E821F8218860E9466
:104A8000A7058160782F9A8789874E815F81688525
:104A90008A850E948F2481E064960FB6F894DEBF69
:104AA0000FBECDBFDF91CF911F91089512E01B87FC
:104AB0001C8681E08D870E94A7058160782F9F87E3
:104AC0008E874B855C856D858F850E948F24188B22
:104AD000198A1A8A0E94A7058160782F9C8B8B8B7C
:104AE000488959896A898C89D4CF1F920F920FB651
:104AF0000F9211242F933F934F935F936F937F9364
:104B00008F939F93AF93BF93CF93DF93EF93FF93D5
:104B1000D091E900DF708091EC00C82FC17080FD5A
:104B2000C0E81092E9008091F000877F8093F00048
:104B300078940E941E111092E9008091F000886024
:104B40008093F000CD2BCF70C093E900FF91EF91DF
:104B5000DF91CF91BF91AF919F918F917F916F9195
:104B60005F914F913F912F910F900FBE0F901F902B
:104B700018951F920F920FB60F9211242F933F9307
:104B80004F935F936F937F938F939F93AF93BF9355
:104B9000EF93FF938091E10082FF09C08091E200D2
:104BA00082FF05C08091E1008B7F8093E1008091BE
:104BB000DA0080FF24C08091D80080FF20C080915F
:104BC000DA008E7F8093DA008091D90080FF9BC04D
:104BD00080E189BD82E189BD09B400FEFDCF81E09D
:104BE0008093A70380918203811109C00E94080469
:104BF0000E94D3048091E20084608093E20080915F
:104C0000E10080FF17C08091E20080FF13C0809117
:104C1000E2008E7F8093E2008091E20080618093C9
:104C2000E2008091D80080628093D80019BC85E0B2
:104C30008093A7038091E10084FF29C08091E20066
:104C400084FF25C080E189BD82E189BD89B5982FA7
:104C5000917080FFFBCF8091D8008F7D8093D8002A
:104C60008091E1008F7E8093E1008091E2008F7E51
:104C70008093E2008091E20081608093E200809165
:104C8000A803882309F445C084E08093A70380919A
:104C9000E10083FF27C08091E20083FF23C0809161
:104CA000E100877F8093E10082E08093A703109268
:104CB000A8038091E1008E7F8093E1008091E20063
:104CC0008E7F8093E2008091E20080618093E20019
:104CD00042E060E080E00E94A1048091F0008860E2
:104CE0008093F000FF91EF91BF91AF919F918F91D1
:104CF0007F916F915F914F913F912F910F900FBED8
:104D00000F901F90189519BC1092A7031092820360
:104D100076CF8091E30087FD93E09093A703B7CF10
:104D2000CDB7DEB7AA970FB6F894DEBF0FBECDBFE2
:104D300084B7877F84BF0FB6F894A89580916000F0
:104D4000886180936000109260000FBE80E890E060
:104D50000FB6F89480936100909361000FBE85B701
:104D6000806885BF85B7806885BF83E995E09093AB
:104D7000C3018093C2010E9408040E94D304809161
:104D8000E20084608093E20078948091A7038823F6
:104D9000A1F01091E9001F709091EC00892F8170B3
:104DA00090FD80E8182B1092E9008091E80083FDC7
:104DB0000E941E111F701093E90082E084BD93E0F1
:104DC00095BD9AEF97BD80936E0080EF0E94900989
:104DD00084E30E94900985E30E94900986E30E9483
:104DE000900986E60E94900987E60E94900986EF66
:104DF0000E94900987EF0E94900983E90E94900920
:104E000086E90E949009E3E4F3E089E493E0A8E7EF
:104E1000B3E011921D928E179F07D9F70E94730F6E
:104E20008FE39CE90197F1F700C000000E94730F27
:104E30008091780380FF17C06FEF82E290E00E94BC
:104E4000FC2D6FEF83E290E00E94FC2D6FEF84E277
:104E500090E00E94FC2D6FEF7FEF90E080E00E94D9
:104E60001A2E0E947F0D90E080E00E94F62D8B3E6E
:104E70009E4F11F00E945B10509A589A559A5D9A75
:104E8000549A5C9A8CE090E00E94E82D90E0B0E0AB
:104E9000A0E080933F0390934003A0934103B0931D
:104EA000420382E290E00E94E82D813209F049C578
:104EB00083E290E00E94E82D883009F042C584E248
:104EC00090E00E94E82D873109F03BC590E080E03A
:104ED0000E94F62D8B3E9E4F11F00E945B1082E0E7
:104EE00090E00E94E82D809369030E94470A909306
:104EF0004A038093490383E090E00E94E82D682FE5
:104F000070E090E080E00E9414086091B10370911D
:104F1000B2038091B3039091B4030E941D19809154
:104F20004B03811136C090E080E00E94F62D8B3E4D
:104F30009E4F21F00E945B100E94F91088E090E0E3
:104F40000E94F02D60937303709374038093750334
:104F5000909376036E7F71F40E94F91088E090E0E0
:104F60000E94F02D60937303709374038093750314
:104F7000909376030E94210710927103809173032E
:104F800080FF04C060E086950E945B1881E08093FA
:104F90004B035198599A52985A9A89B186958170C3
:104FA0004A99F1C190E0892B80935B038BEC96E0EA
:104FB00090934D0380934C0360E081E20E945B1864
:104FC00061E070E080E090E00E94EF1981E391E001
:104FD00090934F0380934E0398E1C92ED12C20E487
:104FE000A22E88E793E036E0B32EB80E8091A70397
:104FF0009924939400E112E1853009F418C20E94CB
:10500000730F882359F08FB7F89440917E03509125
:105010007F0360918003709181038FBFEAE6F3E024
:10502000A8E7B3E010E000E0302F8D919191981740
:1050300009F426C2292F282790E099249394422F1F
:10504000492109F418C299A33AA3892191E009F4EE
:1050500090E09BA30E94A7058160782F9DA38CA35D
:1050600049A15AA16BA18DA10E948F24F801E65994
:10507000FC4F808198269082809171038823D1F122
:1050800080917003E0917303E695E81BE09355036C
:10509000823009F00CC2F0E0E851F94FE4910E2F94
:1050A00010E082EA882E87E1982E809156038823AB
:1050B00061F0109256030E94A705909354038093C9
:1050C000530310925803109257030E94A705E091D2
:1050D0005303F09154038E1B9F0B8F3F9F4750F457
:1050E000E00FF11FF0935403E093530383E593E043
:1050F000F4010995E0915B03EE0FEE0FE0935B0383
:1051000089B181FBEE24E0F84A993DC280E08E2906
:10511000E82BE0935B03EF70F0E0EE55FE4F8081EB
:1051200090915A03890F80935A0320E084304CF009
:10513000809159038F5F8093590380E00E941F255F
:1051400021E080915A038D3F4CF4809159038150A6
:105150008093590381E00E941F2521E080915A032A
:10516000082E000C990B64E070E00E94462D80939D
:105170005A03222359F08FB7F89440917E0350913F
:105180007F0360918003709181038FBF86E0E2E628
:10519000F3E0DE01119601900D928A95E1F790906F
:1051A0006403809065031091660300916703109279
:1051B0006403109265031092660310926703892DB1
:1051C000882909F448C080916003909161030E948E
:1051D00098059C0190915F03992309F4D9C3233367
:1051E0003105C8F19F3F19F09F5F90935F039920AD
:1051F00059F00E9416099FEF19140CF491E0899F51
:10520000802D112480936403882059F00E94160990
:105210009FEF18140CF491E0899F802D1124809346
:105220006503309164033323B1F020916503222399
:1052300091F045EB3403C0011124992309F4A6C170
:105240009093640345EB240390011124332309F464
:10525000A1C130936503812F802B09F448C0809150
:105260005D0390915E030E9498059C0190915C0300
:10527000992309F488C325363105C8F19F3F19F0F9
:105280009F5F90935C03112359F00E94F4089FEFF5
:1052900011160CF491E0899F802D112480936603F0
:1052A000002359F00E94F4089FEF10160CF491E0CF
:1052B000899F802D112480936703309166033323E7
:1052C000B1F020916703222391F045EB3403C00134
:1052D0001124992309F462C19093660345EB2403DA
:1052E00090011124332309F45DC130936703809149
:1052F000640390916503892B90916603892B9091AB
:105300006703892B11F00E94D00786E0FE013196D9
:10531000A2E6B3E001900D928A95E1F70E94100792
:1053200090916803891731F00E94100780936803F9
:105330000E94EA098091A703843009F057CE83E0E8
:105340008093E9008091E80082FF50CE8091E800D0
:1053500090E085FF06C00E942704882309F426C137
:1053600091E08091E8008B778093E800992309F41D
:105370003DCEE981E150E33108F09AC1F0E0E3531A
:10538000F14D0C945A2D92E00ECE8091A7038430FB
:1053900009F440C080E00E94EA09109271038091F4
:1053A0005203811116C09092520380917303982F7B
:1053B0009170909351038E7F809373034FEF80E73A
:1053C00092E0415080409040E1F700C000000E9410
:1053D000FB13109250030FB6F894A895C09260008A
:1053E0000FBEA092600083B7817F846083BF83B7C4
:1053F000816083BF7894889583B78E7F83BF0FB613
:10540000F894A89580916000886180936000109264
:1054100060000FBE8091A603882349F00E94730F9D
:10542000E8E7F3E08191811176C2BE12FBCF809153
:10543000A703853009F4A9CF0E9409110E94100723
:105440000E94EA091092520380915103882361F06F
:105450008091730381608093730360E086950E945E
:105460005B180E94E513CBCD809172038823C9F3AA
:105470000E94FB13F6CF9F5F990C943009F0DFCDAB
:105480000F5F1F4F0630110509F0CECD8FEF8EA3B1
:105490008FA318A60E94A7058160782F9AA789A7D5
:1054A0004EA15FA168A58AA50E948F24E5CD863014
:1054B00059F4F0E0EB51F94FE4910E2F10E0B6EB08
:1054C0008B2EB7E19B2EF1CD893061F4E695F0E0AB
:1054D000EE51F94FE4910E2F10E0A0E98A2EA5E1DC
:1054E0009A2EE3CD8F3061F4E695F0E0E152F94F6A
:1054F000E4910E2F10E0FAEB8F2EF5E19F2ED5CD23
:10550000853159F4F0E0E452F94FE4910E2F10E0A8
:10551000E8E28E2EE6E19E2EC8CD08E210E056E7C6
:10552000852E56E1952E883109F4BFCD833249F49A
:10553000EAEDF6E00591149179E4872E77E1972E54
:10554000B4CD04EF11E04FEF842E46E1942E843267
:1055500009F4ABCD00ED17E032E9832E35E0932E50
:10556000853209F0A2CD8E2F63E00E94182DE92F1D
:10557000F0E0E952F94FE4910E2F10E061EE862E33
:1055800064E1962E92CD82E090E0C1CD81E08093DF
:10559000640358CE81E0809365035DCE81E0809303
:1055A00066039CCE81E080936703A1CE00E210E009
:1055B000CE0101964C018091E80085FD0AC08091E2
:1055C000E8008B778093E8000E942704882399F3F2
:1055D000C7CE8091F100F40181934F010150110970
:1055E00051F7BECE1A8289E08B832DC08A8182302A
:1055F00009F4C0C18330A9F0813009F059C02FB738
:10560000F89460917E0370917F0380918003909164
:1056100081032FBF0E94602D6B837C838D839E83CB
:1056200012C0809178038B83809179038C83809161
:105630007A038D8380917B038E8380917C038F839B
:1056400080917D0388878091A703843009F0CECCB8
:105650001091E9001F709091EC00892F817090FDEE
:1056600080E8182B82E08093E9008091E80080FFB9
:105670000DC050E040E060E270E0CE0101960E9473
:1056800058048091E8008E778093E8001F70109393
:10569000E900ACCC8A81823059F46B817C818D81A8
:1056A0009E810E94602D85E290E00E94FC2DCBCF70
:1056B0008FEF8983C8CF4C816B818A810E94550A04
:1056C0009827892798279E838D83BDCF8D809E80C4
:1056D0009824892498248A810B81F8E00F9F800107
:1056E000112420E3829F000D111D11248C8190E074
:1056F000880F991F080F191F692DC80186960E94EF
:10570000FC2D682DC8018796D0CF0E94820C9BCFBC
:105710008A818138C1F060F4803809F094CF20E0AC
:105720004B8160917503809174030E94C6178BCFE3
:10573000823859F1833809F086CF20E04091760312
:105740006C818B81F2CF60E08B810E945B189B8122
:1057500080917303911111C08E7F80937303109217
:1057600071034FEF80E792E0415080409040E1F7B5
:1057700000C000000E94FB1366CF8160809373031A
:1057800060E086950E945B185ECF8B8180937703E3
:105790005ACF8A81813899F030F4803809F053CF9C
:1057A0008091760321CF823891F0833809F04BCF76
:1057B000809174038B83809175038C8344CF809197
:1057C000730380FF02C086950FCF80E00DCF8091DC
:1057D00077030ACF6091730370917403809175030E
:1057E000909176030E94C5102ECF80E18A832BCF43
:1057F00081E08A838AEFF8CE0A811B811027012776
:105800001027FE0131963F018C80CF01880D911D3C
:105810004C01C8018A5F9D4F8614970409F413CF89
:105820000A3FE1E01E0750F40E94E82DF301848353
:105830000F5F1F4FFFEF6F1A7F0AEBCFF301148248
:10584000F7CF0A811B81102701271027CE0101966F
:105850003C018C80800E912E911CC8018A5F9D4F67
:105860000815190509F4EFCE0A3FE1E01E0720F400
:10587000F30164810E94FC2DFFEF6F1A7F0A0F5F16
:105880001F4FEBCF0E94D40CDECE8AE0AFCF0A814F
:105890001B81102701271027CE0101963C018C8027
:1058A000FC01E80DF11D4F01C8018696861497048E
:1058B00009F4C9CE003EF1E01F0750F40E94E82D24
:1058C000F30184830F5F1F4FFFEF6F1A7F0AECCF46
:1058D000F3011482F7CF0A811B81102701271027BB
:1058E000CE0101963C018C80800E912E911CC80146
:1058F00086968016910609F4A6CE003EE1E01E07CA
:1059000020F4F30164810E94FC2DFFEF6F1A7F0ADF
:105910000F5F1F4FECCF09BD19BD09B400FEFDCFCD
:105920008091D8008F7D8093D8008091E0008260C4
:105930008093E0008091E00081FDFCCF0E9409117E
:1059400076CD60E085E290E00E94FC2D0E94820C02
:105950000E94D40C61E282E290E00E94FC2D68E09B
:1059600083E290E00E94FC2D67E184E290E00E94D7
:10597000FC2DACCA85E290E00E94E82D1B821C82BF
:105980001D828E8360CE2D32314008F079CCAFCCB1
:105990002D32314008F028CC5ECC78941F921FB68F
:1059A0001F9211248F939F93AF93BF9380917E0397
:1059B00090917F03A0918003B09181030196A11D76
:1059C000B11D80937E0390937F03A0938003B093D7
:1059D0008103BF91AF919F918F911F901FBE1F9028
:1059E00018951F921FB61F9211248F939F93AF9308
:1059F000BF9380915003811113C080917E039091D9
:105A00007F03A0918003B09181034196A11DB11D38
:105A100080937E0390937F03A0938003B0938103D0
:105A2000BF91AF919F918F911F901FBE1F901895AE
:105A3000991B79E004C0991F961708F0961B881FE0
:105A40007A95C9F78095089587FB082E062687FD6D
:105A5000819567FD61950E94182D0EF4919507FCC4
:105A600081950895AA1BBB1B51E107C0AA1FBB1F4C
:105A7000A617B70710F0A61BB70B881F991F5A95DA
:105A8000A9F780959095BC01CD01089597FB072E4D
:105A900016F4009407D077FD09D00E94322D07FC40
:105AA00005D03EF4909581959F4F0895709561952E
:105AB0007F4F0895EE0FFF1F0590F491E02D09949C
:105AC00069279627692778278727782708950E94CE
:105AD000842E332312F48A1B9B0B0C94712D0E948D
