:100000000C946F030C94B6030C94B6030C94B603D3
:100010000C94B6030C94B6030C94B6030C94B6037C
:100020000C94B6030C94B6030C9434250C94F02471
:100030000C94BE2B0C94B6030C94B6030C94B6032C
:100040000C94B6030C94B6030C94B6030C94B6034C
:100050000C94B6030C949A2B0C94B6030C94B60330
:100060000C94B6030C94B6030C94B6030C94B6032C
:100070000C94B6030C94B6030C94B6030C94B6031C
:100080000C94B6030C94B6030C94B6030C94B6030C
:100090000C94B6030C94B6030C94B6030C94B603FC
:1000A0000C94B6030C94B6030C94B603570060008E
:1000B000000057005F00000005010980A1018503D1
:1000C00019012AB700150126B700950175108100A6
:1000D000C0050C0901A101850419012AA00215011E
:1000E00026A002950175108100C005010906A10135
:1000F0008505050719E029E7150025019508750113
:1001000081020507190029EF1500250195F07501F9
:1001100081020508190129059505750191029501CE
:1001200075039101C00660FF0961A1010962150014
:1001300026FF009520750881020963150026FF003F
:10014000952075089102C005010906A1010507194E
:10015000E029E715002501950875018102950175D3
:100160000881010507190029FF150026FF009506E3
:100170007508810005081901290595057501910289
:10018000950175039101C00000000000000000000F
:10019000000000000000000000000000000000005F
:1001A00000000000000000000000007E0F00D4FFEF
:1001B000FFFFC70000007800000000000000002AD8
:1001C0002B280000000000000000000000000000DC
:1001D000000029000000002C1E3420212224342697
:1001E00027252E362D3738271E1F20212223242590
:1001F000263333362E37381F0405060708090A0B45
:100200000C0D0E0F101112131415161718191A1BB6
:100210001C1D2F3130232D350405060708090A0B54
:100220000C0D0E0F101112131415161718191A1B96
:100230001C1D2F3130354C0001010101010101016C
:100240000102020202020202020203030303030389
:100250000303040404040404040505050505060657
:100260000606060707070707080808080909090915
:100270000A0A0A0B0B0B0C0C0C0D0D0D0E0E0E0FBB
:100280000F0F10101111111212131314141515164B
:10029000161717181819191A1A1B1B1C1D1D1E1EBC
:1002A0001F2020212222232424252626272829290D
:1002B0002A2B2C2D2D2E2F30313232333435363738
:1002C00038393A3B3C3D3E3F404142434445464736
:1002D00048494A4C4D4E4F50515354555658595A0F
:1002E0005B5D5E5F616264656668696B6C6D6F70B3
:1002F00072737577787A7B7D7E8082838587888A22
:100300008C8E8F91939596989A9C9EA0A2A3A5A758
:10031000A9ABADAFB1B3B5B7BABCBEC0C2C4C6C954
:10032000CBCDCFD1D4D6D8DBDDDFE2E4E7E9EBEE0D
:10033000F0F3F5F8FAFDFFFFAA7F55400807060520
:100340000D0C0B0A11100F161514131A181B120995
:1003500003010002040E17192223252628292A2C1E
:100360002D2F3032333536383A3B3D3E40424345FF
:1003700047494A4C4E5051535557595A5C5E60623A
:10038000646668696B6D6F71737577797B7D7F814A
:10039000838587898A8C8E90929496989A9C9E9F4A
:1003A000A1A3A5A7A8AAACAEAFB1B3B4B6B8B9BB68
:1003B000BCBEBFC1C2C3C5C6C7C9CACBCCCDCED0D7
:1003C000D1D2D2D3D4D5D6D7D7D8D9D9DADADBDBC4
:1003D000DBDCDCDCDCDCDDDDDDDDDCDCDCDCDCDB5B
:1003E000DBDBDADAD9D9D8D7D7D6D5D4D3D2D2D1A4
:1003F000D0CECDCCCBCAC9C7C6C5C3C2C1BFBEBC97
:10040000BBB9B8B6B4B3B1AFAEACAAA8A7A5A3A107
:100410009F9E9C9A98969492908E8C8A89878583C9
:10042000817F7D7B79777573716F6D6B69686664A9
:1004300062605E5C5A5957555351504E4C4A494779
:10044000454342403E3D3B3A3836353332302F2D1E
:100450002C2A2928262523224E007F004B0000004D
:1004600001515400550056005F00600061005700C4
:100470005C005D005E00000059005A005B005800FF
:1004800062000000630000004F0001005000000007
:100490000100AD002C0053001450025303532A00F6
:1004A0000100010001000000010001000100005CEA
:1004B000005C000001000000300001002F0000007F
:1004C00010500500170011030D00160007002D0144
:1004D000060119011000000011011D03E100570180
:1004E0002C000000E2000000805F0100815F00003E
:1004F0001050B9004A0017012B0352002B011A01BA
:10050000500051004F000000B6002C00B70028003A
:100510004E0000004B000000805F0100815F000082
:100520001050010001000100010052000100010013
:10053000500051004F00000010033D08010053001F
:1005400068000000690000000100010001000000D7
:100550000100010001000100010001000100010093
:100560000100010001000000010001000100010084
:100570000100000001000000010001000100000076
:100580000100010001000100010001000100010063
:100590000100010001000000010001000100010054
:1005A0000100000001000000010001000100000046
:1005B0000100010001000100010001000100010033
:1005C0000100010001000000010001000100010024
:1005D0000100000001000000010001000100000016
:1005E0000100010001000100010001000100010003
:1005F00001000100010000000100010001000100F4
:1006000001000000010000000100010001000000E5
:1006100001000100010001000100010001000100D2
:1006200001000100010000000100010001000100C3
:1006300001000000010000001E0F0500047F3F1FA5
:10064000643214643214783C1E1E140A0509025BDD
:1006500000030100A0FA09040000010301010009E0
:1006600021110100012240000705810308000A0949
:1006700004010002030000000921110100012222EF
:10068000000705820320000107050303200001097C
:100690000402000103000000092111010001226D84
:1006A000000705840320000A120110010000000861
:1006B0004B4115000200010200010A0350005300E3
:1006C0003100370000001203410054004C0041008B
:1006D0004E00540049005300000004030904112493
:1006E0001FBECFEFDAE0DEBFCDBF04B603FE27C0EA
:1006F0008091AF039091B003A091B103B091B20388
:100700008730904BA740B04BD1F41092AF031092BA
:10071000B0031092B1031092B20314BE84B7877F66
:1007200084BF0FB6F894A89580916000886180938B
:100730006000109260000FBEE0E0F8E3099523E04E
:10074000A8ECB1E001C01D92AF3AB207E1F711E0A9
:10075000A0E0B1E0E8E4FBE502C005900D92A83C02
:10076000B107D9F70E940B260C94572D0C9400006A
:10077000E8EDF0E080818E7F80831092E20010929D
:10078000DA001092E100A0EEB0E08C9181608C93D1
:1007900080818F77808319BCA7EDB0E08C918E7F2C
:1007A0008C9380818F7E8083109220030895209106
:1007B000E4003091E50095E6A9012091EC00822F3C
:1007C000817020FF06C08091E80080FF06C080E0B5
:1007D00008952091E80022FD1AC0809145038823E6
:1007E00089F0853089F08091EB0085FD0FC0209164
:1007F000E4003091E50042175307F9F29150E1F619
:1008000084E0089582E0089583E0089581E00895EA
:10081000EF92FF920F931F93CF937C018B010E9465
:10082000D703C82F811117C08091E80085FD0BC048
:100830008091E8008E778093E8000E94D703882398
:1008400099F3C82F08C0F70181917F018093F100CF
:100850000150110949F78C2FCF911F910F91FF90F3
:10086000EF9008958091470387FF13C08091E800BF
:1008700082FF06C08091E8008B778093E80004C077
:10088000809145038111F2CF08958091450388231B
:10089000D9F38091E80080FFF8CF8091E8008E774F
:1008A000ECCF982F9093E900242F762F50E08917F2
:1008B00031F07091EC002091ED005091F00021FD9D
:1008C00007C09F5F973071F78093E90081E008953A
:1008D0003091EB003E7F3093EB003091ED003D7F97
:1008E0003093ED003091EB0031603093EB0070936A
:1008F000EC002093ED005093F0002091EE0027FDD6
:10090000E0CF80E00895CF92DF92EF92FF920F93B5
:100910001F93CF93DF93C8EDD0E088818F7E8883CB
:10092000E7EDF0E080818160808384E082BF81E038
:100930008093200388818E7F888302EE10E0F80187
:1009400010821092DA0081EEC82ED12CF6011082AE
:1009500088818F77888388818068888388818F7D6C
:10096000888319BC109245031092460310924403E9
:100970001092430390EEE92EF12CF70180818B7FDA
:10098000808388818160888342E060E080E00E940B
:100990005104F60180818E7F8083F801808181601F
:1009A0008083808188608083F70180818E7F80834F
:1009B000888180618883DF91CF911F910F91FF9093
:1009C000EF90DF90CF900895FC0180914D039091BE
:1009D0004E0386179707A0F06115710529F49091D1
:1009E000E8009E779093E80090E06115710551F45E
:1009F000911108C08091E80082FF34C080E0089522
:100A0000BC01F2CF809145038823C1F18530C1F14B
:100A10008091E80083FD30C08091E80082FDEACF3C
:100A20008091E80080FFE1CF8091F3002091F200F7
:100A3000382F6115710519F02830310558F091E013
:100A40002830310509F090E02091E8002E772093BE
:100A5000E800CBCF81918093F100615071092F5F45
:100A60003F4FE7CF80914503882341F0853041F027
:100A70008091E80083FFBECF81E0089582E0089571
:100A800083E00895089580E00895089580912203F9
:100A900008959C014FB7F89480911C0390911D0319
:100AA000A0911E03B0911F034FBF821B930B0895AB
:100AB0002FB7F89480911C0390911D03A0911E0301
:100AC000B0911F032FBF08958091EC028111109205
:100AD000EC02089580959091EB0298239093EB029D
:100AE00008958091EB029091EA02892B9091E9029E
:100AF000892B8093CA019091EC029923A1F0892B54
:100B00008093CA0180914201882341F18091FB02C8
:100B100087FF24C08EE1ECECF1E090E0815000F51D
:100B200091110E946405E091FE02F091FF0230975E
:100B3000E1F080914201882359F08091FB0287FF08
:100B400007C08091CA018093CB0185E08093CA01E0
:100B50000280F381E02D8AEC91E0099486E0DBCFFE
:100B600021912223D9F29F5FD9CF0895909142011C
:100B70009923D1F09091FB0297FF16C0E82FE695DC
:100B8000E695E695EE31E0F4F0E0E653FE4F282FCF
:100B9000277081E090E001C0880F2A95EAF78095E0
:100BA0009281892382830895ECECF1E0919189137D
:100BB00003C0DF0111971C9291E0E23DF907B1F704
:100BC0000895909142019923C1F09091FB0297FF03
:100BD00014C0E82FE695E695E695EE31F8F4F0E0DE
:100BE000E653FE4F877021E030E001C0220F8A9566
:100BF000EAF78281822B82830895ACECB1E0EFEFBB
:100C000090E02D91821751F0EF3F19F4211101C0AE
:100C1000E92F9F5F9630A9F7EF3F09F408950E2E54
:100C2000000CFF0BE653FE4FE6CF990F990F890F8B
:100C3000982F977086958695869525E0829FF0017E
:100C40001124E752FD4F50E040E080E0219130E078
:100C5000092E02C0369527950A94E2F721703327B2
:100C6000042E01C0220F0A94EAF7822B4F5F5F4FD8
:100C70004530510559F70895990F990F890F982F0D
:100C8000977041E001C0440F9A95EAF786958695E2
:100C9000869595E0899FF0011124E752FD4F30E0E1
:100CA00020E070E05191DF011197CB01022E02C0CC
:100CB000969587950A94E2F781708195852784231C
:100CC00085278C932F5F3F4F2530310559F70895C5
:100CD0008091D8029091A702981301C008958F5F68
:100CE0008770FACF882341F080959091EA0289239A
:100CF0008093EA020C9471050895882339F090914D
:100D0000EA02982B9093EA020C94710508958823C7
:100D100021F00E946A050C9471050895882339F02A
:100D20009091EB02982B9093EB020C94710508952F
:100D300020918002309181022817390771F0909339
:100D4000810280938002E091FE02F091FF023097D1
:100D500021F00084F185E02D0994089520917E0210
:100D600030917F022817390771F090937F028093AA
:100D70007E02E091FE02F091FF02309721F00680A2
:100D8000F781E02D0994089590E080E00E94AE067E
:100D900090E080E00E9498061092EA021092E90228
:100DA0000C9471056093ED027093EE028093EF0254
:100DB0009093F0020C94C406E091FE02F091FF02C1
:100DC000309721F00190F081E02D099480E00895A2
:100DD000882309F44BC0823871F40E94DC0681FF3D
:100DE00045C089E30E94E1050E94710589E30E94E4
:100DF000B6050C947105833859F40E94DC0680FF17
:100E000035C083E50E94E1050E94710583E5EFCFBF
:100E1000843859F40E94DC0682FF28C087E40E94CF
:100E2000E1050E94710587E4E2CF9CEF980F913AAB
:100E3000F0F290E2980F983050F4877091E001C082
:100E4000990F8A95EAF7892F0E946A05D2CF9BE510
:100E5000980F933020F490E080E00C94AE06885A0E
:100E6000873120F490E080E00C9498060895CF93A9
:100E7000DF93EC0181E0898B8091EB029F81892BCC
:100E80008093EB028091EA029885892B8093EA0295
:100E90000E947105EA81FB81309739F06C897D8968
:100EA000CE010696DF91CF910994DF91CF910895FD
:100EB000EF92FF920F931F93CF93DF93EC018A85FC
:100EC000811139C0EB80FC8087E5F81A26E12E9D60
:100ED000C0012F9D900D1124DC01AA5EBE4F149617
:100EE000ED91FC911597309731F054966D917C916E
:100EF000845E9E4F099586E18E9D80018F9D100D29
:100F000011240A5E1E4FF80187810E946A05F801CC
:100F10008085982F90958091EA0289238093EA0238
:100F20000E947105188219861B861E821D821092EE
:100F3000860210928502DF91CF911F910F91FF9051
:100F4000EF900895FA01811101C0FB01099480918D
:100F5000AA03982F9E7F61F4817082608093AA0318
:100F60008091AD03893C18F088EC8093AD0308951F
:100F70008635B0F381708465F1CFAF92BF92DF9276
:100F8000EF92FF920F931F93CF93DF93182F062FAB
:100F9000E901493C08F048ECE42FF0E0E95CFD4F42
:100FA000011110C0E4915E2F4E2F4983E8835A83CC
:100FB000DF91CF911F910F91FF90EF90DF90BF9045
:100FC000AF900895202F30E04491D42EE42EF12CE0
:100FD00056E0159FC0011124EFEFF0E0BF010E9421
:100FE000FF2B812F90E0880F991F55E5569FD00168
:100FF000579FB00D11248A1B9B0B982F990F890FB7
:101000005F01A21AB30AAE9CD001AF9CB00DBE9C8A
:10101000B00D11245B2F089F80011124012F11278F
:101020005F01A01AB10AAE9C8001AF9C100DBE9C5E
:10103000100D11245F01A81AB108A29EC001A39E41
:10104000900DB29E900D1124892F9927E81BF90B62
:10105000EE9DC001EF9D900DFE9D900D1124E92F96
:1010600062307105A1F050F46115710509F49DCF4E
:101070006130710581F0EB2F512F97CF64307105EE
:1010800069F080F06630710509F48FCFF4CFE42F5A
:101090004B2F592F8ACFE42F412F87CFEB2F542F7F
:1010A000492F83CF4B2F5D2DE12F7FCFF894E82F71
:1010B000E295EF70F0E031A1282F2F7081E090E0F1
:1010C00001C0880F2A95EAF7982F9095932391A352
:1010D00092A1892B82A3789408959091FB0292FFAC
:1010E00006C0282F28712830F9F4877F846093FF89
:1010F00006C0282F28712831F1F4877E8461209161
:10110000FC0220FF06C0382F38713830D9F4877FB1
:10111000816021FF06C0282F28712831D1F4877EF5
:10112000816194FD877E0895282F24712430F9F67B
:101130008B7F8860DCCF282F2471243101F78B7ED0
:101140008861DDCF382F3171313019F78E7F88609B
:10115000E0CF282F2171213121F78E7E8861E1CFE8
:10116000809580FF08C0589A81FF07C05D9A82FF72
:1011700006C05C9A08955898F7CF5D98F8CF5C98B0
:101180000895CF93DF939C013A9521153F4168F56F
:10119000EC01CC27D170DC01AA27B270AC01442746
:1011A00054709C012227387094FF11C080E1CD2B30
:1011B00009F480E0AB2B09F08062452B09F08064D4
:1011C000232B09F08068FB01DF91CF91099481E026
:1011D000CD2B09F480E0AB2B09F08260452B09F0A0
:1011E0008460232B81F38860EECFDF91CF91089547
:1011F000CF93DF93EC010E94E806CE01805E910957
:10120000089720F062E776E0209711F467E876E02F
:10121000CE01DF91CF910C94C108FC018081813017
:1012200029F4FB01808191810C94F808823021F42B
:10123000FB0182819381F8CF0895CF9384E090E001
:101240000E94AC2CC82F81E290E00E94AC2C982F19
:101250008C2FCF9108950F931F93CF93DF9328E0A6
:10126000629FE001112450E0440F551FC40FD51FA9
:1012700030E3839FC00DD11D1124CE0186960E94BC
:10128000AC2C082F10E0102F0027CE0187960E946B
:10129000AC2C9801282BC901DF91CF911F910F91A0
:1012A0000895462F8A3038F4763028F4643018F4E4
:1012B000672F0C942B0990E080E00895CF93DF9383
:1012C0000E945109EC0182389105A9F1D8F58133CA
:1012D000910509F496C048F58932910509F48AC050
:1012E0008A9709F495C0C11522E5D20708F0B6C067
:1012F000C11531E5D30708F026C1C83ED10508F075
:101300009CC0C03ED10560F5C83AD10508F087C041
:10131000C53AD10508F0EFC0C130D10509F12097D9
:10132000F9F0C430D105E0F440C08533910509F4EB
:101330005AC0C997C1F68091FB02837089F0C0EE54
:10134000D0E00EC0833E910599F170F4803E910586
:1013500001F1823E910539F68091FB0282FD21C0A8
:10136000CE01DF91CF910895863E910561F1873ED0
:10137000910571F1843E910509F0B5CF8091FC0291
:1013800081FFEECF8091FB02C7EED0E084FD0DC05F
:10139000E7CF8091FB0280FD07C19091FC0290FF96
:1013A000DFCFC3EED0E084FFDBCFD0E0C0E0D8CF0A
:1013B0008091FB0282FDFBC09091FC0290FDBFCFAB
:1013C00084FFCECFF2CF8091FB0283FDDDCFC8CF6B
:1013D0008091FB0283FDEEC09091FC0291FFF0CF63
:1013E000C4EED0E0BDCF8091FB0285FFB9CFC9E24A
:1013F000D0E0B6CF8091FB0285FFB2CFC5E3D0E04D
:10140000AFCF8091FB0286FFABCFCAE2D0E0A8CF7E
:101410008091FB0286FFA4CFC1E3D0E0A1CFCF3BF8
:10142000D10518F6C85AD0E0CC0FDD1FCF58DE4FDB
:101430000990D881C02DD46493CFC11540E5D4075D
:1014400008F064C0C11580E4D80708F05CC0CE0184
:101450009A9581159F4108F483CFA7CFC11536E532
:10146000D30718F5C11545E5D40708F084C0C115A8
:1014700084E5D80708F07AC09C2F969596959E0132
:1014800023703327C115D34508F462C0C1E0D0E012
:1014900002C0CC0FDD1F2A95E2F730E2939FC00116
:1014A0001124C82BD92BDA685BCFC1158AE5D80780
:1014B00078F4C11599E5D90708F068C0C11528E589
:1014C000D20708F472CFDC2FCC27C06FD06A48CF88
:1014D000CE0190568115904208F067CF8D2F8F7105
:1014E0000E946D0890E0982F882788279F719C01A3
:1014F0002C2BE90149C0C55AD0E0C259DE4FC88142
:10150000D0E0D0642DCFDF70D06A2ACFCE01E4E0E6
:1015100096958795EA95E1F783702C2F2695269569
:10152000237040E2249F90011124382B8C2F83706C
:10153000C1E0D0E002C0CC0FDD1F8A95E2F7C22BDC
:10154000D32BDC680DCFDC2FCC27C16FD06A08CF3E
:10155000C1E0D0E002C0CC0FDD1F2A95E2F720E207
:10156000929FC0011124C82BD92BEBCFDC2FCC27A5
:10157000C46FD06AF5CE8C2F0E946D08C82FD0E0C2
:10158000DC2FCC27CC27DF71D062EACE8C2F8F7076
:101590000E946D0834E0D695C7953A95E1F7CF7073
:1015A0009C2FEC01D069DCCEC9E3D0E0D9CEC2EEED
:1015B000D0E0D6CEC6EED0E0D3CEBF92CF92DF92AF
:1015C000EF92FF920F931F93CF93DF938C01C09004
:1015D0004F03D0905003E0905103F090520380915C
:1015E000ED029091EE02A091EF02B091F002C82AB4
:1015F000D92AEA2AFB2ACFE1D0E0BC2ED701C601C6
:101600000C2E04C0B695A795979587950A94D2F7A6
:1016100080FD0EC0219788F7B12C8B2DDF91CF91E3
:101620001F910F91FF90EF90DF90CF90BF900895A2
:10163000B8018C2F0E945E09019761F3EECFCF9322
:10164000DF93EC010E94DD0ABE01DF91CF910C9483
:101650005E090E941F0B292F2F7092959F70925048
:101660009E3078F4E92FF0E0E75AF24D0C94272CE5
:10167000803F19F020F4883E20F481E00895843FF3
:10168000E1F380E00895883EC0F3813FD1F7F5CFC4
:10169000822F86958695869508956F927F928F9278
:1016A0009F92AF92BF92CF92DF92EF92FF920F93F1
:1016B0001F93CF93DF9388E5C82E84E0D82E0EE5E4
:1016C00010E0E801E09736011CC0F5018590949088
:1016D000692DC7010E94C02C682DC70101960E9488
:1016E000C02C82E0A80EB11C82E0E80EF11CCE15E1
:1016F000DF0559F788E0680E711C28960C171D0746
:1017000031F07E0188E0E81AF1085301DECF005D78
:101710001F4F80E3C80ED11C0E3382E0180789F6F4
:10172000DF91CF911F910F91FF90EF90DF90CF90BD
:10173000BF90AF909F908F907F906F900895CF93C0
:10174000DF93C6E0D2E060E0CE010E94C02C21967B
:10175000C11584E0D807B9F7DF91CF910895CF93F1
:10176000DF9300D00F92CDB7DEB790914503943050
:1017700011F589837B836A839093E9008FEF9091C1
:10178000E800815095FD06C095ED9A95F1F70000AF
:101790008111F5CF8091E80085FF0DC050E040E059
:1017A00063E070E0CE0101960E9408048091E80099
:1017B0008E778093E8000F900F900F90DF91CF917C
:1017C0000895BC0184E00C94AF0BBC0183E00C9441
:1017D000AF0BCF93DF93EC01809142018823B1F1ED
:1017E0008091FB0287FF32C060E284E08093E900D1
:1017F0008FEF9091E800815095FD06C095ED9A9588
:10180000F1F700008111F5CF8091E80085FF1BC042
:101810008091420170E050E040E0811104C050E04E
:1018200040E068E070E0CE010E9408048091E8008A
:101830008E778093E80080E2FE01A3E2B3E001909E
:101840000D928A95E1F7DF91CF91089568E081E0EC
:10185000CDCF81E08093E00080E28093D8001092A9
:10186000C9008FE19EE40197F1F700C0000087E016
:1018700090EBDC018093AF039093B003A093B1038E
:10188000B093B20388E19CE00FB6F894A8958093DA
:1018900060000FBE90936000FFCFCF93C82F8823C6
:1018A00009F4A6C08238C1F40E94DC0681FDA0C004
:1018B00089E30E94E1050E9471052FEF81EE94E01B
:1018C000215080409040E1F700C0000089E30E9471
:1018D000B605CF910C9471058338A1F40E94DC0603
:1018E00080FD86C083E50E94E1050E9471052FEF0F
:1018F00081EE94E0215080409040E1F700C000006C
:1019000083E5E5CF8438A1F40E94DC0682FD70C037
:1019100087E40E94E1050E9471052FEF81EE94E0BB
:10192000215080409040E1F700C0000087E4CFCF15
:101930008CEF8C0F813A88F580914201882301F168
:101940008091FB0287FF1CC0EC2FE695E695E6959B
:10195000F0E0E653FE4F828190E04C2F477021E08B
:1019600030E002C0220F331F4A95E2F7822393230F
:10197000892B79F08C2F0E94B6050E94710509C051
:10198000ECECF1E08191C817A9F321E0E23DF20708
:10199000C9F78C2F0E94E1059CCF80E28C0F883024
:1019A00068F4C77021E030E001C0220FCA95EAF761
:1019B0008091EB02822B8093EB028BCFEBE5EC0F57
:1019C000E33040F4F0E0E259FE4F808190E0CF91A7
:1019D0000C94AE06C85AC73158F4EC2FF0E0EE0F65
:1019E000FF1FEF58FE4F80819181CF910C94980694
:1019F000CF9108951F93CF93DF93182FD0E0C0E0CD
:101A0000893311F4C0E5D0E0812F0E944D0C20975E
:101A100031F4812FDF91CF911F910C94E8068FE96B
:101A20009FE00197F1F700C000002197F0CF0F93DE
:101A30001F93CF93DF93C62FD42F022FFC018281F7
:101A40008823A1F0609355030E9458059093540396
:101A500080935303C77081E001C0880FCA95EAF7ED
:101A6000DF91CF911F910F910C948E0680915503B9
:101A7000681335C080915303909154030E94490527
:101A8000883C910560F510E21D0FCD17B9F080E29A
:101A90008C0F883040F4C77081E001C0880FCA9570
:101AA000EAF70E948706183048F481E09D2F97706E
:101AB00001C0880F9A95EAF70E948E06802F0E9437
:101AC000FA0C183098F4D77081E001C0880FDA95CD
:101AD000EAF7DF91CF911F910F910C948706C770A1
:101AE00081E001C0880FCA95EAF7F3CFDF91CF916B
:101AF0001F910F910895DF92EF92FF920F931F9322
:101B0000CF93DF93E82FF0E0E954FE4FD490282FD5
:101B100026952695269530E0F901E955FE4F04916A
:101B2000877010E0082E02C0159507950A94E2F719
:101B300001701127F901E956FE4FE490F12C082EAF
:101B400002C0F594E7940A94E2F791E0E922FF24B9
:101B5000F901E957FE4FC491D0E002C0D595C79571
:101B60008A95E2F7C170DD270115110519F081EEA4
:101B70000E944D0CE114F10419F086EE0E944D0C08
:101B80008D2D0E94FA0CEF2819F086EE0E94E806CF
:101B9000012B19F081EE0E94E806CD2B51F08CE26A
:101BA000DF91CF911F910F91FF90EF90DF900C94F8
:101BB000FA0CDF91CF911F910F91FF90EF90DF9082
:101BC0000895CF93DF93EC01805E9109089720F090
:101BD0006DE776E0209711F46EE876E0CE010E9482
:101BE000C1088C2FDF91CF910C944D0CFC018081AA
:101BF000813029F4FB01808191810C94E10D8230C8
:101C000021F4FB0182819381F8CF0895CF93DF9374
:101C1000EC018881823039F4FB01828193810E943A
:101C2000E10D81E08B87DF91CF910895CF93909163
:101C30009902992321F0811116C010929902CF9137
:101C40000895EC2FF0E0EE0FFF1FE757FD4F808166
:101C500091810E94E10D0E947105CF5F80919902F0
:101C6000C81778F3EACFC0E0F9CFAF92BF92CF9216
:101C7000DF92EF921F93CF93DF93CDB7DEB7C455BA
:101C8000D1090FB6F894DEBF0FBECDBF8091AA0375
:101C900080FD0AC0E6E5F3E01182108212823396DD
:101CA00083E0EA3AF807C1F77CE3A72E73E0B72E8A
:101CB000DE011196AE014B5A5F4F1A2F7B2FF501B3
:101CC0008491282F30E0C901880F991F820F931F3C
:101CD0008A5A9C4FFC01C080D180E280CD92DD9277
:101CE000ED92FFEFAF1ABF0AA417B50741F7279A85
:101CF00035B13F7725B120686FB7F894812F972FC2
:101D0000FC017191CF01E8E025B9000000C077FF28
:101D100035B9770F000000C000C000C035B900C061
:101D2000EA9591F78417950759F76FBF8FE594E00F
:101D30000197F1F700C00000CC5ADF4F0FB6F894BE
:101D4000DEBF0FBECDBFDF91CF911F91EF90DF902F
:101D5000CF90BF90AF9008951F93CF93DF9300D0A3
:101D60000F92CDB7DEB7142F9091AA0390FF1AC03F
:101D70009E012F5F3F4F462F6FEF0E94BD071C3122
:101D800089F08B819981412F50E0FA01EE0FFF1FFE
:101D9000E40FF51FEA5AFC4F2A8121839083828346
:101DA0000E94350E0F900F900F90DF91CF911F91F1
:101DB0000895CF92DF92EF92FF920F931F93CF93EC
:101DC000DF936B017C01C701AA27BB27C0E1009705
:101DD000A105B10519F4D701CB01C0E0492F5A2F55
:101DE0006B2F7727411551056105710519F0C85F03
:101DF000DB01CA01AC01BD01E4E07695679557951A
:101E00004795EA95D1F7411551056105710519F01E
:101E1000CC5FDB01CA01AC01BD0132E0769567956C
:101E2000579547953A95D1F74115510561057105CB
:101E300019F0CE5FDB01CA01B695A79597958795F6
:101E4000892B8A2B8B2B09F0CF5FC23009F497C006
:101E500080F4CC2389F1C13009F45FC0C701B60119
:101E6000DF91CF911F910F91FF90EF90DF90CF9076
:101E70000895C33009F415C1C43081F7CEE1D0E034
:101E80008C2F4C2F4E51D093EB01C093EA01242F9D
:101E90002D7F213049F0942F9F7E993029F04231D7
:101EA00019F04B3109F02FC16CE80E94AC0E21965D
:101EB000CA33D10529F7D2CF08E310E01093EB0124
:101EC0000093EA012C2F2D7F802F213041F09C2F91
:101ED0009F7E993021F0C23111F0CB3151F44C2F5B
:101EE0006CE80E94AC0ECF5F0E5F1F4FCC3131F714
:101EF000B5CF222331F0C43021F0CE3011F0C731FC
:101F000019F44C2F6FE0EDCFC831D9F3C331C9F3C9
:101F10004C2F60E59A3029F7F4CF0FE010E0C0E0D5
:101F20001093EB010093EA012C2F2D7F802F21309D
:101F300041F09C2F9F7E993021F0C23111F0CB31BE
:101F400051F44C2F6CE80E94AC0ECF5F0E5F1F4F18
:101F5000CC3131F783CF222331F0C43021F0CE30A1
:101F600011F0C73119F44C2F6FE0EDCFC831D9F320
:101F7000C331C9F34C2F60E59A3029F7F4CF0CED4B
:101F800010E0C0E00F3F110509F0B8F41093EB0129
:101F90000093EA018C2F8D7F4C2F6CE8813051F03B
:101FA000882331F0C43021F0CE3011F0C73169F40C
:101FB0004C2F6FE08091EA0145C0C8018F5F910905
:101FC0009093EB018093EA01E5CF46E06FE584E969
:101FD000C630C1F145E06FE58CE8C53099F14FE0BE
:101FE000CF30B1F049E06CE8C93009F441C04DE0B0
:101FF0006FE5CD3009F453C04CE06FE589EBCC3090
:1020000009F14BE06FE5CB3099F1C73021F447E09F
:102010006FE583EC17C042E16CE886EEC23191F0C7
:1020200041E1C13169F040E16FE583E0C03151F039
:1020300046E16FE585E0C63129F0C53161F445E13F
:102040006FE580E00E94AC0ECF5F0E5F1F4FCC317A
:1020500009F098CF03CF4AE16EE1CA3179F0C83177
:1020600019F448E16EE1D5CFC43121F444E16EE1C9
:102070008EEBE8CFCB3121F44BE16CE888ECE2CF7A
:102080004AE0CA3009F495CFC33111F443E191CF4E
:102090004C2F60E5C93109F08DCF49E16CE884EB44
:1020A000D1CF07E810E0C0E01093EB010093EA0104
:1020B0002C2F2D7F802F213041F09C2F9F7E993037
:1020C00021F0C23111F0CB3151F44C2F6CE80E9459
:1020D000AC0ECF5F0E5F1F4FCC3131F7BFCE222346
:1020E00031F0C43021F0CE3011F0C73119F44C2F4B
:1020F0006FE0EDCFC831D9F3C331C9F34C2F60E5A0
:102100009A3029F7F4CF222331F0443021F04E30B9
:1021100011F0473111F46FE0C8CE4831E1F343319B
:10212000D1F360E59A3009F0C0CEF5CF0E94D90E08
:1021300060934F0370935003809351039093520325
:102140000C94C4060F931F9360914F03709150033A
:1021500080915103909152038B019C0106701127CD
:1021600022273327063011052105310529F468603F
:102170001F910F910C949610677FFACF0F931F93C6
:1021800041E050E060E070E004C0440F551F661F5E
:10219000771F8A95D2F7CB01BA016095709580952B
:1021A000909500914F03109150032091510330916D
:1021B000520360237123822393231F910F910C9468
:1021C00096109091E802809589238093E802282F49
:1021D000277071F4282F082E000C330B921713066A
:1021E00039F08595859585950E94BE101092E8027C
:1021F00008950F931F9341E050E060E070E004C049
:10220000440F551F661F771F8A95D2F780914F03A1
:1022100090915003A0915103B09152038A019B0108
:10222000082B192B2A2B3B2BC901B8011F910F91A9
:102230000C949610EF92FF921F93CF93DF93EC01D3
:1022400086E5E82E83E0F82E10E08C81970140911E
:10225000AD036091AC03810F0E94BD07175F83E05F
:10226000E80EF11C1C3F89F70E94350E9A818C8183
:1022700090FF08C08F5F8C83DF91CF911F91FF90FB
:10228000EF9008958150F7CFBF92CF92DF92EF92F7
:10229000FF920F931F93CF93DF93FC018281DD2484
:1022A000DA9480FD02C0DD24D39406E513E0D0E08B
:1022B000C0E02CE1B22EF80111821082128294E06B
:1022C000E92EF12CC12C8091EF018C0D8D310CF495
:1022D0003DC06B2D0E94F12B892F082E000C990B0D
:1022E0008C179D0791F48091AD038E9DA0018F9D69
:1022F000500D112455954795559547959801609136
:10230000AC038091AB030E94BD07CD0CF1E0EF1A46
:10231000F108C9F621960D5F1F4FCC31D10559F652
:102320000E94350E8091EF0191E0D91215C0811104
:1023300011C08BE18093EF01DF91CF911F910F913D
:10234000FF90EF90DF90CF90BF90089587FFC5CFAB
:10235000845EC3CF8150EECF90E00196BE010E9413
:10236000132CE8CF0F931F93CF93DF93C6E5D3E0F1
:10237000FE01118210821282339683E0EA3AF80756
:10238000C1F710E000E08091F001082E000C990BDD
:10239000081719078CF180911401082E000C990B75
:1023A000801791074CF19E014091AD036091AC0301
:1023B0008091AB030E94BD070F5F1F4F23960C3126
:1023C000110509F70E94350E809113019091F001DB
:1023D000980F9093F00120911401280F209314017D
:1023E000121614F49B311CF0819580931301DF9138
:1023F000CF911F910F910895198218821A82DCCF14
:102400008F929F92AF92BF92CF92DF92EF92FF9204
:102410000F931F93CF93DF93EC014C81042F10E0B7
:102420009801D8010E94482D9B01AC010E94132DF8
:102430004B015C01E0E2F0E0E01BF10BA5E5B0E050
:10244000AC019B010E94132D6B017C019F01DF01F8
:102450000E94342C9B01AC010E941E2D9B01AC01FB
:10246000280D391D4A1D5B1DC701B6010E94262D8E
:10247000F22E822F90E039E23F15D8F143E0249FFD
:102480009001112435952795122F109596E5C92EA8
:1024900093E0D92E00E085E5E82EEF188E2D01FDA2
:1024A0008F2D9601412F6091AC030E94BD070F5FF5
:1024B00053E0C50ED11C0C3189F70E94350E9C816A
:1024C00081E0992319F0903219F48FEF8093150170
:1024D00080911501890F8C83DF91CF911F910F910E
:1024E000FF90EF90DF90CF90BF90AF909F908F9034
:1024F000089525E530E0A901481B590BCA019A014E
:10250000220F331F280F391F37FFBCCF2F5F3F4FDC
:10251000B9CFEF92FF920F931F93CF93DF938C016C
:10252000C6E5D3E0F12CE12CF80194816091AC0375
:102530008091AB03FEE0EF16F104FCF49923F9F06F
:102540009E014091AD030E94BD072FEFE21AF20AEF
:1025500023968CE1E816F10439F70E94350EF80154
:10256000848190E00196817099278483DF91CF91D7
:102570001F910F91FF90EF900895992309F39E0109
:1025800040E0E1CF9091AA0390FF0CC0E6E5F3E0B4
:10259000818360834283339693E0EA3AF907C1F777
:1025A0000C94350E08950F931F93CF93DF9300D0B3
:1025B0000F92CDB7DEB78C018091F10181110AC075
:1025C0009E012F5F3F4F48EC6FEF0E94BD078A814D
:1025D0008093F101F8016481613069F08091F1012B
:1025E00040E0662361F040E0623011F44091F10177
:1025F00080E060E004C06091F10140E080E00E9472
:10260000C212F801848190E0019663E070E00E94BC
:10261000132C84830F900F900F90DF91CF911F9117
:102620000F910895CF93DF9300D00F92CDB7DEB70F
:102630009091AA0390FF0AC09E012F5F3F4F0E9416
:10264000BD074B8169818A810E94C2120F900F9051
:102650000F90DF91CF910895CF93DF93EC01EC8140
:10266000F0E0E85AFC4F4491EAEAF3E062818181AC
:102670000E9412138C818F5F8C83DF91CF9108951C
:10268000CF93DF93EC01EAEAF3E0438162818C812E
:102690000E9412138C818F5F8C83DF91CF910895FC
:1026A000BF92CF92DF92EF92FF920F931F93CF933F
:1026B000DF939FE9E92E91E0F92EC5EFD2E0C12C1E
:1026C000D12C01E010E0F70181917F01F894E82F0F
:1026D000E295EF70F0E021A18F70A80102C0440FD5
:1026E000551F8A95E2F7CA01922F982B91A392A1C8
:1026F0008095892382A3789400C0E5EAF1E030E078
:1027000020E0B12C4191A42FA295AF70B0E090963B
:102710008C9190E04F7002C0959587954A95E2F7AD
:1027200080FD50C0802F022E01C0880F0A94EAF766
:10273000B82A2F5F3F4F2430310521F7F701319739
:1027400080810E94560855E0C51619F080EA8A95E6
:10275000F1F78881B816C1F1B88281E0D82AC39414
:102760002196E6E0CE12AFCFDD2081F181E08093AB
:10277000EE010E9458059093ED018093EC01809149
:10278000EC019091ED010E944905069718F18091A6
:10279000F502809316038091F602809317038091CF
:1027A000F702809318038091F802809319038091B7
:1027B000F90280931A038091FA0280931B0310920E
:1027C000EE0108C080E0B4CF80E0C8CF8091EE0178
:1027D0008111D5CF80912C0110E006E18F3F09F0E7
:1027E00052C080912D01811159C0809184028823AB
:1027F00071F080918202909183020E944905893E86
:10280000934028F082EE0E94E806109284028D2DFB
:10281000DF91CF911F910F91FF90EF90DF90CF90BC
:10282000BF900895029FF001039FF00D1124EA5E0E
:10283000FE4FE288F388E114F10419F488ECE82EE5
:10284000F12C029FE001039FD00D1124CA5EDE4FE0
:102850008E818823B9F08D859E850E944905E816F2
:10286000F90680F4109F700111248989811105C037
:10287000C7018A5E9E4F0E943707C701845E9E4F44
:102880000E9458071F5F212F30E080912C01082EF5
:10289000000C990B821793072CF6A3CF80919A0214
:1028A000882309F4A2CF80919B0290919C0200970B
:1028B00009F49BCF0E9449058D32914008F495CFD1
:1028C00010929A0281E00E94160E8FCF4F925F9273
:1028D0006F927F928F929F92AF92BF92CF92DF9230
:1028E000EF92FF920F931F93CF93DF93FC016280CF
:1028F000448081E08483E8E5F3E07490E7EDF3E061
:10290000E491C2EFD1E036E5E32E33E0F32E4EE75B
:10291000C42E42E0D42E52E0A52EBB24B3948824CA
:102920008A94912C55245A94E7190E2F10E082E0D6
:10293000861530F08091AB0388838091AC03898346
:10294000411021C01B821A8297014A8169818881C6
:102950000E94BD07259683E0E80EF11CCC16DD062B
:1029600031F7DF91CF911F910F91FF90EF90DF90A2
:10297000CF90BF90AF909F908F907F906F905F901F
:102980004F900C94350E8B818823E9F081508B8316
:10299000859DC00111246C8170E00E94FF2BFB011A
:1029A000FF27E85AFC4F8491E82FE719E59DC00105
:1029B0001124B8010E94FF2B8091AD03689FB001E4
:1029C00011247A83C1CF0E948F2C2091AD032695CC
:1029D00021582A9DA0012B9D500D1124452F5527CC
:1029E000841795070CF0B0CF82E0861588F40E941A
:1029F0008F2CB4010E94132C88830E948F2C20916D
:102A0000AC032695622F70E00E94132C280F2983B7
:102A10001A828091AD03893C20F088EC8C838B83F3
:102A200093CF8431D8F784E1F9CF6BEE7EEF90E05D
:102A300080E00E94DE2C60E082E090E00E94C02CEA
:102A400060E083E090E00E94C02C1092ED021092B2
:102A5000EE021092EF021092F00260E084E090E04B
:102A60000E94C02C60E081E290E00E94C02C60E0F7
:102A700085E090E00E94C02C60E086E090E00E943B
:102A8000C02C6FEF87E090E00E94C02C40E050E047
:102A9000BA0188E090E00E94D22C60E08DE090E0E6
:102AA0000E94C02C40E050E0BA0188E190E00E9412
:102AB000D22C60E087E190E00E94C02C40E050E022
:102AC000BA018CE190E00E94D22C60E080E290E0BC
:102AD0000E94C02C40E050E0BA0188E190E00E94E2
:102AE000D22C40E050E0BA018FE090E00E94D22C5E
:102AF00040E050E0BA0183E190E00C94D22CCF92F8
:102B0000DF92EF92FF926B017C010E94A707B70151
:102B1000A60188E090E0FF90EF90DF90CF900C94BA
:102B2000D22C5F926F927F928F929F92AF92BF92C0
:102B3000CF92DF92EF92FF920F931F93CF93DF9389
:102B400000D00F92CDB7DEB7182F762E042F622E4D
:102B50009091AA0390FF29C0E92FE695AE2FB0E02F
:102B6000AD5BBE4F8C91809314039E7F923081F5B4
:102B70009E012F5F3F4F812F0E94BD074B816981CE
:102B80008A810E94C2121093AB037092AC0300932F
:102B9000AD03662051F06091AA037091AB03809160
:102BA000AC039091AD030E947F150F900F900F9092
:102BB000DF91CF911F910F91FF90EF90DF90CF9019
:102BC000BF90AF909F908F907F906F905F9008958F
:102BD000823019F40091AD03D6CF863019F41091EC
:102BE000AB03D1CF8930D9F3893169F6E9518E2F02
:102BF0008170582EE695F0E0E95CFC4FA590B4900A
:102C0000BB2486E5E82E83E0F82ED12CC12C9CE174
:102C1000892E912CC601B4010E94FF2B812F5110E7
:102C200013C0860F9701402F672D0E94BD07CA0C65
:102C3000DB1C83E0E80EF11C8AEAE81683E0F80664
:102C400049F70E94350E9FCF861BECCFEAEAF3E0EE
:102C5000438128E0421B08F440E021E06281818149
:102C60000C949115EAEAF3E0438128E0420F08F45E
:102C70004FEF21E0628181810C949115EAEAF3E043
:102C8000628128E0621B08F460E021E043818181D9
:102C90000C949115EAEAF3E0628128E0620F08F4EF
:102CA0006FEF21E0438181810C949115EAEAF3E012
:102CB000818121E04381628188500C949115EAEA78
:102CC000F3E0818121E043816281885F0C9491155A
:102CD0008091AE03882319F081508093AE036091F8
:102CE000AA037091AB038091AC039091AD030C9457
:102CF0007F158091AE03833018F48F5F8093AE030D
:102D00006091AA037091AB038091AC039091AD03E5
:102D10000C947F15EAEAF3E083E0808311828FEF61
:102D2000828388E2838314826081718182819381AE
:102D30000C947F151092EB0280914201ECECF1E0D3
:102D4000882359F08091FB0287FF07C08EE1DF01E5
:102D50001D928A95E9F70C94C40686E0F8CF1F937C
:102D6000CF93DF93CDB7DEB7AA970FB6F894DEBF47
:102D70000FBECDBF87E493E02091F100DC012D93DD
:102D8000CD01B3E08F349B07B9F7809148038330BE
:102D900009F471C0B8F4813009F448C0823009F4F4
:102DA000B2C08091E80083FF3AC1809147039091BF
:102DB00048039A3008F033C1E92FF0E0E959F24DA9
:102DC0000C94272C8A3009F48DC08B3009F470C024
:102DD000893039F780914703813219F780914B038D
:102DE00090914C03009711F00297D9F68091E8007A
:102DF000877F8093E8008091E80082FF37C0909140
:102E0000F3008091F200029729F48091F1008B7F0A
:102E1000813021F48091F100809322038091E800B9
:102E20008B778093E8000E943204BBCF80914703E8
:102E3000813A09F0B6CF8091E800877F8093E8005F
:102E400080914B0390914C03892B61F460E283E203
:102E500093E070E00E94E4048091E8008B77809317
:102E6000E8009FCF60E090E080E0F3CF80914503E1
:102E70008111C1CF96CF80914703813A09F091CF5C
:102E800080914B0390914C03892B09F08ACF80915C
:102E9000E800877F8093E8008091E80080FFFCCF06
:102EA000809142018093F1008091E8008E77B9CF44
:102EB00080914703813209F074CF80914B03909148
:102EC0004C03892B09F06DCF8091E800877F8093B8
:102ED000E8000E94320480914903809342010E94DD
:102EE0009A165FCF80914703813209F05ACF8091C3
:102EF000E800877F8093E8000E94320480914A03B3
:102F0000809321034ECF80914703813A09F049CF46
:102F10008091E800877F8093E8008091E80080FF3F
:102F2000FCCF80912103BECF803899F0823809F020
:102F300076C080914B038F70873008F070C080930B
:102F4000E9008091EB0085FB882780F91092E90069
:102F500006C0809143039091440391118260909147
:102F6000E800977F9093E8008093F1001092F100C1
:102F70008091E8008E77B5C1882309F4A2C1823020
:102F800009F04DC0809149038111A6C180914B0386
:102F90008F702FEF280F263008F041C08093E90092
:102FA0002091EB0020FF98C1933031F48091EB0029
:102FB00080628093EB0090C19091EB0090619093C0
:102FC000EB0021E030E001C0220F8A95EAF7209360
:102FD000EA001092EA008091EB008860EACF81114C
:102FE0001EC0109149031F778091E3008078812BE8
:102FF0008093E3008091E800877F8093E8000E943F
:1030000032048091E80080FFFCCF8091E30080686B
:103010008093E30082E0111183E080934503809167
:10302000E80083FF0AC08091E800877F8093E80072
:103030008091EB0080628093EB00AA960FB6F89423
:10304000DEBF0FBECDBFDF91CF911F910895805895
:10305000823028F72091490330914A032C3DE3E068
:103060003E07A1F583E08A838AE289834FB7F8940B
:10307000DE01139620E03EE051E2E32FF0E05093B2
:103080005700E49120FF03C0E295EF703F5FEF70BF
:103090008E2F90E0EA30C0F0C7968D939D932F5FFE
:1030A000243159F74FBF8091E800877F8093E80073
:1030B0006AE270E0CE0101960E94E4048091E8008B
:1030C0008B778093E800ABCFC096E7CF80914B031E
:1030D00090914C03432F55274330510509F44AC0C2
:1030E00078F54130510509F47AC08BE590E0EDE4C4
:1030F000F6E04230510509F092CF2091E800277F99
:103100002093E80020914D0330914E0382179307DE
:1031100008F49C0140E02115310509F065C041111A
:1031200063C08091E80082FDC9CF80914503882368
:1031300029F2853019F28091E80083FFF2CFBECFEB
:103140004132510509F43CC04232510509F067CFC4
:103150008330910508F063CFFC01EE0FFF1FE454AC
:10316000FE4F0190F081E02D87549E4FDC018C9141
:1031700090E01AC0332721303105D1F021153105F7
:1031800061F02230310509F04ACFEAEBF6E0E49134
:103190008E2F90E0EAEBF6E007C0EAEDF6E0E4916E
:1031A0008E2F90E0EAEDF6E0009709F438CFA5CF36
:1031B000E6ECF6E0E4918E2F90E0E6ECF6E0F4CF5A
:1031C0008330910508F02BCF880F991FFC01EE5337
:1031D000FE4F0190F081E02D89E090E08ECF82E1FA
:1031E00090E0E8EAF6E089CF80914503882309F46E
:1031F00065CF853009F462CF8091E80083FD5ECF12
:103200008091E80082FD8DCF8091E80080FF83CF20
:103210009091F3008091F2002115310519F088306A
:10322000910550F041E0089709F040E08091E800F6
:103230008E778093E8006FCF44914093F1003196F0
:10324000215031090196E8CF803809F0E8CE80910D
:10325000E800877F8093E800809146038093F10027
:1032600087CE8111DCCE10914903123008F0D7CE01
:103270008091E800877F8093E800109346030E94C6
:103280003204112311F084E005C08091E30087FD32
:10329000FACF81E08093450342E061EC81E00E9437
:1032A000510442E261EC84E00E94510442E261EC8C
:1032B00082E00E94510442E260EC83E00E945104EB
:1032C000AECE80914903813009F0A9CE81E09330E0
:1032D00009F080E0809344031092E9008091E800B7
:1032E000877F8093E8000E94320499CE6091AA0300
:1032F000669570E04BE050E088E091E00E949F2CE2
:10330000892B19F481E0809315030E94580590934E
:1033100004038093030308959091AA0390FF36C09D
:103320009170811129C092609093AA03662351F095
:103330006091AA037091AB038091AC039091AD03AF
:103340000E947F156091AA03669570E04BE050E003
:1033500088E091E00E949F2C892BA9F01092150320
:1033600081E08093060320E04091AD036091AC03BF
:103370008091AB030C9491158B3210F09465D4CFEF
:10338000880F982BD1CF0E947619EACF08958091AB
:10339000AA038695815009F48AE261E00C948C19A5
:1033A0008091AA0386958F5F8B3208F081E061E0FF
:1033B0000C948C199091AA0390FF07C096959817CA
:1033C00020F0961710F40C94D01961E00C948C192D
:1033D0003F924F925F926F927F928F929F92AF92A5
:1033E000BF92CF92DF92EF92FF920F931F93CF93F2
:1033F000DF9300D000D00F92CDB7DEB77C01DC01A7
:1034000013968D919C911497892B41F08C91119674
:103410009C9189238F3F11F00C9443220F900F90C1
:103420000F900F900F90DF91CF911F910F91FF9010
:10343000EF90DF90CF90BF90AF909F908F907F9054
:103440006F905F904F903F9008950E94DD0A182F73
:10345000682F89819A810E943C0669817A81812F37
:103460000E9451098C01F7018281811111C0D7019D
:1034700012968C9181114AC000313FE5130709F47F
:1034800004C101314FE5140709F0CDC682E0FEC04A
:1034900080912C018F3F59F3B6E1CB2EB1E0DB2EAA
:1034A000B12CA12C9924939480912C01082E000C0E
:1034B000990B8A159B05DCF2F60186818823F9F0C9
:1034C000818592858017910739F4809185029091CA
:1034D00086028017910799F0D6011F969C921F973C
:1034E0001C961C930E931B9751968C91811103C0CF
:1034F000C6010E943707C60106960E945807BFEF13
:10350000AB1ABB0AE6E1CE0ED11CCECF98012251F8
:103510003F452031310508F07CC68FEF93E00E94D3
:10352000AC2C0251A6E0CA2EA2E0DA2E882389F143
:103530008091E802877009F471CFD70112968C91BF
:10354000882309F46BCF82E00F900F900F900F90BB
:103550000F90DF91CF911F910F91FF90EF90DF902F
:10356000CF90BF90AF909F908F907F906F905F9023
:103570004F903F900C94E110C114F4E0DF06C1F2CB
:10358000C6010E94AC2C811101C001502FEFC21A5C
:10359000D20A0111F1CF1C821B82BB24B394FAE042
:1035A000AF2E86010F5F1F4FC6010E94AC2C89838E
:1035B0001A82882309F4BCCF9FEF980F933020F52F
:1035C0008A83B98232E0C30ED11CC8010E94AC2CA0
:1035D0008B83882309F4ACCF8E010F5F1F4FD80176
:1035E0008C918823F1F2813009F046C011969C91AC
:1035F000119712968C91913049F40E5F1F4F0E94E3
:10360000FA0C0F5F1F4FEBCF6801E6CF923029F421
:103610000E5F1F4F0E944D0CF4CF933029F40E5FC4
:103620001F4F0E94E806EDCF943019F00F5F1F4F37
:10363000E8CF0E5F1F4F30E020E0B8016F5F7F4F93
:10364000F80141818053990B8A30910550F0215047
:103650003109B8F28FE99FE00197F1F700C000004F
:10366000F6CFA29EF001A39EF00D11249C012E0F17
:103670003F1F842F8B01E1CF0E947B0DC2CF81E0E1
:103680000E94F9100E94A21053CF81E00E94BE1048
:10369000F9CF82E0F5CF882369F18091840281110E
:1036A00006C081E08093840282EE0E944D0C0E944D
:1036B000580590938302809382028BE20E944D0C06
:1036C000BCC58823A1F080918402811106C081E0ED
:1036D0008093840282EE0E944D0C0E9458059093C4
:1036E00083028093820281EE0E944D0CE6CF81EE30
:1036F0000E94E8068BE20E94E8069FC5882309F431
:10370000EAC5FA018189882309F4E5C5C501845E0B
:103710009E4F0E945807DFC582EE0E944D0C20C6C6
:1037200088E193E00E94E10D88E193E00E94F808AF
:1037300017C682EE0E944D0C87E50E94FA0C10C657
:1037400086EE0E94FA0C88E1F8CF895A23C682EEF1
:103750000E94E80637C68CE20E94FA0C809188022B
:10376000882309F42FC689E30E94FA0C2BC688E24D
:10377000FBCF083FFCE51F0789F4D70112968C9117
:103780008823C9F010929A0210922D0110929C0287
:1037900010929B0281E00E94160E27C680912D0197
:1037A000093FBCE51B0739F4F7019281992319F011
:1037B0008111E8CF17C6D0902D01DD2021F11092A4
:1037C0009E0210929D02C12C65E0562E882483949F
:1037D000912C4424439460909D0270909E0282E05C
:1037E0006816710468F180919F02882309F4ADC0C6
:1037F0000E94580590939C0280939B0280E00E9457
:10380000160EC11095CE033FBCE51B0709F4D3C0CB
:1038100008F04EC6083DFCE51F0709F4C8C0093D85
:103820002CE5120709F4D3C0073D3CE5130709F066
:10383000DCC526E241EE61EEC7010E94170D78CE8D
:10384000569CF001579CF00D1124E25DFE4F8081E3
:1038500091813FEF20E0E22FF0E0EE0FFF1FE80F35
:10386000F91F459154910417150709F4322F452B80
:1038700011F02F5FF0CF3F3FE9F4312CC328DD205A
:1038800059F0569CF001579CF00D1124E25DFE4F5B
:10389000DD24D39484818111D12C5D2D5170D52EDE
:1038A00080919D0290919E02019690939E0280933A
:1038B0009D0291CF30909A02D70112969C91569C0E
:1038C000F001579CF00D1124E25DFE4F84815401FC
:1038D00001C0AA0C3A95EAF79923B9F0A82AA48264
:1038E000332059F2C40102C0880F991F2A95E2F7CC
:1038F0000197A816190611F682819381009711F09D
:103900000E94E10D40929F02B9CFA40102C0440F72
:10391000551F2A95E2F79A012150310982171306A3
:1039200091F482819381009711F00E94F808569CCF
:10393000F001579CF00D1124E25DFE4FA0948481AC
:10394000A822A4829BCF312CF2CFC1100EC081E0FF
:103950000E94160EDD2009F456CF10929C021092A0
:103960009B0281E080939A024ECFD70112968C91F0
:10397000882309F4DDCD80919A02882309F4D8CDFB
:103980000E94580590939C0280939B02E0919902BB
:10399000E83008F0CDCD81E08E0F80939902F0E001
:1039A000EE0FFF1FE757FD4F11830083C1CD27E2C4
:1039B00045EE65EE41CF26E241EE60EE3DCF27E2D7
:1039C00045EE64EE39CF26E241EE62EE35CF28E2D5
:1039D00041E0EFCF8091FB0280610630FCE51F07DC
:1039E00009F48BC08091FB02886007301C4508F405
:1039F00084C08091FB02806280C08091FB028D7F39
:103A00000C303CE5130709F478C070F48091FB0298
:103A10008C600A305CE5150709F46FC008F47CC0BF
:103A20008091FB028E7F69C08091FB02877F0E3000
:103A30009CE5190709F461C08091FB028B7F0F3070
:103A40001C4508F45AC08091FB028F7E56C00B3F84
:103A5000BCE51B0709F458C030F50331FCE51F072E
:103A600009F468C078F401313CE5130709F45EC03D
:103A700002311C4509F0F7C40E949A168091FB029E
:103A80008F773BC005315CE5150709F45BC008F48E
:103A90006FC08091FC0281600A3F1C4509F0E3C4BD
:103AA0008093FC02E0C40F3FACE51A0709F446C05E
:103AB00088F48091FC028D7F0D3FECE51E0781F3B9
:103AC0008091FC028E7F0E3F1C4550F38091FC02DA
:103AD0008360E6CF01302DE5120709F452C0F0F102
:103AE00060E002301D4509F0BEC48EE090E00E9407
:103AF000C02CB9C48091FB0281608093FB02B3C4E7
:103B00008091FB028460F9CF8091FC028260C8CF73
:103B10008091FB028064F1CF0E949A168091FB0293
:103B20008068EBCF8091FB028F7DE7CF8091FB0215
:103B30008F7BE3CF8091FB02837FDFCF8091FC02FC
:103B40008C7FAECF8091FB0282FB992790F921E018
:103B5000922790FB82F990FB83F9CFCF8091FC02F2
:103B6000982F909591708E7F892B90FB81F998CF3B
:103B70000E949A169091FB02892F97FB87F9805833
:103B8000BCCF61E0B2CF8091EB0206315CE5150756
:103B900009F0AAC48A7A91E009F490E09093A00217
:103BA000811106C089E20E94E1050E947105C0CC26
:103BB00085E3F9CF85E395C48091AA0380FF1BC0FC
:103BC0008E7F8093AA036091AA037091AB038091CA
:103BD000AC039091AD030E947F15109215038FEFF7
:103BE00090E7A2E081509040A040E1F700C00000C3
:103BF0000E94350E9DCC81608093AA0361E086957A
:103C00000E948C1995CC47EC59E160ED79E10E9456
:103C1000A2078ECC40ED59E167EC79E1F8CF46E59B
:103C200056E16FE576E1F3CF4FE556E166E576E1E3
:103C3000EECF4EE356E16AE476E1E9CF4AE456E19D
:103C40006EE376E1E4CF46E256E162E376E1DFCF70
:103C500042E356E166E276E1DACF48E656E169E70B
:103C600076E1D5CF49E756E168E676E1D0CF61E06D
:103C700081E0C6CF65E082E00E94DA1959CC68E0A5
:103C800086E0FACF6EE089E0F7CF64E18FE0F4CF11
:103C900067E185E1F1CF61E088E1B2CF62E289E1DD
:103CA000EBCF61E083E2ACCF0115BCE51B0709F463
:103CB00048C00E3D1C4509F451C0F7010081118137
:103CC000992309F44EC0C8010E94DD0AD82E682F3E
:103CD000C8010E943C06B8018D2D0E945E098C012E
:103CE000882ED7011296DC9012971596AC90A2946C
:103CF0003FE0A3228091E8028770A1F0CD2CDD2067
:103D000091F0812F807F803421F080E2800F883015
:103D100048F082E00E94E1108091E8028770CC2494
:103D2000C3948111C12CB12EB2942FE0B222BBE01A
:103D3000BB1508F44DC0EB2DF0E0EF58F24D0C949C
:103D4000272C0E949A16FFEF24E33CE0F15020401C
:103D50003040E1F700C000000E94290C0E941515B8
:103D6000E7CBC8010E941506D82EB5CFE12FEF7022
:103D7000AE2E107F19F0A29490EFA922DD20C9F099
:103D8000AA2069F080E2800F883010F081100BC00B
:103D90008091EB02A82AA092EB020E947105802F6D
:103DA0000E944D0C15C08091EA02A82AA092EA0256
:103DB000F4CF802F0E94E806AA2051F0005E083060
:103DC00010F081103CC08A2D0E946A050E94710586
:103DD000AB2DA850BB0B149720F40E94DC060E9468
:103DE000B008CC2009F41ACB8091E80280FD16CBF4
:103DF000F70112828595859585950E94F910C70176
:103E00000E94E8198091E8028595859585950F9027
:103E10000F900F900F900F90DF91CF911F910F9106
:103E2000FF90EF90DF90CF90BF90AF909F908F90DA
:103E30007F906F905F904F903F900C94BE10A09435
:103E40008091EA02A822A092EA02C0CFF12FFF706F
:103E50009F2E107F103219F0929480EF98228820C4
:103E600089F021E0821679F1DD20D1F1AA2089F1D3
:103E7000D70115968C91159780FF91CF8F7015966D
:103E80008C9327C0DD2091F09091EC02892D892B35
:103E9000A11003C00E948E069BCF31E0A312FACF7F
:103EA000981709F495CF8093EC0292CFA11006C029
:103EB0000E946405892D0E9487068ACF41E0A416DE
:103EC00009F486CFF5CFDD2031F055E05A1508F41E
:103ED0007FCF892DDFCF84E08A1508F479CFEACF30
:103EE000AA2041F3B9E38B1209C0EFEFF7EE23E00C
:103EF000E150F0402040E1F700C00000802F0E9418
:103F0000E80666CF812F86958695837061F08130B3
:103F100009F05ECFC8019370D11002C090E080E03C
:103F20000E94980655CFC8019370D11002C090E04E
:103F300080E00E94AE064CCF812F837009F066C0EE
:103F4000D11046CF802F829586958770880F880F75
:103F5000602F6F70462E512C712C612C082E04C0DE
:103F6000440C551C661C771C0A94D2F740E050E0C4
:103F7000BA0104FF0FC04FE050E060E070E004C001
:103F8000440F551F661F771F8A95D2F740955095AD
:103F900060957095812F869586958370823019F192
:103FA000D8F40091ED021091EE022091EF023091D1
:103FB000F002813069F04429552966297729CB011F
:103FC000BA0160237123822393230E94D20600CF7B
:103FD000402A512A622A732ACB01BA016429752921
:103FE00086299729F2CF44295529662977290091F6
:103FF000ED021091EE022091EF023091F002CB0120
:10400000BA016027712782279327DFCF8695DD20AD
:1040100011F0812F8170882309F4DACE802F8295E8
:1040200086958770880F880F602F6F70462E512CF1
:10403000712C612C082E04C0440C551C661C771C86
:104040000A94D2F740E050E0BA0104FF0FC04FE0FD
:1040500050E060E070E004C0440F551F661F771FFA
:104060008A95D2F74095509560957095812F8695E9
:1040700086958370823019F1D8F400914F03109126
:1040800050032091510330915203813069F044294B
:10409000552966297729CB01BA0160237123822330
:1040A00093230E94961094CE402A512A622A732AA2
:1040B000CB01BA016429752986299729F2CF4429B1
:1040C00055296629772900914F03109150032091BB
:1040D000510330915203CB01BA0160277127822727
:1040E0009327DFCF1F70DD2029F0812F0E94F91068
:1040F000802FD0CE802F0E948706812F0E94BE1075
:1041000067CE802F32EF831609F450C0381578F04F
:1041100040EF841619F151EF851609F43FC0DD20F8
:1041200009F467C0A1103BCE812F8F713CC093EF83
:10413000891609F440C0A4EF8A12F1CFDD2009F4FA
:104140004DC01F71812F0E94F910F8E01F9FC00120
:10415000112483608093E802812F25C0DD20C9F0FF
:10416000B4E0BA1508F434CE1F7161E070E080E06D
:1041700090E004C0660F771F881F991F1A95D2F729
:1041800000914F031091500320915103309152033D
:10419000A4CFE5E0EA1508F41BCEE6CF812F8F719E
:1041A000DD2009F4ABCF0E94F91012CE812F8F7160
:1041B000DD20C9F3A3CF60E070E0CB01DD2009F47E
:1041C00070CF1F7161E070E080E090E004C0660F86
:1041D000771F881F991F1A95D2F763CF81E00E943D
:1041E000E11021E02A1508F0F3CD82E00E94E110F1
:1041F000EFCDAA2059F0893309F080CE3FEF47EE8A
:1042000053E0315040405040E1F776CE812F8F711E
:1042100075CF0031FFE51F0709F431CA01312FE5E1
:10422000120709F436CA0038AFE51A0709F433CA91
:104230000138BFE51B0709F444CAC80197558F3FF1
:10424000910511F008F047C020912C01022E000CBE
:10425000330B2817390714F480932C01F7012281BE
:1042600036E1389F5001399FB00C1124A5014A5EF8
:104270005E4F6A01DA0150962C9350979281169600
:104280008C911697992309F439CA1A961C930E93A8
:1042900019978F5F16968C930E945805F6019687A2
:1042A00085878091EC0287838091EA029091EB02EE
:1042B000892B80870190F081E02D309741F0D60165
:1042C00054966D917C91C501845E9E4F0995109323
:1042D000860200938502D70112968C91882369F09B
:1042E000C801815E9C45059740F46FE1600F6093C3
:1042F000F1028CE090E00E94C02C17FF67C0F7012C
:104300008281882309F462C0E091FE02F091FF02ED
:1043100080E0309721F00190F081E02D099586959D
:104320008170809388029091F102913029F4882362
:1043300019F089E30E94FA0C8091EB0280938702C6
:104340001092EB028091F102813009F4E9C98823CF
:1043500009F4E2C9823009F4ECC9843009F4F0C9E7
:104360008FE39CE90197F1F700C000005801E89441
:10437000B7F8ECE0CE2ED12CC5010C2C02C09695DE
:1043800087950A94E2F78F7096EF980F963008F4AD
:10439000DCC9805D0E947B0D94E0C91AD108ACEFA6
:1043A000CA16AFEFDA0641F78091F102813009F4C5
:1043B000D2C9882309F4CBC9823009F4C8C9843032
:1043C00009F4D5C9809187028093EB0210929F0275
:1043D000073FBCE51B0709F0CCC9F70182818823A0
:1043E00009F4E9C981E080932D01F70192819923B5
:1043F00009F46EC0109255030230FCE51F0708F463
:10440000C2CB06312CE5120738F098012A5F3C45F3
:104410002930310508F0B7CB0E941D099093FC02AA
:104420008093FB0200313CE5130709F47BCB08F0D5
:104430000ECB08305CE5150709F46ACB08F0DDCA3D
:1044400004309CE5190709F45BCB08F0C3CA0230BD
:10445000BCE51B0709F44ECB8091FB028260033060
:104460001C4509F44ACB6091FB021091FC0284E0E8
:1044700090E00E94C02C612F81E290E00E94C02C4D
:104480000E949A1655C885E0F701DE011196019049
:104490000D928A95E1F7D70112962C9189819A8124
:1044A00021110C94251A0E941506182F0C942D1A10
:1044B000053F4CE5140709F486CA08F480CA27E2D0
:1044C00045EE66EE063F8CE5180709F4B5C98DCFB9
:1044D00006311C4509F0F1CB8091A00281116ACB15
:1044E00089E20E94B60561CB8272F801E25CFC456C
:1044F000E431F10508F0D8CBE358F24D0C94272CA9
:104500001F93CF93DF938091A602807FA9F48091BF
:10451000A302882389F08091D802D091A7026091EC
:10452000A1027091A202A091A402B091A502C62F8F
:10453000C72316E0D81304C0DF91CF911F910895CF
:1045400090E0109711F0CF3F19F401968770F2CFE9
:10455000189F9001199F300D1124F901E855FD4F66
:1045600041814713F2CF40814613EFCF4281411181
:10457000ECCF438154814A1B5B0B483C510528F723
:104580008091A6028F7080618093A602F901E355A5
:10459000FD4F80818F708061808381EA92E00E946C
:1045A000E819DF91CF911F910C946806AF92BF92EA
:1045B000CF92DF92EF92FF920F931F93CF93DF93EF
:1045C000CDB7DEB761970FB6F894DEBF0FBECDBF93
:1045D0008C0185E0F801DE011D9601900D928A950F
:1045E000E1F7F80180819181E28021EAA22E22E0A8
:1045F000B22E6091A4027091A5026115710509F4B3
:104600003EC13091A1024091A202232F24232F3FCB
:1046100009F435C1C380D480F090A302F601E61BF3
:10462000F70BFF2009F4FBC02091A602522F507F08
:10463000E83CF10508F0BBC0511178C0FE2C4913CD
:1046400021C038131FC0E1101DC02F7020612093BE
:10465000A602C5010E94E8198091A602F80185838F
:104660008F2D61960FB6F894DEBF0FBECDBFDF91E0
:10467000CF911F910F91FF90EF90DF90CF90BF905F
:10468000AF900895CD2829F0282F29232F3F09F036
:1046900014C120E0F22FF170DF2E20FF3DC02091E9
:1046A000D8024091A70256E0241315C08D879E873B
:1046B0008D859E850E941F0B292F22952F702230F9
:1046C000F8F0243020F59F70F9F0F8019581907F83
:1046D000D9F4D12C1FC030E0529FF001539FF00D50
:1046E0001124E855FD4F6181961306C06081861341
:1046F00003C06281E61210C02F5F3F4F2770D4CFF6
:104700009F7011F0882329F3805E883010F3C80170
:104710000E94E819FD2CA4CFEE2009F4A1CF8091CE
:10472000A60281608093A602F12C9ACF491312C091
:10473000381310C0E1100EC0F8012583C8010E9493
:10474000E81986E0F801A1EAB2E001900D928A959D
:10475000E1F786CF8D879E878D859E850E94290BE8
:10476000882309F1EE20F9F08091A602803270F0E2
:104770002091A1023091A20238872F831986DB860F
:10478000CA868C87CE0107960E94E81986E0F80158
:10479000A1EAB2E001900D928A95E1F70E94802291
:1047A000FF24F3945DCFC8010E94E819F9CF51119D
:1047B0000AC081EA92E00E94E81986E0F5011192B0
:1047C0008A95E9F7B1CF49130FC038130DC0E11036
:1047D0000BC0F8012583C8010E94E81986E0F501A5
:1047E00011928A95E9F73CCF8D879E878D859E85AE
:1047F0000E94290B8823B9F2EE20A9F28091A6022B
:10480000803220F22091A1023091A2023A832983C2
:104810001B82DD82CC828E83CE010196B5CFE83C2F
:10482000F105E0F6FE2CEE2009F4BDCF491316C0C9
:10483000381314C08091A60280FD83CF982F907FFB
:1048400009F47FCFF8018583903F09F477CF982F43
:10485000907F905F8F70892B858370CF8D879E8727
:104860008D859E850E94290B811190CF8091A60293
:1048700081608093A602C8010E94E819F1CEEE2063
:1048800009F491CF8D879E878D859E850E94290B87
:10489000F82E882309F487CF86E0F801A1EAB2E078
:1048A00001900D928A95E1F78091A1029091A20268
:1048B0000E941F0B0E948022D3CE21E02E25EACE3B
:1048C0001F93CF93DF93CDB7DEB767970FB6F894FA
:1048D000DEBF0FBECDBF342F4B8B252F5C8B6D8B76
:1048E0007E8B8F8B8E899F8961111092EA021A8AC2
:1048F000198A3D872E876F87998B888B86E0FE010A
:104900003D96DE01179601900D928A95E1F7CE0152
:1049100007960E94D622882389F016E08091D8025B
:104920009091A702891349C067960FB6F894DEBF2D
:104930000FBECDBFDF91CF911F91089586E0FE019C
:104940003796DE01119601900D928A95E1F78A85DE
:104950009B85892B11F38F81988589238F3FE9F2FD
:104960002091A70230E0C9010196877099274091F4
:10497000D8024817190671F40E949A161092A702DD
:104980001092D80286E0E1EAF2E0DF011D928A95FA
:10499000E9F7C3CF96E0929FD001939FB00D112409
:1049A000A855BD4FFE01319601900D929A95E1F701
:1049B0008093A7020E946806B0CF819FC001112496
:1049C00088559D4F0E94D622882309F4ADCF80914F
:1049D000D80290E00196877099278093D8029ECFE5
:1049E0001F920F920FB60F9211242F933F934F9364
:1049F0005F936F937F938F939F93AF93BF93CF9367
:104A0000DF93EF93FF93D091E900DF708091EC008A
:104A1000C82FC17080FDC0E81092E9008091F000BD
:104A2000877F8093F00078940E94AF161092E9007F
:104A30008091F00088608093F000CD2BCF70C09300
:104A4000E900FF91EF91DF91CF91BF91AF919F91DD
:104A50008F917F916F915F914F913F912F910F9027
:104A60000FBE0F901F9018951F920F920FB60F92C6
:104A700011242F933F934F935F936F937F938F9363
:104A80009F93AF93BF93EF93FF938091E10082FFD9
:104A900009C08091E20082FF05C08091E1008B7F18
:104AA0008093E1008091DA0080FF24C08091D800DB
:104AB00080FF20C08091DA008E7F8093DA008091A1
:104AC000D90080FF9BC080E189BD82E189BD09B426
:104AD00000FEFDCF81E0809345038091200381118A
:104AE00009C00E94B8030E9483048091E2008460A0
:104AF0008093E2008091E10080FF17C08091E20086
:104B000080FF13C08091E2008E7F8093E20080914D
:104B1000E20080618093E2008091D80080628093FF
:104B2000D80019BC85E0809345038091E10084FFA3
:104B300029C08091E20084FF25C080E189BD82E127
:104B400089BD89B5982F917080FFFBCF8091D800E7
:104B50008F7D8093D8008091E1008F7E8093E1006B
:104B60008091E2008F7E8093E2008091E20081607C
:104B70008093E20080914603882309F445C084E0D5
:104B8000809345038091E10083FF27C08091E2007C
:104B900083FF23C08091E100877F8093E10082E062
:104BA00080934503109246038091E1008E7F8093AD
:104BB000E1008091E2008E7F8093E2008091E2002C
:104BC00080618093E20042E060E080E00E94510456
:104BD0008091F00088608093F000FF91EF91BF9189
:104BE000AF919F918F917F916F915F914F913F9185
:104BF0002F910F900FBE0F901F90189519BC109217
:104C000045031092200376CF8091E30087FD93E067
:104C100090934503B7CFCDB7DEB7EE970FB6F894B4
:104C2000DEBF0FBECDBF84B7877F84BF0FB6F894B9
:104C3000A895809160008861809360001092600068
:104C40000FBE80E890E00FB6F894809361009093D7
:104C500061000FBE85B7806885BF85B7806885BF56
:104C600083E495E09093C9018093C8010E94B80342
:104C70000E9483048091E20084608093E200789433
:104C8000809145038823A1F01091E9001F70909155
:104C9000EC00892F817090FD80E8182B1092E900BC
:104CA0008091E80083FD0E94AF161F701093E90009
:104CB00082E084BD93E095BD9AEF97BD80936E002E
:104CC00080EF0E94560884E30E94560885E30E9404
:104CD000560886E30E94560886E60E94560887E634
:104CE0000E94560886EF0E94560887EF0E945608D9
:104CF00083E90E94560886E90E945608E5EFF2E033
:104D0000A6E1B3E011921D9222E0EB3FF207D1F74A
:104D10000E9450138FE39CE90197F1F700C0000057
:104D20000E9450138091160380FF17C06FEF82E23C
:104D300090E00E94C02C6FEF83E290E00E94C02CB4
:104D40006FEF84E290E00E94C02C6FEF7FEF90E065
:104D500080E00E94DE2C0E94290C90E080E00E94FE
:104D6000BA2C8B3E9E4F11F00E941515509A589AFE
:104D7000559A5D9A549A5C9A8CE090E00E94AC2C13
:104D800090E0B0E0A0E08093F1029093F202A09353
:104D9000F302B093F40282E290E00E94AC2C8132E4
:104DA00009F0A6C483E290E00E94AC2C853009F0A3
:104DB0009FC484E290E00E94AC2C843209F098C435
:104DC00090E080E00E94BA2C8B3E9E4F11F00E9432
:104DD000151582E090E00E94AC2C80930D030E9498
:104DE0001D099093FC028093FB0283E090E00E94F7
:104DF000AC2C682F70E090E080E00E94D2066091B9
:104E00004F037091500380915103909152030E947F
:104E1000D90E8091FD02811136C090E080E00E94A1
:104E2000BA2C8B3E9E4F21F00E9415150E948A16C7
:104E300088E090E00E94B42C6093AA037093AB03C7
:104E40008093AC039093AD036E7F71F40E948A1639
:104E500088E090E00E94B42C6093AA037093AB03A7
:104E60008093AC039093AD030E94A70710921503A3
:104E70008091AA0380FF04C060E086950E948C198F
:104E800081E08093FD025198599A52985A9A89B1BB
:104E9000869581704A9965C190E0892B80930B03B8
:104EA0008091AA0381608093AA0361E086950E94A5
:104EB0008C1960E081E20E948C1921E04EE16FEFD5
:104EC0008AE30E94911588E391E09093FF0280931A
:104ED000FE0298E1C92ED12C20E4622E86E193E0F7
:104EE00036E0732E780E80914503BB24B39400E125
:104EF00012E1853009F489C10E945013882359F0CA
:104F00008FB7F89440911C0350911D0360911E03CC
:104F100070911F038FBFEEE0F3E0A6E1B3E010E075
:104F200000E0302F8D919191981709F490C1292FAD
:104F3000282790E0BB24B394422F4B2109F482C16F
:104F40009DAB3EAB8B2191E009F490E09FAB0E94BA
:104F500058058160782F99AF88AF4DA95EA96FA9D8
:104F600089AD0E946024F801E25FFC4F8081B82681
:104F7000B082809115038823D1F180911403E091D0
:104F8000AA03E695E81BE0930503823009F076C199
:104F9000F0E0E75BF94FE4910E2F10E08CE2A82ED1
:104FA00083E1B82E80910603882361F010920603F6
:104FB0000E94580590930403809303031092080302
:104FC000109207030E945805E0910303F091040337
:104FD0008E1B9F0B8F3F9F4750F4E00FF11FF09304
:104FE0000403E093030383E093E0F5010995E09166
:104FF0000B03EE0FEE0FE0930B0389B181FBEE2460
:10500000E0F84A99A7C180E08E29E82BE0930B03D2
:10501000EF70F0E0E755FE4F808190910A03890F11
:1050200080930A0320E084302CF1809109038F5F84
:105030008093090318AA19AA81E08AAB0E94580537
:105040008160782F9CAB8BAB48A959A96AA98CA920
:105050000E9460241BA61CA61DA60E945805816004
:10506000782F9FA78EA74BA55CA56DA58FA50E9445
:10507000602421E080910A038D3F34F5809109037B
:1050800081508093090312E01EA31FA281E088A72C
:105090000E9458058160782F9AA789A74EA15FA129
:1050A00068A58AA50E94602419A31AA21BA20E94C7
:1050B00058058160782F9DA38CA349A15AA16BA1AB
:1050C0008DA10E94602421E080910A03082E000C2B
:1050D000990B64E070E00E94132C80930A03222352
:1050E00059F08FB7F89440911C0350911D036091C3
:1050F0001E0370911F038FBF0E94DC0690910C036A
:10510000891731F00E94DC0680930C030E94B008DE
:1051100080914503843009F0E6CE83E08093E90076
:105120008091E80082FFDFCE8091E80090E085FF6B
:1051300006C00E94D703882309F40FC191E0809133
:10514000E8008B778093E800992309F4CCCEE981BD
:10515000E150E33108F083C1F0E0EF56F24D0C94DA
:10516000272C92E09ACE80914503843009F440C008
:1051700080E00E94B0081092150380910203811113
:1051800016C0B09202038091AA03982F9170909359
:1051900001038E7F8093AA038FEF90E7E2E08150B6
:1051A0009040E040E1F700C000000E94350E1092F0
:1051B00000030FB6F894A895C09260000FBE6092ED
:1051C000600083B7817F846083BF83B7816083BFC2
:1051D0007894889583B78E7F83BF0FB6F894A8958F
:1051E00080916000886180936000109260000FBE23
:1051F00080914403882349F00E945013E6E1F3E0D4
:10520000819181115FC27E12FBCF80914503853071
:1052100009F4A9CF0E949A160E94DC060E94B008E9
:105220001092020380910103882349F08091AA0320
:1052300081608093AA0360E086950E948C190E9489
:1052400076195ACE9F5FBB0C943009F075CE0F5F74
:105250001F4F0630110509F064CE8FEF8AAF8BAF78
:105260001CAE0E9458058160782F9EAF8DAF4AAD6D
:105270005BAD6CAD8EAD0E9460247BCE863059F460
:10528000F0E0EA5BF94FE4910E2F10E0B0E4AB2EB2
:10529000B3E1BB2E87CE893061F4E695F0E0ED5B9B
:1052A000F94FE4910E2F10E0AAE1AA2EA1E1BA2E47
:1052B00079CE8F3061F4E695F0E0E05CF94FE4914F
:1052C0000E2F10E0F4E4AF2EF1E1BF2E6BCE85314E
:1052D00059F4F0E0E35CF94FE4910E2F10E0E2EBBB
:1052E000AE2EE1E1BE2E5ECE08E210E050E0A52E2B
:1052F00052E1B52E883109F455CE833249F4EBE3FF
:10530000F6E00591149173EDA72E72E1B72E4ACE07
:1053100004EF11E049E8A42E42E1B42E843209F4EE
:1053200041CE00ED17E032E4A32E35E0B32E8532F6
:1053300009F038CE8E2F63E00E94E52BE92FF0E0D4
:10534000E85CF94FE4910E2F10E066E6A62E64E1CA
:10535000B62E28CE82E090E057CE00E210E0CE01DB
:1053600001965C018091E80085FD0AC08091E8000B
:105370008B778093E8000E94D703882399F3DECED1
:105380008091F100F50181935F010150110951F7FE
:10539000D5CE1A8289E08B832DC08A81823009F4B0
:1053A000C0C18330A9F0813009F059C02FB7F894FB
:1053B00060911C0370911D0380911E0390911F0347
:1053C0002FBF0E942D2C6B837C838D839E8312C004
:1053D000809116038B83809117038C83809118032F
:1053E0008D83809119038E8380911A038F8380911E
:1053F0001B03888780914503843009F074CD109198
:10540000E9001F709091EC00892F817090FD80E879
:10541000182B82E08093E9008091E80080FF0DC0A6
:1054200050E040E060E270E0CE0101960E94080486
:105430008091E8008E778093E8001F701093E90058
:1054400052CD8A81823059F46B817C818D819E811D
:105450000E942D2C85E290E00E94C02CCBCF8FEFD4
:105460008983C8CF4C816B818A810E942B09982740
:10547000892798279E838D83BDCFAD80BE80BA24B7
:10548000AB24BA248A810B81F8E00F9F800111249C
:1054900020E3829F000D111D11248C8190E0880F64
:1054A000991F080F191F6B2DC80186960E94C02CEA
:1054B0006A2DC8018796D0CF0E944D0B9BCF8A8161
:1054C0008138C1F060F4803809F094CF20E04B813E
:1054D0006091AC038091AB030E9491158BCF823811
:1054E00059F1833809F086CF20E04091AD036C81FB
:1054F0008B81F2CF60E08B810E948C199B8180911F
:10550000AA03911111C08E7F8093AA0310921503F4
:105510008FEF90E7E2E081509040E040E1F700C07B
:1055200000000E94350E66CF81608093AA0360E080
:1055300086950E948C195ECF8B818093AE035ACFE3
:105540008A81813899F030F4803809F053CF809106
:10555000AD0321CF823891F0833809F04BCF809191
:10556000AB038B838091AC038C8344CF8091AA03DF
:1055700080FF02C086950FCF80E00DCF8091AE03F3
:105580000ACF6091AA037091AB038091AC03909114
:10559000AD030E947F152ECF80E18A832BCF81E05F
:1055A0008A838AEFF8CE8A809B8098248924982465
:1055B0008E010F5F1F4FAC80A00EB12EB11CC40135
:1055C0008A5F9D4FA016B10609F414CFFAEF8F162B
:1055D000F1E09F0650F40E94AC2CF8018483FFEFA9
:1055E0008F1A9F0A0F5F1F4FEACFF8011482F7CF7F
:1055F0000A811B81102701271027CE0101964C013B
:10560000AC80A00EB12EB11CC8018A5F9D4F0A1557
:105610001B0509F4EFCE0A3FE1E01E0720F4F40178
:1056200064810E94C02CFFEF8F1A9F0A0F5F1F4FEB
:10563000EBCF0E949F0BDECE8AE0AFCFAA80BB806B
:10564000BA24AB24BA248E010F5F1F4F8C80800ECA
:10565000912E911CC50186968016910609F4CACE3A
:1056600020EEA21621E0B20650F40E94AC2CF80104
:105670008483FFEFAF1ABF0A0F5F1F4FEBCFF80114
:105680001482F7CF0A811B81102701271027CE0132
:1056900001964C01AC80A00EB12EB11CC8018696BB
:1056A000A016B10609F4A6CE003EE1E01E0720F4E4
:1056B000F40164810E94C02CFFEF8F1A9F0A0F5FD4
:1056C0001F4FECCF09BD19BD09B400FEFDCF80917D
:1056D000D8008F7D8093D8008091E0008260809315
:1056E000E0008091E00081FDFCCF0E949A168DCDF4
:1056F00060E085E290E00E94C02C0E944D0B0E9469
:105700009F0B61E282E290E00E94C02C65E083E2A0
:1057100090E00E94C02C64E284E290E00E94C02CE1
:105720004FCB85E290E00E94AC2C1B821C821D8234
:105730008E8360CE78941F921FB61F9211248F9390
:105740009F93AF93BF9380911C0390911D03A091F1
:105750001E03B0911F030196A11DB11D80931C0370
:1057600090931D03A0931E03B0931F03BF91AF91AD
:105770009F918F911F901FBE1F9018951F921FB66B
:105780001F9211248F939F93AF93BF938091000337
:10579000811113C080911C0390911D03A0911E03E1
:1057A000B0911F034196A11DB11D80931C039093DE
:1057B0001D03A0931E03B0931F03BF91AF919F9150
:1057C0008F911F901FBE1F901895991B79E004C000
:1057D000991F961708F0961B881F7A95C9F7809530
:1057E000089587FB082E062687FD819567FD619544
:1057F0000E94E52B0EF4919507FC81950895AA1B54
:10580000BB1B51E107C0AA1FBB1FA617B70710F0AB
:10581000A61BB70B881F991F5A95A9F780959095DD
:10582000BC01CD01089597FB072E16F4009407D014
:1058300077FD09D00E94FF2B07FC05D03EF4909520
:1058400081959F4F0895709561957F4F0895EE0F54
:10585000FF1F0590F491E02D099469279627692789
:1058600078278727782708950E94482D332312F43C
:105870008A1B9B0B0C943E2C0E94482DB7FF089569
:10588000821B930B08958F929F92AF92BF92CF92FB
:10589000DF92EF92FF92CF93DF93EC0168817981E1
:1058A0008A819B81611571058105910521F464E26E
:1058B00079ED8BE597E02DE133EF41E050E00E9478
:1058C000F42C49015A019B01AC01A7EAB1E40E9402
:1058D000132D6B017C01ACEEB4EFA50194010E9485
:1058E000212DDC01CB018C0D9D1DAE1DBF1DB7FF11
:1058F00003C00197A109B04888839983AA83BB8319
:105900009F77DF91CF91FF90EF90DF90CF90BF9086
:10591000AF909F908F9008950E94432C089580E04F
:1059200091E00E94432C0895B0E0A0E08093000134
:1059300090930101A0930201B09303010895FC012B
:105940004150504030F001900616D1F73197CF0109
:105950000895882799270895F999FECF92BD81BDB2
:10596000F89A992780B50895A6E1B0E044E050E0A8
:105970000C94E62CA8E1B0E042E050E00C94E62C58
:10598000262FF999FECF92BD81BDF89A019700B4F8
:10599000021639F01FBA20BD0FB6F894FA9AF99A98
:1059A0000FBE08950396272F0E94C12C0E94C02C81
:1059B000252F0E94C12C242F0C94C12C0196272F37
:1059C0000E94C12C0C94C02CDC01CB01FC01F99984
:1059D000FECF06C0F2BDE1BDF89A319600B40D923B
:1059E00041505040B8F70895052E97FB1EF40094DF
:1059F0000E940B2D57FD07D00E94262D07FC03D0D7
:105A00004EF40C940B2D50954095309521953F4FB9
:105A10004F4F5F4F089590958095709561957F4F9A
:105A20008F4F9F4F08950E94482DA59F900DB49FC2
:105A3000900DA49F800D911D11240895B7FF0C9423
:105A4000132D0E94132D821B930B0895A1E21A2E91
:105A5000AA1BBB1BFD010DC0AA1FBB1FEE1FFF1F12
:105A6000A217B307E407F50720F0A21BB30BE40B62
:105A7000F50B661F771F881F991F1A9469F76095A9
:105A80007095809590959B01AC01BD01CF01089563
:105A9000A29FB001B39FC001A39F700D811D11246F
:105AA000911DB29F700D811D1124911D0895F894D0
:105AB000FFCF380B380B410B410B430B410B410B14
:105AC000410B380B380B480B410B410B480B94171B
:105AD000BC170F18BC170F18EF1727180F18241929
