:100000000C94BF030C9406040C9406040C94060490
:100010000C9406040C9406040C9406040C94060438
:100020000C9406040C9406040C94F6250C94B2254A
:100030000C942E2D0C9406040C9406040C940604C7
:100040000C9406040C9406040C9406040C94060408
:100050000C9406040C940A2D0C9406040C940604CB
:100060000C9406040C9406040C9406040C940604E8
:100070000C9406040C9406040C9406040C940604D8
:100080000C9406040C9406040C9406040C940604C8
:100090000C9406040C9406040C9406040C940604B8
:1000A0000C9406040C9406040C940604580060009A
:1000B000000058005E00000058005D00000058007D
:1000C0005C00000057006000000057005F00000067
:1000D00000000FFF78FF000000000000D7FF78FF4E
:1000E00000000000000080FF64FF0000000000002E
:1000F00005FF78FF0000000000005FFF5AFF0000CE
:10010000000005010902A10185020901A1000509FC
:1001100019012908150025019508750181020501BD
:10012000093009311581257F950275088106093846
:100130001581257F950175088106050C0A38021581
:1001400081257F950175088106C0C005010980A140
:1001500001850319012AB700150126B7009501751D
:10016000108100C0050C0901A101850419012AA014
:1001700002150126A002950175108100C005010934
:1001800006A1018505050719E029E7150025019558
:1001900008750181020507190029EF150025019551
:1001A000F075018102050819012905950575019170
:1001B00002950175039101C00660FF0961A1010963
:1001C00062150026FF00952075088102096315005D
:1001D00026FF00952075089102C005010906A101BE
:1001E000050719E029E71500250195087501810229
:1001F0009501750881010507190029FF150026FFE3
:1002000000950675088100050819012905950575F1
:10021000019102950175039101C0000000000000EA
:1002200000000000000000000000000000000000CE
:1002300000000000000000000000000000007E0F31
:1002400000D4FFFFFFC7000000780000000000009E
:1002500000002A2B28000000000000000000000021
:10026000000000000029000000002C1E3420212284
:1002700024342627252E362D3738271E1F202122ED
:10028000232425263333362E37381F040506070866
:10029000090A0B0C0D0E0F10111213141516171856
:1002A000191A1B1C1D2F3130232D35040506070894
:1002B000090A0B0C0D0E0F10111213141516171836
:1002C000191A1B1C1D2F3130354C00010101010191
:1002D00001010101020202020202020202030303FF
:1002E00003030303030404040404040405050505CF
:1002F000050606060606070707070708080808098F
:100300000909090A0A0A0B0B0B0C0C0C0D0D0D0E3A
:100310000E0E0F0F0F1010111111121213131414CF
:10032000151516161717181819191A1A1B1B1C1D44
:100330001D1E1E1F2020212222232424252626279D
:100340002829292A2B2C2D2D2E2F303132323334CF
:1003500035363738393A3B3C3D3E3F4041424344D5
:1003600045464748494A4C4D4E4F505153545556B7
:1003700058595A5B5D5E5F616264656668696B6C63
:100380006D6F7072737577787A7B7D7E80828385DE
:1003900087888A8C8E8F91939596989A9C9EA0A21E
:1003A000A3A5A7A9ABADAFB1B3B5B7BABCBEC0C228
:1003B000C4C6C9CBCDCFD1D4D6D8DBDDDFE2E4E7EC
:1003C000E9EBEEF0F3F5F8FAFDFFFFAA7F554008E0
:1003D0000706050D0C0B0A11100F161514131A1829
:1003E0001B120903010002040E17192223252628D7
:1003F000292A2C2D2F3032333536383A3B3D3E40BA
:1004000042434547494A4C4E5051535557595A5CFF
:100410005E6062646668696B6D6F71737577797B16
:100420007D7F81838587898A8C8E90929496989A15
:100430009C9E9FA1A3A5A7A8AAACAEAFB1B3B4B62A
:10044000B8B9BBBCBEBFC1C2C3C5C6C7C9CACBCC85
:10045000CDCED0D1D2D2D3D4D5D6D7D7D8D9D9DA58
:10046000DADBDBDBDCDCDCDCDCDDDDDDDDDCDCDCCD
:10047000DCDCDBDBDBDADAD9D9D8D7D7D6D5D4D3F5
:10048000D2D2D1D0CECDCCCBCAC9C7C6C5C3C2C1CA
:10049000BFBEBCBBB9B8B6B4B3B1AFAEACAAA8A727
:1004A000A5A3A19F9E9C9A98969492908E8C8A89DF
:1004B000878583817F7D7B79777573716F6D6B69BC
:1004C00068666462605E5C5A5957555351504E4C91
:1004D0004A4947454342403E3D3B3A383635333240
:1004E000302F2D2C2A2928262523224E007F004B31
:1004F00000000001515400550056005F006000618B
:100500000057005C005D005E00000059005A005B6F
:1005100000580062000000630000004F000100501E
:100520000000000100AD002C0053001450025303E2
:10053000532A000100010001000000010001000138
:1005400000005C005C000001000000300001002F92
:1005500000000010500500170011030D00160007E1
:10056000002D01060119011000000011011D03E119
:100570000057012C000000E2000000805F010081B4
:100580005F00001050B9004A0017012B0352002BE6
:10059000011A01500051004F000000B6002C00B7B6
:1005A0000028004E0000004B000000805F01008129
:1005B0005F00001050010001000100010052000125
:1005C000000100500051004F00000010033D0801E1
:1005D00000530068000000690000000100010001F4
:1005E0000000000100010001000100010001000104
:1005F00000010001000100010000000100010001F4
:1006000000010001000000010000000100010001E4
:1006100000000001000100010001000100010001D3
:1006200000010001000100010000000100010001C3
:1006300000010001000000010000000100010001B4
:1006400000000001000100010001000100010001A3
:100650000001000100010001000000010001000193
:100660000001000100000001000000010001000184
:100670000000000100010001000100010001000173
:100680000001000100010001000000010001000163
:100690000001000100000001000000010001000154
:1006A0000000000100010001000100010001000143
:1006B0000001000100010001000000010001000133
:1006C0000001000100000001000000F800EE00E45D
:1006D00000DA00D00000001E0F0500047F3F1F64F9
:1006E0003214643214783C1E1E140A0509025B00A1
:1006F000030100A0FA09040000010301010009211F
:10070000110100012240000705810308000A0904C5
:100710000100020300000009211101000122220052
:1007200007058203200001070503032000010904D7
:100730000200010300000009211101000122B6009E
:100740000705840320000A12011001000000084B75
:100750004115000200010200010A0350005300315C
:1007600000370000001203410054004C0041004ECD
:100770000054004900530000000403090400112440
:100780001FBECFEFDAE0DEBFCDBF04B603FE27C049
:100790008091B8039091B903A091BA03B091BB03C3
:1007A0008730904BA740B04BD1F41092B803109211
:1007B000B9031092BA031092BB0314BE84B7877FAB
:1007C00084BF0FB6F894A8958091600088618093EB
:1007D0006000109260000FBEE0E0F8E3099523E0AE
:1007E000A2ECB1E001C01D92A83BB207E1F711E015
:1007F000A0E0B1E0EAE3FEE502C005900D92A23C64
:10080000B107D9F70E94CD260C94D02E0C9400008D
:10081000E8EDF0E080818E7F80831092E2001092FC
:10082000DA001092E100A0EEB0E08C9181608C9330
:1008300080818F77808319BCA7EDB0E08C918E7F8B
:100840008C9380818F7E808310922903089520915C
:10085000E4003091E50095E6A9012091EC00822F9B
:10086000817020FF06C08091E80080FF06C080E014
:1008700008952091E80022FD1AC080914E0388233C
:1008800089F0853089F08091EB0085FD0FC02091C3
:10089000E4003091E50042175307F9F29150E1F678
:1008A00084E0089582E0089583E0089581E008954A
:1008B000EF92FF920F931F93CF937C018B010E94C5
:1008C0002704C82F811117C08091E80085FD0BC057
:1008D0008091E8008E778093E8000E9427048823A7
:1008E00099F3C82F08C0F70181917F018093F1002F
:1008F0000150110949F78C2FCF911F910F91FF9053
:10090000EF9008958091500387FF13C08091E80015
:1009100082FF06C08091E8008B778093E80004C0D6
:1009200080914E038111F2CF089580914E03882368
:10093000D9F38091E80080FFF8CF8091E8008E77AE
:10094000ECCF982F9093E900242F762F50E0891751
:1009500031F07091EC002091ED005091F00021FDFC
:1009600007C09F5F973071F78093E90081E0089599
:100970003091EB003E7F3093EB003091ED003D7FF6
:100980003093ED003091EB0031603093EB007093C9
:10099000EC002093ED005093F0002091EE0027FD35
:1009A000E0CF80E00895CF92DF92EF92FF920F9315
:1009B0001F93CF93DF93C8EDD0E088818F7E88832B
:1009C000E7EDF0E080818160808384E082BF81E098
:1009D0008093290388818E7F888302EE10E0F801DE
:1009E00010821092DA0081EEC82ED12CF60110820E
:1009F00088818F77888388818068888388818F7DCC
:100A0000888319BC10924E0310924F0310924D032D
:100A100010924C0390EEE92EF12CF70180818B7F30
:100A2000808388818160888342E060E080E00E946A
:100A3000A104F60180818E7F8083F801808181602E
:100A40008083808188608083F70180818E7F8083AE
:100A5000888180618883DF91CF911F910F91FF90F2
:100A6000EF90DF90CF900895FC0180915603909114
:100A7000570386179707A0F06115710529F4909127
:100A8000E8009E779093E80090E06115710551F4BD
:100A9000911108C08091E80082FF34C080E0089581
:100AA000BC01F2CF80914E038823C1F18530C1F1A2
:100AB0008091E80083FD30C08091E80082FDEACF9C
:100AC0008091E80080FFE1CF8091F3002091F20057
:100AD000382F6115710519F02830310558F091E073
:100AE0002830310509F090E02091E8002E7720931E
:100AF000E800CBCF81918093F100615071092F5FA5
:100B00003F4FE7CF80914E03882341F0853041F07D
:100B10008091E80083FFBECF81E0089582E00895D0
:100B200083E00895089580E0089580912B0308954F
:100B30009C014FB7F8948091250390912603A091D2
:100B40002703B09128034FBF821B930B08952FB743
:100B5000F8948091250390912603A0912703B091EA
:100B600028032FBF08958091E60281111092E602BA
:100B700008958091E5029091E402892B9091E3021F
:100B8000892B8093C4019091E6029923A1F0892BCF
:100B90008093C40180913B01882341F18091F5024B
:100BA00087FF24C08EE1E6ECF1E090E0815000F593
:100BB00091110E94B305E091FA02F091FB02309787
:100BC000E1F080913B01882359F08091F50287FF85
:100BD00007C08091C4018093C50185E08093C40162
:100BE0000280F381E02D84EC91E0099486E0DBCF74
:100BF00021912223D9F29F5FD9CF089590913B0193
:100C00009923D1F09091F50297FF16C0E82FE69551
:100C1000E695E695EE31E0F4F0E0EC53FE4F282F38
:100C2000277081E090E001C0880F2A95EAF780954F
:100C30009281892382830895E6ECF1E091918913F2
:100C400003C0DF0111971C9291E0EC3CF907B1F76A
:100C5000089590913B019923C1F09091F50297FF7F
:100C600014C0E82FE695E695E695EE31F8F4F0E04D
:100C7000EC53FE4F877021E030E001C0220F8A95CF
:100C8000EAF78281822B82830895A6ECB1E0EFEF30
:100C900090E02D91821751F0EF3F19F4211101C01E
:100CA000E92F9F5F9630A9F7EF3F09F408950E2EC4
:100CB000000CFF0BEC53FE4FE6CF990F990F890FF5
:100CC000982F977086958695869525E0829FF001EE
:100CD0001124ED52FD4F50E040E080E0219130E0E2
:100CE000092E02C0369527950A94E2F72170332722
:100CF000042E01C0220F0A94EAF7822B4F5F5F4F48
:100D00004530510559F70895990F990F890F982F7C
:100D1000977041E001C0440F9A95EAF78695869551
:100D2000869595E0899FF0011124ED52FD4F30E04A
:100D300020E070E05191DF011197CB01022E02C03B
:100D4000969587950A94E2F781708195852784238B
:100D500085278C932F5F3F4F2530310559F7089534
:100D60008091D2029091A102981301C008958F5FE3
:100D70008770FACF882341F080959091E40289230F
:100D80008093E4020C94B9050895882339F090917A
:100D9000E402982B9093E4020C94B90508958823FB
:100DA00041F080959091E50289238093E5020C94AF
:100DB000B9050895882339F09091E502982B909316
:100DC000E5020C94B90508952091780230917902DA
:100DD0002817390771F09093790280937802E09197
:100DE000FA02F091FB02309721F00084F185E02DAA
:100DF00009940895209176023091770228173907D7
:100E000071F09093770280937602E091FA02F0916C
:100E1000FB02309721F00680F781E02D09940895B8
:100E2000E091FA02F091FB02309721F00190F081FD
:100E3000E02D099480E00895FA01811101C0FB01C1
:100E400009948091B003982F9E7F61F48170826035
:100E50008093B0038091B303853B18F084EB8093BB
:100E6000B30308958635B0F381708465F1CFAF92F6
:100E7000BF92DF92EF92FF920F931F93CF93DF9376
:100E8000182F062FE901453B08F044EBE42FF0E072
:100E9000E653FD4F011110C0E4915E2F4E2F4983A0
:100EA000E8835A83DF91CF911F910F91FF90EF90CC
:100EB000DF90BF90AF900895202F30E04491D42E62
:100EC000E42EF12C56E0159FC0011124EFEFF0E065
:100ED000BF010E946F2D812F90E0880F991F55E56B
:100EE000569FD001579FB00D11248A1B9B0B982F42
:100EF000990F890F5F01A21AB30AAE9CD001AF9C73
:100F0000B00DBE9CB00D11245B2F089F80011124F1
:100F1000012F11275F01A01AB10AAE9C8001AF9C7E
:100F2000100DBE9C100D11245F01A81AB108A29EDD
:100F3000C001A39E900DB29E900D1124892F992778
:100F4000E81BF90BEE9DC001EF9D900DFE9D900DED
:100F50001124E92F62307105A1F050F4611571057B
:100F600009F49DCF6130710581F0EB2F512F97CFA0
:100F70006430710569F080F06630710509F48FCF37
:100F8000F4CFE42F4B2F592F8ACFE42F412F87CF57
:100F9000EB2F542F492F83CF4B2F5D2DE12F7FCF88
:100FA0000E94A7059C019091100380911103982B3A
:100FB00021F030930D0320930C0390911203809144
:100FC0001303982B21F030930A0320930903E09137
:100FD000FA02F091FB02309749F082E080930E0311
:100FE0000480F581E02D8EE093E00994089590E06F
:100FF00080E00E94FA0690E080E00E94E4061092F1
:10100000E4021092E3020E94B90586E0EEE0F3E00C
:10101000DF011D928A95E9F710920B0310920803E5
:1010200010929A020C94D0076093E7027093E80242
:101030008093E9029093EA020C94F7074091100321
:10104000803F59F48091110387FF0DC01092110366
:1010500041110BC010920B0308C0813F81F48091B5
:10106000110318169CF3442381F080911203909190
:101070001303892B09F05AC0109208030895823F88
:1010800049F447FFF0CF10921003809111038111B2
:10109000ECCFE0CF833F19F41416ACF3E4CF90917A
:1010A0001203893F29F41916F4F610921203DBCFCC
:1010B0008A3F19F497FFD7CFF8CF909113038B3F56
:1010C00029F497FFD0CF10921303CDCF8C3F19F4A2
:1010D0001916CCF3C8CF9CE0980F953090F4845F3C
:1010E000990B21E030E0B90102C0660F771F8A95A5
:1010F000E2F7CB01809590910F03892380930F0332
:10110000B2CF8D3F31F480919A028E7F80939A0204
:10111000AACF8E3F21F480919A028D7FF7CF8F3F27
:1011200009F0A1CF80919A028B7FF0CF0895882398
:1011300009F459C0823871F40E94100781FF53C02E
:1011400089E30E9429060E94B90589E30E94FE05F1
:101150000C94B905833859F40E94100780FF43C0EE
:1011600083E50E9429060E94B90583E5EFCF843804
:1011700059F40E94100782FF36C087E40E942906B6
:101180000E94B90587E4E2CF9CEF980F913AF0F204
:1011900090E2980F983088F4877021E030E0A90140
:1011A00002C0440F551F8A95E2F7CA0180959091BD
:1011B000E50289238093E502CBCF9BE5980F93301E
:1011C00020F490E080E00C94FA0698E5980F9731AF
:1011D00020F490E080E00C94E406803F20F00E9430
:1011E0001E080C94D007089580919A0280FD16C0C5
:1011F00081FD16C082FD16C0809108038823A1F0EE
:10120000883280F428E0829FC001112468E270E0F7
:101210000E94832D862F672B39F0089582E0089570
:1012200084E0089588E0089581E0089580919A020D
:1012300080FD14C081FD14C082FD16C080910B0397
:10124000882381F0843180F422E3829FC00111243D
:1012500064E170E00E94832D862F08958CE008954C
:1012600089E1089585E0089582E30895803F31F48F
:101270000E9416098195809311030895813F19F406
:101280000E941609F8CF823F31F40E941609819519
:10129000809310030895833F19F40E941609F8CF34
:1012A000893F29F40E94F4088093120308958A3F2D
:1012B00021F40E94F4088195F7CF8B3F31F40E940E
:1012C000F40881958093130308958C3F19F40E94CC
:1012D000F408F8CF9CE0980F953070F4845F990B78
:1012E00021E030E001C0220F8A95EAF780910F03D8
:1012F000822B80930F0308958D3F31F480919A02E1
:10130000816080939A0208958E3F21F480919A0221
:101310008260F7CF8F3FB9F780919A028460F1CF56
:10132000F894E82FE295EF70F0E031A1282F2F70AC
:1013300081E090E001C0880F2A95EAF7982F9095F8
:10134000932391A392A1892B82A3789408959091DD
:10135000F50292FF06C0282F28712830F9F4877F04
:10136000846093FF06C0282F28712831F1F4877E0E
:1013700084612091F60220FF06C0382F3871383082
:10138000D9F4877F816021FF06C0282F287128317A
:10139000D1F4877E816194FD877E0895282F247182
:1013A0002430F9F68B7F8860DCCF282F247124311C
:1013B00001F78B7E8861DDCF382F3171313019F71D
:1013C0008E7F8860E0CF282F2171213121F78E7E1A
:1013D0008861E1CF809580FF08C0589A81FF07C0DF
:1013E0005D9A82FF06C05C9A08955898F7CF5D9881
:1013F000F8CF5C980895CF93DF939C013A9521151F
:101400003F4168F5EC01CC27D170DC01AA27B2700E
:10141000AC01442754709C012227387094FF11C0FE
:1014200080E1CD2B09F480E0AB2B09F08062452BE5
:1014300009F08064232B09F08068FB01DF91CF91D4
:10144000099481E0CD2B09F480E0AB2B09F0826098
:10145000452B09F08460232B81F38860EECFDF9168
:10146000CF910895CF93DF93EC010E949708CE01AE
:10147000805E9109089720F06AEB76E0209711F4DE
:101480006FEC76E0CE01DF91CF910C94FB09CF9306
:1014900084E090E00E94252EC82F81E290E00E9417
:1014A000252E982F8C2FCF9108950F931F93CF93B4
:1014B000DF9328E0629FE001112450E0440F551FA4
:1014C000C40FD51F30E3839FC00DD11D1124CE0161
:1014D00086960E94252E082F10E0102F0027CE019F
:1014E00087960E94252E9801282BC901DF91CF9164
:1014F0001F910F910895462F8A3038F4763028F4E2
:10150000643018F4672F0C94550A90E080E0089539
:10151000CF93DF930E947B0AEC0182389105A9F1F9
:10152000D8F58133910509F496C048F589329105C3
:1015300009F48AC08A9709F495C0C11521E5D2073C
:1015400008F0BCC0C11530E5D30708F014C1C83E8F
:10155000D10508F09CC0C03ED10560F5C83AD10560
:1015600008F087C0C53AD10508F0FDC0C130D105EB
:1015700009F12097F9F0C430D105E0F440C085337B
:10158000910509F45AC0C997C1F68091F50283709C
:1015900089F0C0EED0E00EC0833E910599F170F461
:1015A000803E910501F1823E910539F68091F50268
:1015B00082FD21C0CE01DF91CF910895863E910535
:1015C00061F1873E910571F1843E910509F0B5CF37
:1015D0008091F60281FFEECF8091F502C7EED0E058
:1015E00084FD0DC0E7CF8091F50280FD12C190917E
:1015F000F60290FFDFCFC3EED0E084FFDBCFD0E078
:10160000C0E0D8CF8091F50282FD06C19091F6022C
:1016100090FDBFCF84FFCECFF2CF8091F50283FD46
:10162000DDCFC8CF8091F50283FDF9C09091F6021D
:1016300091FFF0CFC4EED0E0BDCF8091F50285FFE1
:10164000B9CFC9E2D0E0B6CF8091F50285FFB2CF25
:10165000C5E3D0E0AFCF8091F50286FFABCFCAE201
:10166000D0E0A8CF8091F50286FFA4CFC1E3D0E0FF
:10167000A1CFCF3BD10518F6C85AD0E0CC0FDD1F63
:10168000C659DE4F0990D881C02DD46493CFC115BF
:1016900040E2D40758F4C11581E0D80708F08ACF9A
:1016A000C03FD10508F4ABCFD06584CFC11590E41D
:1016B000D90708F4A4CFDF70D06A7CCFC11525E527
:1016C000D20700F5C11534E5D30708F08AC0C1156B
:1016D00043E5D40708F071C0C11582E5D80708F4C6
:1016E00067C0CE018370992721E030E002C0220F4D
:1016F000331F8A95E2F7C695C69580E2C89FE00140
:10170000112452C0C11599E5D907A8F4C11528E5DF
:10171000D20708F06BC0C11536E5D30708F06FCFCC
:101720008C2F0E94A709C82FD0E0DC2FCC27CC2714
:10173000DF71D0623FCFC1154AE5D40708F45BC022
:10174000CE0190568115904208F059CF8D2F8F71A0
:101750000E94A70990E0982F882788279F719C01F5
:101760002C2BE901E6CFC55AD0E0C959DE4FC8811C
:10177000D0E0D0641FCFCE01E4E096958795EA953E
:10178000E1F783702C2F26952695237040E2249F45
:1017900090011124382B8C2F8370C1E0D0E002C05F
:1017A000CC0FDD1F8A95E2F7C22BD32BDC6802CF6A
:1017B000DC2FCC27C16FD06AFDCECE018370992774
:1017C00021E030E002C0220F331F8A95E2F7C69570
:1017D000C69590E2C99FE0011124C22BD32BDA6891
:1017E000E9CEDC2FCC27C46FD06AE4CEDC2FCC2727
:1017F000C06FD06ADFCE8C2F8F700E94A70934E0B3
:10180000D695C7953A95E1F7CF709C2FEC01D0693A
:10181000D1CEC9E3D0E0CECEC2EED0E0CBCEC6EE84
:10182000D0E0C8CEBF92CF92DF92EF92FF920F939B
:101830001F93CF93DF938C01C0905803D09059032E
:10184000E0905A03F0905B038091E7029091E802E8
:10185000A091E902B091EA02C82AD92AEA2AFB2A11
:10186000CFE1D0E0BC2ED701C6010C2E04C0B69546
:10187000A795979587950A94D2F780FD0EC021977A
:1018800088F7B12C8B2DDF91CF911F910F91FF9095
:10189000EF90DF90CF90BF900895B8018C2F0E94F9
:1018A000880A019761F3EECFCF93DF93EC010E949A
:1018B000120CBE01DF91CF910C94880A0E94540C47
:1018C000292F2F7092959F7092509E3078F4E92FB7
:1018D000F0E0EE52F14D0C94972D803F19F020F47A
:1018E000883E20F481E00895843FE1F380E008958C
:1018F000883EC0F3813FD1F7F5CF822F869586953C
:10190000869508956F927F928F929F92AF92BF9229
:10191000CF92DF92EF92FF920F931F93CF93DF93BB
:101920008BEEC82E84E0D82E0EE510E0E801E0979B
:1019300036011CC0F50185909490692DC7010E9465
:10194000392E682DC70101960E94392E82E0A80E1B
:10195000B11C82E0E80EF11CCE15DF0559F788E0D6
:10196000680E711C28960C171D0731F07E0188E067
:10197000E81AF1085301DECF005D1F4F80E3C80E67
:10198000D11C0E3382E0180789F6DF91CF911F91A9
:101990000F91FF90EF90DF90CF90BF90AF909F900E
:1019A0008F907F906F900895CF93DF93C6E0D2E041
:1019B00060E0CE010E94392E2196C11584E0D8073F
:1019C000B9F7DF91CF910895CF93DF9300D00F92B5
:1019D000CDB7DEB790914E03943011F589837B83A8
:1019E0006A839093E9008FEF9091E800815095FD14
:1019F00006C095ED9A95F1F700008111F5CF809121
:101A0000E80085FF0DC050E040E063E070E0CE01EB
:101A100001960E9458048091E8008E778093E80038
:101A20000F900F900F90DF91CF910895BC0184E04B
:101A30000C94E40CBC0183E00C94E40C9C0184E065
:101A40008093E9009FEF8091E800915085FD06C0EA
:101A500085ED8A95F1F700009111F5CF8091E800AE
:101A600085FF0CC050E040E066E070E0C9010E94D4
:101A700058048091E8008E778093E8000895CF9312
:101A8000DF93EC0180913B018823B1F18091F50255
:101A900087FF32C060E284E08093E9008FEF90918D
:101AA000E800815095FD06C095ED9A95F1F700008C
:101AB0008111F5CF8091E80085FF1BC080913B012B
:101AC00070E050E040E0811104C050E040E068E088
:101AD00070E0CE010E9458048091E8008E778093D8
:101AE000E80080E2FE01ACE2B3E001900D928A953D
:101AF000E1F7DF91CF91089568E081E0CDCF81E0FB
:101B00008093E00080E28093D8001092C9008FE1BA
:101B10009EE40197F1F700C0000087E090EBDC0144
:101B20008093B8039093B903A093BA03B093BB0317
:101B300088E19CE00FB6F894A895809360000FBEF2
:101B400090936000FFCFCF93C82F882309F4AEC0D5
:101B50008238C1F40E94100781FDA8C089E30E9469
:101B600029060E94B9052FEF81EE94E021508040B4
:101B70009040E1F700C0000089E30E94FE05CF918C
:101B80000C94B9058338A1F40E94100780FD8EC023
:101B900083E50E9429060E94B9052FEF81EE94E0AB
:101BA000215080409040E1F700C0000083E5E5CF80
:101BB0008438A1F40E94100782FD78C087E40E9457
:101BC00029060E94B9052FEF81EE94E02150804054
:101BD0009040E1F700C0000087E4CFCF8CEF8C0F7E
:101BE000813A88F580913B01882301F18091F502CB
:101BF00087FF1CC0EC2FE695E695E695F0E0EC53E8
:101C0000FE4F828190E04C2F477021E030E002C00F
:101C1000220F331F4A95E2F782239323892B79F011
:101C20008C2F0E94FE050E94B90509C0E6ECF1E088
:101C30008191C817A9F321E0EC3CF207C9F78C2F7A
:101C40000E9429069CCF80E28C0F883068F4C77010
:101C500021E030E001C0220FCA95EAF78091E50249
:101C6000822B8093E5028BCFEBE5EC0FE33040F461
:101C7000F0E0E959FE4F808190E0CF910C94FA0694
:101C8000E8E5EC0FE73150F4F0E0EE0FFF1FE65906
:101C9000FE4F80819181CF910C94E406C03F30F0DB
:101CA0008C2F0E943609CF910C94D007CF910895C4
:101CB0001F93CF93DF93182FD0E0C0E0893311F446
:101CC000C0E5D0E0812F0E94A30D209731F4812F31
:101CD000DF91CF911F910C9497088FE99FE00197B6
:101CE000F1F700C000002197F0CF0F931F93CF931F
:101CF000DF93C62FD42F022FFC0182818823A1F00D
:101D00006093B7030E94A7059093B6038093B50331
:101D1000C77081E001C0880FCA95EAF7DF91CF91C3
:101D20001F910F910C94DA068091B703681335C0A8
:101D30008091B5039091B6030E949805883C910567
:101D400060F510E21D0FCD17B9F080E28C0F8830DE
:101D500040F4C77081E001C0880FCA95EAF70E947D
:101D6000CF06183048F481E09D2F977001C0880F8E
:101D70009A95EAF70E94DA06802F0E94580E1830D2
:101D800098F4D77081E001C0880FDA95EAF7DF9107
:101D9000CF911F910F910C94CF06C77081E001C0C5
:101DA000880FCA95EAF7F3CFDF91CF911F910F917A
:101DB0000895DF92EF92FF920F931F93CF93DF93DB
:101DC000E82FF0E0E65BFD4FD490282F269526956E
:101DD000269530E0F901E65CFD4F0491877010E034
:101DE000082E02C0159507950A94E2F70170112795
:101DF000F901E65DFD4FE490F12C082E02C0F59448
:101E0000E7940A94E2F791E0E922FF24F901E65E03
:101E1000FD4FC491D0E002C0D595C7958A95E2F7F1
:101E2000C170DD270115110519F081EE0E94A30D87
:101E3000E114F10419F086EE0E94A30D8D2D0E948D
:101E4000580EEF2819F086EE0E949708012B19F022
:101E500081EE0E949708CD2B51F08CE2DF91CF915B
:101E60001F910F91FF90EF90DF900C94580EDF912F
:101E7000CF911F910F91FF90EF90DF900895CF9336
:101E8000DF93EC01805E9109089720F065EC76E025
:101E9000209711F46AED76E0CE010E94FB098C2FA9
:101EA000DF91CF910C94A30DCF939091920299233F
:101EB00021F0811116C010929202CF910895EC2F5B
:101EC000F0E0EE0FFF1FEE57FD4F808191810E94E1
:101ED0003F0F0E94B905CF5F80919202C81778F337
:101EE000EACFC0E0F9CFBF92CF92DF92EF92FF929C
:101EF0000F931F93CF93DF9388E9E82E81E0F82EAC
:101F0000CFEED2E0C12CD12C01E010E0F70181919D
:101F10007F01F894E82FE295EF70F0E021A18F7037
:101F2000A80102C0440F551F8A95E2F7CA01922FFB
:101F3000982B91A392A18095892382A3789400C0C5
:101F4000EEE9F1E030E020E0B12C4191A42FA29520
:101F5000AF70B0E090968C9190E04F7002C0959574
:101F600087954A95E2F780FD50C0802F022E01C070
:101F7000880F0A94EAF7B82A2F5F3F4F24303105C3
:101F800021F7F701319780810E94900955E0C5162D
:101F900019F080EA8A95F1F78881B816C1F1B88204
:101FA00081E0D82AC3942196E6E0CE12AFCFDD209F
:101FB00081F181E08093E6010E94A7059093E501FD
:101FC0008093E4018091E4019091E5010E949805DD
:101FD000069718F18091EF0280931F038091F00221
:101FE000809320038091F102809321038091F2027B
:101FF000809322038091F302809323038091F40263
:10200000809324031092E60108C080E0B4CF80E002
:10201000C8CF8091E6018111D5CF8091120188232C
:10202000A1F080919302882381F080919402909195
:102030009502009751F00E9498058F35914028F045
:102040001092930281E00E94540F80917F028823B6
:1020500071F080917D0290917E020E949805893EE8
:10206000934028F082EE0E94970810927F028091A0
:102070007C028823A9F080917A0290917B020E94D1
:102080009805883E934060F00E94A70590937B02DC
:1020900080937A0282E50E94580E81E50E94580ED4
:1020A0008D2DDF91CF911F910F91FF90EF90DF90D9
:1020B000CF90BF9008956BEE7EEF90E080E00E949D
:1020C000572E60E082E090E00E94392E60E083E0CD
:1020D00090E00E94392E1092E7021092E8021092CE
:1020E000E9021092EA0260E084E090E00E94392E5A
:1020F00060E081E290E00E94392E60E085E090E0AF
:102100000E94392E60E086E090E00E94392E6FEF49
:1021100087E090E00E94392E40E050E0BA0188E06C
:1021200090E00E944B2E60E08DE090E00E94392EFE
:1021300040E050E0BA0188E190E00E944B2E60E060
:1021400087E190E00E94392E40E050E0BA018CE136
:1021500090E00E944B2E60E080E290E00E94392ED9
:1021600040E050E0BA0188E190E00E944B2E40E050
:1021700050E0BA018FE090E00E944B2E40E050E02A
:10218000BA0183E190E00C944B2ECF92DF92EF9254
:10219000FF926B017C010E942107B701A60188E034
:1021A00090E0FF90EF90DF90CF900C944B2E8091B9
:1021B000B403882319F081508093B4036091B00375
:1021C0007091B1038091B2039091B3030C94C51048
:1021D0008091B403833018F48F5F8093B4036091CF
:1021E000B0037091B1038091B2039091B3030C944A
:1021F000C510E0EBF3E083E0808311828FEF8283F0
:1022000088E28383148260817181828193810C943E
:10221000C5101092E50280913B01E6ECF1E08823C5
:1022200059F08091F50287FF07C08EE1DF011D9212
:102230008A95E9F70C94F70786E0F8CF1F93CF93C0
:10224000DF93CDB7DEB7AA970FB6F894DEBF0FBE07
:10225000CDBF80E593E02091F100DC012D93CD010D
:10226000B3E088359B07B9F780915103833009F4B7
:1022700071C0B8F4813009F448C0823009F4B2C0AA
:102280008091E80083FF3AC18091500390915103FF
:102290009A3008F033C1E92FF0E0E052F14D0C9490
:1022A000972D8A3009F48DC08B3009F470C08930C5
:1022B00039F780915003813219F78091540390913E
:1022C0005503009711F00297D9F68091E800877FB7
:1022D0008093E8008091E80082FF37C09091F3007E
:1022E0008091F200029729F48091F1008B7F813078
:1022F00021F48091F10080932B038091E8008B778B
:102300008093E8000E948204BBCF80915003813A01
:1023100009F0B6CF8091E800877F8093E800809134
:10232000540390915503892B61F460E28CE293E0B1
:1023300070E00E9434058091E8008B778093E8007C
:102340009FCF60E090E080E0F3CF80914E03811159
:10235000C1CF96CF80915003813A09F091CF8091FF
:10236000540390915503892B09F08ACF8091E8009E
:10237000877F8093E8008091E80080FFFCCF809108
:102380003B018093F1008091E8008E77B9CF809176
:102390005003813209F074CF80915403909155031A
:1023A000892B09F06DCF8091E800877F8093E8004A
:1023B0000E9482048091520380933B010E94091184
:1023C0005FCF80915003813209F05ACF8091E800AD
:1023D000877F8093E8000E9482048091530380935A
:1023E0002A034ECF80915003813A09F049CF809162
:1023F000E800877F8093E8008091E80080FFFCCFB1
:1024000080912A03BECF803899F0823809F076C0D7
:10241000809154038F70873008F070C08093E9007A
:102420008091EB0085FB882780F91092E90006C0B7
:1024300080914C0390914D03911182609091E8003E
:10244000977F9093E8008093F1001092F1008091C3
:10245000E8008E77B5C1882309F4A2C1823009F063
:102460004DC0809152038111A6C1809154038F7099
:102470002FEF280F263008F041C08093E90020910B
:10248000EB0020FF98C1933031F48091EB00806223
:102490008093EB0090C19091EB0090619093EB00E2
:1024A00021E030E001C0220F8A95EAF72093EA008C
:1024B0001092EA008091EB008860EACF81111EC083
:1024C000109152031F778091E3008078812B8093D5
:1024D000E3008091E800877F8093E8000E948204F7
:1024E0008091E80080FFFCCF8091E30080688093BA
:1024F000E30082E0111183E080934E038091E800B5
:1025000083FF0AC08091E800877F8093E800809174
:10251000EB0080628093EB00AA960FB6F894DEBFC2
:102520000FBECDBFDF91CF911F91089580588230AB
:1025300028F720915203309153032C3DE3E03E07EE
:10254000A1F583E08A838AE289834FB7F894DE019C
:10255000139620E03EE051E2E32FF0E05093570065
:10256000E49120FF03C0E295EF703F5FEF708E2F84
:1025700090E0EA30C0F0C7968D939D932F5F243191
:1025800059F74FBF8091E800877F8093E8006AE2A7
:1025900070E0CE0101960E9434058091E8008B77AF
:1025A0008093E800ABCFC096E7CF80915403909121
:1025B0005503432F55274330510509F44AC078F598
:1025C0004130510509F47AC08BE590E0ECEEF6E07D
:1025D0004230510509F092CF2091E800277F2093E7
:1025E000E80020915603309157038217930708F4AF
:1025F0009C0140E02115310509F065C0411163C01F
:102600008091E80082FDC9CF80914E03882329F292
:10261000853019F28091E80083FFF2CFBECF4132BE
:10262000510509F43CC04232510509F067CF8330AF
:10263000910508F063CFFC01EE0FFF1FEB54FE4F36
:102640000190F081E02D8E549E4FDC018C9190E042
:102650001AC0332721303105D1F02115310561F041
:102660002230310509F04ACFE9E5F7E0E4918E2FF9
:1026700090E0E9E5F7E007C0E9E7F7E0E4918E2FA5
:1026800090E0E9E7F7E0009709F438CFA5CFE5E659
:10269000F7E0E4918E2F90E0E5E6F7E0F4CF8330A9
:1026A000910508F02BCF880F991FFC01E554FE4FD0
:1026B0000190F081E02D89E090E08ECF82E190E002
:1026C000E7E4F7E089CF80914E03882309F465CFD2
:1026D000853009F462CF8091E80083FD5ECF809160
:1026E000E80082FD8DCF8091E80080FF83CF90913C
:1026F000F3008091F2002115310519F08830910521
:1027000050F041E0089709F040E08091E8008E77B2
:102710008093E8006FCF44914093F10031962150AF
:1027200031090196E8CF803809F0E8CE8091E800C1
:10273000877F8093E80080914F038093F10087CEDC
:102740008111DCCE10915203123008F0D7CE809167
:10275000E800877F8093E80010934F030E94820473
:10276000112311F084E005C08091E30087FDFACFCA
:1027700081E080934E0342E061EC81E00E94A1047D
:1027800042E261EC84E00E94A10442E261EC82E05A
:102790000E94A10442E260EC83E00E94A104AECE5C
:1027A00080915203813009F0A9CE81E0933009F085
:1027B00080E080934D031092E9008091E800877FCC
:1027C0008093E8000E94820499CE6091B0036695E0
:1027D00070E04BE050E084E091E00E94182E892BDD
:1027E00019F481E080931D030E94A70590930003D4
:1027F0008093FF0208955F926F927F928F929F92D3
:10280000AF92BF92CF92DF92EF92FF920F931F93FE
:10281000CF93DF93CDB7DEB7C455D1090FB6F89487
:10282000DEBF0FBECDBF8091B00380FD0AC0ECE5D6
:10283000F3E0118210821282339623E0E03BF2072C
:10284000C1F78090F8029090F9028114910409F484
:1028500059C08091FE02811155C0D12CC12C662433
:102860006394712C13E0512E80911E0393010C2C64
:1028700001C0220F0A94EAF7822309F43BC0F60153
:10288000EE0FFF1FE80DF91DE590F490E114F1043F
:10289000C9F145E050E0B701CE0101960E940F2E2C
:1028A00009810F3F39F18A81800F9927991F8D3156
:1028B000910514F08CE190E05C01AA0CBB1C8A0D20
:1028C0009B1DFC01E45AFC4F5F01059D8001112412
:1028D000045A1C4F0A151B0520F0F5E0EF0EF11C01
:1028E000D8CF98014D816C818B810E9437070D5F95
:1028F0001F4FF0CF2FEFC21AD20A38E0C316D1040F
:1029000009F0B2CF7FECA72E73E0B72EDE0111964F
:10291000AE014B5A5F4F1A2F7B2FF5018491282F60
:1029200030E0C901880F991F820F931F845A9C4F72
:10293000FC01C080D180E280CD92DD92ED92FFEF6C
:10294000AF1ABF0AA417B50741F7279A35B13F77E9
:1029500025B120686FB7F894812F972FFC017191F2
:10296000CF01E8E025B9000000C077FF35B9770F47
:10297000000000C000C000C035B900C0EA9591F762
:102980008417950759F76FBF8FE594E00197F1F72A
:1029900000C00000CC5ADF4F0FB6F894DEBF0FBE68
:1029A000CDBFDF91CF911F910F91FF90EF90DF90FE
:1029B000CF90BF90AF909F908F907F906F905F90DF
:1029C00008951F93CF93DF9300D00F92CDB7DEB75A
:1029D000162F9091B00390FF18C09E012F5F3F4FBC
:1029E00048E76FEF0E9437078B819981612F70E074
:1029F000FB01EE0FFF1FE60FF71FE45AFC4F2A8181
:102A00002183908382830E94FB130F900F900F907D
:102A1000DF91CF911F9108954F925F926F927F92B5
:102A20008F929F92AF92BF92CF92DF92EF92FF92DE
:102A30000F931F93CF93DF93FC016280448081E06A
:102A40008483EBEEF3E07490EAE6F4E0E491CAEEFE
:102A5000D1E03CE5E32E33E0F32E46E7C42E42E01E
:102A6000D42E52E0A52EBB24B39488248A94912CB2
:102A700055245A94E7190E2F10E082E0861530F0A5
:102A80008091B10388838091B2038983411021C072
:102A90001B821A8297014A81698188810E943707C7
:102AA000259683E0E80EF11CCC16DD0631F7DF91A8
:102AB000CF911F910F91FF90EF90DF90CF90BF903B
:102AC000AF909F908F907F906F905F904F900C94FD
:102AD000FB138B818823E9F081508B83859DC00196
:102AE00011246C8170E00E946F2DFB01FF27E551DE
:102AF000FC4F8491E82FE719E59DC0011124B8012E
:102B00000E946F2D8091B303689FB00111247A83D6
:102B1000C1CF0E94FF2D2091B303269521582A9DF5
:102B2000A0012B9D500D1124452F55278417950783
:102B30000CF0B0CF82E0861588F40E94FF2DB4011E
:102B40000E94832D88830E94FF2D2091B203269539
:102B5000622F70E00E94832D280F29831A828091B2
:102B6000B303893C20F088EC8C838B8393CF843132
:102B7000D8F784E1F9CFEF92FF921F93CF93DF93C1
:102B8000EC018CE5E82E83E0F82E10E08C819701B3
:102B90004091B3036091B203810F0E943707175F22
:102BA00083E0E80EF11C1C3F89F70E94FB139A8119
:102BB0008C8190FF08C08F5F8C83DF91CF911F9134
:102BC000FF90EF9008958150F7CFBF92CF92DF92A0
:102BD000EF92FF920F931F93CF93DF93FC018281BB
:102BE000DD24DA9480FD02C0DD24D3940CE513E0EB
:102BF000D0E0C0E02CE1B22EF801118210821282E6
:102C000094E0E92EF12CC12C8091E7018C0D8D31DF
:102C10000CF43DC06B2D0E94612D892F082E000CF5
:102C2000990B8C179D0791F48091B3038E9DA001A1
:102C30008F9D500D112455954795559547959801B1
:102C40006091B2038091B1030E943707CD0CF1E08F
:102C5000EF1AF108C9F621960D5F1F4FCC31D1054F
:102C600059F60E94FB138091E70191E0D91215C03B
:102C7000811111C08BE18093E701DF91CF911F910A
:102C80000F91FF90EF90DF90CF90BF90089587FF56
:102C9000C5CF845EC3CF8150EECF90E00196BE01D8
:102CA0000E94832DE8CF0F931F93CF93DF93CCE542
:102CB000D3E0FE01118210821282339683E0E03B62
:102CC000F807C1F710E000E08091E801082E000C41
:102CD000990B081719078CF180911001082E000C30
:102CE000990B801791074CF19E014091B3036091BD
:102CF000B2038091B1030E9437070F5F1F4F2396E5
:102D00000C31110509F70E94FB1380910F0190917E
:102D1000E801980F9093E80120911001280F20936B
:102D20001001121614F49B311CF0819580930F0151
:102D3000DF91CF911F910F910895198218821A8205
:102D4000DCCF8F929F92AF92BF92CF92DF92EF92A1
:102D5000FF920F931F93CF93DF93EC014C81042FCD
:102D600010E09801D8010E94C12E9B01AC010E9485
:102D70008C2E4B015C01E0E2F0E0E01BF10BA5E5DD
:102D8000B0E0AC019B010E948C2E6B017C019F0185
:102D9000DF010E94A42D9B01AC010E94972E9B0194
:102DA000AC01280D391D4A1D5B1DC701B6010E94EB
:102DB0009F2EF22E822F90E039E23F15D8F143E0AA
:102DC000249F9001112435952795122F10959CE58D
:102DD000C92E93E0D92E00E085E5E82EEF188E2D60
:102DE00001FD8F2D9601412F6091B2030E9437079C
:102DF0000F5F53E0C50ED11C0C3189F70E94FB1305
:102E00009C8181E0992319F0903219F48FEF80931F
:102E1000110180911101890F8C83DF91CF911F9156
:102E20000F91FF90EF90DF90CF90BF90AF909F9069
:102E30008F90089525E530E0A901481B590BCA0180
:102E40009A01220F331F280F391F37FFBCCF2F5F86
:102E50003F4FB9CFEF92FF920F931F93CF93DF9322
:102E60008C01CCE5D3E0F12CE12CF8019481609148
:102E7000B2038091B103FEE0EF16F104FCF4992354
:102E8000F9F09E014091B3030E9437072FEFE21A39
:102E9000F20A23968CE1E816F10439F70E94FB133D
:102EA000F801848190E00196817099278483DF91F5
:102EB000CF911F910F91FF90EF900895992309F3FF
:102EC0009E0140E0E1CF9091B00390FF0CC0ECE593
:102ED000F3E0818360834283339693E0E03BF9071C
:102EE000C1F70C94FB1308950F931F93CF93DF93B7
:102EF00000D00F92CDB7DEB78C018091E90181112E
:102F00000AC09E012F5F3F4F44EB6FEF0E943707CF
:102F10008A818093E901F8016481613069F08091D0
:102F2000E90140E0662361F040E0623011F4409135
:102F3000E90180E060E004C06091E90140E080E0E8
:102F40000E946317F801848190E0019663E070E0CD
:102F50000E94832D84830F900F900F90DF91CF916B
:102F60001F910F910895CF93DF9300D00F92CDB7AB
:102F7000DEB79091B00390FF0AC09E012F5F3F4FD4
:102F80000E9437074B8169818A810E9463170F90E5
:102F90000F900F90DF91CF910895CF93DF93EC01C5
:102FA000EC81F0E0E551FC4F4491E0EBF3E062810D
:102FB00081810E94B3178C818F5F8C83DF91CF91C9
:102FC0000895CF93DF93EC01E0EBF3E0438162815E
:102FD0008C810E94B3178C818F5F8C83DF91CF919E
:102FE00008955F926F927F928F929F92AF92BF925D
:102FF000CF92DF92EF92FF920F931F93CF93DF93C5
:1030000000D00F92CDB7DEB7182F762E042F622E88
:103010009091B00390FF29C0E92FE695AE2FB0E064
:10302000A45CBE4F8C9180931C039E7F923081F5EF
:103030009E012F5F3F4F812F0E9437074B8169818F
:103040008A810E9463171093B1037092B2030093B8
:10305000B303662051F06091B0037091B103809189
:10306000B2039091B3030E94C5100F900F900F9080
:10307000DF91CF911F910F91FF90EF90DF90CF9054
:10308000BF90AF909F908F907F906F905F900895CA
:10309000823019F40091B303D6CF863019F4109121
:1030A000B103D1CF8930D9F3893169F6E9518E2F37
:1030B0008170582EE695F0E0E653FC4FA590B49051
:1030C000BB248CE5E82E83E0F82ED12CC12C9CE1AA
:1030D000892E912CC601B4010E946F2D812F5110B1
:1030E00013C0860F9701402F672D0E943707CA0C27
:1030F000DB1C83E0E80EF11C80EBE81683E0F806A9
:1031000049F70E94FB139FCF861BECCF9091B00331
:1031100090FF36C09170811129C092609093B003E6
:10312000662351F06091B0037091B1038091B203B6
:103130009091B3030E94C5106091B003669570E052
:103140004BE050E084E091E00E94182E892BA9F01A
:1031500010921D0381E08093020320E04091B303AD
:103160006091B2038091B1030C94F1178B3210F08F
:103170009465D4CF880F982BD1CF0E94E513EACF66
:10318000089521E030E0A90102C0440F551F8A953F
:10319000E2F7CA0120911E03662399F0822B8093E7
:1031A0001E0380911D03811106C08091B00360E071
:1031B00086950E9486188091B00380FD05C00C940E
:1031C000FB1380958223EBCF08958091B003869501
:1031D000815009F48AE261E00C9486188091B00372
:1031E00086958F5F8B3208F081E061E00C94861841
:1031F0009091B00390FF07C09695981720F096170E
:1032000010F40C94EE1861E00C948618E0EBF3E0F7
:10321000438128E0421B08F440E021E06281818183
:103220000C94F117E0EBF3E0438128E0420F08F43F
:103230004FEF21E0628181810C94F117E0EBF3E024
:10324000628128E0621B08F460E021E04381818113
:103250000C94F117E0EBF3E0628128E0620F08F4D0
:103260006FEF21E0438181810C94F117E0EBF3E0F3
:10327000818121E04381628188500C94F117E0EB59
:10328000F3E0818121E043816281885F0C94F11732
:10329000CF92DF92EF92FF920F931F936B017C010D
:1032A00061E0C114D104E104F10409F06C2D6170F6
:1032B00080E00E94C11860E0C114D104E104F1046F
:1032C00041F0D701C601B695A79597958795682FC8
:1032D000617081E00E94C11860E0C114D104E10472
:1032E000F10459F0D701C60122E0B695A79597954C
:1032F00087952A95D1F7682F617082E00E94C118E6
:1033000060E0C114D104E104F10459F0D701C60111
:1033100003E0B695A795979587950A95D1F7682FFD
:10332000617083E00E94C11860E0C114D104E1041F
:10333000F10459F0D701C60114E0B695A795979509
:1033400087951A95D1F7682F617084E00E94C118A3
:10335000A7016627772780E14115510561057105B1
:1033600019F4B701A60180E0052F162F272F332768
:10337000011511052105310519F0885FB901A80172
:103380008A019B01F4E03695279517950795FA95E4
:10339000D1F7011511052105310519F08C5FB9012F
:1033A000A8018A019B01E2E03695279517950795BC
:1033B000EA95D1F7011511052105310519F08E5F48
:1033C000B901A8017695679557954795452B462BEA
:1033D000472B09F08F5F823019F168F48823A1F040
:1033E0008130C9F0C701B6011F910F91FF90EF9096
:1033F000DF90CF9008958330C1F0843099F720E0BA
:1034000044E66FEF8FE004C020E044E66FEF82E314
:103410000E94F117E7CF20E044E66FEF85E0F8CF98
:1034200020E044E66FEF80E8F3CF20E044E66FEF62
:1034300087EDEECF0E9448196093580370935903AB
:1034400080935A0390935B030C94F7070F931F9399
:10345000609158037091590380915A0390915B03D6
:103460008B019C0106701127222733270630110596
:103470002105310529F468601F910F910C941A1AE7
:10348000677FFACF0F931F9341E050E060E070E058
:1034900004C0440F551F661F771F8A95D2F7CB01D2
:1034A000BA016095709580959095009158031091A0
:1034B000590320915A0330915B03602371238223C7
:1034C00093231F910F910C941A1A9091E202809508
:1034D00089238093E202282F277071F4282F082E69
:1034E000000C330B9217130639F085958595859559
:1034F0000E94421A1092E20208950F931F9341E036
:1035000050E060E070E004C0440F551F661F771F55
:103510008A95D2F78091580390915903A0915A034C
:10352000B0915B038A019B01082B192B2A2B3B2BA3
:10353000C901B8011F910F910C941A1A3F924F9232
:103540005F926F927F928F929F92AF92BF92CF9233
:10355000DF92EF92FF920F931F93CF93DF9300D0F0
:1035600000D00F92CDB7DEB77C01FC01838194813E
:10357000892B31F08081918189238F3F09F0E9C740
:103580000F900F900F900F900F90DF91CF911F91A0
:103590000F91FF90EF90DF90CF90BF90AF909F90F2
:1035A0008F907F906F905F904F903F9008950E9412
:1035B000120C182F682F89819A810E9484066981D4
:1035C0007A81812F0E947B0A8C01F70182818823F6
:1035D00009F4B3C7980122513F452031310508F065
:1035E000BAC68FEF93E00E94252E0251A6E0CA2EA4
:1035F000A2E0DA2E882381F18091E202877009F43B
:10360000BFCFF7018281882309F4BACF82E00F90FF
:103610000F900F900F900F90DF91CF911F910F910E
:10362000FF90EF90DF90CF90BF90AF909F908F90E2
:103630007F906F905F904F903F900C94651AC114EB
:10364000F4E0DF06C9F2C6010E94252E811101C0F7
:1036500001502FEFC21AD20A0111F1CF1C821B8236
:10366000BB24B394FAE0AF2E86010F5F1F4FC60153
:103670000E94252E89831A82882309F4BDCF9FEFEB
:10368000980F933008F58A83B98232E0C30ED11CBB
:10369000C8010E94252E8B83882309F4ADCF8E01AB
:1036A0000F5F1F4FF80180818823F1F2813009F00C
:1036B00043C091818281913049F40E5F1F4F0E9477
:1036C000580E0F5F1F4FEECF6801E9CF923029F4FB
:1036D0000E5F1F4F0E94A30DF4CF933029F40E5FAD
:1036E0001F4F0E949708EDCF943019F00F5F1F4FC6
:1036F000E8CF0E5F1F4F30E020E0B8016F5F7F4FD3
:10370000F80141818053990B8A30910550F0215086
:103710003109B8F28FE99FE00197F1F700C000008E
:10372000F6CFA29EF001A39EF00D11249C012E0F56
:103730003F1F842F8B01E1CF0E94D90EC2CF81E0C1
:103740000E947D1A0E94261A57CF81E00E94421AD9
:10375000F9CF82E0F5CF03384FE5140709F467C0CD
:1037600004385FE5150709F011C6882309F444CF32
:1037700010917C0281E0182710937C020E94A7051B
:1037800090937B0280937A0268E1112309F45DC073
:103790008FE00E94E1146AE18FE00E94E1142CCFD7
:1037A000882369F180917F02811106C081E08093B6
:1037B0007F0282EE0E94A30D0E94A70590937E02D5
:1037C00080937D028BE20E94A30DE0C58823A1F0C7
:1037D00080917F02811106C081E080937F0282EE9A
:1037E0000E94A30D0E94A70590937E0280937D0204
:1037F00081EE0E94A30DE6CF81EE0E9497088BE236
:103800000E949708C3C5882309F4C0C581EE0E94B1
:10381000A30D83EE0E94A30D8FE40E94A30D8FE4FD
:103820000E94970883EE0E94970881EEE9CF8823D3
:1038300009F4ACC581EE0E94A30D83EE0E94A30D96
:1038400080E50E94A30D80E5EBCF84EB0E94E1149C
:103850006AE184EBA2CF82EE0E94A30DDBC588E172
:1038600093E00E943F0F88E193E00E94320AD2C5A4
:1038700082EE0E94A30D87E50E94580ECBC586EE0E
:103880000E94580E88E1F8CF895ADEC582EE0E9468
:103890009708F2C58CE20E94580E8091810288231D
:1038A00009F4EAC589E30E94580EE6C588E2FBCF19
:1038B000083FFCE51F0781F4F70182818823C9F0E6
:1038C000109293021092120110929502109294029B
:1038D00081E00E94540FE3C580911201093FFCE58D
:1038E0001F0739F4F7019281992319F08111E8CF6C
:1038F000D3C5D0901201DD2021F1109297021092D1
:103900009602C12C65E0562E88248394912C442481
:103910004394609096027090970286E06816710456
:1039200068F180919802882309F4ACC00E94A70531
:10393000909395028093940280E00E94540FC110EE
:103940005BCE033FFCE51F0709F4D1C008F012C6A7
:10395000083D3CE5130709F4C6C0093D4CE51407D2
:1039600009F4D1C0073D5CE5150709F098C526E2CA
:1039700041EE61EEC7010E94750E3ECE569CF001ED
:10398000579CF00D1124ED5EFE4F808191813FEF39
:1039900020E0E22FF0E0EE0FFF1FE80FF91F459146
:1039A00054910417150709F4322F452B11F02F5F9E
:1039B000F0CF3F3FE9F4312CC328DD2059F0569C6D
:1039C000F001579CF00D1124ED5EFE4FDD24D394E1
:1039D00084818111D12C5D2D5170D52E809196025C
:1039E000909197020196909397028093960291CFBF
:1039F00030909302F7019281569CF001579CF00D94
:103A00001124ED5EFE4F8481540101C0AA0C3A9549
:103A1000EAF79923B9F0A82AA482332061F2C401FD
:103A200002C0880F991F2A95E2F70197A816190678
:103A300019F682819381009711F00E943F0F409206
:103A40009802BACFA40102C0440F551F2A95E2F78D
:103A50009A01215031098217130691F482819381D2
:103A6000009711F00E94320A569CF001579CF00D0D
:103A70001124ED5EFE4FA0948481A822A4829CCFE5
:103A8000312CF2CFC1100EC081E00E94540FDD2016
:103A900009F457CF109295021092940281E080931E
:103AA00093024FCFF7018281882309F4A5CD80913D
:103AB0009302882309F4A0CD0E94A7059093950254
:103AC00080939402E0919202E83008F095CD81E075
:103AD0008E0F80939202F0E0EE0FFF1FEE57FD4F26
:103AE0001183008389CD27E245EE65EE43CF26E2C0
:103AF00041EE60EE3FCF27E245EE64EE3BCF26E29B
:103B000041EE62EE37CF28E241E0EFCF8091F5023F
:103B1000806106303CE5130709F489C08091F50205
:103B2000886007301C4508F482C08091F5028062ED
:103B30007EC08091F5028D7F0C305CE5150709F49D
:103B400076C070F48091F5028C600A309CE519070C
:103B500009F46DC008F47AC08091F5028E7F67C0C9
:103B60008091F502877F0E30FCE51F0709F45FC0E6
:103B70008091F5028B7F0F301C4508F458C080916E
:103B8000F5028F7E54C00B3F3CE5130709F456C085
:103B900030F503315CE5150709F46AC078F40131AA
:103BA0009CE5190709F460C002311C4509F0B5C451
:103BB0000E9409118091F5028F7739C00531FCE52B
:103BC0001F0709F45DC008F471C08091F60281609E
:103BD0000A3F1C4509F0A1C48093F6029EC40F3F22
:103BE0004CE5140709F448C070F40D3F8CE5180744
:103BF00099F18091F6028E7F0E3F1C4568F380910B
:103C0000F6028360E9CF0130EDE51E0709F457C0E5
:103C100008F442C060E002301D4509F07EC48EE029
:103C200090E00E94392E79C48091F50281608093E2
:103C3000F50273C48091F5028460F9CF8091F60299
:103C40008260CACF8091F5028064F1CF0E94091191
:103C50008091F5028068EBCF8091F6028D7FBCCF1A
:103C60008091F5028F7DE3CF8091F5028F7BDFCFCE
:103C70008091F502837FDBCF8091F6028C7FACCF01
:103C80008091F50282FB992790F921E0922790FB21
:103C900082F990FB83F9CBCF8091F602982F909513
:103CA00091708E7F892B90FB81F996CF0E9409112C
:103CB0009091F502892F97FB87F98058B8CF61E082
:103CC000AECF85E383C485E36EC4992309F48FC026
:103CD0008091E5028272F801E25CFC45E431F10575
:103CE00008F07CC0E651F14D0C94972D8091B00303
:103CF00080FF1BC08E7F8093B0036091B0037091F2
:103D0000B1038091B2039091B3030E94C510109249
:103D10001D033FEF40E752E0315040405040E1F793
:103D200000C000000E94FB1367CC81608093B00349
:103D300061E086950E9486185FCC45EE58E16EEEF4
:103D400078E10E941C0758CC4EEE58E165EE78E110
:103D5000F8CF46E359E16FE379E1F3CF4FE359E15F
:103D600066E379E1EECF4EE159E16AE279E1E9CF2C
:103D70004AE259E16EE179E1E4CF46E059E162E1DE
:103D800079E1DFCF42E159E166E079E1DACF47ED51
:103D900050E168EE70E1D5CF48EE50E167ED70E19B
:103DA000D0CF61E081E0C6CF65E082E00E94F818E4
:103DB00023CC68E086E0FACF6EE089E0F7CF64E1DB
:103DC0008FE0F4CF67E185E1F1CF61E088E1B2CF28
:103DD00062E289E1EBCF61E083E2ACCF01158CE5D3
:103DE000180709F445C00E3D1C4509F44EC0F70103
:103DF00000811181992309F44BC0C8010E94120C63
:103E0000D82E682FC8010E948406B8018D2D0E940B
:103E1000880A8C01882EF701D280A580A2943FE009
:103E2000A3228091E2028770A1F0CD2CDD2091F0D9
:103E3000812F807F803421F080E2800F883048F02D
:103E400082E00E94651A8091E2028770CC24C394BC
:103E50008111C12CB12EB2942FE0B222FBE0FB15F0
:103E600008F450C0EB2DF0E0E250F14D0C94972D8A
:103E70000E940911FFEF24E33CE0F1502040304064
:103E8000E1F700C000000E947F0D0E945B10B4CBE0
:103E9000C8010E945D06D82EB8CF212F2F70A22E08
:103EA000107F19F0A29490EFA922DD20C9F0AA207A
:103EB00069F080E2800F883010F081100BC0809193
:103EC000E502A82AA092E5020E94B905802F0E946F
:103ED000A30D18C08091E402A82AA092E402F4CFB6
:103EE000802F0E949708AA2069F0A094005E0830F5
:103EF00010F081103FC08091E502A822A092E50257
:103F00000E94B9052B2D2850330B2430310520F4A5
:103F10000E9410070E94EA09CC2009F431CB80915D
:103F2000E20280FD2DCBF70112828595859585955E
:103F30000E947D1AC7010E949E1A8091E202859517
:103F4000859585950F900F900F900F900F90DF91B2
:103F5000CF911F910F91FF90EF90DF90CF90BF9086
:103F6000AF909F908F907F906F905F904F903F9019
:103F70000C94421A8091E402A822A092E402C0CFDD
:103F8000312F3F70932E107F103219F0929480EFF2
:103F90009822882071F041E0841661F1DD20B9F1AA
:103FA000AA2071F1F701858180FF90CF8F70858302
:103FB00027C0DD2091F09091E602892D892BA11078
:103FC00003C00E94DA069ECF51E0A512FACF9817DF
:103FD00009F498CF8093E60295CFA11006C00E9405
:103FE000B305892D0E94CF068DCF81E0A81609F474
:103FF00089CFF5CFDD2031F095E09A1508F482CF16
:10400000892DDFCFE4E0EA1508F47CCFEACFAA20BF
:1040100041F3F9E38F1209C02FEF37EE43E021504F
:1040200030404040E1F700C00000802F0E94970818
:1040300069CF812F86958695837061F0813009F074
:1040400061CFC8019370D11002C090E080E00E945F
:10405000E40658CFC8019370D11002C090E080E010
:104060000E94FA064FCF802FDD2029F00E943609EA
:104070000E94D00747CF0E941E08FACF812F83707D
:1040800009F066C0D1103ECF802F8295869587704B
:10409000880F880F602F6F70462E512C712C612C69
:1040A000082E04C0440C551C661C771C0A94D2F7D9
:1040B00040E050E0BA0104FF0FC04FE050E060E084
:1040C00070E004C0440F551F661F771F8A95D2F712
:1040D0004095509560957095812F86958695837053
:1040E000823019F1D8F40091E7021091E802209192
:1040F000E9023091EA02813069F0442955296629A4
:104100007729CB01BA0160237123822393230E9474
:104110001408F8CE402A512A622A732ACB01BA0128
:104120006429752986299729F2CF442955296629BA
:1041300077290091E7021091E8022091E90230917D
:10414000EA02CB01BA016027712782279327DFCFCC
:104150008695DD2011F0812F8170882309F4D2CE5D
:10416000802F829586958770880F880F602F6F70DB
:10417000462E512C712C612C082E04C0440C551C69
:10418000661C771C0A94D2F740E050E0BA0104FFA5
:104190000FC04FE050E060E070E004C0440F551FD6
:1041A000661F771F8A95D2F7409550956095709558
:1041B000812F869586958370823019F1D8F400910D
:1041C00058031091590320915A0330915B038130B9
:1041D00069F04429552966297729CB01BA01602362
:1041E0007123822393230E941A1A8CCE402A512ACB
:1041F000622A732ACB01BA01642975298629972975
:10420000F2CF442955296629772900915803109146
:10421000590320915A0330915B03CB01BA01602707
:10422000712782279327DFCF1F70DD2029F0812F90
:104230000E947D1A802FC5CE802F0E94CF06812F2D
:104240000E94421A5FCE802F52EF851609F450C0AB
:10425000581578F090EF891619F1E1EF8E1609F4F0
:104260003FC0DD2009F467C0A11030CE812F8F71CF
:104270003CC0F3EF8F1609F440C024EF8212F1CF57
:10428000DD2009F44DC01F71812F0E947D1A58E076
:10429000159FC001112483608093E202812F25C005
:1042A000DD20C9F034E03A1508F42CCE1F7161E02E
:1042B00070E080E090E004C0660F771F881F991FB0
:1042C0001A95D2F7009158031091590320915A037F
:1042D00030915B03A4CF45E04A1508F413CEE6CF36
:1042E000812F8F71DD2009F4ABCF0E947D1A0ACE99
:1042F000812F8F71DD20C9F3A3CF60E070E0CB0187
:10430000DD2009F470CF1F7161E070E080E090E083
:1043100004C0660F771F881F991F1A95D2F763CFC5
:1043200081E00E94651A81E08A1508F0EBCD82E0F9
:104330000E94651AE7CDAA2059F0893309F075CE9D
:104340009FEFE7EEF3E09150E040F040E1F76BCEF5
:10435000812F8F7175CF0031FFE51F0709F4EFC979
:1043600001312FE5120709F4F4C90238EFE51E0701
:1043700009F449CA08F0EFC900382FE5120709F41B
:104380000FCA01383FE5130709F420CAF7018281FB
:10439000882369F0C801815E9C45059740F46FE170
:1043A000600F6093EB028CE090E00E94392E17FFC3
:1043B00067C0F7018281882309F462C0E091FA02A4
:1043C000F091FB0280E0309721F00190F081E02D28
:1043D000099586958170809381029091EB029130CE
:1043E00029F4882319F089E30E94580E8091E50290
:1043F000809380021092E5028091EB02813009F4F3
:104400002ECA882309F427CA823009F431CA8430BD
:1044100009F435CA8FE39CE90197F1F700C0000069
:104420005801E894B7F8ECE0CE2ED12CC5010C2C45
:1044300002C0969587950A94E2F78F7096EF980FD1
:10444000963008F421CA805D0E94D90E94E0C91A02
:10445000D108ECEFCE16EFEFDE0641F78091EB02CC
:10446000813009F417CA882309F410CA823009F48C
:104470000DCA843009F41ACA809180028093E50243
:1044800010929802073FFCE51F0709F011CAF701D7
:104490008281882309F42DCA81E080931201F701FB
:1044A0009281992309F476C01092B7030230FCE59B
:1044B0001F0708F47BC006312CE5120738F098017D
:1044C0002A5F3C452930310508F070C00E94470A38
:1044D0009093F6028093F50200313CE5130709F44E
:1044E000BFCB08F050CB08305CE5150709F4AACB28
:1044F00008F01FCB04309CE5190709F49BCB08F0AA
:1045000005CB0230FCE51F0709F48ECB8091F50244
:10451000826003301C4509F48ACB6091F50210914A
:10452000F60284E090E00E94392E612F81E290E053
:104530000E94392E0E9409115FC800313FE5130720
:1045400009F403C901314FE5140709F00ECF82E0E9
:10455000FDC885E0DE01119601900D928A95E1F784
:10456000F701228189819A81211121C80E945D066B
:10457000182F25C8053F8CE5180709F4C0CA08F4B0
:10458000BACA27E245EE66EE063FECE51E0709F4DF
:10459000F1C985CF06311C4509F029CC80919902DB
:1045A000811191CB89E20E94FE0512C006312CE5F3
:1045B000120709F08ACB8091E5028A7A91E009F42A
:1045C00090E09093990281117CCB89E20E942906A8
:1045D0000E94B9050C94FC1A1F93CF93DF9380912E
:1045E000A002807FA9F480919D02882389F08091A8
:1045F000D202D091A10260919B0270919C02A09185
:104600009E02B0919F02C62FC72316E0D81304C0A4
:10461000DF91CF911F91089590E0109711F0CF3F57
:1046200019F401968770F2CF189F9001199F300DF1
:104630001124F901EE55FD4F41814713F2CF40811E
:104640004613EFCF42814111ECCF438154814A1B85
:104650005B0B483C510528F78091A0028F70806168
:104660008093A002F901E955FD4F80818F70806130
:1046700080838BE992E00E949E1ADF91CF911F9177
:104680000C94B006AF92BF92CF92DF92EF92FF925E
:104690000F931F93CF93DF93CDB7DEB761970FB61C
:1046A000F894DEBF0FBECDBF8C0185E0F801DE01BE
:1046B0001D9601900D928A95E1F7F8018081918114
:1046C000E2802BE9A22E22E0B22E60919E02709130
:1046D0009F026115710509F43EC130919B02409122
:1046E0009C02232F24232F3F09F435C1C380D4809B
:1046F000F0909D02F601E61BF70BFF2009F4FBC0CA
:104700002091A002522F507FE83CF10508F0BBC079
:10471000511178C0FE2C491321C038131FC0E1107D
:104720001DC02F7020612093A002C5010E949E1A17
:104730008091A002F80185838F2D61960FB6F894C1
:10474000DEBF0FBECDBFDF91CF911F910F91FF90C4
:10475000EF90DF90CF90BF90AF900895CD2829F0D3
:10476000282F29232F3F09F014C120E0F22FF170E8
:10477000DF2E20FF3DC02091D2024091A10256E0E1
:10478000241315C08D879E878D859E850E94540CAD
:10479000292F22952F702230F8F0243020F59F70B9
:1047A000F9F0F8019581907FD9F4D12C1FC030E049
:1047B000529FF001539FF00D1124EE55FD4F618182
:1047C000961306C06081861303C06281E61210C092
:1047D0002F5F3F4F2770D4CF9F7011F0882329F3AC
:1047E000805E883010F3C8010E949E1AFD2CA4CF71
:1047F000EE2009F4A1CF8091A00281608093A002F5
:10480000F12C9ACF491312C0381310C0E1100EC01A
:10481000F8012583C8010E949E1A86E0F801ABE9E1
:10482000B2E001900D928A95E1F786CF8D879E8741
:104830008D859E850E945E0C882309F1EE20F9F09B
:104840008091A002803270F020919B0230919C02F6
:1048500038872F831986DB86CA868C87CE01079618
:104860000E949E1A86E0F801ABE9B2E001900D9239
:104870008A95E1F70E94EC22FF24F3945DCFC801F2
:104880000E949E1AF9CF51110AC08BE992E00E9452
:104890009E1A86E0F50111928A95E9F7B1CF491386
:1048A0000FC038130DC0E1100BC0F8012583C801FB
:1048B0000E949E1A86E0F50111928A95E9F73CCF95
:1048C0008D879E878D859E850E945E0C8823B9F218
:1048D000EE20A9F28091A002803220F220919B026A
:1048E00030919C023A8329831B82DD82CC828E83A5
:1048F000CE010196B5CFE83CF105E0F6FE2CEE20A6
:1049000009F4BDCF491316C0381314C08091A0021A
:1049100080FD83CF982F907F09F47FCFF8018583A6
:10492000903F09F477CF982F907F905F8F70892BFD
:10493000858370CF8D879E878D859E850E945E0CB6
:10494000811190CF8091A00281608093A002C80164
:104950000E949E1AF1CEEE2009F491CF8D879E879A
:104960008D859E850E945E0CF82E882309F487CFE2
:1049700086E0F801ABE9B2E001900D928A95E1F78B
:1049800080919B0290919C020E94540C0E94EC2208
:10499000D3CE21E02E25EACE1F93CF93DF93CDB760
:1049A000DEB767970FB6F894DEBF0FBECDBF342FCA
:1049B0004B8B252F5C8B6D8B7E8B8F8B8E899F898C
:1049C00061111092E4021A8A198A3D872E876F8737
:1049D000998B888B86E0FE013D96DE01179601904B
:1049E0000D928A95E1F7CE0107960E944223882313
:1049F00089F016E08091D2029091A102891349C0FA
:104A000067960FB6F894DEBF0FBECDBFDF91CF9192
:104A10001F91089586E0FE013796DE011196019000
:104A20000D928A95E1F78A859B85892B11F38F81F9
:104A3000988589238F3FE9F22091A10230E0C901D6
:104A40000196877099274091D2024817190671F490
:104A50000E9409111092A1021092D20286E0EBE9A5
:104A6000F2E0DF011D928A95E9F7C3CF96E0929FAD
:104A7000D001939FB00D1124AE55BD4FFE0131966C
:104A800001900D929A95E1F78093A1020E94B006E1
:104A9000B0CF819FC00111248E559D4F0E944223AB
:104AA000882309F4ADCF8091D20290E001968770FF
:104AB00099278093D2029ECF1F93CF93DF93CDB7D8
:104AC000DEB764970FB6F894DEBF0FBECDBF882364
:104AD00051F119821A8281E08B830E94A7058160BF
:104AE000782F9D838C8349815A816B818D810E94AF
:104AF000CC241E821F8218860E94A7058160782F11
:104B00009A8789874E815F8168858A850E94CC2437
:104B100081E064960FB6F894DEBF0FBECDBFDF9183
:104B2000CF911F91089512E01B871C8681E08D872D
:104B30000E94A7058160782F9F878E874B855C85B3
:104B40006D858F850E94CC24188B198A1A8A0E9441
:104B5000A7058160782F9C8B8B8B488959896A893E
:104B60008C89D4CF1F920F920FB60F9211242F93DE
:104B70003F934F935F936F937F938F939F93AF93E5
:104B8000BF93CF93DF93EF93FF93D091E900DF7052
:104B90008091EC00C82FC17080FDC0E81092E90040
:104BA0008091F000877F8093F00078940E941E111E
:104BB0001092E9008091F00088608093F000CD2B86
:104BC000CF70C093E900FF91EF91DF91CF91BF913A
:104BD000AF919F918F917F916F915F914F913F9195
:104BE0002F910F900FBE0F901F9018951F920F924C
:104BF0000FB60F9211242F933F934F935F936F93B0
:104C00007F938F939F93AF93BF93EF93FF93809185
:104C1000E10082FF09C08091E20082FF05C080911F
:104C2000E1008B7F8093E1008091DA0080FF24C057
:104C30008091D80080FF20C08091DA008E7F809321
:104C4000DA008091D90080FF9BC080E189BD82E1BC
:104C500089BD09B400FEFDCF81E080934E038091B1
:104C60002903811109C00E9408040E94D304809185
:104C7000E20084608093E2008091E10080FF17C031
:104C80008091E20080FF13C08091E2008E7F8093CC
:104C9000E2008091E20080618093E2008091D80080
:104CA00080628093D80019BC85E080934E03809188
:104CB000E10084FF29C08091E20084FF25C080E1EB
:104CC00089BD82E189BD89B5982F917080FFFBCFA6
:104CD0008091D8008F7D8093D8008091E1008F7EF5
:104CE0008093E1008091E2008F7E8093E2008091CA
:104CF000E20081608093E20080914F03882309F4F1
:104D000045C084E080934E038091E10083FF27C07B
:104D10008091E20083FF23C08091E100877F809330
:104D2000E10082E080934E0310924F038091E100F6
:104D30008E7F8093E1008091E2008E7F8093E2007D
:104D40008091E20080618093E20042E060E080E0D8
:104D50000E94A1048091F00088608093F000FF9190
:104D6000EF91BF91AF919F918F917F916F915F91E3
:104D70004F913F912F910F900FBE0F901F9018955C
:104D800019BC10924E031092290376CF8091E30054
:104D900087FD93E090934E03B7CFCDB7DEB7AA97C8
:104DA0000FB6F894DEBF0FBECDBF84B7877F84BF38
:104DB0000FB6F894A8958091600088618093600098
:104DC000109260000FBE80E890E00FB6F8948093D8
:104DD0006100909361000FBE85B7806885BF85B77D
:104DE000806885BF83E995E09093C3018093C201F9
:104DF0000E9408040E94D3048091E20084608093A2
:104E0000E200789480914E038823A1F01091E9008C
:104E10001F709091EC00892F817090FD80E8182B15
:104E20001092E9008091E80083FD0E941E111F701E
:104E30001093E90082E084BD93E095BD9AEF97BDA1
:104E400080936E0080EF0E94900984E30E94900995
:104E500085E30E94900986E30E94900986E60E94FD
:104E6000900987E60E94900986EF0E94900987EFDB
:104E70000E94900983E90E94900986E90E949009A6
:104E8000EFEEF2E085EF92E0AFE1B3E011921D9218
:104E90008E179F07D9F70E94730F8FE39CE9019744
:104EA000F1F700C000000E94730F80911F0380FF84
:104EB00017C06FEF82E290E00E94392E6FEF83E21D
:104EC00090E00E94392E6FEF84E290E00E94392E2C
:104ED0006FEF7FEF90E080E00E94572E0E947F0DE1
:104EE00090E080E00E94332E8B3E9E4F11F00E9496
:104EF0005B10509A589A559A5D9A549A5C9A8CE035
:104F000090E00E94252E90E0B0E0A0E08093EB02BC
:104F10009093EC02A093ED02B093EE0282E290E057
:104F20000E94252E813209F049C583E290E00E945B
:104F3000252E883009F042C584E290E00E94252E9B
:104F4000873109F03BC590E080E00E94332E8B3E14
:104F50009E4F11F00E945B1082E090E00E94252E8F
:104F6000809315030E94470A9093F6028093F502FE
:104F700083E090E00E94252E682F70E090E080E0B2
:104F80000E941408609158037091590380915A034C
:104F900090915B030E9448198091F702811136C0FD
:104FA00090E080E00E94332E8B3E9E4F21F00E94C5
:104FB0005B100E94F91088E090E00E942D2E609313
:104FC000B0037093B1038093B2039093B3036E7FE9
:104FD00071F40E94F91088E090E00E942D2E6093F9
:104FE000B0037093B1038093B2039093B3030E9414
:104FF000210710921D038091B00380FF04C060E080
:1050000086950E94861881E08093F7025198599AFC
:1050100052985A9A89B1869581704A99F1C190E067
:10502000892B809307038BEC96E09093F902809391
:10503000F80260E081E20E94861861E070E080E0A2
:1050400090E00E941A1A81E391E09093FB02809312
:10505000FA0298E1C92ED12C20E4A22E8FE193E030
:1050600036E0B32EB80E80914E039924939400E15C
:1050700012E1853009F418C20E94730F882359F099
:105080008FB7F89440912503509126036091270330
:10509000709128038FBFE6E1F3E0AFE1B3E010E0E9
:1050A00000E0302F8D919191981709F426C2292F95
:1050B000282790E099249394422F492109F418C29B
:1050C00099A33AA3892191E009F490E09BA30E945F
:1050D000A7058160782F9DA38CA349A15AA16BA13C
:1050E0008DA10E94CC24F801EA5EFC4F80819826B5
:1050F000908280911D038823D1F180911C03E0915F
:10510000B003E695E81BE0930103823009F00CC27E
:10511000F0E0E851F94FE4910E2F10E08DEC882E6D
:1051200087E1982E80910203882361F01092020398
:105130000E94A705909300038093FF02109204033E
:10514000109203030E94A705E091FF02F091000373
:105150008E1B9F0B8F3F9F4750F4E00FF11FF09382
:105160000003E093FF028FEF92E0F4010995E091D4
:105170000703EE0FEE0FE093070389B181FBEE24E6
:10518000E0F84A993DC280E08E29E82BE0930703BE
:10519000EF70F0E0EE55FE4F808190910603890F8D
:1051A0008093060320E084304CF0809105038F5FEC
:1051B0008093050380E00E945C2521E08091060336
:1051C0008D3F4CF48091050381508093050381E06D
:1051D0000E945C2521E080910603082E000C990BAB
:1051E00064E070E00E94832D80930603222359F02F
:1051F0008FB7F894409125035091260360912703BF
:10520000709128038FBF86E0EEE0F3E0DE01119697
:1052100001900D928A95E1F7909010038090110310
:1052200010911203009113031092100310921103B6
:105230001092120310921303892D882909F448C093
:1052400080910C0390910D030E9498059C01909110
:105250000B03992309F4D9C323333105C8F19F3FC8
:1052600019F09F5F90930B03992059F00E94160943
:105270009FEF19140CF491E0899F802D11248093E5
:105280001003882059F00E9416099FEF18140CF49F
:1052900091E0899F802D1124809311033091100398
:1052A0003323B1F020911103222391F045EB340315
:1052B000C0011124992309F4A6C19093100345EB72
:1052C000240390011124332309F4A1C13093110365
:1052D000812F802B09F448C08091090390910A0323
:1052E0000E9498059C0190910803992309F488C3B2
:1052F00025363105C8F19F3F19F09F5F9093080351
:10530000112359F00E94F4089FEF11160CF491E05C
:10531000899F802D112480931203002359F00E944D
:10532000F4089FEF10160CF491E0899F802D112452
:1053300080931303309112033323B1F020911303B0
:10534000222391F045EB3403C0011124992309F481
:1053500062C19093120345EB24039001112433237F
:1053600009F45DC1309313038091100390911103F0
:10537000892B90911203892B90911303892B11F0A3
:105380000E94D00786E0FE013196AEE0B3E00190C6
:105390000D928A95E1F70E941007909114038917E6
:1053A00031F00E941007809314030E94EA09809153
:1053B0004E03843009F057CE83E08093E90080915A
:1053C000E80082FF50CE8091E80090E085FF06C0A3
:1053D0000E942704882309F426C191E08091E80007
:1053E0008B778093E800992309F43DCEE981E15061
:1053F000E33108F09AC1F0E0E65FF04D0C94972D90
:1054000092E00ECE80914E03843009F440C080E0DB
:105410000E94EA0910921D038091FE02811116C0BC
:105420009092FE028091B003982F91709093FD02AC
:105430008E7F8093B0034FEF80E792E04150804031
:105440009040E1F700C000000E94FB131092FC02A4
:105450000FB6F894A895C09260000FBEA0926000AD
:1054600083B7817F846083BF83B7816083BF789473
:10547000889583B78E7F83BF0FB6F894A8958091E7
:105480006000886180936000109260000FBE809180
:105490004D03882349F00E94730FEFE1F3E08191FF
:1054A000811176C2BE12FBCF80914E03853009F484
:1054B000A9CF0E9409110E9410070E94EA091092C8
:1054C000FE028091FD02882361F08091B00381602B
:1054D0008093B00360E086950E9486180E94E513D1
:1054E000CBCD80911E038823C9F30E94FB13F6CF16
:1054F0009F5F990C943009F0DFCD0F5F1F4F06308E
:10550000110509F0CECD8FEF8EA38FA318A60E94B0
:10551000A7058160782F9AA789A74EA15FA168A5EA
:105520008AA50E94CC24E5CD863059F4F0E0EB51F9
:10553000F94FE4910E2F10E0B1EE8B2EB7E19B2EC8
:10554000F1CD893061F4E695F0E0EE51F94FE49148
:105550000E2F10E0ABEB8A2EA5E19A2EE3CD8F3013
:1055600061F4E695F0E0E152F94FE4910E2F10E07E
:10557000F5EE8F2EF5E19F2ED5CD853159F4F0E073
:10558000E452F94FE4910E2F10E0E3E58E2EE6E1B0
:105590009E2EC8CD08E210E051EA852E56E1952EE8
:1055A000883109F4BFCD833249F4EAEDF6E0059184
:1055B000149174E7872E77E1972EB4CD04EF11E0B4
:1055C0004AE2842E47E1942E843209F4ABCD00EDFB
:1055D00017E032E9832E35E0932E853209F0A2CD13
:1055E0008E2F63E00E94552DE92FF0E0E952F94F2C
:1055F000E4910E2F10E06CE0862E65E1962E92CDA0
:1056000082E090E0C1CD81E08093100358CE81E02C
:10561000809311035DCE81E0809312039CCE81E0E4
:1056200080931303A1CE00E210E0CE0101964C015D
:105630008091E80085FD0AC08091E8008B77809317
:10564000E8000E942704882399F3C7CE8091F100D7
:10565000F40181934F010150110951F7BECE1A8216
:1056600089E08B832DC08A81823009F4C0C18330E8
:10567000A9F0813009F059C02FB7F8946091250343
:105680007091260380912703909128032FBF0E94D9
:105690009D2D6B837C838D839E8312C080911F031D
:1056A0008B83809120038C83809121038D83809153
:1056B00022038E83809123038F8380912403888724
:1056C00080914E03843009F0CECC1091E9001F7018
:1056D0009091EC00892F817090FD80E8182B82E07A
:1056E0008093E9008091E80080FF0DC050E040E029
:1056F00060E270E0CE0101960E9458048091E800BB
:105700008E778093E8001F701093E900ACCC8A81FB
:10571000823059F46B817C818D819E810E949D2D08
:1057200085E290E00E94392ECBCF8FEF8983C8CFDE
:105730004C816B818A810E94550A98278927982776
:105740009E838D83BDCF8D809E809824892498244C
:105750008A810B81F8E00F9F8001112420E3829F52
:10576000000D111D11248C8190E0880F991F080FE6
:10577000191F692DC80186960E94392E682DC8010F
:105780008796D0CF0E94820C9BCF8A818138C1F04E
:1057900060F4803809F094CF20E04B816091B2032F
:1057A0008091B1030E94F1178BCF823859F1833871
:1057B00009F086CF20E04091B3036C818B81F2CF5A
:1057C00060E08B810E9486189B818091B0039111CB
:1057D00011C08E7F8093B00310921D034FEF80E7BE
:1057E00092E0415080409040E1F700C000000E94EC
:1057F000FB1366CF81608093B00360E086950E94C2
:1058000086185ECF8B818093B4035ACF8A8181380A
:1058100099F030F4803809F053CF8091B30321CF51
:10582000823891F0833809F04BCF8091B1038B839C
:105830008091B2038C8344CF8091B00380FF02C07B
:1058400086950FCF80E00DCF8091B4030ACF609191
:10585000B0037091B1038091B2039091B3030E94A1
:10586000C5102ECF80E18A832BCF81E08A838AEF17
:10587000F8CE0A811B81102701271027FE013196DF
:105880003F018C80CF01880D911D4C01C8018A5FBA
:105890009D4F8614970409F413CF0A3FE1E01E07D9
:1058A00050F40E94252EF30184830F5F1F4FFFEFFA
:1058B0006F1A7F0AEBCFF3011482F7CF0A811B81A5
:1058C000102701271027CE0101963C018C80800E05
:1058D000912E911CC8018A5F9D4F0815190509F486
:1058E000EFCE0A3FE1E01E0720F4F30164810E943D
:1058F000392EFFEF6F1A7F0A0F5F1F4FEBCF0E9409
:10590000D40CDECE8AE0AFCF0A811B81102701279D
:105910001027CE0101963C018C80FC01E80DF11DA1
:105920004F01C80186968614970409F4C9CE003E3B
:10593000F1E01F0750F40E94252EF30184830F5FCE
:105940001F4FFFEF6F1A7F0AECCFF3011482F7CFDE
:105950000A811B81102701271027CE0101963C01E7
:105960008C80800E912E911CC8018696801691061F
:1059700009F4A6CE003EE1E01E0720F4F3016481A5
:105980000E94392EFFEF6F1A7F0A0F5F1F4FECCF77
:1059900009BD19BD09B400FEFDCF8091D8008F7DEF
:1059A0008093D8008091E00082608093E000809135
:1059B000E00081FDFCCF0E94091176CD60E085E218
:1059C00090E00E94392E0E94820C0E94D40C61E269
:1059D00082E290E00E94392E68E083E290E00E942B
:1059E000392E67E184E290E00E94392EACCA85E24C
:1059F00090E00E94252E1B821C821D828E8360CE29
:105A00002D32314008F079CCAFCC2D32314008F046
:105A100028CC5ECC78941F921FB61F9211248F93CE
:105A20009F93AF93BF938091250390912603A091FC
:105A30002703B09128030196A11DB11D8093250372
:105A400090932603A0932703B0932803BF91AF91AF
:105A50009F918F911F901FBE1F9018951F921FB688
:105A60001F9211248F939F93AF93BF938091FC0259
:105A7000811113C08091250390912603A0912703E3
:105A8000B09128034196A11DB11D809325039093E9
:105A90002603A0932703B0932803BF91AF919F9152
:105AA0008F911F901FBE1F901895991B79E004C01D
:105AB000991F961708F0961B881F7A95C9F780954D
:105AC000089587FB082E062687FD819567FD619561
:105AD0000E94552D0EF4919507FC81950895AA1BFF
