:100000000C94BD030C9404040C9404040C94040498
:100010000C9404040C9404040C9404040C94040440
:100020000C9404040C9404040C9477270C94332748
:100030000C9472280C9404040C9404040C9404048E
:100040000C9404040C9404040C9404040C94040410
:100050000C9404040C944E280C9404040C94040492
:100060000C9404040C9404040C9404040C940404F0
:100070000C9404040C9404040C9404040C940404E0
:100080000C9404040C9404040C9404040C940404D0
:100090000C9404040C9404040C9404040C940404C0
:1000A0000C9404040C9404040C94040400000FFF4A
:1000B00078FF000000000000D7FF78FF000000007C
:1000C000000080FF64FF00000000000005FF78FFD3
:1000D0000000000000005FFF5AFF00000000580011
:1000E0006000000058005E00000058005D00000045
:1000F00058005C00000057006000000057005F00DF
:10010000000005010902A10185020901A1000509FC
:1001100019012908150025019508750181020501BD
:10012000093009311581257F950275088106093846
:100130001581257F950175088106050C0A38021581
:1001400081257F950175088106C0C005010980A140
:1001500001850319012AB700150126B7009501751D
:10016000108100C0050C0901A101850419012AA014
:1001700002150126A002950175108100C005010934
:1001800006A1018505050719E029E7150025019558
:1001900008750181020507190029EF150025019551
:1001A000F075018102050819012905950575019170
:1001B00002950175039101C00660FF0961A1010963
:1001C00062150026FF00952075088102096315005D
:1001D00026FF00952075089102C005010906A101BE
:1001E000050719E029E71500250195087501810229
:1001F0009501750881010507190029FF150026FFE3
:1002000000950675088100050819012905950575F1
:10021000019102950175039101C0000000000000EA
:1002200000000000000000000000000000000000CE
:1002300000000000000000000000000000007E0F31
:1002400000D4FFFFFFC7000000780000000000009E
:1002500000002A2B28000000000000000000000021
:10026000000000000029000000002C1E3420212284
:1002700024342627252E362D3738271E1F202122ED
:10028000232425263333362E37381F040506070866
:10029000090A0B0C0D0E0F10111213141516171856
:1002A000191A1B1C1D2F3130232D35040506070894
:1002B000090A0B0C0D0E0F10111213141516171836
:1002C000191A1B1C1D2F3130354CD400CA00C00038
:1002D000B600AC00000000047F3F1F64321464329B
:1002E00014783C1E1E140A050001010101010101E0
:1002F00001010202020202020202020303030303DB
:1003000003030304040404040404050505050506A9
:100310000606060607070707070808080809090967
:10032000090A0A0A0B0B0B0C0C0C0D0D0D0E0E0E10
:100330000F0F0F10101111111212131314141515A1
:1003400016161717181819191A1A1B1B1C1D1D1E13
:100350001E1F202021222223242425262627282967
:10036000292A2B2C2D2D2E2F303132323334353695
:100370003738393A3B3C3D3E3F4041424344454695
:100380004748494A4C4D4E4F505153545556585971
:100390005A5B5D5E5F616264656668696B6C6D6F18
:1003A0007072737577787A7B7D7E8082838587888B
:1003B0008A8C8E8F91939596989A9C9EA0A2A3A5C5
:1003C000A7A9ABADAFB1B3B5B7BABCBEC0C2C4C6C6
:1003D000C9CBCDCFD1D4D6D8DBDDDFE2E4E7E9EB82
:1003E000EEF0F3F5F8FAFDFFFFAA7F554008070687
:1003F000050D0C0B0A11100F161514131A181B12E9
:100400000903010002040E17192223252628292A90
:100410002C2D2F3032333536383A3B3D3E40424367
:100420004547494A4C4E5051535557595A5C5E60A6
:1004300062646668696B6D6F71737577797B7D7FB8
:1004400081838587898A8C8E90929496989A9C9EB7
:100450009FA1A3A5A7A8AAACAEAFB1B3B4B6B8B9D3
:10046000BBBCBEBFC1C2C3C5C6C7C9CACBCCCDCE3B
:10047000D0D1D2D2D3D4D5D6D7D7D8D9D9DADADB1E
:10048000DBDBDCDCDCDCDCDDDDDDDDDCDCDCDCDCAA
:10049000DBDBDBDADAD9D9D8D7D7D6D5D4D3D2D2E9
:1004A000D1D0CECDCCCBCAC9C7C6C5C3C2C1BFBED1
:1004B000BCBBB9B8B6B4B3B1AFAEACAAA8A7A5A33C
:1004C000A19F9E9C9A98969492908E8C8A898785FB
:1004D00083817F7D7B79777573716F6D6B696866DA
:1004E0006462605E5C5A5957555351504E4C4A49AC
:1004F00047454342403E3D3B3A3836353332302F54
:100500002D2C2A2928262523224E007F004B00006F
:100510000001515400550056005F00600061005713
:10052000005C005D005E00000059005A005B00584E
:100530000062000000630000004F00010050000056
:10054000000100AD002C0053001450025303532A45
:100550000001000100010000000100010001000095
:100560005C005C000001000000300001002F000072
:100570000010500500170011030D00160007002D94
:1005800001060119011000000011011D03E10057CF
:10059000012C000000E2000000805F0100815F008C
:1005A000001050B9004A0017012B0352002B011A0A
:1005B00001500051004F000000B6002C00B7002889
:1005C000004E0000004B000000805F0100815F00D2
:1005D0000010500100010001000100520001000163
:1005E00000500051004F00000010033D080100536F
:1005F0000068000000690000000100010001000027
:1006000000010001000100010001000100010001E2
:1006100000010001000100000001000100010001D3
:1006200000010000000100000001000100010000C5
:1006300000010001000100010001000100010001B2
:1006400000010001000100000001000100010001A3
:100650000001000000010000000100010001000095
:100660000001000100010001000100010001000182
:100670000001000100010000000100010001000173
:100680000001000000010000000100010001000065
:100690000001000100010001000100010001000152
:1006A0000001000100010000000100010001000143
:1006B0000001000000010000000100010001000035
:1006C0000001000100010001000100010001000122
:1006D0000001000100010000000100010001000113
:1006E00000010000000100000009025B000301009E
:1006F000A0FA090400000103010100092111010011
:10070000012240000705810308000A0904010002D4
:1007100003000000092111010001222200070582C7
:100720000320000107050303200001090402000162
:100730000300000009211101000122B60007058411
:100740000320000A12010002000000084B411500BE
:100750000200010200010A0350005300310037007B
:1007600000001203410054004C0041004E005400B0
:100770004900530000000403090411241FBECFEFF9
:10078000DAE0DEBFCDBF04B603FE27C0809196033A
:1007900090919703A0919803B09199038730904B63
:1007A000A740B04BD1F41092960310929703109289
:1007B00098031092990314BE84B7877F84BF0FB645
:1007C000F894A895809160008861809360001092F1
:1007D00060000FBEE0E0F8E3099511E0A0E0B1E0B1
:1007E000E4EEFFE502C005900D92A43CB107D9F7F5
:1007F00023E0A4ECB1E001C01D92A639B207E1F7F5
:100800000E9499280C94B92F0C940000E8EDF0E0B8
:1008100080818E7F80831092E2001092DA00109225
:10082000E100A0EEB0E08C9181608C9380818F77A5
:10083000808319BCA7EDB0E08C918E7F8C93808172
:100840008F7E80831092090308952091E4003091F7
:10085000E50095E6A9012091EC00822F817020FF30
:1008600006C08091E80080FF06C080E008952091D6
:10087000E80022FD1AC080912E03882389F085307C
:1008800089F08091EB0085FD0FC02091E40030914C
:10089000E50042175307F9F29150E1F684E008951C
:1008A00082E0089583E0089581E00895EF92FF9239
:1008B0000F931F93CF937C018B010E942504C82FB7
:1008C000811117C08091E80085FD0BC08091E80080
:1008D0008E778093E8000E942504882399F3C82F1F
:1008E00008C0F70181917F018093F1000150110947
:1008F00049F78C2FCF911F910F91FF90EF900895A2
:100900008091300387FF13C08091E80082FF06C00A
:100910008091E8008B778093E80004C080912E03DB
:100920008111F2CF089580912E038823D9F380910D
:10093000E80080FFF8CF8091E8008E77ECCF982F09
:100940009093E900242F762F50E0891731F07091B1
:10095000EC002091ED005091F00021FD07C09F5F59
:10096000973071F78093E90081E008953091EB00B2
:100970003E7F3093EB003091ED003D7F3093ED00F2
:100980003091EB0031603093EB007093EC002093DA
:10099000ED005093F0002091EE0027FDE0CF80E0C5
:1009A0000895CF92DF92EF92FF920F931F93CF9310
:1009B000DF93C8EDD0E088818F7E8883E7EDF0E09B
:1009C00080818160808384E082BF81E0809309031D
:1009D00088818E7F888302EE10E0F80110821092E9
:1009E000DA0081EEC82ED12CF601108288818F7733
:1009F000888388818068888388818F7D888319BCFB
:100A000010922E0310922F0310922D0310922C039C
:100A100090EEE92EF12CF70180818B7F8083888115
:100A20008160888342E060E080E00E949F04F601DC
:100A300080818E7F8083F8018081816080838081C6
:100A400088608083F70180818E7F808388818061C8
:100A50008883DF91CF911F910F91FF90EF90DF90EE
:100A6000CF900895FC01809136039091370386174B
:100A70009707A0F06115710529F49091E8009E7721
:100A80009093E80090E06115710551F4911108C050
:100A90008091E80082FF34C080E00895BC01F2CF6D
:100AA00080912E038823C1F18530C1F18091E80047
:100AB00083FD30C08091E80082FDEACF8091E8009C
:100AC00080FFE1CF8091F3002091F200382F611573
:100AD000710519F02830310558F091E028303105C2
:100AE00009F090E02091E8002E772093E800CBCF2A
:100AF00081918093F100615071092F5F3F4FE7CFE3
:100B000080912E03882341F0853041F08091E800E8
:100B100083FFBECF81E0089582E0089583E00895C9
:100B200080910B0308959C014FB7F89480910003C6
:100B300090910103A0910203B09103034FBF821B68
:100B4000930B08952FB7F8948091000390910103BF
:100B5000A0910203B09103032FBF08952091FD02DD
:100B60003091FE022817390771F09093FE028093AE
:100B7000FD02E091FB02F091FC02309721F000842D
:100B8000F185E02D099408952091F9023091FA023F
:100B90002817390771F09093FA028093F902E091D7
:100BA000FB02F091FC02309721F00680F781E02DE6
:100BB00009940895E091FB02F091FC02309721F036
:100BC0000190F081E02D099480E00895DC016091AE
:100BD000F5028091F602962F891301C00895292FFE
:100BE00030E0F901EE0FFF1FE351FD4F40815181CD
:100BF0004A175B07A1F487E08A9FA0018B9F500DE5
:100C00001124485E5E4F81E0FA0184839613E6CF9B
:100C10002F5F3F4F237033272093F50208952F5FF6
:100C20003F4F922F9370D8CF10928A021092890270
:100C3000E8E1F1E08581811102C0148216823796C5
:100C400081E0E234F807B1F70895FA01811101C09B
:100C5000FB010994089580918E03982F9E7F61F483
:100C60008170826080938E0380919103853B18F0A0
:100C700084EB8093910308958A34B0F38170886483
:100C8000F1CFAF92BF92DF92EF92FF920F931F933B
:100C9000CF93DF93182F062FE901453B08F044EB73
:100CA000E42FF0E0E851FD4F011110C0E4915E2FF8
:100CB0004E2F4983E8835A83DF91CF911F910F9183
:100CC000FF90EF90DF90BF90AF900895202F30E01D
:100CD0004491D42EE42EF12C56E0159FC00111242E
:100CE000EFEFF0E0BF010E94BA2E812F90E0880F55
:100CF000991F55E5569FD001579FB00D11248A1BAF
:100D00009B0B982F990F890F5F01A21AB30AAE9C13
:100D1000D001AF9CB00DBE9CB00D11245B2F089F7D
:100D200080011124012F11275F01A01AB10AAE9C86
:100D30008001AF9C100DBE9C100D11245F01A81AFC
:100D4000B108A29EC001A39E900DB29E900D1124E9
:100D5000892F9927E81BF90BEE9DC001EF9D900D9F
:100D6000FE9D900D1124E92F62307105A1F050F421
:100D70006115710509F49DCF6130710581F0EB2F8C
:100D8000512F97CF6430710569F080F0663071059E
:100D900009F48FCFF4CFE42F4B2F592F8ACFE42FB4
:100DA000412F87CFEB2F542F492F83CF4B2F5D2D12
:100DB000E12F7FCF0E94A2059C0190917602809145
:100DC0007702982B21F03093730220937202909156
:100DD000780280917902982B21F030937102209350
:100DE0007002E091FB02F091FC02309749F082E042
:100DF000809374020480F581E02D84E792E00994E9
:100E0000089540917602803F59F48091770287FFE0
:100E10000DC01092770241110BC010926E0208C0F3
:100E2000813F81F48091770218169CF3442381F06E
:100E30008091780290917902892B09F05AC0109222
:100E40006D020895823F49F447FFF0CF1092760279
:100E5000809177028111ECCFE0CF833F19F4141613
:100E6000ACF3E4CF90917802893F29F41916F4F697
:100E700010927802DBCF8A3F19F497FFD7CFF8CFD3
:100E8000909179028B3F29F497FFD0CF109279028D
:100E9000CDCF8C3F19F41916CCF3C8CF9CE0980F36
:100EA000953090F4845F990B21E030E0B90102C0E5
:100EB000660F771F8A95E2F7CB01809590917502B6
:100EC000892380937502B2CF8D3F31F480916F02F8
:100ED0008E7F80936F02AACF8E3F21F480916F02A4
:100EE0008D7FF7CF8F3F09F0A1CF80916F028B7F6D
:100EF000F0CF089580916F0280FD16C081FD16C06D
:100F000082FD16C080916D028823A1F0883280F4A2
:100F100028E0829FC001112468E270E00E94CE2E7A
:100F2000862F672B39F0089582E0089584E00895B4
:100F300088E0089581E0089580916F0280FD14C0DB
:100F400081FD14C082FD16C080916E02882381F05D
:100F5000843180F422E3829FC001112464E170E0B7
:100F60000E94CE2E862F08958CE0089589E1089581
:100F700085E0089582E30895803F31F40E949C0744
:100F80008195809377020895813F19F40E949C0710
:100F9000F8CF823F31F40E949C07819580937602BE
:100FA0000895833F19F40E949C07F8CF893F29F4E4
:100FB0000E947A078093780208958A3F21F40E9464
:100FC0007A078195F7CF8B3F31F40E947A0781959C
:100FD0008093790208958C3F19F40E947A07F8CF24
:100FE0009CE0980F953070F4845F990B21E030E01D
:100FF00001C0220F8A95EAF780917502822B8093B7
:10100000750208958D3F31F480916F028160809365
:101010006F0208958E3F21F480916F028260F7CFB6
:101020008F3FB9F780916F028460F1CF80E008951F
:10103000F894E82FE295EF70F0E031A1282F2F709F
:1010400081E090E001C0880F2A95EAF7982F9095EB
:10105000932391A392A1892B82A3789408959091D0
:10106000040392FF06C0282F28712830F9F4877FE7
:10107000846093FF06C0282F28712831F1F4877E01
:1010800084612091050320FF06C0382F3871383065
:10109000D9F4877F816021FF06C0282F287128316D
:1010A000D1F4877E816194FD877E0895282F247175
:1010B0002430F9F68B7F8860DCCF282F247124310F
:1010C00001F78B7E8861DDCF382F3171313019F710
:1010D0008E7F8860E0CF282F2171213121F78E7E0D
:1010E0008861E1CFCF93DF93EC0182389105A9F1BC
:1010F000D8F58133910509F496C048F589329105F8
:1011000009F48AC08A9709F495C0C11521E5D20770
:1011100008F0BCC0C11530E5D30708F014C1C83EC3
:10112000D10508F09CC0C03ED10560F5C83AD10594
:1011300008F087C0C53AD10508F0FDC0C130D1051F
:1011400009F12097F9F0C430D105E0F440C08533AF
:10115000910509F45AC0C997C1F6809104038370C0
:1011600089F0C0EED0E00EC0833E910599F170F495
:10117000803E910501F1823E910539F6809104038C
:1011800082FD21C0CE01DF91CF910895863E910569
:1011900061F1873E910571F1843E910509F0B5CF6B
:1011A0008091050381FFEECF80910403C7EED0E06C
:1011B00084FD0DC0E7CF8091040380FD12C19091A2
:1011C000050390FFDFCFC3EED0E084FFDBCFD0E09C
:1011D000C0E0D8CF8091040382FD06C19091050341
:1011E00090FDBFCF84FFCECFF2CF8091040383FD6B
:1011F000DDCFC8CF8091040383FDF9C09091050332
:1012000091FFF0CFC4EED0E0BDCF8091040385FF05
:10121000B9CFC9E2D0E0B6CF8091040385FFB2CF49
:10122000C5E3D0E0AFCF8091040386FFABCFCAE225
:10123000D0E0A8CF8091040386FFA4CFC1E3D0E023
:10124000A1CFCF3BD10518F6C85AD0E0CC0FDD1F97
:10125000C95BDE4F0990D881C02DD46493CFC115EE
:1012600040E2D40758F4C11581E0D80708F08ACFCE
:10127000C03FD10508F4ABCFD06584CFC11590E451
:10128000D90708F4A4CFDF70D06A7CCFC11525E55B
:10129000D20700F5C11534E5D30708F08AC0C1159F
:1012A00043E5D40708F071C0C11582E5D80708F4FA
:1012B00067C0CE018370992721E030E002C0220F81
:1012C000331F8A95E2F7C695C69580E2C89FE00174
:1012D000112452C0C11599E5D907A8F4C11528E514
:1012E000D20708F06BC0C11536E5D30708F06FCF01
:1012F0008C2F0E942F08C82FD0E0DC2FCC27CC27C2
:10130000DF71D0623FCFC1154AE5D40708F45BC056
:10131000CE0190568115904208F059CF8D2F8F71D4
:101320000E942F0890E0982F882788279F719C01A2
:101330002C2BE901E6CFC55AD0E0CC5BDE4FC8814B
:10134000D0E0D0641FCFCE01E4E096958795EA9572
:10135000E1F783702C2F26952695237040E2249F79
:1013600090011124382B8C2F8370C1E0D0E002C093
:10137000CC0FDD1F8A95E2F7C22BD32BDC6802CF9E
:10138000DC2FCC27C16FD06AFDCECE0183709927A8
:1013900021E030E002C0220F331F8A95E2F7C695A4
:1013A000C69590E2C99FE0011124C22BD32BDA68C5
:1013B000E9CEDC2FCC27C46FD06AE4CEDC2FCC275B
:1013C000C06FD06ADFCE8C2F8F700E942F0834E060
:1013D000D695C7953A95E1F7CF709C2FEC01D0696F
:1013E000D1CEC9E3D0E0CECEC2EED0E0CBCEC6EEB9
:1013F000D0E0C8CE80914402811110924402089539
:101400008091430290914202892B90914102892B55
:101410008093C601909144029923A1F0892B809377
:10142000C60180914301882341F18091040387FF25
:1014300024C08EE1E8ECF1E090E0815000F59111DC
:101440000E94FA09E091FB02F091FC023097E1F072
:1014500080914301882359F08091040387FF07C0DE
:101460008091C6018093C70185E08093C601028008
:10147000F381E02D86EC91E0099486E0DBCF2191A9
:101480002223D9F29F5FD9CF0895909143019923E8
:10149000D1F09091040397FF16C0E82FE695E695EA
:1014A000E695EE31E0F4F0E0EA53FE4F282F277086
:1014B00081E090E001C0880F2A95EAF7809592813B
:1014C000892382830895E8ECF1E09191891303C0A8
:1014D000DF0111971C9291E0EE3CF907B1F70895F6
:1014E000909143019923C1F09091040397FF14C098
:1014F000E82FE695E695E695EE31F8F4F0E0EA534C
:10150000FE4F877021E030E001C0220F8A95EAF794
:101510008281822B82830895A8ECB1E0EFEF90E006
:101520002D91821751F0EF3F19F4211101C0E92FDD
:101530009F5F9630A9F7EF3F09F408950E2E000C37
:10154000FF0BEA53FE4FE6CF80913F029091FE01E0
:10155000981301C008958F5F8770FACF990F990F84
:10156000890F982F977086958695869524E0829F9F
:10157000F0011124E651FE4F50E040E080E021915F
:1015800030E0092E02C0369527950A94E2F72170C3
:101590003327042E01C0220F0A94EAF7822B4F5FF3
:1015A0005F4F4430510559F70895990F990F890FEE
:1015B000982F977041E001C0440F9A95EAF78695FD
:1015C0008695869594E0899FF0011124E651FE4F9F
:1015D00030E020E070E05191DF011197CB01022E45
:1015E00002C0969587950A94E2F7817081958527C8
:1015F000842385278C932F5F3F4F2430310559F783
:10160000089590E080E00E94C40590E080E00E9490
:10161000AE0510924202109241020E94000A86E03A
:10162000E4E7F2E0DF011D928A95E9F710926E027D
:1016300010926D0210926F020C94DA06909346029B
:10164000809345020C94010B882341F08095909182
:1016500042028923809342020C94000A0895882351
:1016600039F090914202982B909342020C94000A18
:101670000895882341F080959091430289238093B7
:1016800043020C94000A0895882339F09091430294
:10169000982B909343020C94000A0895882309F430
:1016A00059C0823871F40E94DA0581FF53C089E382
:1016B0000E94700A0E94000A89E30E94450A0C9465
:1016C000000A833859F40E94DA0580FF43C083E59D
:1016D0000E94700A0E94000A83E5EFCF843859F413
:1016E0000E94DA0582FF36C087E40E94700A0E94D9
:1016F000000A87E4E2CF9CEF980F913AF0F290E273
:10170000980F983088F4877021E030E0A90102C07A
:10171000440F551F8A95E2F7CA01809590914302C4
:10172000892380934302CBCF9BE5980F933020F41D
:1017300090E080E00C94C40598E5980F973120F470
:1017400090E080E00C94AE05803F20F00E940107FD
:101750000C94DA060895809580FF08C0589A81FF9E
:1017600007C05D9A82FF06C05C9A08955898F7CF2B
:101770005D98F8CF5C98089590912E03943029F5E8
:101780008093060370930803609307039093E90026
:101790008FEF9091E800815095FD06C095ED9A95E8
:1017A000F1F700008111F5CF8091E80085FF0DC0B1
:1017B00050E040E063E070E086E093E00E94560471
:1017C0008091E8008E778093E8000895BC0184E062
:1017D0000C94BC0BBC0183E00C94BC0B9C0184E01A
:1017E0008093E9009FEF8091E800915085FD06C04D
:1017F00085ED8A95F1F700009111F5CF8091E80011
:1018000085FF0CC050E040E066E070E0C9010E9436
:1018100056048091E8008E778093E8000895CF9376
:10182000DF93EC01809143018823B1F1809104039F
:1018300087FF32C060E284E08093E9008FEF9091EF
:10184000E800815095FD06C095ED9A95F1F70000EE
:101850008111F5CF8091E80085FF1BC08091430185
:1018600070E050E040E0811104C050E040E068E0EA
:1018700070E0CE010E9456048091E8008E7780933C
:10188000E80080E2FE01ACE0B3E001900D928A95A1
:10189000E1F7DF91CF91089568E081E0CDCF81E05D
:1018A0008093E00080E28093D8001092C9008FE11D
:1018B0009EE40197F1F700C0000087E090EBDC01A7
:1018C0008093960390939703A0939803B093990302
:1018D00088E19CE00FB6F894A895809360000FBE55
:1018E00090936000FFCFCF93C82F882309F4AEC038
:1018F0008238C1F40E94DA0581FDA8C089E30E9404
:10190000700A0E94000A2FEF81EE94E0215080407F
:101910009040E1F700C0000089E30E94450ACF91A2
:101920000C94000A8338A1F40E94DA0580FD8EC071
:1019300083E50E94700A0E94000A2FEF81EE94E076
:10194000215080409040E1F700C0000083E5E5CFE2
:101950008438A1F40E94DA0582FD78C087E40E94F1
:10196000700A0E94000A2FEF81EE94E0215080401F
:101970009040E1F700C0000087E4CFCF8CEF8C0FE0
:10198000813A88F580914301882301F18091040315
:1019900087FF1CC0EC2FE695E695E695F0E0EA534C
:1019A000FE4F828190E04C2F477021E030E002C072
:1019B000220F331F4A95E2F782239323892B79F074
:1019C0008C2F0E94450A0E94000A09C0E8ECF1E051
:1019D0008191C817A9F321E0EE3CF207C9F78C2FDB
:1019E0000E94700A9CCF80E28C0F883068F4C77028
:1019F00021E030E001C0220FCA95EAF7809143024E
:101A0000822B809343028BCFEBE5EC0FE33040F465
:101A1000F0E0EC5BFE4F808190E0CF910C94C40528
:101A2000E8E5EC0FE73150F4F0E0EE0FFF1FE95B63
:101A3000FE4F80819181CF910C94AE05C03F30F074
:101A40008C2F0E94BC07CF910C94DA06CF91089599
:101A50001F93CF93DF93182FD0E0C0E0893311F4A8
:101A6000C0E5D0E0812F0E94730C209731F4812FC4
:101A7000DF91CF911F910C944E0B8FE99FE001975E
:101A8000F1F700C000002197F0CF0F931F93CF9381
:101A9000DF93C62FD42F022FFC0182818823A1F06F
:101AA000609395030E94A2059093940380939303FF
:101AB000C77081E001C0880FCA95EAF7DF91CF9126
:101AC0001F910F910C94440B80919503681335C0BE
:101AD00080919303909194030E949305883C910513
:101AE00060F510E21D0FCD17B9F080E28C0F883041
:101AF00040F4C77081E001C0880FCA95EAF70E94E0
:101B0000390B183048F481E09D2F977001C0880F81
:101B10009A95EAF70E94440B802F0E94280D1830F6
:101B200098F4D77081E001C0880FDA95EAF7DF9169
:101B3000CF911F910F910C94390BC77081E001C0B8
:101B4000880FCA95EAF7F3CFDF91CF911F910F91DC
:101B50000895DF92EF92FF920F931F93CF93DF933D
:101B6000E82FF0E0E65BFD4FD490282F26952695D0
:101B7000269530E0F901E65CFD4F0491877010E096
:101B8000082E02C0159507950A94E2F701701127F7
:101B9000F901E65DFD4FE490F12C082E02C0F594AA
:101BA000E7940A94E2F791E0E922FF24F901E65E66
:101BB000FD4FC491D0E002C0D595C7958A95E2F754
:101BC000C170DD270115110519F081EE0E94730C1B
:101BD000E114F10419F086EE0E94730C8D2D0E9421
:101BE000280DEF2819F086EE0E944E0B012B19F0FC
:101BF00081EE0E944E0BCD2B51F08CE2DF91CF9104
:101C00001F910F91FF90EF90DF900C94280DDF91C2
:101C1000CF911F910F91FF90EF90DF900895CF9398
:101C2000DF93C7E0D2E060E0CE010E94852F2196CD
:101C3000C11584E0D807B9F7DF91CF9108956F926D
:101C40007F928F929F92AF92BF92CF92DF92EF924C
:101C5000FF920F931F93CF93DF9389E0C82E85E007
:101C6000D82E0FE510E0E801E09736011CC0F50121
:101C700085909490692DC7010E94852F682DC7011A
:101C800001960E94852F82E0A80EB11C82E0E80E2A
:101C9000F11CCE15DF0559F788E0680E711C2896F7
:101CA0000C171D0731F07E0188E0E81AF108530196
:101CB000DECF005D1F4F80E3C80ED11C0F3382E0E2
:101CC000180789F6DF91CF911F910F91FF90EF9048
:101CD000DF90CF90BF90AF909F908F907F906F904C
:101CE0000895CF93C82F6FEF811161E283E290E0F6
:101CF0000E94852F6FEFC11169E084E290E00E949D
:101D0000852F6FEFC11163E085E290E0CF910C94D5
:101D1000852F80E00E94710E60E086E290E00E94D4
:101D2000852F0E941F0E0E940F0E81E00C94710EF1
:101D3000CF93C0910503C2FB992790F9981781F0C2
:101D400080FBC2F9C09305036091040384E090E036
:101D50000E94852F6C2F82E290E0CF910C94852F0A
:101D6000CF9108950F931F93CF93DF9328E0629F45
:101D7000E001112450E0440F551FC40FD51F30E37C
:101D8000839FC00DD11D1124CE0187960E94712F13
:101D9000082F10E0102F0027CE0188960E94712F87
:101DA0009801282BC901DF91CF911F910F910895C0
:101DB000462F8A3038F4763028F4643018F4672FD0
:101DC0000C94B20E90E080E00895BF92CF92DF9223
:101DD000EF92FF920F931F93CF93DF937C010091BB
:101DE0003803109139038091450290914602082BE7
:101DF000192BCFE0D0E0CC24C394D12CBC2EC6014B
:101E00000C2E02C0880F991F0A94E2F780239123B9
:101E1000892B71F4219790F7B12C8B2DDF91CF9105
:101E20001F910F91FF90EF90DF90CF90BF9008959A
:101E3000B7018C2F0E94D80E0E947208019751F3AF
:101E4000ECCFCF93DF93EC010E94E50EBE010E9420
:101E5000D80EDF91CF910C947208FC018681978196
:101E6000009779F00E947208292F2F7092959F7029
:101E700092509E30A0F4E92FF0E0E554F04D0C9420
:101E8000042F808191810E94210FEECF803F19F0B5
:101E900020F4883E20F481E00895843FE1F380E05F
:101EA0000895883EC0F3813FD1F7F5CF822F869504
:101EB0008695869508951F93CF93DF9300D000D029
:101EC0000F92CDB7DEB7FC01268137812115310590
:101ED00041F525E0DE01119601900D922A95E1F77A
:101EE000FC01228189819A812223B9F06623A9F01D
:101EF0000E94E50E182F682F89819A810E94D50AC9
:101F000069817A81812F0F900F900F900F900F9021
:101F1000DF91CF911F910C94D80E0E94AE0A182F1A
:101F2000EFCFC9010F900F900F900F900F90DF919E
:101F3000CF911F91089583E290E00E94712F81322A
:101F400089F484E290E00E94712F893059F485E28F
:101F500090E00E94712F91E0833009F090E0892F8A
:101F60008170089580E0FCCFCF9384E090E00E94E0
:101F7000712FC82F82E290E00E94712F982F8C2F32
:101F8000CF91089560918E03669570E04BE050E02C
:101F90008AE091E00E94572F892B19F481E0809309
:101FA00084020E94A20590937E0280937D02089590
:101FB0005F926F927F928F929F92AF92BF92CF92D9
:101FC000DF92EF92FF920F931F93CF93DF93CDB7E2
:101FD000DEB7C455D1090FB6F894DEBF0FBECDBF32
:101FE00080918E0380FD0AC0EAE3F3E01182108243
:101FF0001282339623E0EE38F207C1F780907B021D
:1020000090907C028114910409F459C080917A0265
:10201000811155C0D12CC12C66246394712C13E01E
:10202000512E8091850293010C2C01C0220F0A943D
:10203000EAF7822309F43BC0F601EE0FFF1FE80D1B
:10204000F91DE590F490E114F104C9F145E050E088
:10205000B701CE0101960E944E2F09810F3F39F141
:102060008A81800F9927991F8D31910514F08CE199
:1020700090E05C01AA0CBB1C8A0D9B1DFC01E65C78
:10208000FC4F5F01059D80011124065C1C4F0A1561
:102090001B0520F0F5E0EF0EF11CD8CF98014D8123
:1020A0006C818B810E9441060D5F1F4FF0CF2FEF97
:1020B000C21AD20A38E0C316D10409F0B2CF7DEEBD
:1020C000A72E73E0B72EDE011196AE014B5A5F4F7B
:1020D0001A2F7B2FF5018491282F30E0C901880F3A
:1020E000991F820F931F865C9C4FFC01C080D1809A
:1020F000E280CD92DD92ED92FFEFAF1ABF0AA417F6
:10210000B50741F7279A35B13F7725B120686FB7FA
:10211000F894812F972FFC017191CF01E8E025B948
:10212000000000C077FF35B9770F000000C000C085
:1021300000C035B900C0EA9591F78417950759F7A3
:102140006FBF8FE594E00197F1F700C00000CC5A13
:10215000DF4F0FB6F894DEBF0FBECDBFDF91CF913A
:102160001F910F91FF90EF90DF90CF90BF90AF90B5
:102170009F908F907F906F905F9008951F93CF9363
:10218000DF9300D00F92CDB7DEB7162F90918E035C
:1021900090FF18C09E012F5F3F4F48E76FEF0E94EE
:1021A00041068B819981612F70E0FB01EE0FFF1FCB
:1021B000E60FF71FE65CFC4F2A8121839083828320
:1021C0000E94D80F0F900F900F90DF91CF911F9129
:1021D0000895EF92FF920F931F93CF93DF938C019B
:1021E000CAE3D3E0F12CE12CF801948160919003D3
:1021F00080918F03FEE0EF16F104FCF49923F9F0CF
:102200009E01409191030E9441062FEFE21AF20ACB
:1022100023968CE1E816F10439F70E94D80FF801F3
:10222000848190E00196817099278483DF91CF911A
:102230001F910F91FF90EF900895992309F39E014C
:1022400040E0E1CF8F929F92AF92BF92CF92DF9208
:10225000EF92FF920F931F93CF93DF93EC014C818A
:10226000042F10E09801D8010E94192F9B01AC01A6
:102270000E942F2F4B015C01E0E2F0E0E01BF10B2C
:10228000A5E5B0E0AC019B010E942F2F6B017C0102
:102290009F01DF010E94112F9B01AC010E943A2F88
:1022A0009B01AC01280D391D4A1D5B1DC701B601FC
:1022B0000E94E22EF22E822F90E039E23F15D8F1F3
:1022C00043E0249F9001112435952795122F1095F6
:1022D0009AE3C92E93E0D92E00E085E5E82EEF18A9
:1022E0008E2D01FD8F2D9601412F609190030E944C
:1022F00041060F5F53E0C50ED11C0C3189F70E94D7
:10230000D80F9C8181E0992319F0903219F48FEF56
:102310008093170180911701890F8C83DF91CF91F2
:102320001F910F91FF90EF90DF90CF90BF90AF90F3
:102330009F908F90089525E530E0A901481B590B27
:10234000CA019A01220F331F280F391F37FFBCCF54
:102350002F5F3F4FB9CF0F931F93CF93DF93CAE304
:10236000D3E0FE01118210821282339683E0EE38B0
:10237000F807C1F710E000E080918702082E000CFA
:10238000990B081719078CF180911601082E000C83
:10239000990B801791074CF19E0140919103609138
:1023A000900380918F030E9441060F5F1F4F239679
:1023B0000C31110509F70E94D80F809115019091F9
:1023C0008702980F9093870220911601280F20937F
:1023D0001601121614F49B311CF08195809315019F
:1023E000DF91CF911F910F910895198218821A825F
:1023F000DCCFBF92CF92DF92EF92FF920F931F93A9
:10240000CF93DF93FC018281DD24DA9480FD02C04A
:10241000DD24D3940AE313E0D0E0C0E02CE1B22E37
:10242000F80111821082128294E0E92EF12CC12C65
:10243000809186028C0D8D310CF43DC06B2D0E9475
:10244000AC2E892F082E000C990B8C179D0791F448
:10245000809191038E9DA0018F9D500D1124559563
:1024600047955595479598016091900380918F030A
:102470000E944106CD0CF1E0EF1AF108C9F6219651
:102480000D5F1F4FCC31D10559F60E94D80F8091B6
:10249000860291E0D91215C0811111C08BE18093A1
:1024A0008602DF91CF911F910F91FF90EF90DF9007
:1024B000CF90BF90089587FFC5CF845EC3CF815072
:1024C000EECF90E00196BE010E94CE2EE8CFEF92B3
:1024D000FF921F93CF93DF93EC018AE3E82E83E012
:1024E000F82E10E08C819701409191036091900348
:1024F000810F0E944106175F83E0E80EF11C1C3F2C
:1025000089F70E94D80F9A818C8190FF08C08F5F55
:102510008C83DF91CF911F91FF90EF9008958150B0
:10252000F7CF90918E0390FF0CC0EAE3F3E0818334
:1025300060834283339693E0EE38F907C1F70C9439
:10254000D80F08950F931F93CF93DF9300D00F926E
:10255000CDB7DEB78C018091880281110AC09E013F
:102560002F5F3F4F44EB6FEF0E9441068A818093BB
:102570008802F8016481613069F08091880240E04E
:10258000662361F040E0623011F44091880280E0FF
:1025900060E004C06091880240E080E00E949112F7
:1025A000F801848190E0019663E070E00E94CE2EF5
:1025B00084830F900F900F90DF91CF911F910F9117
:1025C0000895CF93DF9300D00F92CDB7DEB79091EF
:1025D0008E0390FF0AC09E012F5F3F4F0E9441066D
:1025E0004B8169818A810E9491120F900F900F9008
:1025F000DF91CF910895CF93DF93EC01EEE8F3E004
:10260000438162818C810E94E1128C818F5F8C8377
:10261000DF91CF910895CF93DF93EC01EC81F0E04F
:10262000E75FFB4F4491EEE8F3E0628181810E9415
:10263000E1128C818F5F8C83DF91CF910895CF92CF
:10264000DF92EF92FF926B017C010E942B06B70193
:10265000A60188E090E0FF90EF90DF90CF900C947F
:10266000972F5F926F927F928F929F92AF92BF92BD
:10267000CF92DF92EF92FF920F931F93CF93DF934E
:1026800000D00F92CDB7DEB7182F762E042F622E12
:1026900090918E0390FF29C0E92FE695AE2FB0E010
:1026A000A157BE4F8C91809383029E7F923081F51B
:1026B0009E012F5F3F4F812F0E9441064B81698110
:1026C0008A810E94911210938F037092900300935D
:1026D0009103662051F060918E0370918F03809179
:1026E0009003909191030E941F130F900F900F90F1
:1026F000DF91CF911F910F91FF90EF90DF90CF90DE
:10270000BF90AF909F908F907F906F905F90089553
:10271000823019F400919103D6CF863019F41091CC
:102720008F03D1CF8930D9F3893169F6E9518E2FE2
:102730008170582EE695F0E0E851FC4FA590B490DA
:10274000BB248AE3E82E83E0F82ED12CC12C9CE137
:10275000892E912CC601B4010E94BA2E812F5110EE
:1027600013C0860F9701402F672D0E944106CA0CA7
:10277000DB1C83E0E80EF11C8EE8E81683E0F80627
:1027800049F70E94D80F9FCF861BECCFEEE8F3E00D
:10279000438128E0421B08F440E021E0628181810E
:1027A0000C943113EEE8F3E0438128E0420F08F483
:1027B0004FEF21E0628181810C943113EEE8F3E068
:1027C000628128E0621B08F460E021E0438181819E
:1027D0000C943113EEE8F3E0628128E0620F08F414
:1027E0006FEF21E0438181810C943113EEE8F3E037
:1027F000818121E04381628188500C943113EEE89D
:10280000F3E0818121E043816281885F0C94311380
:1028100080919203882319F08150809392036091F4
:102820008E0370918F0380919003909191030C948B
:102830001F1380919203833018F48F5F809392036B
:1028400060918E0370918F0380919003909191031A
:102850000C941F1390918E0390FF36C091708111DC
:1028600029C0926090938E03662351F060918E038D
:1028700070918F0380919003909191030E941F1398
:1028800060918E03669570E04BE050E08AE091E045
:102890000E94572F892BA9F01092840281E0809327
:1028A000800220E0409191036091900380918F031A
:1028B0000C943113853210F09864D4CF880F982B84
:1028C000D1CF0E94C20FEACF089521E030E0A901E4
:1028D00002C0440F551F8A95E2F7CA012091850274
:1028E000662399F0822B8093850280918402811166
:1028F00006C080918E0360E086950E942A14809124
:102900008E0380FD05C00C94D80F80958223EBCFF9
:1029100008950F931F93CF93DF93EC0161E000972D
:1029200009F0682F617080E00E94651460E02097D4
:1029300021F0BE0176956795617081E00E94651473
:1029400060E0209731F0BE017695679576956795A2
:10295000617082E00E94651460E0209739F0BE014A
:1029600013E0769567951A95E1F7617083E00E9410
:10297000651460E0209739F0BE01B4E07695679564
:10298000BA95E1F7617084E00E946514AE0170E0D1
:1029900060E0BB27A72F962F852F0097A105B105D3
:1029A000D9F1AC01BD0188E08A019B01F4E03695C4
:1029B000279517950795FA95D1F70115110521056A
:1029C000310519F08C5FB901A8018A019B01E2E091
:1029D0003695279517950795EA95D1F701151105B5
:1029E0002105310519F08E5FB901A801769567952B
:1029F00057954795452B462B472B09F08F5F823023
:102A000011F160F4882399F08130C1F0CE01DF919B
:102A1000CF911F910F91089580E0C6CF8330C1F010
:102A20008430A1F720E044E66FEF8FE004C020E09F
:102A300044E66FEF82E30E943113E8CF20E044E6E2
:102A40006FEF85E0F8CF20E044E66FEF80E8F3CF4A
:102A500020E044E66FEF87EDEECF0E94891490935B
:102A60003903809338030C94010B809138039091C3
:102A700039039C01267033272630310519F488600C
:102A80000C942D15877FFCCF21E030E002C0220F8F
:102A9000331F8A95E2F72095309580913803909105
:102AA0003903822393230C942D1590914002809535
:102AB000892380934002282F277039F4282F082E6D
:102AC000000C330B9217130621F49091050392FF2B
:102AD00007C08595859585950E9444151092400202
:102AE000089521E030E002C0220F331F8A95E2F7FB
:102AF0008091380390913903822B932B0C942D15E0
:102B000080918E038695815009F484E261E00C94F3
:102B10002A1480918E0386958F5F853208F081E0BC
:102B200061E00C942A1490918E0390FF07C0969553
:102B3000981720F0961710F40C94891561E00C9406
:102B40002A14EEE8F3E083E0808311828FEF828322
:102B500088E28383148260817181828193810C94E5
:102B60001F1369EE7EEF90E080E00E94A32F60E0EB
:102B700082E090E00E94852F60E083E090E00E9478
:102B8000852F109246021092450260E084E090E0AA
:102B90000E94852F60E082E290E00E94852F60E035
:102BA00085E090E00E94852F60E086E090E00E9442
:102BB000852F6FEF87E090E00E94852F40E050E086
:102BC000BA0188E090E00E94972F60E08DE090E0ED
:102BD0000E94852F40E050E0BA0188E190E00E9419
:102BE000972F60E087E190E00E94852F40E050E061
:102BF000BA018CE190E00E94972F70E060E080E2E3
:102C000090E00E94A32F40E050E0BA0188E190E0FC
:102C10000E94972F80E00E94710E0E94890E40E072
:102C200050E0BA018FE090E00E94972F40E050E022
:102C3000BA0183E190E00C94972F90E080E00E942D
:102C40007F2F893E9E4F11F40C949B0F80E00895D6
:102C50001092430280914301E8ECF1E0882359F09F
:102C60008091040387FF07C08EE1DF011D928A95E2
:102C7000E9F70C94010B86E0F8CF1F93CF93DF9315
:102C8000CDB7DEB7AA970FB6F894DEBF0FBECDBFA3
:102C900080E393E02091F100DC012D93CD01B3E0BE
:102CA00088339B07B9F780913103833009F471C0F1
:102CB000B8F4813009F448C0823009F4B2C0809180
:102CC000E80083FF3AC180913003909131039A303C
:102CD00008F033C1E92FF0E0E753F04D0C94042FD6
:102CE0008A3009F48DC08B3009F470C0893039F70F
:102CF00080913003813219F780913403909135032C
:102D0000009711F00297D9F68091E800877F8093B1
:102D1000E8008091E80082FF37C09091F300809135
:102D2000F200029729F48091F1008B7F813021F429
:102D30008091F10080930B038091E8008B77809362
:102D4000E8000E948004BBCF80913003813A09F0F3
:102D5000B6CF8091E800877F8093E80080913403AC
:102D600090913503892B61F460E28CE093E070E090
:102D70000E9432058091E8008B778093E8009FCF16
:102D800060E090E080E0F3CF80912E038111C1CF0D
:102D900096CF80913003813A09F091CF809134032E
:102DA00090913503892B09F08ACF8091E800877FC5
:102DB0008093E8008091E80080FFFCCF8091430180
:102DC0008093F1008091E8008E77B9CF8091300335
:102DD000813209F074CF8091340390913503892BAF
:102DE00009F06DCF8091E800877F8093E8000E9412
:102DF000800480913203809343010E9428165FCFA4
:102E000080913003813209F05ACF8091E800877FAA
:102E10008093E8000E9480048091330380930A032A
:102E20004ECF80913003813A09F049CF8091E8007C
:102E3000877F8093E8008091E80080FFFCCF80913D
:102E40000A03BECF803899F0823809F076C08091AD
:102E500034038F70873008F070C08093E900809150
:102E6000EB0085FB882780F91092E90006C080916D
:102E70002C0390912D03911182609091E800977F2F
:102E80009093E8008093F1001092F1008091E800A7
:102E90008E77B5C1882309F4A2C1823009F04DC0F4
:102EA000809132038111A6C1809134038F702FEF7E
:102EB000280F263008F041C08093E9002091EB00F4
:102EC00020FF98C1933031F48091EB0080628093B1
:102ED000EB0090C19091EB0090619093EB0021E0AA
:102EE00030E001C0220F8A95EAF72093EA001092A1
:102EF000EA008091EB008860EACF81111EC010913A
:102F000032031F778091E3008078812B8093E30068
:102F10008091E800877F8093E8000E948004809180
:102F2000E80080FFFCCF8091E30080688093E3009D
:102F300082E0111183E080932E038091E80083FFEB
:102F40000AC08091E800877F8093E8008091EB00C1
:102F500080628093EB00AA960FB6F894DEBF0FBE96
:102F6000CDBFDF91CF911F9108958058823028F70F
:102F700020913203309133032C3DE3E03E07A1F56D
:102F800083E08A838AE289834FB7F894DE0113963F
:102F900020E03EE051E2E32FF0E050935700E4914F
:102FA00020FF03C0E295EF703F5FEF708E2F90E03F
:102FB000EA30C0F0C7968D939D932F5F243159F767
:102FC0004FBF8091E800877F8093E8006AE270E05D
:102FD000CE0101960E9432058091E8008B778093A4
:102FE000E800ABCFC096E7CF8091340390913503D2
:102FF000432F55274330510509F44AC078F5413035
:10300000510509F47AC08BE590E0E9EEF6E0423034
:10301000510509F092CF2091E800277F2093E80026
:1030200020913603309137038217930708F49C01EF
:1030300040E02115310509F065C0411163C0809160
:10304000E80082FDC9CF80912E03882329F28530C4
:1030500019F28091E80083FFF2CFBECF41325105D3
:1030600009F43CC04232510509F067CF8330910525
:1030700008F063CFFC01EE0FFF1FE954FE4F0190F3
:10308000F081E02D8C549E4FDC018C9190E01AC0B1
:10309000332721303105D1F02115310561F022307F
:1030A000310509F04ACFE6E5F7E0E4918E2F90E094
:1030B000E6E5F7E007C0E6E7F7E0E4918E2F90E061
:1030C000E6E7F7E0009709F438CFA5CFE2E6F7E0AE
:1030D000E4918E2F90E0E2E6F7E0F4CF83309105A3
:1030E00008F02BCF880F991FFC01E354FE4F01908D
:1030F000F081E02D89E090E08ECF82E190E0E4E481
:10310000F7E089CF80912E03882309F465CF8530BD
:1031100009F462CF8091E80083FD5ECF8091E800E2
:1031200082FD8DCF8091E80080FF83CF9091F300E6
:103130008091F2002115310519F08830910550F089
:1031400041E0089709F040E08091E8008E77809395
:10315000E8006FCF44914093F1003196215031093E
:103160000196E8CF803809F0E8CE8091E800877FAB
:103170008093E80080912F038093F10087CE811126
:10318000DCCE10913203123008F0D7CE8091E800E7
:10319000877F8093E80010932F030E9480041123FF
:1031A00011F084E005C08091E30087FDFACF81E053
:1031B00080932E0342E061EC81E00E949F0442E292
:1031C00061EC84E00E949F0442E261EC82E00E9494
:1031D0009F0442E260EC83E00E949F04AECE8091A7
:1031E0003203813009F0A9CE81E0933009F080E00C
:1031F00080932D031092E9008091E800877F8093EF
:10320000E8000E94800499CE9F92AF92BF92CF9225
:10321000DF92EF92FF920F931F93CF93DF9300D033
:1032200000D0CDB7DEB77C01FC0183819481892B6E
:1032300031F08081918189238F3F09F0F0C50F9093
:103240000F900F900F90DF91CF911F910F91FF90F2
:10325000EF90DF90CF90BF90AF909F90089598012E
:1032600022513F452031310508F0CEC58FEF93E064
:103270000E94712F025167E0C62E62E0D62E88238D
:1032800039F1809140028770D1F2F7018281882361
:10329000B1F282E00F900F900F900F90DF91CF91DD
:1032A0001F910F91FF90EF90DF90CF90BF90AF9064
:1032B0009F900C945515C114F4E0DF0611F3C6017C
:1032C0000E94712F811101C001502FEFC21AD20A42
:1032D0000111F1CF1C821B82BB24B3945AE0A52EAE
:1032E00086010F5F1F4FC6010E94712F89831A82CA
:1032F000882339F29FEF980F933008F58A83B982BB
:1033000032E0C30ED11CC8010E94712F8B83882329
:1033100009F4B7CF8E010F5F1F4FF801808188231A
:10332000F9F2813009F043C091818281913049F4F2
:103330000E5F1F4F0E94280D0F5F1F4FEECF6801D9
:10334000E9CF923029F40E5F1F4F0E94730CF4CF27
:10335000933029F40E5F1F4F0E944E0BEDCF943037
:1033600019F00F5F1F4FE8CF0E5F1F4F30E020E0D6
:10337000B8016F5F7F4FF80141818053990B8A300C
:10338000910550F021503109B8F28FE99FE0019783
:10339000F1F700C00000F6CFA29EF001A39EF00D51
:1033A00011249C012E0F3F1F842F8B01E1CF0E941F
:1033B000A90DC2CF81E00E9471150E94351561CF21
:1033C00081E00E944415F9CF82E0FBCF04389FE5ED
:1033D000190709F483C008F473C00538FFE51F0717
:1033E00009F041C5882309F43EC580EE0E94730CA4
:1033F00081EE0E94730C80E10E94730C80E10E94B8
:103400004E0B81EE0E944E0B80EE0E944E0B80917F
:10341000E60191E062E189278093E601882309F4BF
:103420008DC08FE00E94BE1066E18FE00E94BE104A
:103430001AC5882369F180914F02811106C081E08D
:1034400080934F0282EE0E94730C0E94A20590931B
:103450004E0280934D028BE20E94730C04C58823B8
:10346000A1F080914F02811106C081E080934F024C
:1034700082EE0E94730C0E94A20590934E028093EC
:103480004D0281EE0E94730CE6CF81EE0E944E0B3E
:103490008BE20E944E0BE7C4882309F4E4C481EE5A
:1034A0000E94730C83EE0E94730C8FE40E94730CD5
:1034B0008FE40E944E0B83EE0E944E0B81EEE9CF0B
:1034C000882309F4D0C481EE0E94730C83EE0E941D
:1034D000730C80E50E94730C80E5EBCF882309F420
:1034E000D0CE10914C0281E0182710934C020E941C
:1034F000A20590934B0280934A0268E1112381F068
:103500008FE00E94BE1069E18FE00E94BE106AE168
:103510008FE00E94BE106BE18FE00E94BE10B1CE22
:1035200084EB0E94BE1069E184EB0E94BE106AE148
:1035300084EB0E94BE106BE184EBEFCF8FEA0E9418
:10354000BE1066E18FEA72CF82EE0E94730CC6C491
:1035500083E00E942F0B88E10E94730C88E10E9497
:103560004E0B83E00E94240BB9C482EE0E94730CC0
:1035700087E50E94280DB2C486EE0E94280D88E1DE
:10358000F8CF895AC5C482EE0E944E0BD9C48CE292
:103590000E94280D8091E801882309F4D1C489E3B1
:1035A0000E94280DCDC488E2FBCF033FFCE51F0736
:1035B00039F1A0F4083D3CE51307F1F0093D8CE535
:1035C000180751F1073D9CE5190709F0BDC426E233
:1035D00041EE61EEC7010E94450D53CE053FECE57B
:1035E0001E07B1F088F0063F2CE5120709F0ACC4C5
:1035F00027E245EE66EEEECF27E245EE65EEEACF36
:1036000026E241EE60EEE6CF27E245EE64EEE2CF41
:1036100026E241EE62EEDECF28E241E0EFCF80917C
:103620000403806106309CE5190709F48CC0809181
:103630000403886007301C4508F485C080910403AA
:10364000806281C0809104038D7F0C30FCE51F07F0
:1036500009F479C070F4809104038C600A303CE571
:10366000130709F470C008F481C0809104038E7FB1
:103670006AC080910403877F0E309CE5190709F426
:1036800062C0809104038B7F0F301C4508F45BC03F
:10369000809104038F7E57C00B3FFCE51F0709F4A0
:1036A0005DC030F503313CE5130709F46DC078F4D3
:1036B00001319CE5190709F463C002311C4509F08A
:1036C0007EC40E942816809104038F773CC0053188
:1036D000FCE51F0709F460C008F474C0809105037D
:1036E00081600A3F1C4509F06AC48093050367C4E2
:1036F0000F3F8CE5180709F44BC088F4809105034F
:103700008D7F0D3FECE51E0781F3809105038E7FD1
:103710000E3F1C4550F3809105038360E6CF0130D6
:103720002DE5120709F457C008F442C060E00230EA
:103730001D4509F044C48EE090E00E94852F3FC4EF
:103740008091040381608093040339C48091040351
:103750008260F9CF809104038460F5CF80910503E6
:103760008260C3CF809104038064EDCF0E9428164D
:10377000809104038068E7CF809104038F7DE3CFBD
:10378000809104038F7BDFCF80910403837FDBCFA5
:10379000809105038C7FA9CF8091040382FB992738
:1037A00090F921E0922790FB82F990FB83F9CBCF2F
:1037B00080910503982F909591708E7F892B90FBB7
:1037C00081F993CF0E94281690910403892F97FBCB
:1037D00087F98058B8CF61E0AECF882309F402C4DE
:1037E000809143028A7A91E009F490E09093E90194
:1037F000811106C089E20E94700A0E94000A41CD30
:1038000085E3F9CF85E3F3C3043CFCE51F0709F426
:1038100093C046EF53E16FEF73E1053C2CE51207CF
:1038200009F00AC40E9425062CCD093C3CE513078B
:1038300009F491C070F4073CECE51E0709F486C05A
:103840004AEE53E16EED73E1083CFCE51F0751F3CE
:10385000F3C30A3C2CE5120709F482C048E054E1A6
:1038600069E174E10B3C3CE51307E1F2E5C3013D7E
:103870008CE5180709F487C0B0F40E3CECE51E0790
:1038800009F47BC008F476C00F3C2CE5120709F45C
:1038900077C06EE089E0003D3CE5130709F0CCC33A
:1038A0000E949315EECC043D8CE5180709F471C015
:1038B00078F4023DECE51E0709F468C061E088E198
:1038C000033DFCE51F0709F0B7C30E942A14D9CCB9
:1038D000053D2CE5120709F45FC00D35100709F40A
:1038E000D0CCAAC380918E0380FF1BC08E7F8093B3
:1038F0008E0360918E0370918F038091900390915D
:1039000091030E941F13109284028FEF90E7E2E070
:1039100081509040E040E1F700C000000E94D80FC5
:10392000B0CC816080938E0361E08695CECF40E875
:1039300055E169E875E176CF49E855E160E875E160
:1039400071CF4FEF53E166EF73E16CCF4EED53E172
:103950006AEE73E167CF46EC53E162ED73E162CF4B
:1039600042ED53E166EC73E15DCF49E154E168E07B
:1039700074E158CF61E081E0A8CF65E082E090CFAC
:1039800068E086E08DCF64E18FE08ACF67E185E172
:1039900087CF62E289E184CF61E083E296CF0B3585
:1039A0009DE5190701F10C351D4509F055C38091BE
:1039B000050382FB882780F991E089270E94980EF1
:1039C0004BC30E942816FFEF24E33CE0F150204057
:1039D0003040E1F700C000000E944F0C0E94B1157A
:1039E00050CC81E0EBCF80E0E9CF82810081118172
:1039F000882369F0C8010E94E50ED82E682FC801FF
:103A00000E94D50AB8018D2D0E94D80E2BC3C80183
:103A10000E94AE0AD82EF6CF212F2F70C22E107F13
:103A200019F0C29490EFC922DD20C9F0CC2069F0D2
:103A300080E2800F883010F001110BC080914302AA
:103A4000C82AC09243020E94000A802F0E94730C71
:103A500019C080914202C82AC0924202F4CF802F3E
:103A60000E944E0BCC2071F0C09480E2800F883011
:103A700010F001113AC080914302C822C092430263
:103A80000E94000AE92DE850FF0B349720F40E94B1
:103A9000DA050E94AB0BAA20A9F08091400280FDBC
:103AA00011C0F70112828595859585950E94711543
:103AB000C7010E94041980914002859585958595DE
:103AC0000E94441560E0C7010F900F900F900F9077
:103AD000DF91CF911F910F91FF90EF90DF90CF90EA
:103AE000BF90AF909F900C945B0F80914202C822D0
:103AF000C0924202C5CF312F3F70B32E107F1032DB
:103B000019F0B29480EFB822002369F0013081F1FE
:103B1000DD20D9F1CC2091F1F701858180FF95CF8F
:103B20008F7085832BC0DD20B1F0909144028B2DE6
:103B3000892BC11003C00E94440BA4CFE1E0CE1238
:103B4000FACF2091050322FD9DCF891709F49ACF62
:103B50008093440297CFC11006C00E94FA098B2DB2
:103B60000E94390B8FCFF1E0CF1609F48BCFF5CF40
:103B7000DD2031F025E02C1508F484CF8B2DDBCF30
:103B800034E03C1508F47ECFEACFCC2041F3093372
:103B900049F4FFEF27EE33E0F15020403040E1F7E9
:103BA00000C00000802F0E944E0B6CCF812F8695A5
:103BB0008695837061F0813009F064CFC8019370FD
:103BC000D11002C090E080E00E94AE055BCFC8013A
:103BD0009370D11002C090E080E00E94C40552CFE3
:103BE000802FDD2029F00E94BC070E94DA064ACF10
:103BF0000E940107FACF812F837009F03FC0D110D6
:103C000041CF402F429546954770440F440F802F77
:103C10008F7090E0042E02C0880F991F0A94E2F77B
:103C200030E020E004FF09C02FE030E002C0220FA6
:103C3000331F4A95E2F72095309516951695137027
:103C4000123099F078F440914502509146021130BB
:103C500039F0822B932B842395230E941E0B12CFC5
:103C6000842B952B822B932BF8CF822B932B209197
:103C700045023091460282279327EFCF8695DD20BB
:103C800011F0812F8170882309F4FCCE402F4295DA
:103C900046954770440F440F802F8F7090E0042E9C
:103CA00002C0880F991F0A94E2F730E020E004FF79
:103CB00009C02FE030E002C0220F331F4A95E2F71F
:103CC00020953095169516951370123099F078F46A
:103CD0004091380350913903113039F0822B932BE6
:103CE000842395230E942D15CDCE842B952B822BDA
:103CF000932BF8CF822B932B2091380330913903EB
:103D000082279327EFCF1F70DD2029F0812F0E949B
:103D10007115802F10CF802F0E94390B812F0E94A8
:103D20004415B0CE023F09F441C060F4003F11F1E8
:103D3000013FA1F1DD2009F457C0C11086CE812FCB
:103D40008F7131C0033FB9F1043FA1F7DD2009F4C1
:103D500040C01F71812F0E9471158091050382FD63
:103D600007C0E8E01E9FC0011124836080934002D9
:103D7000812F19C0DD2069F084E08C1508F482CE13
:103D80001F7181E090E002C0880F991F1A95E2F739
:103D9000B3CF95E09C1508F475CEF2CF812F8F71CB
:103DA000DD2009F4BCCF0E9471156CCE812F8F717C
:103DB000DD20C9F3B4CF90E080E0DD2009F492CF9C
:103DC0001F7181E090E002C0880F991F1A95E2F7F9
:103DD00089CF81E00E945515F1E0FC1508F052CE24
:103DE00082E00E9455154ECECC2059F0093309F0DF
:103DF000D9CE2FEF37EE83E0215030408040E1F7FD
:103E0000CFCE812F8F718BCF00313FE5130709F49F
:103E1000D1CA01319FE51907A9F482E0CCCA61E05B
:103E2000C7010E945B0F8C01F7018281811117CAC3
:103E30000031FFE51F0709F4C3CA01312FE512075E
:103E400009F4C2CA0238EFE51E0709F425CB08F0D1
:103E5000BDCA00382FE5120709F4EBCA01383FE567
:103E6000130709F4FCCAF7018281882369F0C801AD
:103E7000815E9C45059740F46FE1600F60935002AE
:103E80008CE090E00E94852F17FF8FCBF701828195
:103E9000882309F459C00E94DA05869581708093C1
:103EA000E80190915002913029F4882319F089E3B8
:103EB0000E94280D809143028093E70110924302F3
:103EC00080915002813009F443CB882309F43CCB24
:103ED000823009F44ACB843009F44ECB8FE39CE95D
:103EE0000197F1F700C000005801E894B7F84CE0E2
:103EF000C42ED12CC5010C2C02C0969587950A942E
:103F0000E2F78F7096EF980F963008F43ACB805D09
:103F10000E94A90D94E0C91AD108ECEFCE16EFEF7C
:103F2000DE0641F780915002813009F430CB8823BE
:103F300009F429CB823009F426CB843009F433CB41
:103F40008091E70180934302F7018281882309F47D
:103F500046C0109295030230FCE51F0708F44AC0E2
:103F600006312CE5120738F098012A5F3C452930CC
:103F7000310508F03FC00E94B40F90930503809371
:103F8000040300313CE5130709F4F6CB08F084CBB9
:103F900008309CE5190709F4E5CB08F053CB043051
:103FA000FCE51F0709F4D6CB08F039CB02303CE51D
:103FB000130709F4C5CB03301C4509F4C7CB609146
:103FC00004031091050384E090E00E94852F612F87
:103FD00082E290E00E94852F0E94281652C9063185
:103FE0001C45D1F58091E90181110CCC89E20E9438
:103FF000450A03CC06312CE5120709F4EECB80917B
:10400000430282720C3C9CE5190709F4AECC08F01F
:104010002ECC063CFCE51F0709F493CC08F005CC38
:10402000033C3CE5130709F482CC08F0EDCB023CDD
:10403000ECE51E0709F456CC0A35FDE51F0709F427
:10404000D0CC08F0ACCC01153CE5130709F4B9CC91
:104050000E3D1C4509F4C2CCF7018681978100977B
:1040600009F4C3CC0E9472088C01F701D280C5808C
:10407000C2943FE0C322809140028770A1F0AD2C32
:10408000DD2091F0812F807F803421F080E2800F4D
:10409000883048F082E00E94551580914002877078
:1040A000AA24A3948111A12C912E92942FE0922204
:1040B000FBE0F91508F4E6CCE92DF0E0ED52F04D07
:1040C0000C94042FCF93DF938091FB01807FA1F4A8
:1040D0008091F801882381F080913F02D091FE0108
:1040E0006091F6017091F701A091F901B091FA0188
:1040F000C62FC723D81303C0DF91CF91089590E056
:10410000109711F0CF3F19F401968770F3CF9C01FF
:1041100043E0220F331F4A95E1F7F901E150FE4FCA
:1041200041814713F1CF40814613EECF42814111C7
:10413000EBCF438154814A1B5B0B483C510520F770
:104140008091FB018F7080618093FB01F901EC5F2E
:10415000FD4F80818F708061808386EF91E00E94A7
:104160000419DF91CF910C94A40AAF92BF92CF9221
:10417000DF92EF92FF920F931F93CF93DF93CDB710
:10418000DEB765970FB6F894DEBF0FBECDBF8C01CA
:1041900085E0F801DE01519601900D928A95E1F7D4
:1041A000F801E28066EFA62E61E0B62E6091F9017B
:1041B0007091FA016115710509F468C19091F601D9
:1041C0004091F701892F84238F3F09F45FC120813B
:1041D0003181C380D480F090F801F601E61BF70B23
:1041E000FF2009F41DC18091FB01582F507FE83C4E
:1041F000F10508F0D0C0511181C0FE2C43132BC033
:10420000921329C06091FC017091FD01F801468173
:10421000578164177507F9F4E1101DC08F70806134
:104220008093FB01C5010E9404198091FB01F801F4
:1042300085838F2D65960FB6F894DEBF0FBECDBF78
:10424000DF91CF911F910F91FF90EF90DF90CF9072
:10425000BF90AF900895CD2829F0822F83238F3F00
:1042600009F02FC180E0F82FF170DF2E80FF3CC0F5
:1042700080913F024091FE01841315C0298B3A8B37
:1042800089899A890E94210F292F22952F70223027
:10429000F8F0243020F59F70F9F0F8019581907FB7
:1042A000D9F4D12C1FC090E0FC0153E0EE0FFF1FAA
:1042B0005A95E1F7E150FE4F5181351306C0508108
:1042C000251303C05281E5120FC001968770D4CF29
:1042D0009F7011F0882329F3805E883010F3C801A5
:1042E0000E940419FD2CA5CFEE2009F4A2CF8091E5
:1042F000FB0181608093FB01F12C9BCF43131BC01A
:10430000921319C04091FC015091FD01F8012681E2
:1043100037814217530779F4E1100DC08583C80136
:104320000E94041988E0F801A6EFB1E001900D9217
:104330008A95E1F77ECFC8010E942D0F882339F1BD
:10434000EE2029F18091FB018032A0F02091F6014E
:104350003091F7013A8729871B86DD86CC868E87C8
:104360008091FC019091FD01988B8F87CE01099679
:104370000E94041988E0F801A6EFB1E001900D92C7
:104380008A95E1F70E946220FF24F39452CFC8017E
:104390000E940419F9CF51110AC086EF91E00E94E2
:1043A000041988E0F50111928A95E9F7A5CF431326
:1043B00018C0921316C04091FC015091FD01F80104
:1043C000268137814217530761F4E1100AC08583C3
:1043D000C8010E94041988E0F50111928A95E9F755
:1043E00028CFC8010E942D0F882389F2EE2079F290
:1043F0008091FB01803208F4BDCF2091F60130910D
:10440000F7013A8329831B82DD82CC828E838091DF
:10441000FC019091FD0198878F83CE010196A8CF72
:10442000E83CF105C0F6FE2CEE2009F4B0CF4313B2
:104430001FC092131DC02091FC013091FD01F801B5
:10444000868197812817390799F49091FB0190FD97
:1044500069CF907F09F466CF8091FB018583903FFF
:1044600009F45DCF982F907F905F8F70892B56CF86
:10447000C8010E942D0F81117DCF8091FB018160C9
:104480008093FB01C8010E940419D3CEEE2009F4E9
:104490007ECFC8010E942D0FF82E882309F477CF14
:1044A00088E0F801A6EFB1E001900D928A95E1F75E
:1044B0008091F6019091F7010E94210F0E946220E5
:1044C000B8CE81E08E25CFCECF93DF93CDB7DEB7C8
:1044D00060970FB6F894DEBF0FBECDBF29873A872D
:1044E0004B875C876D877E878F87988BCE01099677
:1044F0000E94B520811112C088E0FE013996DE01CC
:10450000119601900D928A95E1F78C859D85892BF6
:1045100029F089859A8589238F3FA9F580913F02EB
:104520009091FE0189131CC060960FB6F894DEBF0F
:104530000FBECDBFDF91CF91089593E0AA0FBB1FAF
:104540009A95E1F7A150BE4F98E0FE013196019097
:104550000D929A95E1F78093FE010E94A40ADECFA6
:10456000B8E08B9FC001112481509E4F0E94B5205E
:104570008823D1F280913F0290E0019687709927BD
:1045800080933F02CBCFA091FE01B0E0CD01019618
:104590008770992720913F022817190671F60E940B
:1045A00028161092FE0110923F0288E0E6EFF1E03B
:1045B000DF011D928A95E9F7B1CF0F931F93CF9337
:1045C000DF9380918C02E0918B02CCE081111AC0C4
:1045D000DF91CF911F910F910895D1E0DE0FD0931D
:1045E0008B020E2F10E0EC9FF0011124E357FD4FDA
:1045F00083819481892B29F08081918189238F3F48
:1046000051F4ED2F80918C02E81738F310928C0250
:1046100010928B02DDCFC09FD001C19FB00D11243D
:10462000A357BD4F16968D919C911797892B29F40E
:1046300018968D919C91019651F42081318142818F
:10464000538164817581868197810E946422C09F15
:10465000F001C19FF00D1124E357FD4F1482138226
:10466000D0CF1092F8021092F7021092420180917E
:10467000F6028093F5020E9414060C94DD222F921C
:104680003F924F925F926F927F928F929F92AF92E2
:10469000BF92CF92DF92EF92FF920F931F93CF932F
:1046A000DF93C091F502E7E0FE2E01E010E0FCE0B0
:1046B0002F2EAEEFEA2E8091F6028C1316C00E94C8
:1046C000DD22DF91CF911F910F91FF90EF90DF904E
:1046D000CF90BF90AF909F908F907F906F905F90A2
:1046E0004F903F902F900C941406D0E0FE01EE0FF7
:1046F000FF1FE351FD4F80819181F89EF001F99EEB
:10470000F00D1124E85EFE4F2481211158C0309035
:104710008C02ADE8B2E030E020E0412C5F012315CF
:1047200008F04BC01A966D907C901B97F501808025
:1047300091804FEF5FEF512CC52CD12CF601EE0F7D
:10474000FF1FE80DF91D659174916616770609F44F
:10475000A601672B11F05394EFCF4F3F5407B1F1EF
:10476000B80102C0660F771F4A95E2F7462AA801F2
:1047700002C0440F551F5A94E2F7415051094416A4
:10478000150601F5229EF001239EF00D1124E3573A
:10479000FD4FF89ED001F99EB00D1124A85EBE4FCA
:1047A00012962D913C91139737832683E082E18204
:1047B0009187808771E015967C930E94E60521968B
:1047C000C37079CF14961C921E9213972F5F3F4FA0
:1047D0001C96A5CF9F92AF92BF92CF92DF92EF929D
:1047E000FF920F931F93CF93DF9300D000D000D0A0
:1047F000CDB7DEB78E010F5F1F4F86E0F801119233
:104800008A95E9F785E7C82E81E0D82EF12CE12CB6
:10481000AA24A394B12CF60181916F018F3F09F472
:1048200049C0F894E82FE295EF70F0E021A18F7075
:10483000A50102C0440F551F8A95E2F7CA01922FC5
:10484000982B91A392A18095892382A3789400C08C
:10485000EBE7F1E030E020E0912C41914F3F09F48B
:1048600073C0A42FA295AF70B0E090968C9190E0A9
:104870004F7002C0959587954A95E2F780FD64C018
:104880008A2D022E01C0880F0A94EAF7982A2F5F1A
:104890003F4F2430310509F7F601319780818F3F72
:1048A00011F00E94180850EA5A95F1F7F801EE0D40
:1048B000FF1D90828FEFE81AF80AE6E0EE16F10489
:1048C00009F0A9CF46E050E0B80184E592E00E94EB
:1048D000642FFF24F394009709F4F12C892BB1F194
:1048E00086E0F801A4E5B2E001900D928A95E1F727
:1048F00081E0809349020E94A20590934802809330
:10490000470280914702909148020E9493050597C3
:1049100008F1809154028093670280915502809340
:1049200068028091560280936902809157028093B9
:104930006A028091580280936B02809159028093A1
:104940006C021092490206C080E0A0CF809149021B
:104950008111D7CF80914201882301F18091F70224
:104960009091F8020097D1F00E949305209189025E
:1049700030918A022817390788F49091F5028091C6
:10498000F602981709F445C00E943F2310928A024C
:10499000109289021092F8021092F70280914F0251
:1049A000882371F080914D0290914E020E949305F0
:1049B000893E934028F082EE0E944E0B10924F02E7
:1049C00080914C02882391F080914A0290914B0291
:1049D0000E949305883E934048F00E94A205909360
:1049E0004B0280934A0283E70E94280D8F2D269662
:1049F0000FB6F894DEBF0FBECDBFDF91CF911F91F0
:104A00000F91FF90EF90DF90CF90BF90AF909F906D
:104A100008950E94DD221092F8021092F7020E947F
:104A20001406BCCF2F923F924F925F926F927F926B
:104A30008F929F92AF92BF92CF92DF92EF92FF92AE
:104A40000F931F93CF93DF93CDB7DEB769970FB660
:104A5000F894DEBF0FBECDBF498B5A8B6B8B7C8B1E
:104A60008D8B6111109242021D861E861F86188A48
:104A700085E0FE017196DE01199601900D928A95EE
:104A8000E1F78C859D85892B31F089859A8589236D
:104A90008F3F09F0D4C129853A854B855C856D85AA
:104AA0007E858F8598890E946422C3C028EFC21634
:104AB0002CE5D20629F4882379F00E943123EBCF2C
:104AC00039EFC3163CE5D30639F4882329F08091E9
:104AD00042018111F2CFC3C108E111E0E12CB12CF8
:104AE000A12C88248394912C9EEF592E4424439426
:104AF000F8016081718166246A94762C20E0422F4F
:104B000050E0FA01EE0FFF1FE60FF71F8591949119
:104B1000C816D90609F43A01892B11F02F5FEFCF9F
:104B2000F12CFFEF6F167F0609F445C0F8014481B0
:104B3000F09042018F2D411180E0F82FF170FF2E8F
:104B4000F801258086819B85992309F408C1FF20FF
:104B500009F405C1211014C0A40101C0440F6A94D6
:104B6000EAF7842B86838091890290918A028E35A0
:104B7000914030F44EE551E050938A02409389020F
:104B8000C40102C0880F991F2A95E2F70197F80126
:104B900026812817190679F48091F7029091F8027E
:104BA000009709F45FC00E9493058F35914008F487
:104BB00059C0F8014482EF28FFEFAF1ABF0A095F1E
:104BC0001F4F26E0A216B10409F092CF8B858823EF
:104BD00009F420C1EE2009F41DC10E94A2059093A2
:104BE000F8028093F70280918C02883010F591E0F2
:104BF000980F90938C0298E0FE013996DE01119691
:104C000001900D929A95E1F73CE0839FC001112439
:104C100083579D4F28E0FE013196DC0101900D92F3
:104C20002A95E1F72FEF3FEFFC0131872087D386EC
:104C3000C28669960FB6F894DEBF0FBECDBFDF9176
:104C4000CF911F910F91FF90EF90DF90CF90BF9089
:104C5000AF909F908F907F906F905F904F903F901C
:104C60002F9008958091F5026090F602982FF0E061
:104C7000E0E0861114C09093F5020E171F0709F4A7
:104C80009ACF90E0FC01EE0FFF1FE351FD4FB18280
:104C9000A0820196837099278093F6028CCF282EEC
:104CA000312CF101EE0FFF1FE351FD4F20813181C7
:104CB000F7E0F29FD001F39FB00D1124A85EBE4F24
:104CC0002D913C911197398F288F712C60E070E005
:104CD000E72FF0E0EE0FFF1F288D398DE20FF31F55
:104CE0002591349121153105E1F0F8010190F08111
:104CF000E02DFF8BEE8B60E005C02417350709F42B
:104D00007F2C6F5FE62FF0E0EE0FFF1F4E895F896B
:104D1000E40FF51F459154914115510571F77F5FDF
:104D2000D7CF7720C9F0F801671708F0FD0144825A
:104D30000E171F0721F49093F502F72C3CCF981320
:104D400005C0AE17BF0711F49F5F937091012F5FED
:104D50003F4F822F83708DCFF0E0E0E0F7CF90E0FF
:104D600021101FC0B40102C0660F771F2A95E2F719
:104D70009B01215031092817390731F4442309F4E4
:104D800047C0C5010E94E605C40101C0880F6A94AE
:104D9000EAF7982F9095F801868189238683F22C73
:104DA0000ACF9C01062C02C0359527950A94E2F79C
:104DB000A90141705527BC016150710986239723D1
:104DC000892B11F5452B01F1F80182819381892B03
:104DD000C1F01B821C821D821E8259825A820E944F
:104DE000A2058160582F9D838C83F8018281938175
:104DF0008F83988729813A814B816D817E810E94C2
:104E00006422F8011582C0CFF22FF1702F2EBCCF93
:104E10002F2CBACF9091F5028091F602981731F0BD
:104E20000E943F23EE2009F436CE03CF0E94DD22FC
:104E30001092F8021092F7020E941406F3CF61E07C
:104E4000CE0109960E945B0F6C018B85F7EFCF16A0
:104E5000FCE5DF0609F02ACE882309F43DCE81E087
:104E60008093420118CE1F920F920FB60F92112419
:104E70002F933F934F935F936F937F938F939F9362
:104E8000AF93BF93CF93DF93EF93FF93D091E9005C
:104E9000DF708091EC00C82FC17080FDC0E81092D7
:104EA000E9008091F000877F8093F00078940E9461
:104EB0003D161092E9008091F00088608093F00028
:104EC000CD2BCF70C093E900FF91EF91DF91CF918F
:104ED000BF91AF919F918F917F916F915F914F9112
:104EE0003F912F910F900FBE0F901F9018951F921A
:104EF0000F920FB60F9211242F933F934F935F930E
:104F00006F937F938F939F93AF93BF93EF93FF9391
:104F10008091E10082FF09C08091E20082FF05C01C
:104F20008091E1008B7F8093E1008091DA0080FF27
:104F300024C08091D80080FF20C08091DA008E7F4D
:104F40008093DA008091D90080FF9BC080E189BD09
:104F500082E189BD09B400FEFDCF81E080932E037C
:104F600080910903811109C00E9406040E94D104A6
:104F70008091E20084608093E2008091E10080FFF4
:104F800017C08091E20080FF13C08091E2008E7F05
:104F90008093E2008091E20080618093E200809142
:104FA000D80080628093D80019BC85E080932E03DE
:104FB0008091E10084FF29C08091E20084FF25C038
:104FC00080E189BD82E189BD89B5982F917080FF0C
:104FD000FBCF8091D8008F7D8093D8008091E10035
:104FE0008F7E8093E1008091E2008F7E8093E200CB
:104FF0008091E20081608093E20080912F038823FA
:1050000009F445C084E080932E038091E10083FF82
:1050100027C08091E20083FF23C08091E100877F59
:105020008093E10082E080932E0310922F03809101
:10503000E1008E7F8093E1008091E2008E7F80937B
:10504000E2008091E20080618093E20042E060E053
:1050500080E00E949F048091F00088608093F000BF
:10506000FF91EF91BF91AF919F918F917F916F9140
:105070005F914F913F912F910F900FBE0F901F9016
:10508000189519BC10922E031092090376CF8091C7
:10509000E30087FD93E090932E03B7CF78941F929F
:1050A0001FB61F9211248F939F93AF93BF9380914C
:1050B000000390910103A0910203B09103030196B4
:1050C000A11DB11D8093000390930103A0930203DF
:1050D000B0930303BF91AF919F918F911F901FBE1B
:1050E0001F9018951F921FB61F9211248F939F93A4
:1050F000AF93BF938091FF02811113C08091000391
:1051000090910103A0910203B09103034196A11D68
:10511000B11D8093000390930103A0930203B09309
:105120000303BF91AF919F918F911F901FBE1F905E
:105130001895CDB7DEB7EE970FB6F894DEBF0FBE69
:10514000CDBF84B7877F84BF0FB6F894A8958091B0
:105150006000886180936000109260000FBE80E85C
:1051600090E00FB6F89480936100909361000FBEB9
:1051700085B7806885BF85B7806885BF86E198E080
:105180009093C5018093C4010E9406040E94D1043B
:105190008091E20084608093E200789480912E03F5
:1051A0008823A1F01091E9001F709091EC00892FE5
:1051B000817090FD80E8182B1092E9008091E80042
:1051C00083FD0E943D161F701093E90082E084BDAC
:1051D00093E095BD9AEF97BD80936E000E949B0F60
:1051E000811102C00E94890E05E711E02BE7C22E53
:1051F00021E0D22EF80181918F018F3F11F00E94A2
:105200001808C016D106B1F786EF0E94180887EF7C
:105210000E94180883E90E94180886E90E9418086D
:10522000E4E5F2E08AE592E0A7E6B2E011921D9291
:105230008E179F07D9F70E941D16811102C00E9488
:10524000B11582E090E00E94712F809360020E946D
:10525000B40F90930503809304030E94EA238FE325
:105260009CE90197F1F700C000000E94EA238091B9
:10527000670280FF08C06FEF7FEF90E080E00E9440
:10528000A32F0E944F0C83E090E00E94712F90E0CA
:105290000E941E0B80913803909139030E9489145B
:1052A000509A589A559A5D9A549A5C9A8CE090E07C
:1052B0000E94712F90E0B0E0A0E0809350029093A4
:1052C0005102A0935202B093530280915A0281116D
:1052D00033C00E941D16811104C00E94B1150E94A6
:1052E000A11588E090E00E94792F60938E0370935F
:1052F0008F0380939003909391036E7F71F40E94CB
:10530000A11588E090E00E94792F60938E0370933E
:105310008F0380939003909391030E942B06109229
:10532000840280918E0380FF04C060E086950E9415
:105330002A1481E080935A025198599A52985A9AA5
:1053400089B1869581704A9928C290E0892B809313
:105350005E028AEC92E090937C0280937B0260E094
:1053600081E20E942A1481E090E00E942D1580E0E5
:1053700091E09093FC028093FB0218E1C12ED12CA6
:1053800000E4A02E87E692E096E0B92EB80E809158
:105390002E039924939400E112E1853009F451C25F
:1053A0000E94EA23882359F08FB7F89440910003B4
:1053B0005091010360910203709103038FBFE1E6F6
:1053C000F2E0A7E6B2E010E000E0302F8D9191917D
:1053D000981709F45FC2292F282790E09924939405
:1053E000422F492109F451C29DAB3EAB892191E086
:1053F00009F490E09FAB0E94A2058160782F99AFDD
:1054000088AF4DA95EA96FA989AD0E941225F80148
:10541000EF59FD4F808198269082809184028823E5
:10542000D1F180918302E0918E03E695E81BE09331
:105430007F02823009F045C2F0E0EC51FD4FE4916B
:105440000E2F10E0BBE08B2EB3E19B2E80918002EB
:10545000882361F0109280020E94A20590937E0240
:1054600080937D0210928202109281020E94A20516
:10547000E0917D02F0917E028E1B9F0B8F3F9F4734
:1054800050F4E00FF11FF0937E02E0937D028DE770
:1054900092E0F4010995E0915E02EE0FEE0FE093C9
:1054A0005E0289B181FBEE24E0F84A9964C280E093
:1054B0008E29E82BE0935E02EF70F0E0E158FE4F9A
:1054C000808190915D02890F80935D0220E084309D
:1054D00034F180915C028F5F80935C0212E018AB24
:1054E00019AA81E08AAB0E94A2058160782F9CAB4B
:1054F0008BAB48A959A96AA98CA90E9412251BA7A0
:105500001CA61DA60E94A2058160782F9FA78EA7CA
:105510004BA55CA56DA58FA50E94122521E0809169
:105520005D028D3F2CF580915C02815080935C027E
:105530001EA21FA281E088A70E94A2058160782F89
:105540009AA789A74EA15FA168A58AA50E941225E6
:1055500019A21AA21BA20E94A2058160782F9DA306
:105560008CA349A15AA16BA18DA10E94122521E013
:1055700080915D02082E000C990B64E070E00E949F
:10558000CE2E80935D02222359F08FB7F89440917C
:1055900000035091010360910203709103038FBFD8
:1055A00086E0E4E7F2E0DE01119601900D928A9523
:1055B000E1F7909076028090770210917802009146
:1055C000790210927602109277021092780210926D
:1055D0007902892D882909F448C08091720290913E
:1055E00073020E9493059C0190916E02992309F425
:1055F000AEC323333105C8F19F3F19F09F5F9093ED
:105600006E02992059F00E949C079FEF19140CF428
:1056100091E0899F802D112480937602882059F093
:105620000E949C079FEF18140CF491E0899F802D35
:10563000112480937702309176023323B1F02091C8
:105640007702222391F045EB3403C0011124992302
:1056500009F494C19093760245EB24039001112440
:10566000332309F48FC130937702812F802B09F403
:1056700048C080917002909171020E9493059C0134
:1056800090916D02992309F45DC325363105C8F167
:105690009F3F19F09F5F90936D02112359F00E9474
:1056A0007A079FEF11160CF491E0899F802D112449
:1056B00080937802002359F00E947A079FEF10161A
:1056C0000CF491E0899F802D112480937902309110
:1056D00078023323B1F020917902222391F045EB37
:1056E0003403C0011124992309F450C19093780226
:1056F00045EB240390011124332309F44BC130936B
:1057000079028091760290917702892B90917802AC
:10571000892B90917902892B11F00E94DA0686E09C
:10572000FE013196A4E7B2E001900D928A95E1F76F
:105730000E94DA0590915F02891731F00E94DA0524
:1057400080935F020E94AB0B80912E03843009F09E
:105750001ECE83E08093E9008091E80082FF17CE9F
:105760008091E80090E085FF06C00E942504882310
:1057700009F414C191E08091E8008B778093E800F0
:10578000992309F404CEE981E150E33108F088C19E
:10579000F0E0E152F04D0C94042F92E0D7CD8091CF
:1057A0002E03843009F440C080E00E94AB0B1092BD
:1057B000840280917A02811116C090927A028091BF
:1057C0008E03982F917090935B028E7F80938E034F
:1057D0009FEFE0E7F2E09150E040F040E1F700C0D9
:1057E00000000E94D80F1092FF020FB6F894A895FF
:1057F000C09260000FBEA092600083B7817F84607A
:1058000083BF83B7816083BF7894889583B78E7F89
:1058100083BF0FB6F894A89580916000886180934B
:105820006000109260000FBE80912D03882349F024
:105830000E94EA23E7E6F2E08191811164C2BE1280
:10584000FBCF80912E03853009F4A9CF0E94281642
:105850000E94DA050E94AB0B10927A0280915B02E3
:10586000882361F080918E03816080938E0360E0D5
:1058700086950E942A140E94C20F92CD80918502C3
:105880008823C9F30E94D80FF6CF9F5F990C9430FC
:1058900009F0A6CD0F5F1F4F0630110509F095CD19
:1058A0008FEF8AAF8BAF1CAE0E94A2058160782F6C
:1058B0009EAF8DAF4AAD5BAD6CAD8EAD0E94122533
:1058C000ACCD863059F4F0E0EF51FD4FE4910E2F4E
:1058D00010E0ABEF8A2EA2E19A2EB8CD893061F4A8
:1058E000E695F0E0E252FD4FE4910E2F10E0F7E66E
:1058F0008F2EF2E19F2EAACD8F3061F4E695F0E075
:10590000E552FD4FE4910E2F10E0E9EF8E2EE1E11C
:105910009E2E9CCD853159F4F0E0E852FD4FE49184
:105920000E2F10E07BEA872E71E1972E8FCD08E2D3
:1059300010E042E2842E41E1942E883109F486CDB4
:10594000833249F4E6EDF2E00591149162EA862E85
:1059500062E1962E7BCD04EF11E059EE852E50E1E9
:10596000952E843209F472CD00ED17E03AE2832ED1
:1059700036E0932E6BCD82E090E09ACD81E080936B
:1059800076026ACE81E0809377026FCE81E08093C9
:105990007802AECE81E080937902B3CE00E210E0CF
:1059A000CE0101964C018091E80085FD0AC08091EE
:1059B000E8008B778093E8000E942504882399F300
:1059C000D9CE8091F100F40181934F01015011096A
:1059D00051F7D0CE1A8289E08B832DC08A81823024
:1059E00009F4A7C18330A9F0813009F059C02FB75D
:1059F000F8946091000370910103809102039091EB
:105A000003032FBF0E940A2F6B837C838D839E83A9
:105A100012C0809167028B83809168028C83809191
:105A200069028D8380916A028E8380916B028F83DD
:105A300080916C02888780912E03843009F0A7CC76
:105A40001091E9001F709091EC00892F817090FDFA
:105A500080E8182B82E08093E9008091E80080FFC5
:105A60000DC050E040E060E270E0CE0101960E947F
:105A700056048091E8008E778093E8001F701093A1
:105A8000E90085CC8A81823059F46B817C818D81DB
:105A90009E810E940A2F86E290E00E94852FCBCF44
:105AA0008FEF8983C8CF4C816B818A810E94B20EAF
:105AB0009827892798279E838D83BDCF8D809E80D0
:105AC0009824892498248A810B81F8E00F9F800113
:105AD000112420E3829F000D111D11248C8190E080
